:020000040000FA
:10000000200E0020E1050000376400001F060000FC
:1000100000000000000000000000000000000000E0
:100020000000000000000000000000001D6600004D
:1000300000000000000000005964000095730000FB
:10004000F3050000F3050000F30500004177000010
:10005000000000003D460000000000003964000080
:10006000F30500000000000057190000F305000030
:1000700000000000E1780000F3050000F305000037
:100080000000000000000000000000000000000070
:100090000000000000000000000000000000000060
:1000A0000000000000000000000000000000000050
:1000B0000000000000000000000000000000000040
:1000C0000000000000000000000000000000000030
:1000D0000000000000000000000000000000000020
:1000E0000000000000000000000000000000000010
:1000F0000000000000000000000000000000000000
:1001000000040300000000000000000000000000E8
:10011000FFFFFFFFFFFFFFFFFFFFFFFFFFFFFFFFEF
:020000040000FA
:1001200014010164CBE8030202FB0113DE051B206E
:10013000DF041AE0041AE1041AE2041AE3041AE4E0
:10014000041AE5041AE6041AE7041AE8041AE90492
:100150001AEA041AEB041AEC041AED041AEE041A53
:10016000EF041AF0041AF1041AF2041AF3041AF450
:10017000041AF5041AF6041AF7041AF8041AF90412
:100180001AFA041AFB041AFC041AFD041AFE041AD3
:10019000FF04135A061B205E048116010162110B35
:0801A0004902410000000000CB
:020000040000FA
:1005200000F002F800F030F80CA030C808382418A9
:100530002D18671EA246AB4654465D46AC4201D11B
:1005400000F022F87E460F3EB6460FCC012633421D
:1005500000D0FB1A3343A246AB46184780D90000AF
:10056000A0D900000023002400250026103A01D362
:1005700078C1FBD8520700D330C100D50B6070475B
:100580001FB51FBD10B510BD01F02CF91146FFF7C6
:10059000F7FF0AF007FD01F044F903B4FFF7F2FF9B
:1005A00003BC01F09BF9000070B505460C461646E9
:1005B00002E00FCC0FC5103E102EFAD2082E02D347
:1005C00003CC03C5083E042E07D301CC01C5361F5A
:1005D00003E021782970641C6D1C761EF9D270BD71
:1005E0000748804707480047FEE7FEE7FEE7FEE7CB
:1005F000FEE7FEE704480549034A054B7047000043
:100600009973000021050000200A0020200E002020
:10061000200A002070477047704770477047FEE718
:10062000583635584343514330B55C18010C130C10
:100630000D4692B25D4380B251432C190546554395
:100640000A0C09044D1962415843010C0004401979
:10065000514130BD70B5054610460C4618430ED0CA
:1006600000210846891A984127DA00210846491BCB
:10067000A04118DA2846214600F0DBFF70BD002CAF
:1006800003DA01230022DB0707E000210846491BAB
:10069000A04102DA0022D243530810461946C04650
:1006A000C0462A4627E000216842A14100F0C1FF70
:1006B000002440428C4121461AE000210846491B93
:1006C000A0410CDA214600205242984103462846B8
:1006D00000F0AFFF002440428C41214670BD002055
:1006E00052429841002103466842A14100F0A1FF17
:1006F000002452429C41234670BD034610B50B4373
:100700009B070FD1042A0DD308C810C9121FA3429A
:10071000F8D018BA21BA884201D9012010BD0020B2
:10072000C04310BD002A03D0D30703D0521C07E0FA
:10073000002010BD03780C78401C491C1B1B07D1FE
:1007400003780C78401C491C1B1B01D1921EF1D16F
:10075000184610BDF8B5042A2CD3830712D00B78A5
:10076000491C0370401C521E83070BD00B78491C98
:100770000370401C521E830704D00B78491C037081
:10078000401C521E8B079B0F05D0C91ADF00202387
:10079000DE1B08C90AE0FFF707FFF8BD1D4608C9C0
:1007A000FD401C46B4402C4310C0121F042AF5D251
:1007B000F308C91A521EF0D40B78491C0370401C70
:1007C000521EEAD40B78491C0370401C012AE4D461
:1007D00009780170F8BD01E004C0091F0429FBD2AB
:1007E0008B0701D50280801CC90700D002707047BA
:1007F00000290BD0C30702D00270401C491E0229F9
:1008000004D3830702D50280801C891EE3E70022FF
:10081000EEE70022DFE70000002203098B4273D3DA
:10082000030A8B4258D3030B8B423CD3030C8B42FD
:1008300021D312E003460B437FD4002243088B42AE
:1008400074D303098B425FD3030A8B4244D3030B57
:100850008B4228D3030C8B420DD30902FF2212BA1C
:10086000030C8B4202D31212090265D0030B8B4298
:1008700019D300E0090AC30B8B4201D3CB03C01A82
:100880005241830B8B4201D38B03C01A5241430B5D
:100890008B4201D34B03C01A5241030B8B4201D34D
:1008A0000B03C01A5241C30A8B4201D3CB02C01AB8
:1008B0005241830A8B4201D38B02C01A5241430A30
:1008C0008B4201D34B02C01A5241030A8B4201D31F
:1008D0000B02C01A5241CDD2C3098B4201D3CB01C6
:1008E000C01A524183098B4201D38B01C01A524175
:1008F00043098B4201D34B01C01A524103098B4279
:1009000001D30B01C01A5241C3088B4201D3CB0063
:10091000C01A524183088B4201D38B00C01A524146
:1009200043088B4201D34B00C01A5241411A00D2F6
:1009300001465241104670475DE0CA0F00D049425F
:10094000031000D3404253409C46002203098B42CF
:100950002DD3030A8B4212D38901FC2212BA030A57
:100960008B420CD3890192118B4208D389019211D9
:100970008B4204D389013AD0921100E08909C3095E
:100980008B4201D3CB01C01A524183098B4201D360
:100990008B01C01A524143098B4201D34B01C01A4B
:1009A000524103098B4201D30B01C01A5241C308C3
:1009B0008B4201D3CB00C01A524183088B4201D332
:1009C0008B00C01A5241D9D243088B4201D34B004D
:1009D000C01A5241411A00D20146524110466346A4
:1009E0005B1001D34042002B00D54942704763465B
:1009F0005B1000D3404201B50449002802DC491CC9
:100A0000084000E00846C046C04602BDFFFFFF7F29
:100A1000F0B50C46871A9C410D46861A9D4103D2BB
:100A2000C01BA141D21963410D0D1F0DC94EEC1B16
:100A3000AE435CD07F057F0D0026002F51D02D05E1
:100A4000AC46A943DD020123ED0A1B051D4320230B
:100A50001B1B24D41746E740381871412F46E74046
:100A6000CC199D402818314661410C0D27D16144B5
:100A70009A4013D50023401C594152000ED1400822
:100A8000400001224B005205D34207D30520400706
:100A9000C14201D5B04900E0B0493046F0BD6B001D
:100AA000002A00D001229A181F23203C1B1B01D5CD
:100AB000002302E0E540281871410C0DD7D0012435
:100AC00024050919C407CD0740084908E40F284345
:100AD0006144002CD5D00024401C61419A40D0D103
:100AE000CDE76A05520DD9D1C90FC907D5E79C4D8D
:100AF0004E00002801D0012400E0002434195F00DA
:100B0000002A01D0012600E00026BE19954FAC4214
:100B10000CD8AE420AD8B44206D001256D05EC428D
:100B2000BCD010461946F0BD9942FCD00020394691
:100B3000F0BDF0B51FB40C460F46811A9F41254603
:100B4000861A9D4106D20125ED076F40401ABC412F
:100B500052187B41210D1E0D8D1BAC467D4D8D43E2
:100B60007ED075056D0D7CD00D05AE46AC431B03E4
:100B70001B0B794D52429D41202366469B1B14D38B
:100B80001746F740381800260090744160462F46FB
:100B90000741E41900989D402818664116D4714613
:100BA00071189A4025D5012320E093182A466A41FE
:100BB0005200002B00D0521C1E23203E9B1B002BFA
:100BC00061DD3541EE1728186641E8D500187641F9
:100BD0005B1C9A4000D3401C4B05F3181524E340DE
:100BE00010D3002B52D071467118D30FC01802D306
:100BF000491C05B0F0BD0123DB079A42F9D140083A
:100C00004000F6E701225205B21801D1002853D066
:100C10000123CC0ADB029943891E002A08D1020C69
:100C200003D0020C0004103902E0024600202039F3
:100C30000023550B05D112020823550B01D1520197
:100C40000D23550C01D112011B1DD50C01D19200B1
:100C50009B1C150D01D152005B1C2025EE1A01E0F2
:100C60002CE022E00546F54015439840CA1AE107FA
:100C700069181305C918002ABBDA032040070818B1
:100C8000C10FC9070FE071466118B2E7F1074008CC
:100C90000843711071444A000CD001235B059A424D
:100CA000A7D2C90FC9070020A3E74905490D26D1DE
:100CB000002001E00028F4D100219AE7284D6600C9
:100CC000002801D0012100E0002171185F00002AF6
:100CD00001D0012600E00026BE19224FA94210D8FB
:100CE000AE420ED8B14208D001256D05E94206D0CA
:100CF0001946A802414010467BE79C4201D021469C
:100D000077E70020394674E710B50C465C4005D5FE
:100D10000124E4076340FFF70CFF10BDFFF778FEE6
:100D200010BD30B40C465C4004D50124E407634098
:100D300030BC6DE630BCFCE670B50124E4076140D0
:100D40000D465D4002D4FFF763FE70BD6340FFF7C0
:100D5000F0FE70BDFF0700000000F0FF0000F07F14
:100D60000000E0FF0000F87FF0B5F94D0C091E0906
:100D70002C402E402F468BB0A7437DD0B543FCD0EE
:100D8000002E7AD0002CFCD00D465D40ED0F25439F
:100D9000AC1BFF25AD0464190894C502440DC902BB
:100DA0002143500DDC0204430120C00701430443EA
:100DB000D2020191200C110C00958C4601042346AF
:100DC0008B430A9161460904E24D8A430991010A65
:100DD0007D4449198039097805464D4301266D182F
:100DE000F605751B6943C90C640B891C4C436418D8
:100DF000B5012C1B250C2E04B4434C434D43210C50
:100E0000691889090591009DE90701D00121C907E9
:100E100004912C4601996708CD072F434C08059D86
:100E2000E10B4D432D0C29466646754302950D4650
:100E300045432E46029D7D1BB44100950D465D4302
:100E400001942C0C2F040D465543AE462D0C3D430A
:100E5000029503947546049C2D04641B049406D2E9
:100E6000029C039D641C002675410395029401AC0D
:100E700070CC009F7D1B01E03EE162E1B4410904BA
:100E80000095079101940599A4086143090C0C464B
:100E90004443650BE7040C4666467443A646640B60
:100EA0003C43039502947446049DE4042C1B049473
:100EB00006D2029C039D641C002675410395029492
:100EC00001AC70CC009F7D1BB44101940C465C4387
:100ED0000095650FE7000C465443A646640F3C435B
:100EE000039502947446049DE4002C1B049406D2DE
:100EF000029C039D641C002675410395029401AC7D
:100F000070CC009F7D1BB441AE09AF06049DC900A3
:100F1000AD092F43049DA406AD060495079D3443F7
:100F200069180791059DE10B4D432D0C2946664636
:100F3000754302950D4645432E46029D7D1BB441E7
:100F400000950D465D4301942C0C2F040D4655432E
:100F5000AE462D0C3D43029503947546049C2D042A
:100F6000641B049406D2029C039D641C00267541F8
:100F70000395029401AC70CC009F7D1BB441019499
:100F80008C050694079C890A611800950791019CBD
:100F90000599A4086143090C0D464543680BEF040D
:100FA0000D46644665436C0B3C43049FED047D1B7A
:100FB000AC4602D20025641C6841009E019D371B8F
:100FC00085410846584301950C46460FC5005443D9
:100FD000600F28436546E4002C1B02D20025401C0C
:100FE0006E41019D3F1AB5412846BD098006284340
:100FF0008446A009BF064E020699A4067618074348
:10100000079D002068410A99079019430020099B19
:1010100000906046FF1913434041E20F64003A43D9
:10102000A4460446D71A8C41A04203D9012000905F
:1010300020463A46C70F941840416246D20F2243D9
:10104000644664000494009CBE466400D71AA4461B
:10105000044602978C417746002F01D1A04204D963
:101060006046401C8446029A2046C40FA646941847
:101070004041049A0546D20F224364466400D31AC5
:101080008D417146002901D1A84202D928461A464D
:10109000641C10430122002800D016436102002086
:1010A000079B891904465C410223002C02DB491886
:1010B00013466441089DCE0A2D145D194B05670542
:1010C000E10A2C050D1908993E43C9076940002B18
:1010D00008D0934006D30022761C5141002B01D149
:1010E000760876001C4A002D43DB154241D0AA4306
:1010F0003FD030460BB0F0BD06180D464D41174CA1
:101100007642AC411AD395181C465C41134A6D4295
:10111000A24113D3012252054C00D4420AD15C00F3
:10112000D4420BD04B4002D592021143E2E7490072
:101130004908DFE75940C90FC90718E000200849EE
:10114000D8E7054801420DD10342F7D0F2E700008D
:101150000000FF072CC500000000F07F0000E0FF4A
:101160000000F87F114859400143C012414000205F
:10117000C0E70123089A9B069A4205DC0322520726
:101180008918C90FC907B5E7052252078918074A08
:101190001143D2125140ADE770B515461C460246C8
:1011A0000B4628462146FFF7DFFD70BDFFFFFF7F9E
:1011B00030B50346CA02400D1043164D164C0A15B1
:1011C00002D02043002A06DBAA1A002A12DDD040F2
:1011D000FF2A0BDC30BD5205520D01D14000400802
:1011E000AA1A07D4D0404042FF2A01DD002030BDBA
:1011F0000028FCDD4A00002B01D0012000E0002087
:10120000101801225205D042F0D8C817C0436040E0
:1012100030BD00001E040000000000800346CA022A
:10122000400D10B510430A1504D00124E4072043F3
:10123000002A05DB0A4CA21A04D4D040FF2A00DDA4
:10124000002010BD4A00002B01D0012000E000204A
:10125000101801225205D042F2D8C817C04310BD61
:101260001E0400001F22030C02D10F22000402D032
:10127000030E03D004E00020014670470002083A44
:10128000030F01D10001121F830F01D18000921EB4
:10129000002801DB4000521E120551184205C01201
:1012A000411810467047C10FC90700D040420122C3
:1012B00092071143D6E701218907D3E710B50B1E2A
:1012C00001D0202301E0011E2BD00C0C01D1090418
:1012D000103B0C0E01D10902083B0C0F01D1090192
:1012E0001B1F8C0F01D189009B1E002901DB4900C7
:1012F0005B1E0446DC4021431C05A4182022D21AA0
:1013000090404B05C20AC90A1A430919830501D145
:10131000430818401623984002D30020521C414134
:10132000104610BDCA0FD20703D00B460021404221
:101330009941024B1A43C1E7004ABFE70000D04180
:10134000F0B58B4C0F09254689B0BD437BD01D09F4
:101350002646AE43FAD00E465E402740F60F3E4387
:10136000254071D024012142FBD0FF24AD19A404F3
:101370002D1B039501252D05DB02DB0AC9022B433A
:10138000C90A29431E010901040F130F0501214356
:101390001701880B820391432D098C46A90B1E432C
:1013A0008A039543B30B9A0396433F09BA0B940300
:1013B000A74302962E467E430497B6464E19D71988
:1013C0000C460196544305977E43371B7646BF1B58
:1013D0003601B646BE0B361900967646BC04371960
:1013E000009C01D3641C00946400002F01D00126EE
:1013F0003443029E049F754366467E4304967600FE
:1014000034196E0034190094029C019E1C19664325
:10141000751BAE46069465464519059C05956C43BB
:10142000594375460891691A0191049E014651433A
:10143000A41B0491611A009C0791E10605D0610983
:101440000122114302E072E06EE06109089D00276D
:101450002C0A2D066918049D7C412A0A2D0669185C
:10146000019D6241AC0DAD026D185441079A910D7A
:10147000920255196141029A644658435443069BAF
:10148000059A5A43121A131B9A0E9B015B187A4154
:10149000010B0005C3185141220A200644195A4184
:1014A0009A4200D2491C01204002814203D31523F5
:1014B0000226F64302E014230326F6432020C51A31
:1014C000A9401746AF40DA400A4320460399D84066
:1014D0000914731819055118039A3843D20751405B
:1014E000AC4009D00122944006D30022401C514157
:1014F000002C01D1400840001E4A934212D3012221
:1015000003989206904207DB0520400709181A4805
:101510000143C012414004E0032040070818C10FF6
:10152000C907002009B0F0BD0020F107FAE705184F
:101530000C464C4111486D42A04115D394181A46EF
:101540005A410E48644290410ED301204A004005A2
:10155000824209D35A00824206D35940C90F084A31
:10156000C90700201143DDE700200649DAE7000043
:101570000000FF07FE070000FFFFFF7F0000E0FF05
:101580000000F07F0000F87F10B501469E240002A5
:10159000CA15A307002A02D01843002A04DBA21AA6
:1015A000002A0CDDD04010BD1206120E01D1400001
:1015B0004008A21A03D4D04040420028F3DDFF22A5
:1015C00048001206904201D9002010BDC817C04340
:1015D000584010BD1F22030C02D10F2200041CD062
:1015E000030E01D10002083A030F01D10001121FBE
:1015F000830F01D18000921E002801DB4000521EA3
:10160000D2055118021251181922904004D3491CD6
:10161000002801D14908490008467047C10FC90791
:1016200000D04042012292071143D3E701218907EC
:10163000D0E7FEB5044610460D46184373D0A646C3
:101640008C460020A41A01469D4167D366460027B8
:1016500001243D46B61A9D4102D313463A46212441
:10166000654676462F04360C3E432D0CB61A9D4136
:1016700004D3150C1B042B43120410346546764624
:101680002F06360A3E432D0AB61A9D4104D3150E85
:101690001B022B4312020834654676462F07360993
:1016A0003E432D09B61A9D4104D3150F1B012B4350
:1016B0001201241D65467646AF07B6083E43AD08C5
:1016C000B61A9D4104D3950F9B002B439200A41C96
:1016D00065467646EF0776083E436D08B61A9D418B
:1016E0001AD392185B41641C16E0001876466546D2
:1016F0004941B71A9D410191009009D36046B11A42
:1017000098418E468446009801990025401C694105
:10171000DD0752082A435B08641EE6D5724663461D
:1017200003B0F0BDFFE72046284307D00020C043A8
:101730000146C046C04622462B46F1E7002001463E
:10174000F7E70000F8B5264C4E00069DA6420AD8E1
:10175000A64201D1002806D15E00A64203D8A642C7
:101760000AD1002A08D00D242404254233D029466A
:10177000002000F05EF8F8BD0C461C4311D49942DD
:1017800007D0C81A02D3EFF30080F8BDEFF3008052
:10179000F8BD801A02D3EFF30080F8BDEFF30080AC
:1017A000F8BD09242407E5008B4207D0581A02D35C
:1017B000EFF3008006E0EFF3008007E0101A03D398
:1017C000EFF30080A04303E0EFF30080A043284341
:1017D00080F30088F8BD009500F042F8F8BD0000E5
:1017E0000000E0FF754600F045F8AE46050069468A
:1017F0005346C008C000854618B020B5FEF7FAFE73
:1018000060BCB64600260027C0C5C0C5C0C5C0C55F
:10181000C0C5C0C5C0C5C0C5403D490849008D46CA
:10182000704710B50446C046C0462046FEF7B5FED8
:1018300010BDC80212D54803400F002804D0C803C9
:10184000C043012188407047EFF300800001000988
:1018500003210907084380F3008870470020704780
:1018600010B500200249029A00F008F810BD0000EF
:101870000000F87F00487047B801002010B50C4602
:101880001107090F092904D00A290AD008290CD107
:1018900004E011460820FFF7CCFF06E0510606D50C
:1018A00001E0510601D50120C007214610BDD10637
:1018B00007D501010909CC084907000E00060443B9
:1018C00009E0410F20024907000A0143200E0006EB
:1018D0001D22D14101430846E7E7000001491820D5
:1018E000ABBEFEE72600020070B58C180578401CE0
:1018F0006B075B0F01D10378401C2A1106D10278D7
:10190000401C03E00678401C0E70491C5B1EF9D198
:101910002B0705D40023521E0DD40B70491CFAE787
:101920000378401CCB1A921C03E01D780D70491CF3
:101930005B1C521EF9D5A142D8D3002070BDB0B5B2
:101940000C4605460420012109F0E0FD2846214609
:1019500008F0A0FAB0BD80B5012006F045FF0028D0
:1019600002D0012006F03AFF80BD0000B0B51E2075
:10197000D74D295E0020C4430029204605D56A8B37
:101980003C20504349420BF0B7FA682168520220CC
:10199000295EA142204605DD6881A87C40060BD463
:1019A0002C86B0BD6A8B3C20504349420BF0A4FA10
:1019B0006881A87C4006F3D52E20295E1620285E7B
:1019C000884201DAE88501466A8B3C205043CA17F9
:1019D000891851400BF06EFA04462C86B0BDC04603
:1019E000F0B581B0BA4FF98B0CB2144A012C0ADB66
:1019F000388BC00607D5788BBA8B121A3C2050431F
:101A00000BF07AFA024610203D5E6C437D20C60042
:101A10002046314614460BF06FFA60217852BC84A0
:101A20001620385EC11740184840684331460BF015
:101A300063FA0349088001B0F0BDC046FFFF000013
:101A400006040020F0B581B085204100A148425C29
:101A500041180123C95609028A1816219C4E745E4A
:101A60000621324D695E914201DC94420CDC212258
:101A7000D200835C801840780002C018404200B257
:101A8000814209DB844207DA0020A861E8616870BE
:101A9000F083EC8001B0F0BD6878411C69704000B3
:101AA00028180483C8B2042801D300206870E868AD
:101AB00000210091E9601A21695E1822AA5E80184F
:101AC00040181C21695E40181E27E95F4018460037
:101AD000174801686220484364210BF00DFA801911
:101AE000134908607A4EF15FCA1789185140114AAC
:101AF0001288511ACA178918514001290BDC009924
:101B0000A878401CA870C0B22828C2D3F483A9705A
:101B1000EC8001B0F0BD0099A970192109010BF00A
:101B2000EBF9F083EC8001B0F0BDC046B0030020BB
:101B3000140A0020100A0020F0B582B01620644A72
:101B4000145EFF21F43163484056002847D44A20F0
:101B5000614B1D5A508B012C5EDB854200D3B2E0F5
:101B6000441B5F4D2E7F6F7F3F02BE1936192E77C3
:101B7000370A6F77B6B24E27DF5BBE421CD3568C56
:101B8000761C56845E7C761C00965E74AF7F01974F
:101B9000EF7F3F02019EBF197F1CAF773F0AEF77AF
:101BA000009EF6B2322E04D10E46F33E178B374319
:101BB000178300226A772A774C229D5A2D199D524D
:101BC000A4B25E6F34195C67ACB28C427BD9002141
:101BD000995242490A88012313430B8073E04A203B
:101BE0003D4B1D5A508B002C2DD4A8426BD9421B63
:101BF0004C215C5AA4185C5292B25D6FAA185A67C5
:101C0000A2B292087D2A5ED300225A5233490A8832
:101C1000012313430B8056E0A84254D22A1A4C21C8
:101C20005C5AA4185C5292B25D6FAA185A67A2B2AD
:101C300092087D2A47D300225A5228490A88012354
:101C400013430B803FE0A8423DD22C1A244D2E7F37
:101C50006F7F3F02BE1936192E77370A6F77B6B2FB
:101C60004E27DF5BBE421CD3568C761C56845E7CAE
:101C7000761C00965E74AF7F0197EF7F3F02019E56
:101C8000BF197F1CAF773F0AEF77009EF6B2322E66
:101C900004D10E46F33E178B3743178300226A7731
:101CA0002A774C229D5A2D199D52A4B25E6F341989
:101CB0005C67ACB28C4206D90021995207490A8868
:101CC000012313430B804A21034A505202B0F0BD56
:101CD0006005002000E40000D802002096020020E9
:101CE0009C020020F0B591B055208000EF4F395C88
:101CF0003818407800024118ED48028864242046D4
:101D00000D92504302910BF0D5F883B28B2149001C
:101D1000795C8B42079413D9FF221832BA5C934244
:101D200016D9801A10900004000E02D00020C04383
:101D300010902320C000385C801A0F900A2511E013
:101D4000FF221632BA5C0025934207D8109507E0AF
:101D5000521A0F92401A1090052503E0801A109035
:101D6000881A0F90FF231A461A32B8180126815795
:101D7000D048007840B28842039304DABA569042C1
:101D80000CDC00200BE01A461C32BA5690420BDAEB
:101D9000401A0B90501A0A906D1C1CE0801A0B9090
:101DA0000E95881A0A9017E04721890079568842D3
:101DB00005DA801A0B90881A0A90AD1C0BE01A46BF
:101DC0001E32BA56541A904201DB0B9401E0401ABD
:101DD0000B900A94ED1C0E958F2045007819B6499A
:101DE0004C8CFE22511CFE3A042A07D80278437814
:101DF0001B029A18801C94420A46F3D2C8B2FF28EC
:101E0000069517D0791942008B5C8A185278120215
:101E1000D218431C5D004F5D491949780902C91960
:101E2000891A95256D00A14F7F193D5CF85C401B18
:101E3000A21A09E0785D79194978090209189520F4
:101E40004000385C00252246C3B290B2584389B2A4
:101E50000BF030F840190D9948437D21C9000891D5
:101E60000BF028F89549099008800F98C3B2109894
:101E7000C7B200209F42324600D802460E99092977
:101E800000D8064632400C924800012A27D1874BE1
:101E9000181807468237B97AFA7A12025218049251
:101EA0008221405C797809020818801A892149004A
:101EB000595C0F9AD2B2109BDBB29E1A4E4370430C
:101EC0000A21514305910BF017F8397B7A7B1202F6
:101ED0005518B978FA78120251184F1B1CE0734953
:101EE000081805468235A97AEA7A12025118822228
:101EF000805C6A78120210180490401A78431946E0
:101F000005930AF0F9FF297B6A7B12025118AA781F
:101F1000EB781B029D186E1A0499081A04907743F7
:101F2000384605990AF0E8FF281A80B2049DA9B244
:101F3000401A0B99C9B20B9148430A99C9B20A9148
:101F40000AF0DAFF0999691A09185D480591418478
:101F50000C9800282AD00E984000FC4B1818054613
:101F6000AA35A97AEA7A120252180192AA21405C93
:101F7000697809020818801A03991431595C0F9A7C
:101F8000D2B2109BDBB29F1A4F4378430A215143D0
:101F900004910AF0B1FF297B6A7B12025618A978D6
:101FA000EA78120251188D1B019922E00E98400028
:101FB000E64908180646AA36B17AF27A1202511892
:101FC000AA22805C7278120210180390401A1099AD
:101FD000CDB268430F99C9B204910AF08DFF317BED
:101FE000727B12025118B278F3781B029E18771A8E
:101FF0000399081A03907D43284604990AF07CFF50
:10200000301A80B2039DA9B2401A0B9948430A992D
:102010000AF072FF0999691A0918CE4FB984CE489F
:10202000431C059A92B29A420346C84E0E9D03D3B2
:10203000CA4B9A4201D95B1C7B847422C44B9A5AC6
:10204000323289B28A4205D20246BB32914202D96B
:10205000BC300246BA840C98002833D0680030188F
:102060000546D235A97AEA7A120252180E92D22186
:10207000405C697809020818801A45218900715C62
:102080000F9AD2B2109BDBB29F1A4F4378430A21BA
:10209000514310910AF030FF297B6A7B12025618D7
:1020A000A978EA78120251188D1B2BE000E4000099
:1020B000100A0020000400206005002066090020AE
:1020C000D8020020680030180646D236B17AF27A7B
:1020D00012025118D222805C7278120210180E90EF
:1020E000401A1099CDB268430F99C9B210910AF005
:1020F00003FF317B727B12025118B278F3781B0216
:102100009E18771A0E99081A0F907D432846109949
:102110000AF0F2FE301A80B20F9DA9B2411A0B9854
:1021200048430A990AF0E8FE29183A208C4D2954B0
:10213000080A2A463A32507008046CD02E27E85D0F
:102140002E462E36727812021018B278F3781B02DF
:102150009A1812041018109008980D9A504389B2DA
:102160000AF0A8FE1099091AE9552A220F92AB5CD1
:102170002A462A3257783F02FF1810979378D7786B
:102180003F02FF183F04109BFB180D9FC01BC01897
:102190000F9BE8540B0CB3700B0EF3700B0A7370AB
:1021A000030C9370030ED370000A5070B94F0029CE
:1021B00007D52E200021295428462E30C170817069
:1021C00041702A20285C29462A314A7812021018C8
:1021D0008A78C9780902891809040818AC4A518B11
:1021E000938B8B420AD1C2178118514001282CDBF6
:1021F0000A20484324210AF05DFE09E001282BDB78
:102200000A224243581A2421414310460AF074FE20
:10221000089940182DE02E22A95C28462E304378DC
:102220001B0259188378C6783602F3181B04591814
:102230000D9BC91AA9540A0C82700A0EC2700A0AB0
:102240004270944F0029BCD5B3E7E1200001091882
:1022500045480AF02FFE0CE05E1A242777436321DD
:10226000C9430AF049FE39188A4F3E4870430AF0C4
:1022700043FE382168543835000A6870069D791984
:10228000FE22501CFE3A042A07D80A784B781B021B
:102290009A18891C94420246F3D2C1B2FF2941D058
:1022A00079190006C00D0A5C0B185B781B029A189E
:1022B000831CCD5CC918497809024919891A13256C
:1022C0002D017E19355C3018407800024519F05C0C
:1022D000F3185B781B021818401B079E7543A21A5F
:1022E0000B2C30D392B280B25043704389B20AF0C3
:1022F000E1FD401980B21D49081A029C6043314635
:102300000AF0D8FD6108401821460AF0D3FD010407
:1023100019229204914200DC06466E205C490E525E
:1023200011B0F0BD785D79194978090209181320B8
:1023300000013A5C381840780002801800252246D7
:10234000079E0B2CCED211B0F0BDC04600E40000B9
:1023500060050020D80200207A0D00007B0F0000ED
:102360009C020020A08C000080EE360010270000A8
:10237000F0B583B0464D288BC00604D447480021F1
:10238000018103B0F0BD288B400557D40124200201
:10239000404E315C30184078000240187021695E70
:1023A000081A1021695E884250DC81204000315CAF
:1023B000301840780002411837480088884245D2DA
:1023C000364B19894F1C1F81196908181861412162
:1023D0008900725C711849780902891802914908CC
:1023E000BAB28A4213D183214900725C71184978CC
:1023F0000902891801912D21C9000AF05BFD274BC4
:102400000199884201D200271F8100201861029A99
:10241000B9B29142B5D300271F8183214900725C74
:102420007118497809028E182D21C9000AF042FD61
:10243000B04213D21948076103B0F0BDA88B698B75
:1024400081429ED302F02EF803B0F0BD13480189FB
:10245000002996D0491E018103B0F0BD698C22206D
:102460000F4A11542023D55C10462030467836029E
:1024700075196D1CD5542232090A517009490A8810
:1024800022430A80290A417002F00CF803B0F0BD23
:102490006005002000E40000100A0020B0030020C6
:1024A000780300206E030020F0B587B00446F24E9A
:1024B000308B80071FD4F648017E427E12025118ED
:1024C000827EC37E1B029A18120451180C1BB28B19
:1024D000242151438C4200DC0C460476220C827687
:1024E000220EC276220A4276E448C26D8A4200DD9C
:1024F000E4E0C165E2E0E148807B002804D06C2084
:10250000375ADF4803887EE06C20375EDD48DE49BD
:102510000D5C7D43DD48095C062078430AF0ECFC45
:102520002A18D74D2A80FF201230D749095C069718
:102530008F4205DA1004D749884210DC1E2019E0CA
:1025400017DDCE4BD87B002800D15EE1188EB78B0B
:102550001F868742059100D259E1002058E1009280
:10256000CD498842C54B069908DB6420009028803D
:1025700004E0642000902880C04B06990694308BBC
:10258000800404D4308B800601D50020187488B2F2
:102590000590B08B02905C8F188F0490BF48007834
:1025A0000390BF480188D88E411ACA178D1855402C
:1025B00005211E460AF07EFC074632210194204682
:1025C0000AF078FCBD4200DB51E1317C0129069C18
:1025D00017D1039949B2049A511ACA178918514060
:1025E00003290EDC0299019A511ACA178918514021
:1025F000814206DC6421A2480180002030740B4631
:1026000000E0009B059FA24E307E717E09020818F3
:10261000B17EF27E1202511809040D1818B244431B
:10262000642120460AF046FC2C1A3476200CB07641
:10263000200EF076200A7076002F18D02425204630
:1026400029460AF059FC8C4EB18B4D43884208DC78
:1026500000208F49C8760D76280C8876280A48769F
:102660002C46864AD06DA84203DCD56501E0834A3A
:10267000814E7420305A1021715E814219DD002F85
:102680001CD02425204629460AF036FCB18B4D4348
:10269000884208DC00207E49C8760D76280C8876B2
:1026A000280A48762C467549C86DA84206DCCD65D7
:1026B00004E0002C38DDD06D00283EDD5520800080
:1026C00071490A5C08184078000281187448028831
:1026D000642050430AF0EEFB81B20B2904D26C2037
:1026E000318B890630D44EE01E2908D80920484392
:1026F00040089B21081A318B890625D443E03229F2
:1027000006D848082321081A318B89061CD43AE0E0
:10271000462915D8C0B20A210AF0CCFB0F21081AAD
:10272000318B890610D42EE000245948C476847673
:1027300044760476D06D0028C0DC0020D065BDE76B
:102740000820318B89061ED5318B09071BD46C21DB
:10275000715A022917D11021715E7422B25A83B2C4
:10276000D2188A420FDAB28B502151438C4208DCD6
:10277000474A0023D37611760B0C93760B0A5376D7
:102780000C463E49CC656C22B35E99B2022B16DB37
:102790001023F35E7425755B80B2281898420EDB17
:1027A0000121B1523A480022C276B28B46245443EA
:1027B0000476324AD465220C8276220A4276308B25
:1027C000800602D4308B000701D5002907D0002CE9
:1027D0000DDD2A48C16D002913DD07B0F0BD2C487E
:1027E0000021C1768176417601762448C16528486A
:1027F0000021C1768176417601762048C16D00299D
:10280000EBDC0021C16507B0F0BD10461DE00120E2
:102810003D4685401E48017E427E12025118827E4E
:10282000C07E000280180004401824210AF064FBD6
:10283000451B0598784364210AF03CFB0146284675
:102840000AF05AFB0E4D28800C4B01B26D2903DCB7
:1028500064200090288090E6009019200001421E1C
:102860009142069900DC89E62880009086E6009B6C
:10287000059F069CC7E6C04660050020D8020020E0
:10288000020000205103000000E400005203000099
:102890009C020020FFFF1D0001006C0000040020CE
:1028A000100A0020F0B581B000F0FCFC1620E04ECC
:1028B000305E01280EDB308BC00600D48DE0DD4891
:1028C000418A49074AD4318B490550D5318BC90714
:1028D00060D16BE07420305A1024315F814200DDFA
:1028E000D5E0308BD44901403183D248C17E0529DF
:1028F00000D2CAE00021C176FF22E032CF4B9C1803
:1029000064789A5C920603D4328B8023134333831A
:102910003223CB4AD1542E23D1544A23C1526C23A3
:10292000F152348B01231C433483D1769176517656
:10293000117601667183416703771046323041702A
:102940002E32D17091705170BE48018819430180B8
:10295000308B02210143318301B0F0BD818FB183FF
:10296000418A042291434182318B4905AED4318B97
:10297000402291433183318BB34A0A403283318BF9
:10298000B24A0A403283318BAB4A0A403283318BE0
:10299000C9070BD06C21715E11221201A74B9A5C02
:1029A000914203DD318B012291433183318B8907C1
:1029B00026D56C21715EFF221232A04B9A5C9142A7
:1029C0001EDD817E491C8176C9B2022905D1002114
:1029D0008176308B022188433083308B000614D4FB
:1029E00005F0A2FF934F3878800620D43C6FE008B2
:1029F0007C2800D98BE0964800882218002194E0BA
:102A000000218176308B0006EAD5914803888949F8
:102A1000086EC0180866318B890517D58849087675
:102A2000020ECA76020C8A76000A487621E18448B2
:102A3000017E427E12025118827EC07E0002801802
:102A4000000440184821795A40187CE0374601219B
:102A500049027B4A147E557E2D022C19957ED67E26
:102A6000360275192D042C19844200DBF2E05B005C
:102A7000E31813761C0ED4761C0C94761C0A54763C
:102A800083423E4600DBF1E0F3E0491CC176374665
:102A90007D208000694D285C6D4E3188814208D9C7
:102AA000FF25FFF71FF9634B587E092864D00020EB
:102AB00066E06048417E09293E4600D085E1604AD3
:102AC000117E537E1B025918937ED47E2402E31894
:102AD0001B045B18FF21F631695C5B1ADC17A3430A
:102AE00013761C0C94761C0ED4761B0A5376328B0C
:102AF000120604D5026E521AD3179A430266328B1D
:102B0000520600D461E1426E511841665DE17D20BC
:102B1000C500204629460AF0CDF9C2B20421C943B6
:102B200051434543621B4A4800883A67444A137E32
:102B3000547E2402E318947ED27E120212191204EB
:102B4000D21851180818FB490876020ECA76020CF2
:102B50008A76000A4876308BC00707D1308B800711
:102B600000D486E0308B400600D482E0F248008832
:102B7000396E081838667CE02846F630EC49085C67
:102B8000C0B2318842183E46398B388BC90727D1ED
:102B9000800600D5B6E0308B400602D5586E80180E
:102BA0005866E448017E1546427E12025118827E24
:102BB0001C46C37E1B029A1812045118491BCA17DF
:102BC000914301760A0C82760A0EC276090A417692
:102BD000E06D002800DDF8E023460020E065F4E029
:102BE000800700D5CFE0305F998C884200DBD1E0D0
:102BF000D87D401CD875C0B2042800D0CCE0308B02
:102C00000221014331830020D8752846E030C84BAB
:102C100019184978185C400705D51235585D1446D7
:102C200002F05CFF2246308BC44901403183AFE0A3
:102C300060050020D8020020FFDF000000E4000053
:102C40009C02002010040020FFF70000FFEF0000AE
:102C5000100A00205B08E31813761C0ED4761C0CB7
:102C600094761C0A547683423E4602DA308B08433F
:102C700030837D218800AE4A105CAF4A14888442BC
:102C80003CD92E26AB4FB85D3D462E356A781202F0
:102C90001018AA78EB781B029A18120410180090EA
:102CA0003820385C3A4638325278120210186043A5
:102CB000C9000AF0FFF800994218BA552A23FE5CB1
:102CC00039462A314F783F02BE1900968F78CE7868
:102CD0003602F6193604009FF619201A8019934E11
:102CE000944CE054130CAB70130EEB70120A6A7024
:102CF000020C8A70020ECA70000A4870308B80067F
:102D00006ED573E0305F598C884200DBE4E0187EBA
:102D1000401C1876C0B2042800D23CE7308B012159
:102D20000143318300201876E035E84F7819417867
:102D3000795D890605D4318B144680220A4332839B
:102D4000224614464078785D400706D511200001E0
:102D5000385C1D4602F048FD2B46308B7749014018
:102D600031836C20305EB18B414324204843E049DD
:102D70000876D8651866020ECA76020C8A76000AB2
:102D8000487620461FE0186E801AC11788431866DF
:102D9000104618E00020D875186E1446801AC11726
:102DA00088431235C949495DB28B4A4324215143B6
:102DB000884200D301461966308B4006204602D572
:102DC000596E09185966FFF76FFBC848417E491CC8
:102DD000CAB20A2A00D100214176308B800605D480
:102DE000308B000702D4C148007824E0BF4908783E
:102DF00002220240CB7C1343CA7B1A431BD1BC4A3C
:102E0000137E547E2402E318947ED57E2D022C1965
:102E10002404E418CB6D9C4206DD13761C0ED47698
:102E20001C0C94761B0A53762E22895E6C22B35EAC
:102E30008B4200DDB152AD490022CA73CA746C22C4
:102E4000B25ACA85FD2202400A70308B8007C00F3B
:102E50008873A74D287E6A7E12021018AA7EEB7E28
:102E60001B029A1812041018C865E1210C012146B2
:102E70000AF042F881B2B78BB94209D938466043AB
:102E80002876010EE976010CA976000A687600E042
:102E900007462E20285C29462E314A781202101847
:102EA0008A78C978090289180904081821460AF0A5
:102EB00023F882B23421695C2B4634335B781B02E1
:102EC00059188A4200D80146322029547783080ACB
:102ED0003235687001B0F0BD308B8021884330837B
:102EE00000201876318B490602D5596E891859662B
:102EF000EB4917460A7E1D464B7E1B029A188B7EB5
:102F0000CC7E2402E3181B049A18D21BD3179A43D1
:102F10000A76130C8B76130ECB76120A4A76E96D7D
:102F2000002900DD51E7E8654FE7C0466005002055
:102F300000E400009C020020100A0020FFFD0000B9
:102F4000F0B581B055208000D44E315C3018407807
:102F500000024118CF4800886424604309F0AAFFAA
:102F60005B4901403046FE3032290AD3594909787D
:102F700049B2092905DC042901DC584800E056481B
:102F8000301801784078000247187420544D2F52B1
:102F90007D200101688B4843A98B09F08BFF410814
:102FA00088B28208F92A0CD3FF20E030315C301857
:102FB0004078C007C00D2CD0288B400528D564244C
:102FC00027E009281FD82120C000325C3018407843
:102FD0000002801840421622AA5E0024824218DABB
:102FE0001020285EB84214DDFF27E037F05DC8B23C
:102FF0000A2109F05FFF0446F01940780002C0047E
:1030000007D5012405E00A2109F054FF044600E039
:1030100063246C202C5201F00FF9FF21E031705C29
:103020001B200001285A711849780902890518D413
:103030002D490880688B98494886A88B888632205D
:103040009749085C0A4632325278120210182885D5
:103050003420085C3431497809020818A88501B089
:10306000F0BDAB214900725C7118497809028E18D5
:1030700070431C4C214609F01DFF1B490880688BDA
:103080007043214609F016FF834F7886A88B704362
:10309000214609F00FFFB8863220814F385C39464F
:1030A00032314978090208187043214609F002FFBD
:1030B00028853420385C3437797809020818704341
:1030C000214609F0F7FEA88501B0F0BD00E400003C
:1030D000FEFF000001040020530300005503000020
:1030E00060050020102700000E0A0020D8020020F2
:1030F0009C020020F0B583B0F1480288EC48C283FE
:1031000055208000ED4F395C381840780002411896
:103110006420504309F0CEFE81B28B225200BC5C89
:10312000FF22A1420FD91832BA5C914212D9811AFA
:103130000804000E01D00020C1432320C000385CE9
:10314000821A0A230CE01632BA5C0023914205D899
:10315000194604E0121B011B052301E0811AA21A83
:10316000FF252E461A36B81901240457D648007890
:1031700040B2A04204DABD57A8420ADC002009E0B0
:103180002E461C36BE57B04206DA001B361B5B1CAF
:1031900014E0401B661B11E04724A4003C57A042EA
:1031A00003DA801BA61B9B1C08E01E357D572E1BD7
:1031B000A84201DB304600E0001BDB1CD4B2CDB2DC
:1031C000A5420296019027D90A2B25D3580038181A
:1031D0000546D235AB7AEC7A2402E4180094D22367
:1031E000C05C6B781B021818001B45239B00FB5C1E
:1031F000D2B2C9B28F1A5F4378430A24544321469E
:1032000009F07AFE297B6A7B12025618A978EA78BF
:10321000120251188D1B1BE0580038180646D23692
:10322000B17AF27A12025118D222805C72781202BC
:1032300010180090401A6843214609F05DFE317B6A
:10324000727B12025118B278F3781B029E18771A1B
:103250000099081A00907D432846214609F04CFE4B
:10326000301A80B2009CA1B2411A0198C0B2484302
:103270000299C9B209F040FE20183A21D34A5054AD
:10328000010A3A325170010401D08949088403B01F
:10329000F0BDC046100A0020D802002000E4000063
:1032A0009C020020F0B583B0814FFD6EE12001014A
:1032B0002846029109F020FE7E490880C54C208BEB
:1032C0008004C00F7C49088055208000C04A115CF2
:1032D000101840780002411879480688642070432D
:1032E00009F0E8FD3B46F8871621615E228BD20685
:1032F0000DD501290BDB218B7D22D2001832114222
:1033000003D1218B6F4A0A4022830025DD6682B2F9
:103310006D4807782D2F1FD82120C000AC491C46CE
:103320000B46095C18182346AA4C40780002401846
:10333000864211D90192208B102108407422A25A92
:10334000615E914217DD002878D1208B800451D531
:10335000A819D86603B0F0BD208B80066ED5208BEF
:1033600000076BD4208B800468D50A3A3D2A50D3DD
:10337000987D401C4EE0002860D1208B800451498C
:1033800040D5A819D866228B0A402283B52189002E
:10339000E94B5A5C5918497809028D184B495A5C17
:1033A0005918497809028E18029909F0A5FD81B2D1
:1033B000B14200D80646B0B2A84200D335464448D0
:1033C000018826467D20C000002939D0ACB2444394
:1033D000204609F06FFD79B2102938DB01990929DF
:1033E00041D8434908803C480188204609F062FDE5
:1033F000404949E00020D866208B324901402183B2
:1034000003B0F0BD0020D866208B0840208303B0B5
:10341000F0BD00209875C0B20A2806D30020987528
:10342000D866208B2749014021832E2F06D3002008
:103430009875D866208B23490140218303B0F0BDE5
:103440002A49088028490880224908801BE0019900
:10345000092911D8224908801F480188204609F00F
:1034600029FD204910E0204908801B48018820469A
:1034700009F020FD1D4907E016490880164801881B
:10348000204609F017FD15490880094CA585B5832C
:10349000FFF730FE01202074E08BE086B08B608760
:1034A0000948007840B2E072208703B0F0BDC04602
:1034B000D8020020EA090020E809002000E400000A
:1034C000100A0020FFDF000000040020D2020000EC
:1034D0000E0400200E000020180A00200600002024
:1034E00010000020080000200C0000200400002034
:1034F000120000200A000020F0B581B03420334CC7
:10350000205C214634314978090209183220205CB8
:10351000224632325278120212187D2000015043A6
:1035200009F0C8FC0A30410888B28208F92A0AD397
:10353000FF20E03080490A5C08184078C007C00DC1
:1035400036D164203BE009282ED8FF22E0327A4BA6
:103550009D5C9D186E783602F60425D52120C000AA
:103560001E5C181840780002801947421620734EDE
:10357000365E0020BE4222DA7426704FBE5B009693
:1035800010276E4EF75F009EB74218DB0126370307
:10359000985C6A7812021518C8B20A2109F08AFCF0
:1035A0003D420CD030460AE00A2109F083FC06E0D7
:1035B0006248008B400501D5642000E0632036217D
:1035C00060543634000A607001B0F0BD9C020020E7
:1035D00000E4000060050020F0B52120C00056493D
:1035E0000A5C0818407800028018434216225348AB
:1035F000825E9A421DDA028B202313430383028BDF
:1036000010239A4302834E4A0023938013704D4A3D
:10361000138880241C431480428A40231A43428228
:10362000494A14881C431480028B08239A4302835E
:1036300036E0852464000D5D0C1964782402641959
:10364000A2421DDD058B2026B5430583058B102680
:103650002E4306833A4D0026AE802E70394D2E88BB
:10366000802737432F804025ED43468A2E404682EF
:10367000354E37882F403780058B0826B5430583A4
:103680009A4208DB944206DB2D4A93882F4CA342D2
:1036900001D05B1C93802A4A1278002A00D0F0BD2A
:1036A000428A530622D543239B00CC5C244B9D8841
:1036B000A5421BD3048B2025AC430483048B102527
:1036C000AC43048301241C7000249C8040239A4353
:1036D00042821C4C25888026B54325801A4C2588BB
:1036E0001D432580038B08241C4304835306D6D432
:1036F000FF230E33CB5C12498C889C42CFD3038BC3
:103700002024A3430383038B1024A34303830123B7
:103710000B7000238B8040218A4342820A4A13881F
:103720000B43138007490A8880239A430A80018B40
:1037300008220A430283F0BD00E400006005002077
:10374000B00300207802002010040020FFFF0000DA
:10375000F0B581B0F64C2268D0075ED090070FD547
:103760000220824322607E20F249085A830A102BED
:1037700006D1FE228A5692B2803105F0CDFF226832
:103780000125AE0250050BD5B2432260FA48FB4931
:10379000081880B2F7498031112205F0BDFF226878
:1037A00050003CD4AF06D0034FD4100166D4D000F3
:1037B00076D4900300D586E0500300D595E0100341
:1037C00000D5A4E0D00200D5B4E0900200D5C4E05A
:1037D000500200D5D4E0100200D5E4E0D00100D5BD
:1037E000F4E0900100D504E1500700D514E1AF03E7
:1037F000D00600D517E1900600D533E1500600D57C
:103800004FE1100600D56BE1D00500D587E19005AA
:1038100000D5A6E1324200D0C8E101B0F0BD2802D7
:10382000F4490858007841239B00C9580978F24BA5
:10383000D9709870A80782432260F048018802235B
:103840000B430380AF06D003AFD5ED480088282195
:103850000140EC48E64A105CD723034058186946FB
:103860000870E948101880B2012205F055FF206861
:10387000E64A02403A432260100198D5E448DC4908
:10388000081880B2E34949683331022205F044FF49
:1038900003208006226882433A432260D00088D504
:1038A000DD48D349081880B2DA4949681331022249
:1038B00005F032FF05208006226882433A432260E9
:1038C000900300D478E7D548C949081880B2D14997
:1038D00049686231022205F01FFF2068D04A024089
:1038E0003A432260500300D469E7CE48C049081823
:1038F00080B2C84949686431022205F00DFF206892
:10390000C94A02403A432260100300D45AE7C7482C
:10391000B749081880B2BF4949686731022205F0EB
:10392000FBFE8120C004226882433A432260D00219
:1039300000D44AE7BE48AE49081880B2B549496884
:103940006831022205F0E8FE41200005226882432A
:103950003A432260900200D43AE7B648A4490818D6
:1039600080B2AC4949686A31012205F0D5FE2120B8
:103970004005226882433A432260500200D42AE77D
:10398000AD489B49081880B2A24949686B310122B1
:1039900005F0C2FE11208005226882433A4322606E
:1039A000100200D41AE7A5489149081880B2994935
:1039B00049686C31012205F0AFFE0920C00522687C
:1039C00082433A432260D00100D40AE79C488849E8
:1039D000081880B28F4949686D31012205F09CFEBC
:1039E00005200006226882433A432260900100D4F9
:1039F000FAE694487E49081880B2864949686F31D2
:103A0000012205F089FE03204006226882433A43E2
:103A10002260500700D4EAE6042082432260AF030C
:103A2000D00600D4E7E6FE206F490A56131F032B89
:103A300002D306220A5400E0D2B228026D49095886
:103A400082486B4B181880B252B2121F92B205F026
:103A500063FE7D48F030226802403A4322609006BF
:103A600000D4CBE6FE2060490A56131F032B02D375
:103A700006220A5400E0D2B228025E49095874486E
:103A80005B4B181880B252B2121F92B205F044FE7E
:103A90006D48E030226802403A432260500600D46C
:103AA000AFE6FE2050490A56131F162B02D31922E7
:103AB0000A5400E0D2B228024E49095865484C4BDE
:103AC000181880B252B2121F92B205F025FE5E485D
:103AD000C030226802403A432260100600D493E6C8
:103AE000FE2041490A56131F162B02D319220A54ED
:103AF00000E0D2B228023F49095857483C4B1818F9
:103B000080B252B2121F92B205F006FE4E488030CB
:103B1000226802403A432260D00500D477E6FE20B6
:103B200031490A56131F062B06D309220A5404E012
:103B30000804002060050020D2B228022D4909584F
:103B400046482B4B181880B252B2121F92B205F0A1
:103B5000E3FD22683C4802403A432260900500D4CD
:103B600058E6FE2020490A56131F212B08D3242291
:103B70000A5406E060050020A65EFFFF00E4000096
:103B8000D2B228021B4909583548194B181880B27F
:103B900052B2121F92B205F0BFFD212040022268EE
:103BA00082433A432260324200D136E6FE200E497B
:103BB0000A56131F212B02D324220A5400E0D2B24A
:103BC00028020C4909580948094B181880B252B20A
:103BD000121F92B205F0A0FD1120800221688143DE
:103BE0003943216001B0F0BD60050020A65EFFFFF3
:103BF00000E4000018000020780300206E0300207D
:103C00007A02002047020000475EFFFFFFFFFEFB35
:103C1000FE5CFFFF40020020545DFFFF395EFFFFA6
:103C2000FFFFFDFB3B5EFFFFFFFFFBFB3D5EFFFF7A
:103C30003F5EFFFF415EFFFF425EFFFF435EFFFF0F
:103C4000445EFFFF455EFFFFFFBEFFFF535EFFFFC9
:103C5000555EFFFF575EFFFF6C5EFFFF815EFFFF5B
:103C6000865EFFFF80B5742005F008FD80BD80B53D
:103C7000752005F003FD80BD70B55A4A1146103914
:103C8000C34841600B78C349A02B0CD0FF2B0CD14B
:103C90001D22D20242601378FF2B00D182E0A02BBC
:103CA0003CD100233BE0002300E0FF2314460F3CFF
:103CB00044602478A02C02D0FF2C16D000E0012311
:103CC00014460E3C44602478FF2C0ED0A02C00D16A
:103CD000022314460D3C44602478FF2C05D0A02C10
:103CE00000D1032314460C3C44601D24E4022578D3
:103CF000FF2D07D044602678A02E06D0FF25FF2E8A
:103D000028D003E0FF2B4DD04FE00025661C466015
:103D10006678A02E0BD0FF2E1CD009E0FF23541C88
:103D200044605478A02C28D0FF2C39D026E00125FF
:103D3000A61C4660A678FF2E0CD0A02E00D102252E
:103D4000E61C4660E678FF2E04D0A02E00D10325A5
:103D5000261D4660FF2B05D1FF2D23D010342B46A6
:103D6000224622E0FF2D20D09D4201D2103422466F
:103D70009D4200D31D462B4617E00123941C44604E
:103D80009478FF2C0CD0A02C00D10223D41C4460CA
:103D9000D478FF2C04D0A02C00D10323141D446040
:103DA000FF2B01D1416013E010327C245C43A21848
:103DB00042608A420CD000210B4B545C45182C7297
:103DC000545C5C54491C3C29F7D15118416070BDCA
:103DD00008303C242146FCF71CFD03482146FCF733
:103DE00018FD70BD10EA00001804002070B582B004
:103DF0001D20C202664D6A601078FF280AD05078F4
:103E0000FF2809D09078FF2808D0D078FF2807D065
:103E1000042006E0002004E0012002E0022000E08F
:103E200003207521490269600B78FF2B0CD04B7879
:103E3000FF2B0FD08B78FF2B10D0CB78FF2B3ED0F1
:103E4000042300280DD13DE004283ED30020287033
:103E5000696041E00123002803D133E002230028F8
:103E600030D0984213D228706A60032809D3698839
:103E700008230B436B80298D464B994201D0491C86
:103E80002985032823D90024204602B070BD69602B
:103E9000042B06D1752005F0F1FB0020287069681D
:103EA0001AE02B70032B16D36888042202436A8021
:103EB000288D384A90420ED0401C28850BE0032301
:103EC0000028CED1042B04D3002028706A6011464C
:103ED00002E02B70696018467C2242438A18103237
:103EE000002413461E78FF2E26D1661C5B1C3B2C3B
:103EF0003446F7D317208402101980B229460831BE
:103F00003C2205F009FC01A8A0210170287869680D
:103F10000A5CFF2A27D0688800072ED4688801240D
:103F20004007B1D5742005F0A9FB688804218843B7
:103F30006880204602B070BD6A46082313700A5C90
:103F4000FF2A03D00024204602B070BD08181721B4
:103F50008902401880B26946012205F0DDFB002489
:103F6000204602B070BD0818001980B201A90122D4
:103F700005F0D2FB68880007D0D5752005F07EFBE0
:103F800068880821884368800124204602B070BDFB
:103F900094020020FFFF0000F0B587B0552080009C
:103FA000A04F395C38184078000241182A20F44AA2
:103FB000105E64220692504308F09EFF81B28B226D
:103FC0005200BC5CFF22A14210D91832BA5C914267
:103FD00013D9811A0804000E01D00020C143232008
:103FE000C000385C801A05900A230EE01632BA5CD5
:103FF0000023914206D8194605E0111B0591011BCB
:10400000052302E0811AA01A05900220DC4C2056FC
:10401000FF252E461A36BC193A460127E457A0421E
:1040200004DA9557A8420CDC00200BE02E461C3623
:104030009657B0420ADA001B0390301B04905B1CB9
:104040001AE0401B0390601B049015E04724A40075
:104050001457A04205DA801B0390A01B04909B1C00
:104060000AE01E3555572E1BA84201DB039601E0DE
:10407000001B03900496DB1C0598C6B2CFB2B74272
:104080002AD90A2B28D3580010180446D234A37A10
:10409000E57A2D02EA180292D223C05C63781B02F3
:1040A0001818801A059AD2B2C9B2891A06254D434A
:1040B00068430A265643314608F01EFF217B627B87
:1040C00012025318A178E278120251182A4601937D
:1040D000CF1A0299081A1CE0580010180446D2346E
:1040E000A17AE27A12025118D222805C627812021E
:1040F0001518681A7843314608F0FEFE217B627B72
:1041000012025118A278E3781B029A180192521AEF
:10411000281A05900020C74DA865A871A880E870EE
:104120002C8C414804806C20DA49085E0290E885B6
:1041300057433846314608F0DFFE0199081A80B22D
:10414000059EB1B2411A0398C0B248430499C9B25E
:1041500008F0D2FE301880B20019470833480780B3
:104160002F840A2605962046314608F0A3FE014614
:104170007743384608F09EFE84B2AE8D30460699ED
:1041800008F098FE074605460494654330460599B5
:10419000FCF742FB08466043069C214608F08AFE75
:1041A00045196743F01BC0B2059C214608F082FE0A
:1041B00004994843214608F07DFE29188AB29E489A
:1041C0009B4C235C201840780002C018824200D823
:1041D000084682B2B5218900635C611849780902FA
:1041E000C9188A4200D30146924CA185104801802B
:1041F000A84DA983218689B202984843069908F000
:104200007BFE688380B2E1210901414309480176C0
:10421000E1650A0EC2760A0C8276090A417607B079
:10422000F0BDC04600E400006409002060090020E1
:10423000620900209C02002070B57E4CE0790028C5
:1042400003D1F248008BC00679D4207A012808D126
:10425000EE48008BC00604D54A480088A16D0818B6
:10426000A0656C20E94D2E5A642E17D1A079012843
:104270001AD1A06DE121090108F01CFEA98B4908A3
:10428000884211D9288B00070ED4288B642E0BD1BD
:104290002021084008D00120207105E00020A071F5
:1042A000298BC90600D4A065607A012802D0A07AC3
:1042B00001280FD1288B80060CD50B202056D4491D
:1042C000097849B2421A092A02DC081A0A2801DBD5
:1042D0000120607161792079012801D001291FD165
:1042E000284800882A8B92061AD5FF222E32904247
:1042F00016D3E278521CE270012927D1D1B20529E8
:1043000024D80B216156C24B1B785BB2CE1A092E02
:104310001CDC591A092919DC0020E070607101E0E9
:104320000020E070288B8006C00F6073288B000788
:10433000C00F6072288BC006C00FA07270BD012034
:104340002072B248008BC00686D48AE7D1B2052914
:10435000E8D160850020A080E070AD4E3078A0707C
:10436000207B012806D001202073A88BA0857D200A
:10437000C0002084FFF710FE3078E072D2E7C0461C
:10438000D8020020100A0020F0B581B01C46154666
:104390000E4607466020394600F056FA38880A492A
:1043A00088420ED16220314600F05AF96320294636
:1043B00000F056F96420214600F052F9002001B0C7
:1043C000F0BD012001B0F0BDCCEF0000B0B5FF2082
:1043D000F8308D4C215C2018407800024518FEF71B
:1043E00089FE8A48828B1348818F914204D2531AE6
:1043F000AB4206DD511B03E08B1AAB4201DD5119C4
:1044000081870D4AA35CA21852781202D2188BB28F
:10441000934201D982871146B5229200A35CA2186B
:1044200052781202D21889B2914200D28287B0BD6E
:1044300000E40000D8020020D2020000C11740189A
:1044400048407047B0B512480921018010236F4AD7
:10445000D45E11480188114DAC4201DB994300E064
:10446000194306236C24145F012C01DB994300E0FF
:1044700019431623D25E1823DB439A4203DB084A12
:1044800011400180B0BD012211430180B0BDC04682
:104490000C0400206005002078020020540B00006E
:1044A000FEFF0000F0B585B0FF200246E03256491D
:1044B0008B185B788A5C520611D4544A138B4024C3
:1044C0001C4314830123DC02158B254315831C0335
:1044D000158B254315835B03148B1C431483FA301F
:1044E00008564B4A127852B2824203DB474C208B6B
:1044F000000615D44B48827FC07F0002801825D06B
:10450000FB225200895C002920D04843642108F036
:10451000D1FC83B23D498A8B934215D2101A14E024
:104520003C4800210170208B3B49014021833B48DE
:104530000068E121090108F0DFFC394D2880FFF710
:1045400045FF2888A08301E00A2088832F490A8B31
:104550008025AA430A8333480024C4778477324AEB
:10456000146001239E020A8B520541D403960495E0
:1045700036226425029585542A2284543422825C92
:104580003226825506463436757801952E02B718C4
:10459000E122120157432E2687550646363674709F
:1045A00006462A36F470B47074708D8B00956A4399
:1045B000027605463235019E6E70150EC576150CD5
:1045C0008576120A42763A0E2E30C2703A0C82700C
:1045D0003A0A4270088B400601D5144804606C20EA
:1045E000029A0A52009A4A8311480280049D039E4F
:1045F00010480370088B304308830F480188294313
:10460000018005B0F0BDC04600E400006005002058
:1046100000040020E9020020FFFE00003803002013
:10462000140300209C020020400300203C030020D3
:1046300022030020DE0200200404002080B506488A
:1046400014210170002005F053F904480078002877
:1046500001D005F053FD80BD74020020A9010020A7
:10466000F0B583B00C46054672B601F041FE142643
:1046700002960298411E0291002806D00298401C22
:1046800002900298401E0290F3E7162001F0F0FD20
:1046900001F0FEFC002826D00120014605F092F929
:1046A00002960298411E0291002806D00298401CF2
:1046B00002900298401E0290F3E702200124214656
:1046C00005F080F902960298411E0291002806D05A
:1046D0000298401C02900298401E0290F3E762B6D6
:1046E000204603B0F0BD284601F0C2FD02960298B4
:1046F000411E0291002806D00298401C02900298A8
:10470000401E0290F3E701F0C3FC002826D00120F0
:10471000014605F057F902960298411E02910028C1
:1047200006D00298401C02900298401E0290F3E7C7
:1047300002200124214605F045F902960298411E07
:104740000291002806D00298401C02900298401E58
:104750000290F3E762B6204603B0F0BD502001900E
:1047600002900298411E0291002805D00298401C38
:1047700002900298401EF3E701F0BAFD172001F005
:1047800077FD01F085FC002826D00120014605F0C8
:1047900019F902960298411E0291002806D002984B
:1047A000401C02900298401E0290F3E70220012470
:1047B000214605F007F902960298411E0291002851
:1047C00006D00298401C02900298401E0290F3E727
:1047D00062B6204603B0F0BD019802900298411ED7
:1047E0000291002805D00298401C02900298401EB9
:1047F000F3E701F0A8FC05460026304601F0FCFC7A
:10480000002D1AD06F1E0BE001F09DFC2070B91B2B
:104810004842484101F0F0FC761C641CAE420CD0CA
:10482000019802900298411E02910028ECD0029853
:10483000401C02900298401EF3E701F0C0FD62B6F2
:104840000024204603B0F0BD70B582B00C4605468A
:1048500072B601F04DFD142601960198411E01919A
:10486000002806D00198401C01900198401E01903C
:10487000F3E7162001F0FCFC01F00AFC002826D02A
:104880000120014605F09EF801960198411E019114
:10489000002806D00198401C01900198401E01900C
:1048A000F3E702200125294605F08CF801960198CE
:1048B000411E0191002806D00198401C01900198EA
:1048C000401E0190F3E762B6284602B070BD28464C
:1048D00001F0CEFC01960198411E0191002806D0FE
:1048E0000198401C01900198401E0190F3E701F0EF
:1048F000CFFB002826D00120014605F063F8019681
:104900000198411E0191002806D00198401C019099
:104910000198401E0190F3E702200125294605F089
:1049200051F801960198411E0191002806D0019886
:10493000401C01900198401E0190F3E762B62846A2
:1049400002B070BD3C2001900198411E01910028E9
:1049500005D00198401C01900198401EF3E701F03A
:10496000C7FC172001F084FC01F092FB002826D040
:104970000120014605F026F801960198411E01919B
:10498000002806D00198401C01900198401E01901B
:10499000F3E702200125294605F014F80196019855
:1049A000411E0191002806D00198401C01900198F9
:1049B000401E0190F3E762B6284602B070BD502653
:1049C00001960198411E0191002806D00198401CD3
:1049D00001900198401E0190F3E701F0B4FB2070B4
:1049E0000025284601F008FC01960198411E01911E
:1049F000002806D00198401C01900198401E0190AB
:104A0000F3E701F0A0FB6070012001F0F5FB01F07D
:104A1000D6FC62B6284602B070BDF0B581B00C4637
:104A2000054672B601F064FC162001F021FC01F08D
:104A30002FFB002827D00120014604F0C3FF1425D6
:104A400000950098411E0091002806D00098401C57
:104A500000900098401E0090F3E7022001242146B8
:104A600004F0B0FF00950098411E0091002806D088
:104A70000098401C00900098401E0090F3E762B63A
:104A8000204601B0F0BD284601F0F2FB1426009646
:104A90000098411E0091002806D00098401C00900C
:104AA0000098401E0090F3E701F0F2FA002826D0AB
:104AB0000120014604F086FF00960098411E0091F7
:104AC000002806D00098401C00900098401E0090DE
:104AD000F3E702200124214604F074FF00960098B9
:104AE000411E0091002806D00098401C00900098BC
:104AF000401E0090F3E762B6204601B0F0BD00967C
:104B00000098411E0091002806D00098401C00909B
:104B10000098401E0090F3E72578284601F0A8FB96
:104B200001F0B6FA002826D00120014604F04AFF21
:104B300000960098411E0091002806D00098401C65
:104B400000900098401E0090F3E7022001242146C7
:104B500004F038FF00960098411E0091002806D00E
:104B60000098401C00900098401E0090F3E762B649
:104B7000204601B0F0BD0027F8B20019407801F0DE
:104B800077FB01F085FA00280AD17F1CF8B2854234
:104B9000F2D201F014FC62B60024204601B0F0BD50
:104BA0000120014604F00EFF00960098411E00917E
:104BB000002806D00098401C00900098401E0090ED
:104BC000F3E702200124214604F0FCFE0096009841
:104BD000411E0091002806D00098401C00900098CB
:104BE000401E0090F3E762B6204601B0F0BD000021
:104BF000F0B587B00027284E284D05E0781C311D00
:104C0000BAB28A42074615D20124E00305F000FA41
:104C100001280FD12888401C28803220009000985D
:104C2000411E00910028E9D00098401C0090009897
:104C3000401EF3E72888B0422CD905F0C9F92002BC
:104C4000214606F06FFC204605F03EFA3E20214644
:104C500005F026FA0026069605961620049003967F
:104C6000029601960E480090684605F0E1F9C820CA
:104C700005F042F9204605F033F9204605F030FAF8
:104C8000204605F0B1F9074805F08AF9204605F0FD
:104C90007BF92E8007B0F0BDE30300001204002072
:104CA00009033100FF7F000080B501464C20FFF76B
:104CB000D7FC80BD70B51C4615460E4601469120B6
:104CC000FFF7CEFC90203146FFF7CAFC952029461D
:104CD000FFF7C6FC7E202146FFF7C2FCF6200499B0
:104CE000FFF7BEFC70BD0000F0B585B0A54C207884
:104CF00002210491084320701021A3480391405ED3
:104D00000421CD43A14F3946563100230A794E790B
:104D10003602B218891C6D1D122B02D85B1C904202
:104D2000F4DA5823FB5C3E46583676783602F318A0
:104D3000984232DD8023FB5C3E4680367678360230
:104D4000F318984238DA0B7849780902CB18D11A4F
:104D5000C21A0520504308F0CFF84019C1B22420F0
:104D6000484334228A498A5C0B4634335B781B0201
:104D70009A1842432E23CA54834DAE8B7043087653
:104D8000030ECB76030C8B76030A4B76130E2E3173
:104D9000CB70130C8B702B463DE02E217C4A0020FB
:104DA0005054D0769076507610762E32D070907027
:104DB0005070754B9E8B30E0FF20E030395C381826
:104DC0004078C007C10D7048868BE1200001342275
:104DD000002908D06E498A5C0B4634335B781B028D
:104DE0009A18243806E06A498A5C0B4634335B78AB
:104DF0001B029A1842432E23CA5470430876030EAE
:104E0000CB76030C8B76030A4B76130E2E31CB70C8
:104E1000130C8B705C4B120A4A70E06526866C2579
:104E2000595BE1855B490978E172E1210C0121467A
:104E300008F040F881B2B1420AD930466043544983
:104E40000876020ECA76020C8A76000A487600E0DE
:104E500006464D484683FEF773F82E204C4E305CD4
:104E600031462E314A78120210188A78C978090220
:104E7000891809040818214608F03EF882B2342146
:104E8000715C334634335B781B0259188A420A46F8
:104E900000D8024632203254100A3346323358705A
:104EA00092B27D200001504308F004F80A30410816
:104EB00088B28208F92A0DD3FF20E030395C381817
:104EC0004078C007C00D304B02D0188B40053DD54F
:104ED00064203CE0092834D8FF22E032BB5CBB18D8
:104EE0005C782402E4042CD502932120C0003C5CB1
:104EF000381840780002001944421620224B1B5EED
:104F00000020A34220DA74231F4CE35A0193039C30
:104F10001D4B1C5F019B9C421B4B18DB0124200393
:104F20000390B85C029A5278120210180290C8B22C
:104F30000A2107F0BFFF0399029A0A4204D02046D3
:104F400002E00A2107F0B6FF0F4B00E06320362194
:104F500070543636000A7070585F11210901795C6F
:104F6000884203DC198B01220A431A83FF21123184
:104F7000795C884203DC188B04990843188305B0D8
:104F8000F0BDC046D80200206005002000E400000B
:104F90009C0200200004002080B5762004F06EFB07
:104FA00080BD80B5772004F069FB80BDF0B585B089
:104FB000FA480088810600D4EEE14104E1200001B6
:104FC000002901D5024600E00122FB4904920A8033
:104FD000FA490A8A17B2FA4DAB8C9F421DDD2B7835
:104FE0005B1C2B70DBB2032B06D300232B70AA842F
:104FF000EB8A01241C43EC82EB8C9F4212DA6B7823
:105000005B1C6B70DBB2032B0ED300236B70EA8446
:10501000EA8A01231343EB8206E000232B70EB8C1A
:105020009F42ECDB00226A700A8BD2062AD5162238
:105030008B5E9AB22C8DA3421DDDAC78641CAC70E3
:10504000E4B2032C06D30024AC702A85EC8A012636
:105050002643EE826C8DA34212DAEB785B1CEB7078
:10506000DBB2032B0ED30023EB706A85EA8A01239F
:105070001343EB8206E00024AC706C8DA342ECDBA2
:105080000022EA700A8B920662D5CE4A1288AB8D56
:105090009A421DD92B795B1C2B71DBB2032B06D3F3
:1050A00000232B71AA85EB8A01241C43EC82EB8D33
:1050B0009A4212D26B795B1C6B71DBB2032B0ED35D
:1050C00000236B71EA85EA8A01231343EB8206E031
:1050D00000232B71EB8D9A42ECD300226A711E22C1
:1050E0008A5E2B8E002B00D15B42002A13D5D41789
:1050F000161966409E420EDDAB795B1CAB71DBB2CC
:10510000032B0AD30023AB7152422A86EA8A012379
:105110001343EB8201E00022AA7160228A5ED3175A
:10512000D4185C406B8E9C4210DDEB795B1CEB71FC
:10513000DBB2032B0CD30023EB71EB8A01241C435D
:10514000EC82D313D2185A406A8601E00022EA7139
:105150003422AB569C4C247864B29C421EDD2B7AE0
:105160005B1C2B72DBB2032B06D3AC5400222A72D9
:10517000EA8A01231343EB823522AB569C4213DAB1
:105180006B7A5B1C6B72DBB2032B0FD3AC54002227
:105190006A72EA8A01231343EB8207E000222A7233
:1051A0003522AB569C42EBDB00226A720194362317
:1051B000EC56864A127852B2A2421EDDAC7A641CCA
:1051C000AC72E4B2032C06D3EA540023AB72EB8A30
:1051D00001241C43EC823723EC56A24213DAEC7A0A
:1051E000641CEC72E4B2032C0FD3EA540022EA727E
:1051F000EA8A01231343EB8207E00023AB723723D3
:10520000EC56A242EBDB0022EA727022895E542245
:10521000AB5E99420DDA2B7B5B1C2B73DBB2032B4D
:1052200009D3A95200212973E98A01220A43EA829B
:1052300001E000212973664A664909880CB2002CF6
:1052400005D4012103974026264005D106E0917937
:1052500003974026264001D05D49C979C9B2EA8941
:105260005118E9818FB2049907F024FE874208D3D0
:105270000021E981696C491C6964E98A01220A43B9
:10528000EA82A1B20291CD214900514F7A5C79188E
:10529000497809028A1803999142019C1CDD029900
:1052A00009B2002903D40123002E03D103E0BB7906
:1052B000002E00D0FB79D9B26B8A5918698289B265
:1052C00083B2994208D300216982E96C491CE964E0
:1052D000E98A01230B43EB82672189007B569C42BC
:1052E0003DDD02990CB2002C03D40121002E03D124
:1052F00003E0B979002E00D0F979C9B22F8A791864
:10530000298289B280B2814208D300212982A96C06
:10531000491CA964E98A01270F43EF82039991424E
:105320002B4F1CDD0199994219DD002C03D401217A
:10533000002E03D103E0B979002E00D0F979C9B26B
:10534000AA8A5118A98289B2814208D30020A88272
:10535000286D401C2865E88A01210143E982E88A1A
:10536000C00702D10020A86116E0029800B2002810
:1053700004D401200499002E04D104E0B8790499E2
:10538000002E00D0F879C0B2AA691418AC61124896
:1053900007F090FD844203D205B0F0BD7A020020F0
:1053A000E88A02210143E9820020A861E88A0121FC
:1053B0008843E88205B0F0BD14000020600500209D
:1053C00058030020100A00200004002014040020CC
:1053D00000E400007C020020A08C000010B5EF4922
:1053E0005948088077204202EB4CE2611078FF2890
:1053F00008D1564808803B208202E2611078FF28DD
:1054000000D18DE0104610300A80E0610278202142
:105410006254224620324378537083789370C37865
:10542000D370037913714379537183799371C3797D
:10543000D371037A1372437A5372837A9372C37A65
:10544000D372037B1373437B5373837B9373C37B4D
:10545000D373037C1374437C5374837C9374C37C35
:10546000D374037D1375437D5375837D9375C37D1D
:10547000D375037E1376437E5376837E9376C37E05
:10548000D376037F1377437F5377837F9377C37FED
:10549000D377415C4022A154014620314A78412310
:1054A000E2548A784223E254CA784323E2540A79C8
:1054B0004423E2544A794523E2548A794623E2544C
:1054C000CA794723E2540A7A4823E2544A7A4923A4
:1054D000E2548A7A4A23E254CA7A4B23E2540A7B82
:1054E0004C23E2544A7B4D23E2548A7B4E23E25400
:1054F000CA7B4F23E2540A7C5023E2544A7C512356
:10550000E2548A7C5223E254CA7C5323E2540A7D3B
:105510005423E254497D5522A1543630E06110BD38
:105520009F48E061204620303621FBF772F9352094
:105530001E212154372021540548E08560857D20B7
:105540004001E08410BDC04600EEFFFF00ECFFFF0D
:105550001027000070B582B03B2084028E4DEC61B4
:105560002078FF281DD0772040028C490880E86110
:105570000178FF2919D0762004F080F8288C88491A
:10558000884204D1E88A08210143E98209E0421CEB
:105590002A84EB8A08261E43EE828A4201D0801CB0
:1055A0002884EC617D4804802046017CFF2900D0DE
:1055B000ADE0417CFF2900D0A9E0817CFF2900D02B
:1055C000A5E0C17CFF2900D0A1E0017DFF2900D02A
:1055D0009DE0417DFF2900D099E0817DFF2900D029
:1055E00095E0C17DFF2900D091E0017EFF2900D028
:1055F0008DE0417EFF2900D089E0817EFF2900D027
:1056000085E0C17EFF2900D081E0017FFF297ED1A6
:10561000417FFF297BD1817FFF2978D1C17FFF297D
:1056200075D1014620310A78FF2A70D14A78FF2AC5
:105630006DD18A78FF2A6AD1CA78FF2A67D10A79A0
:10564000FF2A64D14A79FF2A61D18A79FF2A5ED183
:10565000CA79FF2A5BD10A7AFF2A58D14A7AFF2AEF
:1056600055D18A7AFF2A52D1CA7AFF2A4FD10A7BB2
:10567000FF2A4CD14A7BFF2A49D18A7BFF2A46D197
:10568000CA7BFF2A43D10A7CFF2A40D14A7CFF2AE9
:105690003DD18A7CFF2A3AD1CA7CFF2A37D10A7DC4
:1056A000FF2A34D14A7DFF2A31D18A7DFF2A2ED1AB
:1056B000CA7DFF2A2BD10A7EFF2A28D14A7EFF2AE3
:1056C00025D18A7EFF2A22D1CA7EFF2A1FD10A7FD6
:1056D000FF2A1CD14A7FFF2A19D18A7FFF2A16D1BF
:1056E000C97FFF2913D1014640310A78FF2A0ED124
:1056F0004A78FF2A0BD18A78FF2A08D1CA78FF2A74
:1057000005D10A79FF2A02D14979FF2911D06946CA
:1057100008220A700178FF2907D117218902401851
:1057200080B26946012203F0F7FF0024204602B050
:1057300070BD103017218C02001980B2294620312B
:10574000362203F0E9FF01A8A0210170E869017881
:10575000FF2905D1001980B201A9012203F0DCFF65
:10576000E88A00070DD4E88A01244007DED57620B8
:1057700003F084FFE88A04218843E882204602B0CF
:1057800070BD772003F07AFFE88A08218843E88219
:105790000124204602B070BD580300202E020020D4
:1057A000FFFF0000B0B5CB4D287E697E09020818C6
:1057B000A97EEA7E1202511809040818E1210C01A1
:1057C000214607F099FB83B2B4498A8B934209D9E9
:1057D00054432C76200EE876200CA876200A6876B2
:1057E0004A83B0BD4883B0BDF0B587B00446AA4D2A
:1057F0000027AF66A94E308B40060CD5308B0005D4
:1058000009D5FF221046FA30A5490856A54909785E
:1058100049B281421EDAAF48817FC07F0002401842
:1058200000D12CE1FB2149009D4A515C002900D1A7
:1058300025E16A8A042313436B824843642107F0FD
:1058400039FBB18B82B28A4201D3002000E0081AF2
:10585000A88714E105926F74308B0691924901403C
:1058600031836420001B24214143686E049007F0BB
:1058700043FB8E490880E98F069810282ADB092906
:1058800067D88F480288012700200B2A3B4600D3A7
:105890000346029303910192891A022900DC07460C
:1058A000E1200101049807F027FB024602983842E4
:1058B000039903D10198401A032808DB8148008826
:1058C00050437D21C90007F017FB0399024602925D
:1058D0007B4829E0092943D87648008801220B2813
:1058E000134600D33B46029303910190081A022805
:1058F00000DC3A46E12001010498174607F0FCFA63
:10590000024602983842039903D10198401A0328AD
:1059100008DB6948008850437D21C90007F0ECFA94
:1059200003990246029263480180B08B0A270390D4
:10593000394607F0BFFA6043394607F0BBFA0299CF
:105940004018A887059F564A0699C9B22E2927D222
:105950003AE0E1200101049807F0CEFA574905E04A
:10596000E1200101049807F0C7FA5149098848432A
:105970007D21C90007F0C0FA0290B08B0A2703907E
:10598000394607F097FA6043394607F093FA0699CB
:10599000029A8018A887059F414AC9B22E2913D3BD
:1059A000E1200101049807F0A7FA06900A2703985E
:1059B000394607F07FFA60433946059F07F07AFAC7
:1059C000374A06994018A8873F4908803846F8307A
:1059D000115C1018407800024418FDF78BFBB18B66
:1059E000A88F884205D20A1AA2422D4B07DD081B58
:1059F00004E0421AA2422A4B01DD0819A887334964
:105A00005A5C591849780902891882B28A4201D928
:105A1000A9870846B52189005A5C591849780902B6
:105A2000891882B28A4201D2A9870846E037D9197B
:105A30004978D95DC90701D1B08303E0698A04229E
:105A40000A436A827C220021A952728C4023EA52C6
:105A5000296569650122EA74A9672985E9841C4BD7
:105A6000198059809980A88569702A7328787B21CC
:105A700001402970FDF73EFB0A480078E87215489E
:105A80000021C1778177B08B2886308B1249014085
:105A9000318307B0F0BDC046D80200206005002069
:105AA00000E4000000040020FFFE0000180A0020AF
:105AB00006000020B00100200800002004000020A3
:105AC000AC0100200A000020E6090020D2020000FC
:105AD0005C0400209C020020FFF70000F0B589B0B4
:105AE0000446D54F0025BD66D44E308B40060CD5FC
:105AF000308BC00409D5FF221046FA30D049085631
:105B0000D049097849B281421EDACF48817FC07FEF
:105B10000002401800D134E2FB214900C84A515C20
:105B2000002900D12DE27A8A042313437B82484363
:105B3000642107F0BFF9B18B82B28A4201D3002001
:105B400000E0081AB8871CE205927D2006900791B4
:105B50000101708B4843B18B07F0ACF9400842213A
:105B6000039178527D74308BB849014031836420B1
:105B7000001B24214143786E07F0BEF9B887B44971
:105B800008900880FE8F079810280EDB092E1DD87C
:105B9000B04D2888012100220B280B466CD2341A04
:105BA000022C6DDD0B426ED071E0092E1AD8FC4C30
:105BB000208801210B280A4600D3AAE0331A022BC1
:105BC00000DCABE00A4200D1ABE0AEE0089881B265
:105BD00002910698C4000846214607F06BF9074673
:105BE000F7480AE0089881B202910698C400084676
:105BF000214607F05FF90746EE4805880A2104911F
:105C00002846FAF709FE0E467E4328462F460095A1
:105C1000214607F04FF9054608986843301801906F
:105C20000298049907F046F906466C43381B80B287
:105C30006424214607F03EF9704301990818019049
:105C4000D94E0298214607F035F9054600982146BD
:105C5000FAF7E2FD0846049907F02CF90799684322
:105C6000019A1018CF4A15469087059FCF4AC8B2AF
:105C70002E2800D3A3E0A4E01346341A022C91DCB2
:105C800011460B4203D1801B032808983FDB08987C
:105C900081B202910698C4000846214607F00AF92D
:105CA0000190C94807880A2104913846FAF7B4FDE3
:105CB0000D46019845433846214607F0FBF8009011
:105CC00001460298414349190191049907F0F2F8FD
:105CD000054600984443381B80B26424214607F0EF
:105CE000E9F868430199081801900298214607F0E5
:105CF000E1F8054638462146FAF78EFD0846049934
:105D000007F0D8F86843AF4D01990818A54F2E80C9
:105D10004CE02A46331A022B00DD53E729460A429B
:105D200003D1801B032808983FDB089881B20291B9
:105D30000698C4000846214607F0BCF801909F4829
:105D400007880A2104913846FAF766FD0D46019846
:105D500045433846214607F0ADF8009001460298C9
:105D6000414349190191049907F0A4F805460098A8
:105D70004443381B80B26424214607F09BF86843F3
:105D80000199081801900298214607F093F80546FA
:105D900038462146884CFAF73FFD0846049907F03B
:105DA00089F86843019908187E4F26803D46B887D8
:105DB0007D4E059F7D4A0799C8B22E2801D30898C9
:105DC000A8873846F830115C101840780002441853
:105DD000FDF790F9B18BAB8F8B4205D2C81AA04268
:105DE000724A07DD0B1B04E0581AA0426F4A01DD1E
:105DF0000B19AB8708917548115C101840780002A8
:105E0000401899B2814201D9A8870346B520800085
:105E1000115C101840780002401899B2814201D2FA
:105E2000A8870346E037D0194078D05DC00713D16A
:105E3000B38308932F4614E0D802002060050020A9
