:020000040000FA
:10000000280E0020E10500009B6400001F06000090
:1000100000000000000000000000000000000000E0
:1000200000000000000000000000000081660000E9
:100030000000000000000000BD64000065720000C8
:10004000F3050000F3050000F30500001176000041
:10005000000000008D450000000000009D640000CD
:10006000F30500000000000057190000F305000030
:1000700000000000B1770000F3050000F305000068
:100080000000000000000000000000000000000070
:100090000000000000000000000000000000000060
:1000A0000000000000000000000000000000000050
:1000B0000000000000000000000000000000000040
:1000C0000000000000000000000000000000000030
:1000D0000000000000000000000000000000000020
:1000E0000000000000000000000000000000000010
:1000F0000000000000000000000000000000000000
:1001000001030300000000000000000000000000E8
:10011000FFFFFFFFFFFFFFFFFFFFFFFFFFFFFFFFEF
:020000040000FA
:1001200014010164CBE8030202FB0113E6051B2066
:10013000E7041AE8041AE9041AEA041AEB041AECB0
:10014000041AED041AEE041AEF041AF0041AF1046A
:100150001AF2041AF3041AF4041AF5041AF6041A2B
:10016000F7041AF8041AF9041AFA041AFB041AFC20
:10017000041AFD041AFE041AFF041112061B2001C2
:10018000041A02041A03041A04041A05041A0604C1
:100190001A07041A62041A66048116010162110B1F
:0801A0004902410000000000CB
:020000040000FA
:1005200000F002F800F030F80CA030C808382418A9
:100530002D18671EA246AB4654465D46AC4201D11B
:1005400000F022F87E460F3EB6460FCC012633421D
:1005500000D0FB1A3343A246AB46184740D80000F0
:1005600060D800000023002400250026103A01D3A3
:1005700078C1FBD8520700D330C100D50B6070475B
:100580001FB51FBD10B510BD01F02CF91146FFF7C6
:10059000F7FF0AF06BFC01F044F903B4FFF7F2FF38
:1005A00003BC01F09BF9000070B505460C461646E9
:1005B00002E00FCC0FC5103E102EFAD2082E02D347
:1005C00003CC03C5083E042E07D301CC01C5361F5A
:1005D00003E021782970641C6D1C761EF9D270BD71
:1005E0000748804707480047FEE7FEE7FEE7FEE7CB
:1005F000FEE7FEE704480549034A054B7047000043
:100600006972000021050000280A0020280E002041
:10061000280A002070477047704770477047FEE710
:10062000583635584343514330B55C18010C130C10
:100630000D4692B25D4380B251432C190546554395
:100640000A0C09044D1962415843010C0004401979
:10065000514130BD70B5054610460C4618430ED0CA
:1006600000210846891A984127DA00210846491BCB
:10067000A04118DA2846214600F0DBFF70BD002CAF
:1006800003DA01230022DB0707E000210846491BAB
:10069000A04102DA0022D243530810461946C04650
:1006A000C0462A4627E000216842A14100F0C1FF70
:1006B000002440428C4121461AE000210846491B93
:1006C000A0410CDA214600205242984103462846B8
:1006D00000F0AFFF002440428C41214670BD002055
:1006E00052429841002103466842A14100F0A1FF17
:1006F000002452429C41234670BD034610B50B4373
:100700009B070FD1042A0DD308C810C9121FA3429A
:10071000F8D018BA21BA884201D9012010BD0020B2
:10072000C04310BD002A03D0D30703D0521C07E0FA
:10073000002010BD03780C78401C491C1B1B07D1FE
:1007400003780C78401C491C1B1B01D1921EF1D16F
:10075000184610BDF8B5042A2CD3830712D00B78A5
:10076000491C0370401C521E83070BD00B78491C98
:100770000370401C521E830704D00B78491C037081
:10078000401C521E8B079B0F05D0C91ADF00202387
:10079000DE1B08C90AE0FFF707FFF8BD1D4608C9C0
:1007A000FD401C46B4402C4310C0121F042AF5D251
:1007B000F308C91A521EF0D40B78491C0370401C70
:1007C000521EEAD40B78491C0370401C012AE4D461
:1007D00009780170F8BD01E004C0091F0429FBD2AB
:1007E0008B0701D50280801CC90700D002707047BA
:1007F00000290BD0C30702D00270401C491E0229F9
:1008000004D3830702D50280801C891EE3E70022FF
:10081000EEE70022DFE70000002203098B4273D3DA
:10082000030A8B4258D3030B8B423CD3030C8B42FD
:1008300021D312E003460B437FD4002243088B42AE
:1008400074D303098B425FD3030A8B4244D3030B57
:100850008B4228D3030C8B420DD30902FF2212BA1C
:10086000030C8B4202D31212090265D0030B8B4298
:1008700019D300E0090AC30B8B4201D3CB03C01A82
:100880005241830B8B4201D38B03C01A5241430B5D
:100890008B4201D34B03C01A5241030B8B4201D34D
:1008A0000B03C01A5241C30A8B4201D3CB02C01AB8
:1008B0005241830A8B4201D38B02C01A5241430A30
:1008C0008B4201D34B02C01A5241030A8B4201D31F
:1008D0000B02C01A5241CDD2C3098B4201D3CB01C6
:1008E000C01A524183098B4201D38B01C01A524175
:1008F00043098B4201D34B01C01A524103098B4279
:1009000001D30B01C01A5241C3088B4201D3CB0063
:10091000C01A524183088B4201D38B00C01A524146
:1009200043088B4201D34B00C01A5241411A00D2F6
:1009300001465241104670475DE0CA0F00D049425F
:10094000031000D3404253409C46002203098B42CF
:100950002DD3030A8B4212D38901FC2212BA030A57
:100960008B420CD3890192118B4208D389019211D9
:100970008B4204D389013AD0921100E08909C3095E
:100980008B4201D3CB01C01A524183098B4201D360
:100990008B01C01A524143098B4201D34B01C01A4B
:1009A000524103098B4201D30B01C01A5241C308C3
:1009B0008B4201D3CB00C01A524183088B4201D332
:1009C0008B00C01A5241D9D243088B4201D34B004D
:1009D000C01A5241411A00D20146524110466346A4
:1009E0005B1001D34042002B00D54942704763465B
:1009F0005B1000D3404201B50449002802DC491CC9
:100A0000084000E00846C046C04602BDFFFFFF7F29
:100A1000F0B50C46871A9C410D46861A9D4103D2BB
:100A2000C01BA141D21963410D0D1F0DC94EEC1B16
:100A3000AE435CD07F057F0D0026002F51D02D05E1
:100A4000AC46A943DD020123ED0A1B051D4320230B
:100A50001B1B24D41746E740381871412F46E74046
:100A6000CC199D402818314661410C0D27D16144B5
:100A70009A4013D50023401C594152000ED1400822
:100A8000400001224B005205D34207D30520400706
:100A9000C14201D5B04900E0B0493046F0BD6B001D
:100AA000002A00D001229A181F23203C1B1B01D5CD
:100AB000002302E0E540281871410C0DD7D0012435
:100AC00024050919C407CD0740084908E40F284345
:100AD0006144002CD5D00024401C61419A40D0D103
:100AE000CDE76A05520DD9D1C90FC907D5E79C4D8D
:100AF0004E00002801D0012400E0002434195F00DA
:100B0000002A01D0012600E00026BE19954FAC4214
:100B10000CD8AE420AD8B44206D001256D05EC428D
:100B2000BCD010461946F0BD9942FCD00020394691
:100B3000F0BDF0B51FB40C460F46811A9F41254603
:100B4000861A9D4106D20125ED076F40401ABC412F
:100B500052187B41210D1E0D8D1BAC467D4D8D43E2
:100B60007ED075056D0D7CD00D05AE46AC431B03E4
:100B70001B0B794D52429D41202366469B1B14D38B
:100B80001746F740381800260090744160462F46FB
:100B90000741E41900989D402818664116D4714613
:100BA00071189A4025D5012320E093182A466A41FE
:100BB0005200002B00D0521C1E23203E9B1B002BFA
:100BC00061DD3541EE1728186641E8D500187641F9
:100BD0005B1C9A4000D3401C4B05F3181524E340DE
:100BE00010D3002B52D071467118D30FC01802D306
:100BF000491C05B0F0BD0123DB079A42F9D140083A
:100C00004000F6E701225205B21801D1002853D066
:100C10000123CC0ADB029943891E002A08D1020C69
:100C200003D0020C0004103902E0024600202039F3
:100C30000023550B05D112020823550B01D1520197
:100C40000D23550C01D112011B1DD50C01D19200B1
:100C50009B1C150D01D152005B1C2025EE1A01E0F2
:100C60002CE022E00546F54015439840CA1AE107FA
:100C700069181305C918002ABBDA032040070818B1
:100C8000C10FC9070FE071466118B2E7F1074008CC
:100C90000843711071444A000CD001235B059A424D
:100CA000A7D2C90FC9070020A3E74905490D26D1DE
:100CB000002001E00028F4D100219AE7284D6600C9
:100CC000002801D0012100E0002171185F00002AF6
:100CD00001D0012600E00026BE19224FA94210D8FB
:100CE000AE420ED8B14208D001256D05E94206D0CA
:100CF0001946A802414010467BE79C4201D021469C
:100D000077E70020394674E710B50C465C4005D5FE
:100D10000124E4076340FFF70CFF10BDFFF778FEE6
:100D200010BD30B40C465C4004D50124E407634098
:100D300030BC6DE630BCFCE670B50124E4076140D0
:100D40000D465D4002D4FFF763FE70BD6340FFF7C0
:100D5000F0FE70BDFF0700000000F0FF0000F07F14
:100D60000000E0FF0000F87FF0B5F94D0C091E0906
:100D70002C402E402F468BB0A7437DD0B543FCD0EE
:100D8000002E7AD0002CFCD00D465D40ED0F25439F
:100D9000AC1BFF25AD0464190894C502440DC902BB
:100DA0002143500DDC0204430120C00701430443EA
:100DB000D2020191200C110C00958C4601042346AF
:100DC0008B430A9161460904E24D8A430991010A65
:100DD0007D4449198039097805464D4301266D182F
:100DE000F605751B6943C90C640B891C4C436418D8
:100DF000B5012C1B250C2E04B4434C434D43210C50
:100E0000691889090591009DE90701D00121C907E9
:100E100004912C4601996708CD072F434C08059D86
:100E2000E10B4D432D0C29466646754302950D4650
:100E300045432E46029D7D1BB44100950D465D4302
:100E400001942C0C2F040D465543AE462D0C3D430A
:100E5000029503947546049C2D04641B049406D2E9
:100E6000029C039D641C002675410395029401AC0D
:100E700070CC009F7D1B01E03EE162E1B4410904BA
:100E80000095079101940599A4086143090C0C464B
:100E90004443650BE7040C4666467443A646640B60
:100EA0003C43039502947446049DE4042C1B049473
:100EB00006D2029C039D641C002675410395029492
:100EC00001AC70CC009F7D1BB44101940C465C4387
:100ED0000095650FE7000C465443A646640F3C435B
:100EE000039502947446049DE4002C1B049406D2DE
:100EF000029C039D641C002675410395029401AC7D
:100F000070CC009F7D1BB441AE09AF06049DC900A3
:100F1000AD092F43049DA406AD060495079D3443F7
:100F200069180791059DE10B4D432D0C2946664636
:100F3000754302950D4645432E46029D7D1BB441E7
:100F400000950D465D4301942C0C2F040D4655432E
:100F5000AE462D0C3D43029503947546049C2D042A
:100F6000641B049406D2029C039D641C00267541F8
:100F70000395029401AC70CC009F7D1BB441019499
:100F80008C050694079C890A611800950791019CBD
:100F90000599A4086143090C0D464543680BEF040D
:100FA0000D46644665436C0B3C43049FED047D1B7A
:100FB000AC4602D20025641C6841009E019D371B8F
:100FC00085410846584301950C46460FC5005443D9
:100FD000600F28436546E4002C1B02D20025401C0C
:100FE0006E41019D3F1AB5412846BD098006284340
:100FF0008446A009BF064E020699A4067618074348
:10100000079D002068410A99079019430020099B19
:1010100000906046FF1913434041E20F64003A43D9
:10102000A4460446D71A8C41A04203D9012000905F
:1010300020463A46C70F941840416246D20F2243D9
:10104000644664000494009CBE466400D71AA4461B
:10105000044602978C417746002F01D1A04204D963
:101060006046401C8446029A2046C40FA646941847
:101070004041049A0546D20F224364466400D31AC5
:101080008D417146002901D1A84202D928461A464D
:10109000641C10430122002800D016436102002086
:1010A000079B891904465C410223002C02DB491886
:1010B00013466441089DCE0A2D145D194B05670542
:1010C000E10A2C050D1908993E43C9076940002B18
:1010D00008D0934006D30022761C5141002B01D149
:1010E000760876001C4A002D43DB154241D0AA4306
:1010F0003FD030460BB0F0BD06180D464D41174CA1
:101100007642AC411AD395181C465C41134A6D4295
:10111000A24113D3012252054C00D4420AD15C00F3
:10112000D4420BD04B4002D592021143E2E7490072
:101130004908DFE75940C90FC90718E000200849EE
:10114000D8E7054801420DD10342F7D0F2E700008D
:101150000000FF07ECC300000000F07F0000E0FF8C
:101160000000F87F114859400143C012414000205F
:10117000C0E70123089A9B069A4205DC0322520726
:101180008918C90FC907B5E7052252078918074A08
:101190001143D2125140ADE770B515461C460246C8
:1011A0000B4628462146FFF7DFFD70BDFFFFFF7F9E
:1011B00030B50346CA02400D1043164D164C0A15B1
:1011C00002D02043002A06DBAA1A002A12DDD040F2
:1011D000FF2A0BDC30BD5205520D01D14000400802
:1011E000AA1A07D4D0404042FF2A01DD002030BDBA
:1011F0000028FCDD4A00002B01D0012000E0002087
:10120000101801225205D042F0D8C817C0436040E0
:1012100030BD00001E040000000000800346CA022A
:10122000400D10B510430A1504D00124E4072043F3
:10123000002A05DB0A4CA21A04D4D040FF2A00DDA4
:10124000002010BD4A00002B01D0012000E000204A
:10125000101801225205D042F2D8C817C04310BD61
:101260001E0400001F22030C02D10F22000402D032
:10127000030E03D004E00020014670470002083A44
:10128000030F01D10001121F830F01D18000921EB4
:10129000002801DB4000521E120551184205C01201
:1012A000411810467047C10FC90700D040420122C3
:1012B00092071143D6E701218907D3E710B50B1E2A
:1012C00001D0202301E0011E2BD00C0C01D1090418
:1012D000103B0C0E01D10902083B0C0F01D1090192
:1012E0001B1F8C0F01D189009B1E002901DB4900C7
:1012F0005B1E0446DC4021431C05A4182022D21AA0
:1013000090404B05C20AC90A1A430919830501D145
:10131000430818401623984002D30020521C414134
:10132000104610BDCA0FD20703D00B460021404221
:101330009941024B1A43C1E7004ABFE70000D04180
:10134000F0B58B4C0F09254689B0BD437BD01D09F4
:101350002646AE43FAD00E465E402740F60F3E4387
:10136000254071D024012142FBD0FF24AD19A404F3
:101370002D1B039501252D05DB02DB0AC9022B433A
:10138000C90A29431E010901040F130F0501214356
:101390001701880B820391432D098C46A90B1E432C
:1013A0008A039543B30B9A0396433F09BA0B940300
:1013B000A74302962E467E430497B6464E19D71988
:1013C0000C460196544305977E43371B7646BF1B58
:1013D0003601B646BE0B361900967646BC04371960
:1013E000009C01D3641C00946400002F01D00126EE
:1013F0003443029E049F754366467E4304967600FE
:1014000034196E0034190094029C019E1C19664325
:10141000751BAE46069465464519059C05956C43BB
:10142000594375460891691A0191049E014651433A
:10143000A41B0491611A009C0791E10605D0610983
:101440000122114302E072E06EE06109089D00276D
:101450002C0A2D066918049D7C412A0A2D0669185C
:10146000019D6241AC0DAD026D185441079A910D7A
:10147000920255196141029A644658435443069BAF
:10148000059A5A43121A131B9A0E9B015B187A4154
:10149000010B0005C3185141220A200644195A4184
:1014A0009A4200D2491C01204002814203D31523F5
:1014B0000226F64302E014230326F6432020C51A31
:1014C000A9401746AF40DA400A4320460399D84066
:1014D0000914731819055118039A3843D20751405B
:1014E000AC4009D00122944006D30022401C514157
:1014F000002C01D1400840001E4A934212D3012221
:1015000003989206904207DB0520400709181A4805
:101510000143C012414004E0032040070818C10FF6
:10152000C907002009B0F0BD0020F107FAE705184F
:101530000C464C4111486D42A04115D394181A46EF
:101540005A410E48644290410ED301204A004005A2
:10155000824209D35A00824206D35940C90F084A31
:10156000C90700201143DDE700200649DAE7000043
:101570000000FF07FE070000FFFFFF7F0000E0FF05
:101580000000F07F0000F87F10B501469E240002A5
:10159000CA15A307002A02D01843002A04DBA21AA6
:1015A000002A0CDDD04010BD1206120E01D1400001
:1015B0004008A21A03D4D04040420028F3DDFF22A5
:1015C00048001206904201D9002010BDC817C04340
:1015D000584010BD1F22030C02D10F2200041CD062
:1015E000030E01D10002083A030F01D10001121FBE
:1015F000830F01D18000921E002801DB4000521EA3
:10160000D2055118021251181922904004D3491CD6
:10161000002801D14908490008467047C10FC90791
:1016200000D04042012292071143D3E701218907EC
:10163000D0E7FEB5044610460D46184373D0A646C3
:101640008C460020A41A01469D4167D366460027B8
:1016500001243D46B61A9D4102D313463A46212441
:10166000654676462F04360C3E432D0CB61A9D4136
:1016700004D3150C1B042B43120410346546764624
:101680002F06360A3E432D0AB61A9D4104D3150E85
:101690001B022B4312020834654676462F07360993
:1016A0003E432D09B61A9D4104D3150F1B012B4350
:1016B0001201241D65467646AF07B6083E43AD08C5
:1016C000B61A9D4104D3950F9B002B439200A41C96
:1016D00065467646EF0776083E436D08B61A9D418B
:1016E0001AD392185B41641C16E0001876466546D2
:1016F0004941B71A9D410191009009D36046B11A42
:1017000098418E468446009801990025401C694105
:10171000DD0752082A435B08641EE6D5724663461D
:1017200003B0F0BDFFE72046284307D00020C043A8
:101730000146C046C04622462B46F1E7002001463E
:10174000F7E70000F8B5264C4E00069DA6420AD8E1
:10175000A64201D1002806D15E00A64203D8A642C7
:101760000AD1002A08D00D242404254233D029466A
:10177000002000F05EF8F8BD0C461C4311D49942DD
:1017800007D0C81A02D3EFF30080F8BDEFF3008052
:10179000F8BD801A02D3EFF30080F8BDEFF30080AC
:1017A000F8BD09242407E5008B4207D0581A02D35C
:1017B000EFF3008006E0EFF3008007E0101A03D398
:1017C000EFF30080A04303E0EFF30080A043284341
:1017D00080F30088F8BD009500F042F8F8BD0000E5
:1017E0000000E0FF754600F045F8AE46050069468A
:1017F0005346C008C000854618B020B5FEF7FAFE73
:1018000060BCB64600260027C0C5C0C5C0C5C0C55F
:10181000C0C5C0C5C0C5C0C5403D490849008D46CA
:10182000704710B50446C046C0462046FEF7B5FED8
:1018300010BDC80212D54803400F002804D0C803C9
:10184000C043012188407047EFF300800001000988
:1018500003210907084380F3008870470020704780
:1018600010B500200249029A00F008F810BD0000EF
:101870000000F87F00487047B801002010B50C4602
:101880001107090F092904D00A290AD008290CD107
:1018900004E011460820FFF7CCFF06E0510606D50C
:1018A00001E0510601D50120C007214610BDD10637
:1018B00007D501010909CC084907000E00060443B9
:1018C00009E0410F20024907000A0143200E0006EB
:1018D0001D22D14101430846E7E7000001491820D5
:1018E000ABBEFEE72600020070B58C180578401CE0
:1018F0006B075B0F01D10378401C2A1106D10278D7
:10190000401C03E00678401C0E70491C5B1EF9D198
:101910002B0705D40023521E0DD40B70491CFAE787
:101920000378401CCB1A921C03E01D780D70491CF3
:101930005B1C521EF9D5A142D8D3002070BDB0B5B2
:101940000C4605460420012109F044FD28462146A5
:1019500008F004FAB0BD80B5012006F0A7FE00280B
:1019600002D0012006F09CFE80BD0000B0B51E2014
:10197000DB4D295E0020C4430029204605D56A8B33
:101980003C20504349420BF017FA6821685202206C
:10199000295EA142204605DD6881A87C40060BD463
:1019A0002C86B0BD6A8B3C20504349420BF004FAB0
:1019B0006881A87C4006F3D52E20295E1620285E7B
:1019C000884201DAE88501466A8B3C205043CA17F9
:1019D000891851400BF0CEF904462C86B0BDC046A4
:1019E000F0B581B0BE4FF98B0CB2144A012C0ADB62
:1019F000388BC00607D5788BBA8B121A3C2050431F
:101A00000BF0DAF9024610203D5E6C437D20C600E3
:101A10002046314614460BF0CFF960217852BC8441
:101A20001620385EC11740184840684331460BF015
:101A3000C3F90349088001B0F0BDC046FFFF0000B4
:101A400016040020F0B581B085204100A548425C15
:101A500041180123C95609028A181621A04E745E46
:101A60000621324D695E914201DC94420CDC212258
:101A7000D200835C801840780002C018404200B257
:101A8000814209DB844207DA0020A861E8616870BE
:101A9000F083EC8001B0F0BD6878411C69704000B3
:101AA00028180483C8B2042801D300206870E868AD
:101AB00000210091E9601A21695E1822AA5E80184F
:101AC00040181C21695E40181E27E95F4018460037
:101AD000174801686220484364210BF06DF98019B2
:101AE000134908607E4EF15FCA1789185140114AA8
:101AF0001288511ACA178918514001290BDC009924
:101B0000A878401CA870C0B22828C2D3F483A9705A
:101B1000EC8001B0F0BD0099A970192109010BF00A
:101B20004BF9F083EC8001B0F0BDC046B00300205B
:101B30001C0A0020180A0020F0B582B01620684A5E
:101B4000145EFF210846DA30664B1856002849D447
:101B50005220654B1D5A508B012C61DB854200D30E
:101B6000B8E0441B634D2E7F6F7F3F02BE193619CC
:101B70002E77370A6F77B6B25627DF5BF431BE4255
:101B80001CD3568C761C56841E7C761C00961E74C4
:101B9000AF7F0197EF7F3F02019EBF197F1CAF7798
:101BA0003F0AEF77009EF6B2322E04D10E46F33E86
:101BB000178B3743178300226A772A7754229D5A5E
:101BC0002D199D52A4B2494E77683C197460ACB28D
:101BD0008C427FD90021995245490A880123134339
:101BE0000B8077E05220404B1D5A508B002C2FD495
:101BF000A8426FD9421B54215C5AA4185C5292B27D
:101C00003A4D6E68B2186A60A2B292087D2A61D31A
:101C100000225A5236490A88012313430B8059E0A7
:101C2000A84257D22A1A54215C5AA4185C5292B284
:101C30002E4D6E68B2186A60A2B292087D2A49D30E
:101C400000225A522A490A88012313430B8041E09B
:101C5000A8423FD22C1A274D2E7F6F7F3F02BE191C
:101C600036192E77370A6F77B6B25627DF5BF43115
:101C7000BE421CD3568C761C56841E7C761C009665
:101C80001E74AF7F0197EF7F3F02019EBF197F1C3B
:101C9000AF773F0AEF77009EF6B2322E04D10E46A0
:101CA000F33E178B3743178300226A772A77542233
:101CB0009D5A2D199D52A4B20C4E77683C19746040
:101CC000ACB28C4206D90021995209490A880123F5
:101CD00013430B805221044A505202B0F0BDC0465B
:101CE0006805002000E40000D8020020FC0300206A
:101CF000960200209C020020F0B591B05520800093
:101D0000EF4F395C3818407800024118ED480288DE
:101D1000642420460D92504302910BF02BF883B2BD
:101D20008B214900795C8B42079413D9FF2218322A
:101D3000BA5C934216D9801A10900004000E02D0AB
:101D40000020C04310902320C000385C801A0F9000
:101D50000A2511E0FF221632BA5C0025934207D80B
:101D6000109507E0521A0F92401A1090052503E0D3
:101D7000801A1090881A0F90FF231A461A32B8184A
:101D800001268157D048007840B28842039304DA94
:101D9000BA5690420CDC00200BE01A461C32BA56B0
:101DA00090420BDA401A0B90501A0A906D1C1CE0FE
:101DB000801A0B900E95881A0A9017E04721890027
:101DC0007956884205DA801A0B90881A0A90AD1C61
:101DD0000BE01A461E32BA56541A904201DB0B949D
:101DE00001E0401A0B900A94ED1C0E958F204500DF
:101DF0007819B6494C8CFE22511CFE3A042A07D8A9
:101E0000027843781B029A18801C94420A46F3D247
:101E1000C8B2FF28069517D0791942008B5C8A1842
:101E200052781202D218431C5D004F5D491949785F
:101E30000902C919891A95256D00A14F7F193D5CCA
:101E4000F85C401BA21A09E0785D7919497809020B
:101E5000091895204000385C00252246C3B290B294
:101E6000584389B20AF086FF40190D9948437D21F5
:101E7000C90008910AF07EFF9549099008800F98E3
:101E8000C3B21098C7B200209F42324600D8024623
:101E90000E99092900D8064632400C924800012AC2
:101EA00027D1874B181807468237B97AFA7A120277
:101EB000521804928221405C797809020818801A2D
:101EC00089214900595C0F9AD2B2109BDBB29E1A4D
:101ED0004E4370430A21514305910AF06DFF397B4F
:101EE0007A7B12025518B978FA78120251184F1BF2
:101EF0001CE07349081805468235A97AEA7A12026D
:101F000051188222805C6A78120210180490401ADC
:101F10007843194605930AF04FFF297B6A7B12022A
:101F20005118AA78EB781B029D186E1A0499081AAA
:101F300004907743384605990AF03EFF281A80B28C
:101F4000049DA9B2401A0B99C9B20B9148430A9952
:101F5000C9B20A910AF030FF0999691A09185D4857
:101F60000591C1840C9800282AD00E984000FC4BA3
:101F700018180546AA35A97AEA7A1202521801926F
:101F8000AA21405C697809020818801A0399143163
:101F9000595C0F9AD2B2109BDBB29F1A4F43784321
:101FA0000A21514304910AF007FF297B6A7B120240
:101FB0005618A978EA78120251188D1B019922E06F
:101FC0000E984000E64908180646AA36B17AF27A19
:101FD00012025118AA22805C727812021018039023
:101FE000401A1099CDB268430F99C9B204910AF012
:101FF000E3FE317B727B12025118B278F3781B0238
:102000009E18771A0399081A03907D43284604996D
:102010000AF0D2FE301A80B2039DA9B2401A0B9981
:1020200048430A990AF0C8FE0999691A0918CE4F5F
:102030003985CE48431C059A92B29A420346C84E4F
:102040000E9D03D3CA4B9A4201D95B1CFB847422B8
:10205000C44B9A5A323289B28A4205D20246BB3206
:10206000914202D9BC3002463A850C98002833D000
:10207000680030180546D235A97AEA7A1202521859
:102080000E92D221405C697809020818801A452115
:102090008900715C0F9AD2B2109BDBB29F1A4F433A
:1020A00078430A21514310910AF086FE297B6A7B0E
:1020B00012025618A978EA78120251188D1B2BE0EB
:1020C00000E40000180A0020100400206805002029
:1020D0006E090020D8020020680030180646D2366B
:1020E000B17AF27A12025118D222805C727812020E
:1020F00010180E90401A1099CDB268430F99C9B2CA
:1021000010910AF059FE317B727B12025118B2789D
:10211000F3781B029E18771A0E99081A0F907D43C8
:10212000284610990AF048FE301A80B20F9DA9B2D5
:10213000411A0B9848430A990AF03EFE29183A20A2
:102140008C4D2954080A2A463A32507008046CD043
:102150002E27E85D2E462E36727812021018B278BD
:10216000F3781B029A1812041018109008980D9A10
:10217000504389B20AF0FEFD1099091AE9552A2246
:102180000F92AB5C2A462A3257783F02FF1810970D
:102190009378D7783F02FF183F04109BFB180D9FE0
:1021A000C01BC0180F9BE8540B0CB3700B0EF370E0
:1021B0000B0A7370030C9370030ED370000A5070F7
:1021C000B94F002907D52E200021295428462E304A
:1021D000C170817041702A20285C29462A314A78D2
:1021E000120210188A78C978090289180904081897
:1021F000AC4A518B938B8B420AD1C2178118514044
:1022000001282CDB0A20484324210AF0B3FD09E011
:1022100001282BDB0A224243581A2421414310464D
:102220000AF0CAFD089940182DE02E22A95C284624
:102230002E3043781B0259188378C6783602F3187B
:102240001B0459180D9BC91AA9540A0C82700A0E56
:10225000C2700A0A4270944F0029BCD5B3E7E1204E
:102260000001091845480AF085FD0CE05E1A242794
:1022700077436321C9430AF09FFD39188A4F3E48CE
:1022800070430AF099FD382168543835000A6870A7
:10229000069D7919FE22501CFE3A042A07D80A78B6
:1022A0004B781B029A18891C94420246F3D2C1B2A1
:1022B000FF2941D079190006C00D0A5C0B185B7824
:1022C0001B029A18831CCD5CC91849780902491968
:1022D000891A13252D017E19355C301840780002CB
:1022E0004519F05CF3185B781B021818401B079E19
:1022F0007543A21A0B2C30D392B280B25043704374
:1023000089B20AF037FD401980B21D49081A029CB3
:10231000604331460AF02EFD6108401821460AF05C
:1023200029FD010419229204914200DC06466E2028
:102330005C490E5211B0F0BD785D791949780902F7
:102340000918132000013A5C381840780002801800
:1023500000252246079E0B2CCED211B0F0BDC04600
:1023600000E4000068050020D80200207A0D00007B
:102370007B0F00009C020020A08C000080EE360045
:1023800010270000F0B583B0EC4D288BC00604D4B4
:1023900047480021018103B0F0BD288B400557D488
:1023A00001242002E44E315C3018407800024018CD
:1023B0007021695E081A1021695E884250DC812014
:1023C0004000315C301840780002411837480088DE
:1023D000884245D2364B19894F1C1F81196908184C
:1023E000186141218900725C7118497809028918C5
:1023F00002914908BAB28A4213D183214900725C22
:10240000711849780902891801912D21C9000AF033
:10241000B1FC274B0199884201D200271F8100207F
:102420001861029AB9B29142B5D300271F81832166
:102430004900725C7118497809028E182D21C90073
:102440000AF098FCB04213D21948076103B0F0BDFE
:10245000A88B698B81429ED301F0CCFF03B0F0BD05
:1024600013480189002996D0491E018103B0F0BDAF
:10247000698C22200F4A11542023D55C104620304D
:102480004678360275196D1CD5542232090A5170EE
:1024900009490A8822430A80290A417001F0AAFFEB
:1024A00003B0F0BD6805002000E40000180A002019
:1024B000B0030020740300206A030020F0B581B04F
:1024C00004469E4E308B80071ED49F48017E427E7C
:1024D00012025118827EC37E1B029A1812045118F0
:1024E0000A1BB38B242159438A4200DC0A46027638
:1024F000130C8376130EC376120A42769048426E0E
:102500008A4205DC416603E08D4A907B00284CD06E
:102510006C21725E90B2022A15DB1022B25E742327
:10252000F35A143393420EDB012070528649002285
:10253000CA76B28B462353430B76814A53661A0CF4
:102540008A761A0A4A76318B890602D4318B0907BA
:102550000AD5002808D17C480021C17681764176D1
:1025600001767748416612E07748017E427E12028A
:102570005118827EC07E0002801800044018002896
:1025800005DD6F48416E00290BDD01B0F0BD6E48DE
:102590000021C1768176417601766948416E002935
:1025A000F3DC0021416601B0F0BDFF20123062492A
:1025B0000D5CD07B002813D00020D073B18B5187E5
:1025C000908F421A17D4002D32D07D20C000504386
:1025D0000AF0F2FB642169430A224243501817E0D3
:1025E0006C20305E5749A84216DA088800B20F28DE
:1025F00038DC102039E00A1A7D20C00050430AF070
:10260000DBFB642169430A22424391421EDD881AA2
:1026100029460AF0D1FB1DE026DD088800B26D28AE
:1026200022DD19221201531E98421FDD0A8009E0A3
:102630004448008801B20F2911DD19221201521EEF
:10264000914213DD192000013E490EE06420294625
:102650000AF090FB3B49088001B20F29EDDC3949B3
:10266000102002E06D2801DB64200880364F397E9F
:102670007A7E12025118BA7EFB7E1B029A1812044F
:10268000551880B24443642120460AF073FB2C1A8B
:102690003C76200CB876200EF876200A78766C20EE
:1026A000335A002B18D000932425204629460AF0DF
:1026B00083FBB18B4D43884207DC0020F8763D76E2
:1026C000280CB876280A78762C461D4A506EA84207
:1026D00000DC5566009B00E0194A7420305A102136
:1026E000715E814219DD002B00D111E724252046BF
:1026F00029460AF061FBB18B4D43884206DC00207D
:10270000F8763D76280CB876280A78760C49486E1B
:10271000A84200DDFCE64D66FAE6002C04DC002051
:10272000F876B87678763876506E002800DDEFE6D9
:1027300000205066ECE6C04600E40000680500207A
:10274000D8020020020000209C020020F0B583B0D7
:10275000F74E308BC00414D5308BC00611D46C20DA
:10276000305EF44CA17E88420FD0607E411C6176C1
:10277000B08BA26F1018A067C9B20AF0FBFAA0874D
:1027800003E0EC480021816741766C25705DE94FDC
:10279000B87600F02BFD1620305E318BC9061AD4B6
:1027A000012818DA01281ADB308BC0065DD4308B83
:1027B000000600D5B7E006F019F8387880066ED428
:1027C000DD4B1C68E0087C2800D925E1DB48008847
:1027D0002218002131E10021F9730128E4DA029581
:1027E0007420305A1025715F814200DDCFE0308BBC
:1027F000D34901403183F87F052800D2C5E000208D
:10280000F877FF21CA31CF4A53185B78515C8906AB
:1028100003D4318B80220A4332833222CA4988543E
:102820002E2288545222B852029AB05220230122FA
:10283000FA54338B13433383C87688764876087608
:10284000B8667083BC4B58600B46323358702E31DB
:10285000C87088704870BD48018811430180308B72
:1028600002210143318303B0F0BD788A400725D4AB
:10287000308B40052BD4308B402188433083308B04
:10288000B34901403183308BB24901403183308BF1
:10289000AB4901403183308BC00726D01AE0AA48EB
:1028A000017E427E12025118827EC07E0002801894
:1028B000000440184C21795A4018CDE0F88FB083BD
:1028C000788A042188437882308B4005D3D5308BB9
:1028D000C0070AD0705F112109019A4A515C8842F1
:1028E00003DD308B012188433083308B800714D582
:1028F000705FFF211231934A515C88420DDDB87F31
:10290000401CB877C0B2022800D050E70020B8774A
:10291000308B02218843308349E70020B877308B21
:10292000000600D447E785480388B86EC018B8662B
:10293000318B890508D584490876020ECA76020CC7
:102940008A76000A487617E1029537460121490246
:102950007D4A147E557E2D022C19957ED67E360238
:1029600075192D042C19844200DBF5E05B00E31897
:1029700013761C0ED4761C0C94761C0A5476834273
:102980003E46029D00DBF4E0F6E0401CF877374657
:10299000ED2040006B4A105C684E318881420AD9B4
:1029A000FF24FFF7A9F96348407F09286CD023462C
:1029B0000020644A6CE05F4C607F09283E46274651
:1029C000029D00D0D1E16049087E14464A7E120281
:1029D00010188A7ECB7E1B029A1812041218FF2050
:1029E000DC30205C121AD3179A430A76130C8B76CC
:1029F000130ECB76120A4A76318B090604D5B96ECE
:102A0000091ACA179143B966318B490600D4ACE163
:102A1000F96E0818F866A8E17D202F46C50020460B
:102A200029460AF0A7F9444BC2B20421C9435143D5
:102A30004543621B3D46414800881A60424A137E66
:102A4000547E2402E318947ED27E120212191204DC
:102A5000D21851180818374F3B490876020ECA762B
:102A6000020C8A76000A4876308BC00706D1308B7C
:102A7000800700D480E0308B40067DD52F48008849
:102A8000B96E0818B86677E02346DC34FA4A105D60
:102A9000C0B2318844183E46398B388BC9071BD1E8
:102AA000800600D5B5E0308B4006F24F02D5F86EB7
:102AB0000019F866F148017E427E12025118827EAA
:102AC000C37E1B029A1812045118029D725F622A7B
:102AD00000DD39E1002238E1800700D5C4E0705FF5
:102AE000E44F398D884200DBC9E0F87E401CF8765F
:102AF000C0B2042800D0FEE00194308B02210143D3
:102B000031830020F8761846CA3011184978105CD5
:102B10004007029D03D51233D05C03F00DF8308BD3
:102B2000D849014031830198FFF7C8FC1DE1C04638
:102B300068050020D8020020FC030020180A0020AD
:102B4000FFDF000000E400009C02002020040020C1
:102B5000FFF70000FFEF00005B08E31813761C0E80
:102B6000D4761C0C94761C0A547683423E46029D11
:102B700002DA308B08433083ED204000BE49085C08
:102B8000BF490C8884423FD92E26BC4FB85D0295C0
:102B90003D462E35697809020818A978EA781202AC
:102BA00051180904081801903820385C394638312A
:102BB00049780902081860437D21C9000AF0DAF853
:102BC00001994218BA552A23FE5C39462A314F78BA
:102BD0003F02BE1901968F78CE783602F619360478
:102BE000019FF619201A8019A14EA44CE054130C31
:102BF000AB70130EEB70120A6A70029D020C8A70A1
:102C0000020ECA70000A4870308B800600D4B6E00D
:102C1000BBE0705F974FF98C88424BDA387F401CDD
:102C20003877C0B2042879D3308B01210143318336
:102C300000203877CA33D0184178D15C8906029DCC
:102C400004D4318B80220A433283F24A4078D05C2C
:102C5000400704D511200001105C02F0D5FD308B37
:102C600088490140318321E0F24FB86E001BC11743
:102C70008843B8662046FFF721FC029D75E00020DE
:102C8000F876B86E001BC11788431233D15CB28B43
:102C90004A4324215143884200D30146B966308B10
:102CA0004006029D02D5F86E0019F8662046FFF72F
:102CB00005FC5AE0308B802188433083002139772E
:102CC000308B400602D5F86E0019F8660194DA4898
:102CD000027E437E1B029A18837EC47E2402E31880
:102CE0001B049A18029D735F622B00DD0121019B7A
:102CF000CB40D11A2BE0B86E001BC11788431233AA
:102D0000D15CB28B4A43242151438842029D00D3B7
:102D10000146B966308B4006C5D4C7E7308B400604
:102D2000029D02D5F86E0019F866C348017E427E06
:102D300012025118827EC37E1B029A181204511887
:102D4000725F622A00DCC5E60122D440091BCA1763
:102D5000914301760A0C82760A0EC276090A417600
:102D6000786E002801DC00207866787F401CC1B2B4
:102D70000A2900D100207877308B800605D4308B6B
:102D8000000702D4AB4F387823E0AA4F38780221ED
:102D90000140FA7C0A43397D11431AD1A6490A7EC3
:102DA0004B7E1B029A188B7ECC7E2402E3181B04F8
:102DB0009B187A6E934206DD0A76130ECB76130CBF
:102DC0008B76120A4A763221795E725F8A4200DD82
:102DD000715300213975F974715B7986FD210140C9
:102DE0003970308B8007C00FB873934D287E697E91
:102DF00009020818A97EEA7E12025118090408186F
:102E00007866E1210C01214609F0D6FF81B2B78B2B
:102E1000B94209D9384660432876010EE976010C9B
:102E2000A976000A687600E007462E20285C29462D
:102E30002E314A78120210188A78C9780902891846
:102E400009040818214609F0B7FF82B23421695CF1
:102E50002B4634335B781B0259188A4200D801464E
:102E6000322029547783080A3235687003B0F0BDE8
:102E700068050020D802002000E400009C02002029
:102E8000180A0020FFFD0000F0B581B05520800039
:102E9000D44E315C3018407800024118CF48008889
:102EA0006424604309F066FF5B4901403046FE3010
:102EB00032290AD35949097849B2092905DC04297C
:102EC00001DC584800E0564830180178407800028C
:102ED00047187420544D2F527D200101688B4843C0
:102EE000A98B09F047FF410888B28208F92A0CD360
:102EF000FF20CA30315C30184078C007C00D2CD09C
:102F0000288B400528D5642427E009281FD82120D4
:102F1000C000325C3018407800028018404216220F
:102F2000AA5E0024824218DA1020285EB84214DD1E
:102F3000FF27CA37F05DC8B20A2109F01BFF04461B
:102F4000F01940780002C00407D5012405E00A21E9
:102F500009F010FF044600E063246C202C5201F0BD
:102F600013F9FF21CA31705C1B200001285A711827
:102F700049780902890518D42D490880688B984939
:102F8000C886A88B088732209749085C0A463232E7
:102F900052781202101828853420085C34314978A0
:102FA00009020818A88501B0F0BDAB214900725C88
:102FB0007118497809028E1870431C4C214609F09B
:102FC000D9FE1B490880688B7043214609F0D2FE68
:102FD000834FF886A88B7043214609F0CBFE3887D3
:102FE0003220814F385C394632314978090208185D
:102FF0007043214609F0BEFE28853420385C343702
:103000007978090208187043214609F0B3FEA885B3
:1030100001B0F0BD00E40000FEFF0000110400203C
:1030200007030000090300006805002010270000C6
:10303000160A0020D80200209C020020F0B583B0C0
:10304000F0480288F048428455208000EC4F395CFB
:1030500038184078000241186420504309F08AFE75
:1030600081B28B225200BC5CFF22A1420FD91832E0
:10307000BA5C914212D9811A0804000E01D00020D6
:10308000C1432320C000385C821A0A230CE01632A8
:10309000BA5C0023914205D8194604E0121B011BBB
:1030A000052301E0811AA21AFF252E461A36B81907
:1030B00001240457D848007840B2A04204DABD5732
:1030C000A8420ADC002009E02E461C36BE57B0425A
:1030D00006DA001B361B5B1C14E0401B661B11E06C
:1030E0004724A4003C57A04203DA801BA61B9B1C6C
:1030F00008E01E357D572E1BA84201DB304600E05C
:10310000001BDB1CD4B2CDB2A5420296019027D998
:103110000A2B25D3580038180546D235AB7AEC7AFD
:103120002402E4180094D223C05C6B781B021818A8
:10313000001B45239B00FB5CD2B2C9B28F1A5F43D0
:1031400078430A245443214609F036FE297B6A7BE2
:1031500012025618A978EA78120251188D1B1BE04A
:10316000580038180646D236B17AF27A120251184F
:10317000D222805C7278120210180090401A6843C4
:10318000214609F019FE317B727B12025118B27888
:10319000F3781B029E18771A0099081A00907D4355
:1031A0002846214609F008FE301A80B2009CA1B2E0
:1031B000411A0198C0B248430299C9B209F0FCFD16
:1031C00020183A21D54A5054010A3A32517001046C
:1031D00001D08D49888403B0F0BDC046180A002094
:1031E000D802002000E400009C020020F0B583B06B
:1031F00055208000CA4F395C3818407800024118C9
:10320000804804886420604309F0B4FD06464220EB
:103210007D490E524D6FE12001012846019109F0D0
:10322000CBFD7A490880BF4A108B8004C00F7849D3
:1032300008801620105E118BC9060FD50128724B2D
:103240000DDB108B7D21C9001831084203D1108B92
:1032500070490140118300255D6700E06A4BB0B200
:1032600002906D4806782D2E1CD82120C000395CB4
:103270003818407800024018844213D90096108B09
:103280001021084016467422B25A715E914219DD2F
:103290000028FE4A7BD1108B800454D5281958672A
:1032A00003B0F0BD108B800671D5108B00076ED473
:1032B000108B80046BD502980A383D2852D3D87DF4
:1032C000401C50E00028F14A61D1108B8004514924
:1032D00041D5281958671346128B0A401A834F4963
:1032E0007A5C7918497809028D185121C9007A5CF5
:1032F0007918497809028C18019909F05DFD81B2AD
:10330000A14200D80446A0B2A842434E00D32546AD
:10331000434801887D20C00000293AD0ACB2444324
:10332000204609F027FD009949B2102938DB02999F
:10333000092941D8424908803B480188204609F0C4
:1033400019FD404949E000205867108B3149014080
:10335000118303B0F0BD00205867108B0840108324
:1033600003B0F0BD0020D875C0B20A2806D30020F3
:10337000D8755867108B2749014011832E2E06D32C
:103380000020D8755867108B22490140118303B083
:10339000F0BD2A49088028490880224908801BE09E
:1033A0000299092911D8224908801F48018820461E
:1033B00009F0E0FC1F4910E01F4908801A48018805
:1033C000204609F0D7FC1D4907E016490880164839
:1033D0000188204609F0CEFC144908800A4C258655
:1033E000AA488583FFF72AFE608C4E216052307810
:1033F00040B25021605201212176E07203B0F0BD4D
:1034000000E40000180A0020D8020020F209002081
:10341000F0090020FFDF0000100400208A020000F5
:103420001E0400200E000020200A002006000020BC
:1034300010000020080000200C00002004000020E4
:10344000120000200A000020F0B581B03420334C77
:10345000205C214634314978090209183220205C69
:10346000224632325278120212187D200001504357
:1034700009F080FC0A30410888B28208F92A0AD390
:10348000FF20CA3080490A5C08184078C007C00D88
:1034900036D164203BE009282ED8FF22CA327A4B6D
:1034A0009D5C9D186E783602F60425D52120C0005B
:1034B0001E5C181840780002801947421620734E8F
:1034C000365E0020BE4222DA7426704FBE5B009644
:1034D00010276E4EF75F009EB74218DB01263703B8
:1034E000985C6A7812021518C8B20A2109F042FCE9
:1034F0003D420CD030460AE00A2109F03BFC06E0D0
:103500006248008B400501D5642000E0632036212D
:1035100060543634000A607001B0F0BD9C02002097
:1035200000E4000068050020F0B52120C0005649E5
:103530000A5C08184078000280184342162253485B
:10354000825E9A421DDA028B202313430383028B8F
:1035500010239A4302834E4A0023938013704D4AEE
:10356000138880241C431480428A40231A434282D9
:10357000494A14881C431480028B08239A4302830F
:1035800036E0852464000D5D0C196478240264190A
:10359000A2421DDD058B2026B5430583058B102631
:1035A0002E4306833A4D0026AE802E70394D2E886C
:1035B000802737432F804025ED43468A2E404682A0
:1035C000354E37882F403780058B0826B543058355
:1035D0009A4208DB944206DB2D4A93882F4CA34283
:1035E00001D05B1C93802A4A1278002A00D0F0BDDB
:1035F000428A530622D543239B00CC5C244B9D88F2
:10360000A5421BD3048B2025AC430483048B1025D7
:10361000AC43048301241C7000249C8040239A4303
:1036200042821C4C25888026B54325801A4C25886B
:103630001D432580038B08241C4304835306D6D4E2
:10364000FF230E33CB5C12498C889C42CFD3038B73
:103650002024A3430383038B1024A3430383012368
:103660000B7000238B8040218A4342820A4A1388D0
:103670000B43138007490A8880239A430A80018BF1
:1036800008220A430283F0BD00E400006805002020
:10369000B00300207802002020040020FFFF00007B
:1036A000F0B581B0F74C2268D0075ED090070FD5F7
:1036B0000220824322607E20F349085A830A102B9D
:1036C00006D1FE228A5692B2803105F089FF226827
:1036D0000125AE0250050BD5B2432260FB48FC49E0
:1036E000081880B2F8498031112205F079FF22686C
:1036F00050003CD4AF06D0034FD4100167D4D000A3
:1037000077D4900300D587E0500300D596E01003EE
:1037100000D5A5E0D00200D5B5E0900200D5C5E007
:10372000500200D5D5E0100200D5E5E0D00100D56B
:10373000F5E0900100D505E1500700D515E1AF0394
:10374000D00600D518E1900600D534E1500600D52A
:1037500050E1100600D56CE1D00500D588E1900558
:1037600000D5A8E1324200D0CAE101B0F0BD280284
:10377000F5490858007841239B00C9580978F34B54
:10378000D9709870A80782432260F148018802230B
:103790000B430380AF06D003AFD5EE480088282145
:1037A0000140FF20FE30E74A105CD7230340581841
:1037B00069460870E848101880B2012205F010FF31
:1037C0002068E64A02403A432260100197D5E44857
:1037D000DC49081880B2E34949683331022205F018
:1037E000FFFE03208006226882433A432260D00015
:1037F00087D5DD48D349081880B2DA4949681331C2
:10380000022205F0EDFE05208006226882433A433D
:103810002260900300D477E7D448CA49081880B2E0
:10382000D04949686231022205F0DAFE2068D04AA8
:1038300002403A432260500300D468E7CD48C149B2
:10384000081880B2C74949686431022205F0C8FEF1
:103850002068C94A02403A432260100300D459E765
:10386000C648B849081880B2BE4949686731022283
:1038700005F0B6FE8120C004226882433A432260EC
:10388000D00200D449E7BE48AE49081880B2B54915
:1038900049686831022205F0A3FE41200005226834
:1038A00082433A432260900200D439E7B548A549E3
:1038B000081880B2AB4949686A31012205F090FED0
:1038C00021204005226882433A432260500200D4FE
:1038D00029E7AD489B49081880B2A24949686B3175
:1038E000012205F07DFE11208005226882433A43C3
:1038F0002260100200D419E7A4489249081880B247
:10390000984949686C31012205F06AFE0920C0051A
:10391000226882433A432260D00100D409E79C48E0
:103920008849081880B28F4949686D31012205F035
:1039300057FE05200006226882433A432260900128
:1039400000D4F9E693487F49081880B28549496850
:103950006F31012205F044FE0320400622688243B5
:103960003A432260500700D4E9E6042082432260F3
:10397000AF03D00600D4E6E6FE2070490A56131FB6
:10398000032B02D306220A5400E0D2B228026E4969
:10399000095882486B4B181880B252B2121F92B26B
:1039A00005F01EFE7C48F030226802403A43226057
:1039B000900600D4CAE6FE2060490A56131F032B66
:1039C00002D306220A5400E0D2B228025E49095806
:1039D00073485C4B181880B252B2121F92B205F0B5
:1039E000FFFD6D48E030226802403A4322605006F5
:1039F00000D4AEE6FE2051490A56131F162B02D3FF
:103A000019220A5400E0D2B228024F4909586548E9
:103A10004C4B181880B252B2121F92B205F0E0FD62
:103A20005D48C030226802403A432260100600D44C
:103A300092E6FE2041490A56131F162B02D3192283
:103A40000A5400E0D2B228023F49095856483D4B7B
:103A5000181880B252B2121F92B205F0C1FD4E4842
:103A60008030226802403A432260D00500D476E6D6
:103A7000FE2032490A56131F062B07D309220A5487
:103A800005E0C0461804002068050020D2B22802D4
:103A90002D49095845482B4B181880B252B2121FB5
:103AA00092B205F09DFD22683B4802403A432260F5
:103AB000900500D456E6FE2020490A56131F212BFC
:103AC00008D324220A5406E0680500205C5EFFFF4C
:103AD00000E40000D2B228021B4909583448194BAF
:103AE000181880B252B2121F92B205F079FD21204F
:103AF0004002226882433A432260324200D134E6D7
:103B0000FE200E490A56131F212B02D324220A54E9
:103B100000E0D2B228020C4909580948094B18188C
:103B200080B252B2121F92B205F05AFD11208002EB
:103B3000216881433943216001B0F0BD6805002050
:103B40005C5EFFFF00E4000018000020740300200A
:103B50006A0300207A020020FD5DFFFFFFFFFEFBED
:103B6000FE5CFFFF40020020545DFFFFEF5DFFFFA2
:103B7000FFFFFDFBF15DFFFFFFFFFBFBF35DFFFFC1
:103B8000F55DFFFFF75DFFFFF85DFFFFF95DFFFFEC
:103B9000FA5DFFFFFB5DFFFFFFBEFFFF095EFFFF5A
:103BA0000B5EFFFF0D5EFFFF225EFFFF375EFFFF34
:103BB0003C5EFFFF80B5742005F0C4FC80BD80B57D
:103BC000752005F0BFFC80BD70B55A4A114610390A
:103BD000C34841600B78C349A02B0CD0FF2B0CD1FC
:103BE0001D22D20242601378FF2B00D182E0A02B6D
:103BF0003CD100233BE0002300E0FF2314460F3CB0
:103C000044602478A02C02D0FF2C16D000E00123C1
:103C100014460E3C44602478FF2C0ED0A02C00D11A
:103C2000022314460D3C44602478FF2C05D0A02CC0
:103C300000D1032314460C3C44601D24E402257883
:103C4000FF2D07D044602678A02E06D0FF25FF2E3A
:103C500028D003E0FF2B4DD04FE00025661C4660C6
:103C60006678A02E0BD0FF2E1CD009E0FF23541C39
:103C700044605478A02C28D0FF2C39D026E00125B0
:103C8000A61C4660A678FF2E0CD0A02E00D10225DF
:103C9000E61C4660E678FF2E04D0A02E00D1032556
:103CA000261D4660FF2B05D1FF2D23D010342B4657
:103CB000224622E0FF2D20D09D4201D21034224620
:103CC0009D4200D31D462B4617E00123941C4460FF
:103CD0009478FF2C0CD0A02C00D10223D41C44607B
:103CE000D478FF2C04D0A02C00D10323141D4460F1
:103CF000FF2B01D1416013E010327C245C43A218F9
:103D000042608A420CD000210B4B545C45182C7247
:103D1000545C5C54491C3C29F7D15118416070BD7A
:103D200008303C242146FCF774FD03482146FCF78B
:103D300070FD70BD10EA00002804002070B582B04C
:103D40001D20C202664D6A601078FF280AD05078A4
:103D5000FF2809D09078FF2808D0D078FF2807D016
:103D6000042006E0002004E0012002E0022000E040
:103D700003207521490269600B78FF2B0CD04B782A
:103D8000FF2B0FD08B78FF2B10D0CB78FF2B3ED0A2
:103D9000042300280DD13DE004283ED300202870E4
:103DA000696041E00123002803D133E002230028A9
:103DB00030D0984213D228706A60032809D36988EA
:103DC00008230B436B80298D464B994201D0491C37
:103DD0002985032823D90024204602B070BD6960DC
:103DE000042B06D1752005F0ADFB00202870696812
:103DF0001AE02B70032B16D36888042202436A80D2
:103E0000288D384A90420ED0401C28850BE00323B1
:103E10000028CED1042B04D3002028706A601146FC
:103E200002E02B70696018467C2242438A181032E7
:103E3000002413461E78FF2E26D1661C5B1C3B2CEB
:103E40003446F7D317208402101980B2294608316E
:103E50003C2205F0C5FB01A8A02101702878696803
:103E60000A5CFF2A27D0688800072ED468880124BE
:103E70004007B1D5742005F065FB688804218843AC
:103E80006880204602B070BD6A46082313700A5C41
:103E9000FF2A03D00024204602B070BD0818172165
:103EA0008902401880B26946012205F099FB00247E
:103EB000204602B070BD0818001980B201A9012285
:103EC00005F08EFB68880007D0D5752005F03AFB19
:103ED00068880821884368800124204602B070BDAC
:103EE00094020020FFFF0000F0B587B0552080004D
:103EF000A04F395C38184078000241182E20F44A4F
:103F0000105E64220692504308F056FF81B28B2265
:103F10005200BC5CFF22A14210D91832BA5C914217
:103F200013D9811A0804000E01D00020C1432320B8
:103F3000C000385C801A05900A230EE01632BA5C85
:103F40000023914206D8194605E0111B0591011B7B
:103F5000052302E0811AA01A05900220DC4C2056AD
:103F6000FF252E461A36BC193A460127E457A042CF
:103F700004DA9557A8420CDC00200BE02E461C36D4
:103F80009657B0420ADA001B0390301B04905B1C6A
:103F90001AE0401B0390601B049015E04724A40026
:103FA0001457A04205DA801B0390A01B04909B1CB1
:103FB0000AE01E3555572E1BA84201DB039601E08F
:103FC000001B03900496DB1C0598C6B2CFB2B74223
:103FD0002AD90A2B28D3580010180446D234A37AC1
:103FE000E57A2D02EA180292D223C05C63781B02A4
:103FF0001818801A059AD2B2C9B2891A06254D43FB
:1040000068430A265643314608F0D6FE217B627B80
:1040100012025318A178E278120251182A4601932D
:10402000CF1A0299081A1CE0580010180446D2341E
:10403000A17AE27A12025118D222805C62781202CE
:104040001518681A7843314608F0B6FE217B627B6A
:1040500012025118A278E3781B029A180192521AA0
:10406000281A05900020C74D2866A871A880E8701E
:10407000AC8C414804806C20DA49085E0290688666
:1040800057433846314608F097FE0199081A80B226
:10409000059EB1B2411A0398C0B248430499C9B20F
:1040A00008F08AFE301880B20019470833480780AC
:1040B000AF840A2605962046314608F05BFE01468D
:1040C0007743384608F056FE84B22E8E3046069965
:1040D00008F050FE074605460494654330460599AE
:1040E000FCF79AFB08466043069C214608F042FE16
:1040F00045196743F01BC0B2059C214608F03AFE03
:1041000004994843214608F035FE29188AB2512007
:10411000C0009B4C235C201840780002C0188242EB
:1041200000D8084682B29849635C61184978090250
:10413000C9188A4200D30146924C2186104801805A
:10414000A84DA983A18689B202984843069908F030
:1041500033FE688380B2E1210901414309480176B9
:1041600061660A0EC2760A0C8276090A417607B0A9
:10417000F0BDC04600E400006C0900206809002082
:104180006A0900209C02002070B57E4CE07900286E
:1041900003D1F248008BC00679D4207A012808D1D7
:1041A000EE48008BC00604D54A480088216E0818E6
:1041B00020666C20E94D2E5A642E17D1A079012873
:1041C0001AD1206EE121090108F0D4FDA98B49081C
:1041D000884211D9288B00070ED4288B642E0BD16E
:1041E0002021084008D00120207105E00020A071A6
:1041F000298BC90600D42066607A012802D0A07AF3
:1042000001280FD1288B80060CD50B202056D449CD
:10421000097849B2421A092A02DC081A0A2801DB85
:104220000120607161792079012801D001291FD115
:10423000284800882A8B92061AD5FF222E329042F7
:1042400016D3E278521CE270012927D1D1B2052998
:1042500024D80B216156C24B1B785BB2CE1A092EB3
:104260001CDC591A092919DC0020E070607101E09A
:104270000020E070288B8006C00F6073288B000739
:10428000C00F6072288BC006C00FA07270BD0120E5
:104290002072B248008BC00686D48AE7D1B20529C5
:1042A000E8D1E0850020A080E070AD4E3078A070AD
:1042B000207B012806D001202073A88B20867D203A
:1042C000C000A084FFF710FE3078E072D2E7C0464D
:1042D000D8020020180A0020F0B581B01C4615460F
:1042E0000E4607466020394600F056FA38880A49DB
:1042F00088420ED16220314600F05AF963202946E7
:1043000000F056F96420214600F052F9002001B077
:10431000F0BD012001B0F0BDCCEF0000B0B5FF2032
:10432000DE308D4C215C2018407800024518FEF7E5
:1043300085FE8A48828B1348C18F914204D2531A5A
:10434000AB4206DD511B03E08B1AAB4201DD511974
:10435000C1875122D200A35CA21852781202D2184F
:104360008BB2934201D9C2871146074AA35CA218B7
:1043700052781202D21889B2914200D2C287B0BDDF
:1043800000E40000D80200208A020000C117401893
:1043900048407047B0B512480921018010236F4A88
:1043A000D45E11480188114DAC4201DB994300E015
:1043B000194306236C24145F012C01DB994300E0B0
:1043C00019431623D25E1823DB439A4203DB084AC3
:1043D00011400180B0BD012211430180B0BDC04633
:1043E0001C0400206805002078020020540B000007
:1043F000FEFF0000F0B585B0FF200246CA325649E4
:104400008B185B788A5C520611D4544A138B402473
:104410001C4314830123DC02158B254315831C03E5
:10442000158B254315835B03148B1C431483E030E9
:1044300008564B4A127852B2824203DB474C208B1B
:10444000000615D44B48827FC07F0002801825D01B
:1044500077229200895C002920D04843642108F02B
:1044600089FC83B23D498A8B934215D2101A14E01D
:104470003C4800210170208B3B49014021833B488F
:104480000068E121090108F097FC394D2880FFF709
:1044900045FF2888A08301E00A2088832F490A8BE2
:1044A0008025AA430A8333480024C4778477324A9C
:1044B000146001239E020A8B520541D40396049591
:1044C00036226425029585542A2284543422825C43
:1044D0003226825506463436757801952E02B71875
:1044E000E122120157432E26875506463636747050
:1044F00006462A36F470B47074708D8B00956A434A
:10450000027605463235019E6E70150EC576150C85
:104510008576120A42763A0E2E30C2703A0C8270BC
:104520003A0A4270088B400601D5144804606C209A
:10453000029A0A52009A4A8311480280049D039EFF
:1045400010480370088B304308830F4801882943C3
:10455000018005B0F0BDC04600E400006805002001
:1045600010040020E8020020FFFE000040030020AD
:10457000160300209C020020480300204403002072
:104580002A030020DE0200201404002080B5064823
:1045900014210170002005F00FF90448007800286C
:1045A00001D005F00FFD80BD74020020A90100209C
:1045B000F0B583B00C46054672B601F0CBFE14266A
:1045C00002960298411E0291002806D00298401CD3
:1045D00002900298401E0290F3E7162001F07AFE46
:1045E00001F088FD002826D00120014605F04EF993
:1045F00002960298411E0291002806D00298401CA3
:1046000002900298401E0290F3E702200124214606
:1046100005F03CF902960298411E0291002806D04E
:104620000298401C02900298401E0290F3E762B686
:10463000204603B0F0BD284601F04CFE02960298D9
:10464000411E0291002806D00298401C0290029858
:10465000401E0290F3E701F04DFD002826D0012016
:10466000014605F013F902960298411E02910028B6
:1046700006D00298401C02900298401E0290F3E778
:1046800002200124214605F001F902960298411EFC
:104690000291002806D00298401C02900298401E09
:1046A0000290F3E762B6204603B0F0BD50200190BF
:1046B00002900298411E0291002805D00298401CE9
:1046C00002900298401EF3E701F044FE172001F02B
:1046D00001FE01F00FFD002826D00120014605F063
:1046E000D5F802960298411E0291002806D0029841
:1046F000401C02900298401E0290F3E70220012421
:10470000214605F0C3F802960298411E0291002846
:1047100006D00298401C02900298401E0290F3E7D7
:1047200062B6204603B0F0BD019802900298411E87
:104730000291002805D00298401C02900298401E69
:10474000F3E701F032FD05460026304601F086FD14
:10475000002D1AD06F1E0BE001F027FD2070B91B51
:104760004842484101F07AFD761C641CAE420CD0F0
:10477000019802900298411E02910028ECD0029804
:10478000401C02900298401EF3E701F04AFE62B618
:104790000024204603B0F0BD70B582B00C4605463B
:1047A00072B601F0D7FD142601960198411E0191C1
:1047B000002806D00198401C01900198401E0190ED
:1047C000F3E7162001F086FD01F094FC002826D0C6
:1047D0000120014605F05AF801960198411E019109
:1047E000002806D00198401C01900198401E0190BD
:1047F000F3E702200125294605F048F801960198C3
:10480000411E0191002806D00198401C019001989A
:10481000401E0190F3E762B6284602B070BD2846FC
:1048200001F058FD01960198411E0191002806D023
:104830000198401C01900198401E0190F3E701F09F
:1048400059FC002826D00120014605F01FF80196EA
:104850000198411E0191002806D00198401C01904A
:104860000198401E0190F3E702200125294605F03A
:104870000DF801960198411E0191002806D001987B
:10488000401C01900198401E0190F3E762B6284653
:1048900002B070BD3C2001900198411E019100289A
:1048A00005D00198401C01900198401EF3E701F0EB
:1048B00051FD172001F00EFD01F01CFC002826D050
:1048C0000120014604F0E2FF01960198411E01918A
:1048D000002806D00198401C01900198401E0190CC
:1048E000F3E702200125294604F0D0FF0196019844
:1048F000411E0191002806D00198401C01900198AA
:10490000401E0190F3E762B6284602B070BD502603
:1049100001960198411E0191002806D00198401C83
:1049200001900198401E0190F3E701F03EFC2070D9
:104930000025284601F092FC01960198411E019144
:10494000002806D00198401C01900198401E01905B
:10495000F3E701F02AFC6070012001F07FFC01F018
:1049600060FD62B6284602B070BDF0B581B00C465D
:10497000054672B601F0EEFC162001F0ABFC01F02A
:10498000B9FB002827D00120014604F07FFF142541
:1049900000950098411E0091002806D00098401C08
:1049A00000900098401E0090F3E702200124214669
:1049B00004F06CFF00950098411E0091002806D07D
:1049C0000098401C00900098401E0090F3E762B6EB
:1049D000204601B0F0BD284601F07CFC142600966C
:1049E0000098411E0091002806D00098401C0090BD
:1049F0000098401E0090F3E701F07CFB002826D0D1
:104A00000120014604F042FF00960098411E0091EB
:104A1000002806D00098401C00900098401E00908E
:104A2000F3E702200124214604F030FF00960098AD
:104A3000411E0091002806D00098401C009000986C
:104A4000401E0090F3E762B6204601B0F0BD00962C
:104A50000098411E0091002806D00098401C00904C
:104A60000098401E0090F3E72578284601F032FCBC
:104A700001F040FB002826D00120014604F006FF8B
:104A800000960098411E0091002806D00098401C16
:104A900000900098401E0090F3E702200124214678
:104AA00004F0F4FE00960098411E0091002806D004
:104AB0000098401C00900098401E0090F3E762B6FA
:104AC000204601B0F0BD0027F8B20019407801F08F
:104AD00001FC01F00FFB00280AD17F1CF8B28542CF
:104AE000F2D201F09EFC62B60024204601B0F0BD77
:104AF0000120014604F0CAFE00960098411E009174
:104B0000002806D00098401C00900098401E00909D
:104B1000F3E702200124214604F0B8FE0096009835
:104B2000411E0091002806D00098401C009000987B
:104B3000401E0090F3E762B6204601B0F0BD0000D1
:104B4000F0B587B00027284E284D05E0781C311DB0
:104B5000BAB28A42074615D20124E00305F0BCF937
:104B600001280FD12888401C28803220009000980E
:104B7000411E00910028E9D00098401C0090009848
:104B8000401EF3E72888B0422CD905F085F92002B1
:104B9000214606F02BFC204605F0FAF93E2021467E
:104BA00005F0E2F900260696059616200490039675
:104BB000029601960E480090684605F09DF9C820BF
:104BC00005F0FEF8204605F0EFF8204605F0ECF978
:104BD000204605F06DF9074805F046F9204605F036
:104BE00037F92E8007B0F0BDE30300002204002057
:104BF00009033100FF7F000080B501464C20FFF71C
:104C0000D7FC80BD70B51C4615460E460146912066
:104C1000FFF7CEFC90203146FFF7CAFC95202946CD
:104C2000FFF7C6FC7E202146FFF7C2FCF620049960
:104C3000FFF7BEFC70BD0000F0B585B0C94C207810
:104C40000221049108432070C748C84E315C3018D7
:104C5000407800024018C6490880C648315C3018C8
:104C6000407800024018C4490880C448315C3018BC
:104C7000407800024018C2490880C248315C3018B0
:104C8000407800024018C0490880C048315C3018A4
:104C9000407800024018BE490880BE48315C301898
:104CA000407800024018BC490880BC48315C30188C
:104CB000407800024018BA490880BA48315C301880
:104CC000407800024018B8490880AD204000315CAF
:104CD000301840780002401860871021B3480391D3
:104CE000405E0421CD433146563100230A794F7985
:104CF0003F02BA18891C6D1D122B02D85B1C904212
:104D0000F4DA5823F35C374658377F783F02FB18B4
:104D1000984232DD8023F35C374680377F783F024C
:104D2000FB18984238DA0B7849780902CB18D11A67
:104D3000C21A0520504308F03FF84019C1B22420A0
:104D4000484334229A498A5C0B4634335B781B0211
:104D50009A1842432E23CA54944DAF8B7843087659
:104D6000030ECB76030C8B76030A4B76130E2E3193
:104D7000CB70130C8B702B463DE02E218C4A00200B
:104D80005054D0769076507610762E32D070907047
:104D90005070864B9F8B30E0FF20CA30315C30185A
:104DA0004078C007C10D8148878BE1200001342283
:104DB000002908D07E498A5C0B4634335B781B029D
:104DC0009A18243806E07A498A5C0B4634335B78BB
:104DD0001B029A1842432E23CA5478430876030EC6
:104DE000CB76030C8B76030A4B76130E2E31CB70E9
:104DF000130C8B706D4B120A4A706066A7866C2587
:104E0000595B61866B490978E172E1210C01214609
:104E100007F0B0FF81B2B9420AD93846604364490D
:104E20000876020ECA76020C8A76000A487600E0FE
:104E300007465E484783FEF727F82E205C4F385C14
:104E400039462E314A78120210188A78C978090238
:104E5000891809040818214607F0AEFF82B23421F0
:104E6000795C3B4634335B781B0259188A420A4608
:104E700000D8024632203A54100A3B46323358706A
:104E800092B27D200001504307F074FF0A304108C0
:104E900088B28208F92A0DD3FF20CA30315C30185D
:104EA0004078C007C00D414B02D0188B40053DD55E
:104EB00064203CE0092834D8FF22CA32B35CB3181E
:104EC0005C782402E4042CD502932120C000345CD9
:104ED000301840780002001944421620334B1B5E04
:104EE0000020A34220DA7423304CE35A0193039C40
:104EF0002E4B1C5F019B9C422C4B18DB0124200392
:104F00000390B05C029A5278120210180290C8B254
:104F10000A2107F02FFF0399029A0A4204D0204683
:104F200002E00A2107F026FF204B00E06320362133
:104F300078543637000A7870585F11210901715C86
:104F4000884203DC198B01220A431A83FF211231A4
:104F5000715C884203DC188B04990843188305B000
:104F6000F0BDC046D80200201303000000E400009A
:104F700004000020110300000C00002015030000B5
:104F80000E00002017030000060000201903000097
:104F9000120000201B0300000A0000201D03000077
:104FA000100000201F0300000800002068050020FA
:104FB0009C0200201004002080B5762004F0C2FA84
:104FC00080BD80B5772004F0BDFA80BDF0B585B016
:104FD000FA480088810600D4EEE14104E120000196
:104FE000002901D5024600E00122FB4904920A8013
:104FF000FA490A8A17B2FA4DAB8C9F421DDD2B7815
:105000005B1C2B70DBB2032B06D300232B70AA840E
:10501000EB8A01241C43EC82EB8C9F4212DA6B7802
:105020005B1C6B70DBB2032B0ED300236B70EA8426
:10503000EA8A01231343EB8206E000232B70EB8CFA
:105040009F42ECDB00226A700A8BD2062AD5162218
:105050008B5E9AB22C8DA3421DDDAC78641CAC70C3
:10506000E4B2032C06D30024AC702A85EC8A012616
:105070002643EE826C8DA34212DAEB785B1CEB7058
:10508000DBB2032B0ED30023EB706A85EA8A01237F
:105090001343EB8206E00024AC706C8DA342ECDB82
:1050A0000022EA700A8B920662D5CE4A1288AB8D36
:1050B0009A421DD92B795B1C2B71DBB2032B06D3D3
:1050C00000232B71AA85EB8A01241C43EC82EB8D13
:1050D0009A4212D26B795B1C6B71DBB2032B0ED33D
:1050E00000236B71EA85EA8A01231343EB8206E011
:1050F00000232B71EB8D9A42ECD300226A711E22A1
:105100008A5E2B8E002B00D15B42002A13D5D41768
:10511000161966409E420EDDAB795B1CAB71DBB2AB
:10512000032B0AD30023AB7152422A86EA8A012359
:105130001343EB8201E00022AA7160228A5ED3173A
:10514000D4185C406B8E9C4210DDEB795B1CEB71DC
:10515000DBB2032B0CD30023EB71EB8A01241C433D
:10516000EC82D313D2185A406A8601E00022EA7119
:105170003422AB569C4C247864B29C421EDD2B7AC0
:105180005B1C2B72DBB2032B06D3AC5400222A72B9
:10519000EA8A01231343EB823522AB569C4213DA91
:1051A0006B7A5B1C6B72DBB2032B0FD3AC54002207
:1051B0006A72EA8A01231343EB8207E000222A7213
:1051C0003522AB569C42EBDB00226A7201943623F7
:1051D000EC56864A127852B2A2421EDDAC7A641CAA
:1051E000AC72E4B2032C06D3EA540023AB72EB8A10
:1051F00001241C43EC823723EC56A24213DAEC7AEA
:10520000641CEC72E4B2032C0FD3EA540022EA725D
:10521000EA8A01231343EB8207E00023AB723723B2
:10522000EC56A242EBDB0022EA727022895E542225
:10523000AB5E99420DDA2B7B5B1C2B73DBB2032B2D
:1052400009D3A95200212973E98A01220A43EA827B
:1052500001E000212973664A664909880CB2002CD6
:1052600005D4012103974026264005D106E0917917
:1052700003974026264001D05D49C979C9B2EA8921
:105280005118E9818FB2049907F074FD874208D361
:105290000021E981696C491C6964E98A01220A4399
:1052A000EA82A1B20291CD214900514F7A5C79186E
:1052B000497809028A1803999142019C1CDD0299E0
:1052C00009B2002903D40123002E03D103E0BB79E6
:1052D000002E00D0FB79D9B26B8A5918698289B245
:1052E00083B2994208D300216982E96C491CE964C0
:1052F000E98A01230B43EB82672189007B569C429C
:105300003DDD02990CB2002C03D40121002E03D103
:1053100003E0B979002E00D0F979C9B22F8A791843
:10532000298289B280B2814208D300212982A96CE6
:10533000491CA964E98A01270F43EF82039991422E
:105340002B4F1CDD0199994219DD002C03D401215A
:10535000002E03D103E0B979002E00D0F979C9B24B
:10536000AA8A5118A98289B2814208D30020A88252
:10537000286D401C2865E88A01210143E982E88AFA
:10538000C00702D10020A86116E0029800B20028F0
:1053900004D401200499002E04D104E0B8790499C2
:1053A000002E00D0F879C0B2AA691418AC61124876
:1053B00007F0E0FC844203D205B0F0BD7A02002081
:1053C000E88A02210143E9820020A861E88A0121DC
:1053D0008843E88205B0F0BD140000206805002075
:1053E00054030020180A0020100400202404002088
:1053F00000E400007C020020A08C000010B5EF4902
:105400005948088077204202EB4CE2611078FF286F
:1054100008D1564808803B208202E2611078FF28BC
:1054200000D18DE0104610300A80E0610278202122
:105430006254224620324378537083789370C37845
:10544000D370037913714379537183799371C3795D
:10545000D371037A1372437A5372837A9372C37A45
:10546000D372037B1373437B5373837B9373C37B2D
:10547000D373037C1374437C5374837C9374C37C15
:10548000D374037D1375437D5375837D9375C37DFD
:10549000D375037E1376437E5376837E9376C37EE5
:1054A000D376037F1377437F5377837F9377C37FCD
:1054B000D377415C4022A154014620314A784123F0
:1054C000E2548A784223E254CA784323E2540A79A8
:1054D0004423E2544A794523E2548A794623E2542C
:1054E000CA794723E2540A7A4823E2544A7A492384
:1054F000E2548A7A4A23E254CA7A4B23E2540A7B62
:105500004C23E2544A7B4D23E2548A7B4E23E254DF
:10551000CA7B4F23E2540A7C5023E2544A7C512335
:10552000E2548A7C5223E254CA7C5323E2540A7D1B
:105530005423E254497D5522A1543630E06110BD18
:105540009F48E061204620303621FBF762F9352084
:105550001E212154372021540548E08560857D2097
:105560004001E08410BDC04600EEFFFF00ECFFFFED
:105570001027000070B582B03B2084028E4DEC6194
:105580002078FF281DD0772040028C490880E861F0
:105590000178FF2919D0762003F0D4FF288C8849A0
:1055A000884204D1E88A08210143E98209E0421CCB
:1055B0002A84EB8A08261E43EE828A4201D0801C90
:1055C0002884EC617D4804802046017CFF2900D0BE
:1055D000ADE0417CFF2900D0A9E0817CFF2900D00B
:1055E000A5E0C17CFF2900D0A1E0017DFF2900D00A
:1055F0009DE0417DFF2900D099E0817DFF2900D009
:1056000095E0C17DFF2900D091E0017EFF2900D007
:105610008DE0417EFF2900D089E0817EFF2900D006
:1056200085E0C17EFF2900D081E0017FFF297ED186
:10563000417FFF297BD1817FFF2978D1C17FFF295D
:1056400075D1014620310A78FF2A70D14A78FF2AA5
:105650006DD18A78FF2A6AD1CA78FF2A67D10A7980
:10566000FF2A64D14A79FF2A61D18A79FF2A5ED163
:10567000CA79FF2A5BD10A7AFF2A58D14A7AFF2ACF
:1056800055D18A7AFF2A52D1CA7AFF2A4FD10A7B92
:10569000FF2A4CD14A7BFF2A49D18A7BFF2A46D177
:1056A000CA7BFF2A43D10A7CFF2A40D14A7CFF2AC9
:1056B0003DD18A7CFF2A3AD1CA7CFF2A37D10A7DA4
:1056C000FF2A34D14A7DFF2A31D18A7DFF2A2ED18B
:1056D000CA7DFF2A2BD10A7EFF2A28D14A7EFF2AC3
:1056E00025D18A7EFF2A22D1CA7EFF2A1FD10A7FB6
:1056F000FF2A1CD14A7FFF2A19D18A7FFF2A16D19F
:10570000C97FFF2913D1014640310A78FF2A0ED103
:105710004A78FF2A0BD18A78FF2A08D1CA78FF2A53
:1057200005D10A79FF2A02D14979FF2911D06946AA
:1057300008220A700178FF2907D117218902401831
:1057400080B26946012203F04BFF0024204602B0DC
:1057500070BD103017218C02001980B2294620310B
:10576000362203F03DFF01A8A0210170E86901780D
:10577000FF2905D1001980B201A9012203F030FFF1
:10578000E88A00070DD4E88A01244007DED5762098
:1057900003F0D8FEE88A04218843E882204602B05C
:1057A00070BD772003F0CEFEE88A08218843E882A6
:1057B0000124204602B070BD540300202E020020B8
:1057C000FFFF0000B0B5DA4D287E697E0902081897
:1057D000A97EEA7E1202511809040818E1210C0181
:1057E000214607F0E9FA83B2C3498A8B934209D96B
:1057F00054432C76200EE876200CA876200A687692
:105800004A83B0BD4883B0BDF0B589B00446B94DF8
:1058100000262E67B84F388B40060CD5388B000514
:1058200009D5FF221046E030B4490856B44909783A
:1058300049B281421EDABE48817FC07F0002401813
:1058400000D14AE177218900AC4A515C002900D19E
:1058500043E16A8A042313436B824843642107F0BF
:1058600089FAB98B82B28A4201D3002000E0081A7B
:10587000E88732E108927D20079103900101788B3F
:105880004843B98B069107F075FA4008402104910E
:1058900068522E74388B9B49014039836420001B69
:1058A00024214143E86E059007F086FA9649088066
:1058B0004220295A079810282ADB092966D89748D8
:1058C0000288012600200C2A334600D303460193A8
:1058D00002910092891A032900DB0646E1200101AA
:1058E000059807F069FA024601983042029903D1FF
:1058F0000098401A022808DC894800885043039920
:10590000C90007F059FA029902460392834829E038
:10591000092942D87E48008801220C28134600D36A
:105920003346019302910090081A032800DB3246A7
:10593000E12001010598164607F03EFA024601985B
:105940003042029903D10098401A022808DC7148BD
:10595000008850430399C90007F02EFA02990246C5
:1059600003926B4801800A260698314607F002FA36
:105970006043314607F0FEF903990818E887089A52
:105980005E4E0799C9B22E2926D239E0E1200101E5
:10599000059807F011FA604905E0E120010105983A
:1059A00007F00AFA5949098848430399C90007F0E2
:1059B00003FA03900A260698314607F0DBF96043A4
:1059C000314607F0D7F90799039A1018E887089A23
:1059D0004A4EC9B22E2913D3E1200101059807F0E0
:1059E000EBF907900A260698314607F0C3F96043A1
:1059F0003146424E07F0BEF9089A07990818E88721
:105A0000484908801046DE30315C3018407800028A
:105A10004618FDF713FBB88BEC8F844205D2011BAF
:105A2000B142049B07DD841B04E0211AB142049BB0
:105A300001DD8419EC875121C900304E725C711868
:105A4000497809028918A2B28A4201D9E9870C462D
:105A50003549725C7118497809028918A2B28A42E4
:105A600001D2E9870C46089ACA32B1184978B15C6C
:105A7000C90702D1BC83A0B203E0698A04220A43A9
:105A80006A82798C4422A9520021A965E965012620
:105A9000EE74A9856985254A9160D1601182518291
:105AA000697029787B220A402A70E95A4143122002
:105AB0004843052107F05EF91D4908766866A86627
:105AC000020ECA76020C8A76000A48762E732C865D
:105AD000FDF7B4FA0A480078E87215480021C1774A
:105AE0008177B88BA886388B12490140398309B079
:105AF000F0BDC046D80200206805002000E4000088
:105B000010040020FFFE0000200A002006000020F4
:105B1000B00100200800002004000020AC0100209B
:105B20000A000020EE0900208A020000FC03002089
:105B30009C020020FFF70000F0B589B00446D64F64
:105B400000253D67D54E308B40060CD5308BC00408
:105B500009D5FF221046E030D1490856D1490978CD
:105B600049B281421EDAD048817FC07F00024018CE
:105B700000D13BE277218900C94A515C002900D15C
:105B800034E27A8A042313437B824843642107F07A
:105B9000F1F8B18B82B28A4201D3002000E0081AEA
:105BA000F88723E205927D20079008910101708B10
:105BB0004843B18B07F0DEF8400846210391785244
:105BC0003D74308BB949014031836420001B24218E
:105BD0004143F86E07F0F0F8F887B5490690088061
:105BE00042203E5A089810280EDB092E1DD8B14DD0
:105BF0002888012100220C280B466CD2341A032C71
:105C00006DDA0B426ED071E0092E1AD8AA4C2088AA
:105C100001210C280A4600D3AAE0331A032B00DB2B
:105C2000ABE00A4200D1ABE0AEE0069FB9B2029110
:105C30000798C4000846214607F09CF80190F948EF
:105C40000AE0069FB9B202910798C40008462146AF
:105C500007F090F80190F04805880A210491284641
:105C60000095FAF7D9FD0E4601984643284621468D
:105C700007F080F805464743F0190190029F384627
:105C8000049907F077F806466C43009D281B80B204
:105C90006424214607F06EF87043019908180190BA
:105CA0003846214607F066F8064628462146FAF7A8
:105CB000B3FD0846049907F05DF808997043019A0E
:105CC0001018D14A1546D087059FD14AC8B22E2850
:105CD00000D3A2E0A3E01346341A032C91DB114653
:105CE0000B4203D1801B022806983FDC069881B244
:105CF00002910798C4000846214607F03BF801903E
:105D0000CA4807880A2104913846FAF785FD0D46EE
:105D1000019845433846214607F02CF8009001468B
:105D20000298414349190191049907F023F8054667
:105D300000984443381B80B26424214607F01AF8C7
:105D400068430199081801900298214607F012F85B
:105D5000054638462146FAF75FFD0846049907F0E4
:105D600009F86843B04D01990818A74F2E804CE000
:105D70002A46331A032B00DA53E729460A4203D195
:105D8000801B022806983FDC069881B20291079892
:105D9000C4000846214606F0EDFF0190A0480788A0
:105DA0000A2104913846FAF737FD0D46019845431C
:105DB0003846214606F0DEFF009001460298414336
:105DC00049190191049906F0D5FF0546009844430E
:105DD000381B80B26424214606F0CCFF6843019949
:105DE000081801900298214606F0C4FF054638467F
:105DF00021468A4CFAF710FD0846049906F0BAFFCE
:105E0000684301990818804F26803D46F887059F12
:105E10007F4A0899C8B22E2801D30698E8873846E9
:105E2000DE30115C1018407800024618FDF706F9C4
:105E30007648838BEC8F9C4205D2181BB042744A83
