:020000040000FA
:10000000200E0020E10500000B6400001F06000028
:1000100000000000000000000000000000000000E0
:100020000000000000000000000000000569000062
:1000300000000000000000002D6400008574000036
:10004000F3050000F3050000F3050000BD77000094
:10005000000000006D450000000000000D6400007D
:10006000F30500000000000057190000F305000030
:10007000000000005D790000F3050000F3050000BA
:100080000000000000000000000000000000000070
:100090000000000000000000000000000000000060
:1000A0000000000000000000000000000000000050
:1000B0000000000000000000000000000000000040
:1000C0000000000000000000000000000000000030
:1000D0000000000000000000000000000000000020
:1000E0000000000000000000000000000000000010
:1000F0000000000000000000000000000000000000
:1001000005030300000000000000000000000000E4
:10011000FFFFFFFFFFFFFFFFFFFFFFFFFFFFFFFFEF
:020000040000FA
:1001200014010164CBE8030202FB0113E2051B206A
:10013000E3041AE4041AE5041AE6041AE7041AE8C8
:10014000041AE9041AEA041AEB041AEC041AED047E
:100150001AEE041AEF041AF0041AF1041AF2041A3F
:10016000F3041AF4041AF5041AF6041AF7041AF838
:10017000041AF9041AFA041AFB041AFC041AFD04FE
:100180001AFE041AFF041112061B2001041A0204AD
:100190001A03041A5E041A62048116010162110B2B
:0801A0004902410000000000CB
:020000040000FA
:1005200000F002F800F030F80CA030C808382418A9
:100530002D18671EA246AB4654465D46AC4201D11B
:1005400000F022F87E460F3EB6460FCC012633421D
:1005500000D0FB1A3343A246AB461847D4D800005C
:10056000F4D800000023002400250026103A01D30F
:1005700078C1FBD8520700D330C100D50B6070475B
:100580001FB51FBD10B510BD01F02CF91146FFF7C6
:10059000F7FF0AF055FC01F044F903B4FFF7F2FF4E
:1005A00003BC01F09BF9000070B505460C461646E9
:1005B00002E00FCC0FC5103E102EFAD2082E02D347
:1005C00003CC03C5083E042E07D301CC01C5361F5A
:1005D00003E021782970641C6D1C761EF9D270BD71
:1005E0000748804707480047FEE7FEE7FEE7FEE7CB
:1005F000FEE7FEE704480549034A054B7047000043
:100600008974000021050000200A0020200E00202F
:10061000200A002070477047704770477047FEE718
:10062000583635584343514330B55C18010C130C10
:100630000D4692B25D4380B251432C190546554395
:100640000A0C09044D1962415843010C0004401979
:10065000514130BD70B5054610460C4618430ED0CA
:1006600000210846891A984127DA00210846491BCB
:10067000A04118DA2846214600F0DBFF70BD002CAF
:1006800003DA01230022DB0707E000210846491BAB
:10069000A04102DA0022D243530810461946C04650
:1006A000C0462A4627E000216842A14100F0C1FF70
:1006B000002440428C4121461AE000210846491B93
:1006C000A0410CDA214600205242984103462846B8
:1006D00000F0AFFF002440428C41214670BD002055
:1006E00052429841002103466842A14100F0A1FF17
:1006F000002452429C41234670BD034610B50B4373
:100700009B070FD1042A0DD308C810C9121FA3429A
:10071000F8D018BA21BA884201D9012010BD0020B2
:10072000C04310BD002A03D0D30703D0521C07E0FA
:10073000002010BD03780C78401C491C1B1B07D1FE
:1007400003780C78401C491C1B1B01D1921EF1D16F
:10075000184610BDF8B5042A2CD3830712D00B78A5
:10076000491C0370401C521E83070BD00B78491C98
:100770000370401C521E830704D00B78491C037081
:10078000401C521E8B079B0F05D0C91ADF00202387
:10079000DE1B08C90AE0FFF707FFF8BD1D4608C9C0
:1007A000FD401C46B4402C4310C0121F042AF5D251
:1007B000F308C91A521EF0D40B78491C0370401C70
:1007C000521EEAD40B78491C0370401C012AE4D461
:1007D00009780170F8BD01E004C0091F0429FBD2AB
:1007E0008B0701D50280801CC90700D002707047BA
:1007F00000290BD0C30702D00270401C491E0229F9
:1008000004D3830702D50280801C891EE3E70022FF
:10081000EEE70022DFE70000002203098B4273D3DA
:10082000030A8B4258D3030B8B423CD3030C8B42FD
:1008300021D312E003460B437FD4002243088B42AE
:1008400074D303098B425FD3030A8B4244D3030B57
:100850008B4228D3030C8B420DD30902FF2212BA1C
:10086000030C8B4202D31212090265D0030B8B4298
:1008700019D300E0090AC30B8B4201D3CB03C01A82
:100880005241830B8B4201D38B03C01A5241430B5D
:100890008B4201D34B03C01A5241030B8B4201D34D
:1008A0000B03C01A5241C30A8B4201D3CB02C01AB8
:1008B0005241830A8B4201D38B02C01A5241430A30
:1008C0008B4201D34B02C01A5241030A8B4201D31F
:1008D0000B02C01A5241CDD2C3098B4201D3CB01C6
:1008E000C01A524183098B4201D38B01C01A524175
:1008F00043098B4201D34B01C01A524103098B4279
:1009000001D30B01C01A5241C3088B4201D3CB0063
:10091000C01A524183088B4201D38B00C01A524146
:1009200043088B4201D34B00C01A5241411A00D2F6
:1009300001465241104670475DE0CA0F00D049425F
:10094000031000D3404253409C46002203098B42CF
:100950002DD3030A8B4212D38901FC2212BA030A57
:100960008B420CD3890192118B4208D389019211D9
:100970008B4204D389013AD0921100E08909C3095E
:100980008B4201D3CB01C01A524183098B4201D360
:100990008B01C01A524143098B4201D34B01C01A4B
:1009A000524103098B4201D30B01C01A5241C308C3
:1009B0008B4201D3CB00C01A524183088B4201D332
:1009C0008B00C01A5241D9D243088B4201D34B004D
:1009D000C01A5241411A00D20146524110466346A4
:1009E0005B1001D34042002B00D54942704763465B
:1009F0005B1000D3404201B50449002802DC491CC9
:100A0000084000E00846C046C04602BDFFFFFF7F29
:100A1000F0B50C46871A9C410D46861A9D4103D2BB
:100A2000C01BA141D21963410D0D1F0DC94EEC1B16
:100A3000AE435CD07F057F0D0026002F51D02D05E1
:100A4000AC46A943DD020123ED0A1B051D4320230B
:100A50001B1B24D41746E740381871412F46E74046
:100A6000CC199D402818314661410C0D27D16144B5
:100A70009A4013D50023401C594152000ED1400822
:100A8000400001224B005205D34207D30520400706
:100A9000C14201D5B04900E0B0493046F0BD6B001D
:100AA000002A00D001229A181F23203C1B1B01D5CD
:100AB000002302E0E540281871410C0DD7D0012435
:100AC00024050919C407CD0740084908E40F284345
:100AD0006144002CD5D00024401C61419A40D0D103
:100AE000CDE76A05520DD9D1C90FC907D5E79C4D8D
:100AF0004E00002801D0012400E0002434195F00DA
:100B0000002A01D0012600E00026BE19954FAC4214
:100B10000CD8AE420AD8B44206D001256D05EC428D
:100B2000BCD010461946F0BD9942FCD00020394691
:100B3000F0BDF0B51FB40C460F46811A9F41254603
:100B4000861A9D4106D20125ED076F40401ABC412F
:100B500052187B41210D1E0D8D1BAC467D4D8D43E2
:100B60007ED075056D0D7CD00D05AE46AC431B03E4
:100B70001B0B794D52429D41202366469B1B14D38B
:100B80001746F740381800260090744160462F46FB
:100B90000741E41900989D402818664116D4714613
:100BA00071189A4025D5012320E093182A466A41FE
:100BB0005200002B00D0521C1E23203E9B1B002BFA
:100BC00061DD3541EE1728186641E8D500187641F9
:100BD0005B1C9A4000D3401C4B05F3181524E340DE
:100BE00010D3002B52D071467118D30FC01802D306
:100BF000491C05B0F0BD0123DB079A42F9D140083A
:100C00004000F6E701225205B21801D1002853D066
:100C10000123CC0ADB029943891E002A08D1020C69
:100C200003D0020C0004103902E0024600202039F3
:100C30000023550B05D112020823550B01D1520197
:100C40000D23550C01D112011B1DD50C01D19200B1
:100C50009B1C150D01D152005B1C2025EE1A01E0F2
:100C60002CE022E00546F54015439840CA1AE107FA
:100C700069181305C918002ABBDA032040070818B1
:100C8000C10FC9070FE071466118B2E7F1074008CC
:100C90000843711071444A000CD001235B059A424D
:100CA000A7D2C90FC9070020A3E74905490D26D1DE
:100CB000002001E00028F4D100219AE7284D6600C9
:100CC000002801D0012100E0002171185F00002AF6
:100CD00001D0012600E00026BE19224FA94210D8FB
:100CE000AE420ED8B14208D001256D05E94206D0CA
:100CF0001946A802414010467BE79C4201D021469C
:100D000077E70020394674E710B50C465C4005D5FE
:100D10000124E4076340FFF70CFF10BDFFF778FEE6
:100D200010BD30B40C465C4004D50124E407634098
:100D300030BC6DE630BCFCE670B50124E4076140D0
:100D40000D465D4002D4FFF763FE70BD6340FFF7C0
:100D5000F0FE70BDFF0700000000F0FF0000F07F14
:100D60000000E0FF0000F87FF0B5F94D0C091E0906
:100D70002C402E402F468BB0A7437DD0B543FCD0EE
:100D8000002E7AD0002CFCD00D465D40ED0F25439F
:100D9000AC1BFF25AD0464190894C502440DC902BB
:100DA0002143500DDC0204430120C00701430443EA
:100DB000D2020191200C110C00958C4601042346AF
:100DC0008B430A9161460904E24D8A430991010A65
:100DD0007D4449198039097805464D4301266D182F
:100DE000F605751B6943C90C640B891C4C436418D8
:100DF000B5012C1B250C2E04B4434C434D43210C50
:100E0000691889090591009DE90701D00121C907E9
:100E100004912C4601996708CD072F434C08059D86
:100E2000E10B4D432D0C29466646754302950D4650
:100E300045432E46029D7D1BB44100950D465D4302
:100E400001942C0C2F040D465543AE462D0C3D430A
:100E5000029503947546049C2D04641B049406D2E9
:100E6000029C039D641C002675410395029401AC0D
:100E700070CC009F7D1B01E03EE162E1B4410904BA
:100E80000095079101940599A4086143090C0C464B
:100E90004443650BE7040C4666467443A646640B60
:100EA0003C43039502947446049DE4042C1B049473
:100EB00006D2029C039D641C002675410395029492
:100EC00001AC70CC009F7D1BB44101940C465C4387
:100ED0000095650FE7000C465443A646640F3C435B
:100EE000039502947446049DE4002C1B049406D2DE
:100EF000029C039D641C002675410395029401AC7D
:100F000070CC009F7D1BB441AE09AF06049DC900A3
:100F1000AD092F43049DA406AD060495079D3443F7
:100F200069180791059DE10B4D432D0C2946664636
:100F3000754302950D4645432E46029D7D1BB441E7
:100F400000950D465D4301942C0C2F040D4655432E
:100F5000AE462D0C3D43029503947546049C2D042A
:100F6000641B049406D2029C039D641C00267541F8
:100F70000395029401AC70CC009F7D1BB441019499
:100F80008C050694079C890A611800950791019CBD
:100F90000599A4086143090C0D464543680BEF040D
:100FA0000D46644665436C0B3C43049FED047D1B7A
:100FB000AC4602D20025641C6841009E019D371B8F
:100FC00085410846584301950C46460FC5005443D9
:100FD000600F28436546E4002C1B02D20025401C0C
:100FE0006E41019D3F1AB5412846BD098006284340
:100FF0008446A009BF064E020699A4067618074348
:10100000079D002068410A99079019430020099B19
:1010100000906046FF1913434041E20F64003A43D9
:10102000A4460446D71A8C41A04203D9012000905F
:1010300020463A46C70F941840416246D20F2243D9
:10104000644664000494009CBE466400D71AA4461B
:10105000044602978C417746002F01D1A04204D963
:101060006046401C8446029A2046C40FA646941847
:101070004041049A0546D20F224364466400D31AC5
:101080008D417146002901D1A84202D928461A464D
:10109000641C10430122002800D016436102002086
:1010A000079B891904465C410223002C02DB491886
:1010B00013466441089DCE0A2D145D194B05670542
:1010C000E10A2C050D1908993E43C9076940002B18
:1010D00008D0934006D30022761C5141002B01D149
:1010E000760876001C4A002D43DB154241D0AA4306
:1010F0003FD030460BB0F0BD06180D464D41174CA1
:101100007642AC411AD395181C465C41134A6D4295
:10111000A24113D3012252054C00D4420AD15C00F3
:10112000D4420BD04B4002D592021143E2E7490072
:101130004908DFE75940C90FC90718E000200849EE
:10114000D8E7054801420DD10342F7D0F2E700008D
:101150000000FF0780C400000000F07F0000E0FFF7
:101160000000F87F114859400143C012414000205F
:10117000C0E70123089A9B069A4205DC0322520726
:101180008918C90FC907B5E7052252078918074A08
:101190001143D2125140ADE770B515461C460246C8
:1011A0000B4628462146FFF7DFFD70BDFFFFFF7F9E
:1011B00030B50346CA02400D1043164D164C0A15B1
:1011C00002D02043002A06DBAA1A002A12DDD040F2
:1011D000FF2A0BDC30BD5205520D01D14000400802
:1011E000AA1A07D4D0404042FF2A01DD002030BDBA
:1011F0000028FCDD4A00002B01D0012000E0002087
:10120000101801225205D042F0D8C817C0436040E0
:1012100030BD00001E040000000000800346CA022A
:10122000400D10B510430A1504D00124E4072043F3
:10123000002A05DB0A4CA21A04D4D040FF2A00DDA4
:10124000002010BD4A00002B01D0012000E000204A
:10125000101801225205D042F2D8C817C04310BD61
:101260001E0400001F22030C02D10F22000402D032
:10127000030E03D004E00020014670470002083A44
:10128000030F01D10001121F830F01D18000921EB4
:10129000002801DB4000521E120551184205C01201
:1012A000411810467047C10FC90700D040420122C3
:1012B00092071143D6E701218907D3E710B50B1E2A
:1012C00001D0202301E0011E2BD00C0C01D1090418
:1012D000103B0C0E01D10902083B0C0F01D1090192
:1012E0001B1F8C0F01D189009B1E002901DB4900C7
:1012F0005B1E0446DC4021431C05A4182022D21AA0
:1013000090404B05C20AC90A1A430919830501D145
:10131000430818401623984002D30020521C414134
:10132000104610BDCA0FD20703D00B460021404221
:101330009941024B1A43C1E7004ABFE70000D04180
:10134000F0B58B4C0F09254689B0BD437BD01D09F4
:101350002646AE43FAD00E465E402740F60F3E4387
:10136000254071D024012142FBD0FF24AD19A404F3
:101370002D1B039501252D05DB02DB0AC9022B433A
:10138000C90A29431E010901040F130F0501214356
:101390001701880B820391432D098C46A90B1E432C
:1013A0008A039543B30B9A0396433F09BA0B940300
:1013B000A74302962E467E430497B6464E19D71988
:1013C0000C460196544305977E43371B7646BF1B58
:1013D0003601B646BE0B361900967646BC04371960
:1013E000009C01D3641C00946400002F01D00126EE
:1013F0003443029E049F754366467E4304967600FE
:1014000034196E0034190094029C019E1C19664325
:10141000751BAE46069465464519059C05956C43BB
:10142000594375460891691A0191049E014651433A
:10143000A41B0491611A009C0791E10605D0610983
:101440000122114302E072E06EE06109089D00276D
:101450002C0A2D066918049D7C412A0A2D0669185C
:10146000019D6241AC0DAD026D185441079A910D7A
:10147000920255196141029A644658435443069BAF
:10148000059A5A43121A131B9A0E9B015B187A4154
:10149000010B0005C3185141220A200644195A4184
:1014A0009A4200D2491C01204002814203D31523F5
:1014B0000226F64302E014230326F6432020C51A31
:1014C000A9401746AF40DA400A4320460399D84066
:1014D0000914731819055118039A3843D20751405B
:1014E000AC4009D00122944006D30022401C514157
:1014F000002C01D1400840001E4A934212D3012221
:1015000003989206904207DB0520400709181A4805
:101510000143C012414004E0032040070818C10FF6
:10152000C907002009B0F0BD0020F107FAE705184F
:101530000C464C4111486D42A04115D394181A46EF
:101540005A410E48644290410ED301204A004005A2
:10155000824209D35A00824206D35940C90F084A31
:10156000C90700201143DDE700200649DAE7000043
:101570000000FF07FE070000FFFFFF7F0000E0FF05
:101580000000F07F0000F87F10B501469E240002A5
:10159000CA15A307002A02D01843002A04DBA21AA6
:1015A000002A0CDDD04010BD1206120E01D1400001
:1015B0004008A21A03D4D04040420028F3DDFF22A5
:1015C00048001206904201D9002010BDC817C04340
:1015D000584010BD1F22030C02D10F2200041CD062
:1015E000030E01D10002083A030F01D10001121FBE
:1015F000830F01D18000921E002801DB4000521EA3
:10160000D2055118021251181922904004D3491CD6
:10161000002801D14908490008467047C10FC90791
:1016200000D04042012292071143D3E701218907EC
:10163000D0E7FEB5044610460D46184373D0A646C3
:101640008C460020A41A01469D4167D366460027B8
:1016500001243D46B61A9D4102D313463A46212441
:10166000654676462F04360C3E432D0CB61A9D4136
:1016700004D3150C1B042B43120410346546764624
:101680002F06360A3E432D0AB61A9D4104D3150E85
:101690001B022B4312020834654676462F07360993
:1016A0003E432D09B61A9D4104D3150F1B012B4350
:1016B0001201241D65467646AF07B6083E43AD08C5
:1016C000B61A9D4104D3950F9B002B439200A41C96
:1016D00065467646EF0776083E436D08B61A9D418B
:1016E0001AD392185B41641C16E0001876466546D2
:1016F0004941B71A9D410191009009D36046B11A42
:1017000098418E468446009801990025401C694105
:10171000DD0752082A435B08641EE6D5724663461D
:1017200003B0F0BDFFE72046284307D00020C043A8
:101730000146C046C04622462B46F1E7002001463E
:10174000F7E70000F8B5264C4E00069DA6420AD8E1
:10175000A64201D1002806D15E00A64203D8A642C7
:101760000AD1002A08D00D242404254233D029466A
:10177000002000F05EF8F8BD0C461C4311D49942DD
:1017800007D0C81A02D3EFF30080F8BDEFF3008052
:10179000F8BD801A02D3EFF30080F8BDEFF30080AC
:1017A000F8BD09242407E5008B4207D0581A02D35C
:1017B000EFF3008006E0EFF3008007E0101A03D398
:1017C000EFF30080A04303E0EFF30080A043284341
:1017D00080F30088F8BD009500F042F8F8BD0000E5
:1017E0000000E0FF754600F045F8AE46050069468A
:1017F0005346C008C000854618B020B5FEF7FAFE73
:1018000060BCB64600260027C0C5C0C5C0C5C0C55F
:10181000C0C5C0C5C0C5C0C5403D490849008D46CA
:10182000704710B50446C046C0462046FEF7B5FED8
:1018300010BDC80212D54803400F002804D0C803C9
:10184000C043012188407047EFF300800001000988
:1018500003210907084380F3008870470020704780
:1018600010B500200249029A00F008F810BD0000EF
:101870000000F87F00487047B801002010B50C4602
:101880001107090F092904D00A290AD008290CD107
:1018900004E011460820FFF7CCFF06E0510606D50C
:1018A00001E0510601D50120C007214610BDD10637
:1018B00007D501010909CC084907000E00060443B9
:1018C00009E0410F20024907000A0143200E0006EB
:1018D0001D22D14101430846E7E7000001491820D5
:1018E000ABBEFEE72600020070B58C180578401CE0
:1018F0006B075B0F01D10378401C2A1106D10278D7
:10190000401C03E00678401C0E70491C5B1EF9D198
:101910002B0705D40023521E0DD40B70491CFAE787
:101920000378401CCB1A921C03E01D780D70491CF3
:101930005B1C521EF9D5A142D8D3002070BDB0B5B2
:101940000C4605460420012109F02EFD28462146BB
:1019500008F0A2F9B0BD80B5012006F073FF0028A1
:1019600002D0012006F068FF80BD0000B0B51E2047
:10197000CF4D295E0020C4430029204605D56A8B3F
:101980003C20504349420BF061FA68216852022022
:10199000295EA142204605DD6881A87C40060BD463
:1019A0002C86B0BD6A8B3C20504349420BF04EFA66
:1019B0006881A87C4006F3D52E20295E1620285E7B
:1019C000884201DAE88501466A8B3C205043CA17F9
:1019D000891851400BF018FA04462C86B0BDC04659
:1019E000F0B581B0B24FF98B0CB2144A012C0ADB6E
:1019F000387EC00607D5788BBA8B121A3C2050432C
:101A00000BF024FA024610203D5E6C437D20C60098
:101A10002046314614460BF019FA60217852BC84F6
:101A20001620385EC11740184840684331460BF015
:101A30000DFA0349088001B0F0BDC046FFFF000069
:101A40000E040020F0B581B0852041009948425C29
:101A500041180123C95609028A181621944E745E52
:101A60000621324D695E914201DC94420CDC212258
:101A7000D200835C801840780002C018404200B257
:101A8000814209DB844207DA0020A861E8616870BE
:101A9000F083EC8001B0F0BD6878411C69704000B3
:101AA00028180483C8B2042801D300206870E868AD
:101AB00000210091E9601A21695E1822AA5E80184F
:101AC00040181C21695E40181E27E95F4018460037
:101AD000174801686220484364210BF0B7F9801968
:101AE00013490860724EF15F002900D44942114A3F
:101AF00012888918CA178918514001290BDCA87867
:101B0000401CA870C0B22828C3D3F4830098A870E2
:101B1000EC8001B0F0BD0099A970192109010BF00A
:101B200095F9F083EC8001B0F0BDC046A803002019
:101B3000180A0020140A0020F0B516205C490B5E3C
:101B4000FF20DA305B4A1056002844D450205A4A0D
:101B5000145A488B012B55DBA04200D8A4E0031B8C
:101B6000584C257F667F36027519ED1825772E0AA9
:101B70006677ADB25426965BB54217D34D8C6D1C7B
:101B80004D84157C6D1C1574A67FE77F3F02BE193E
:101B9000761CA677360AE677EDB2322D03D14D7E5C
:101BA00001262E434E760021617721775221545A27
:101BB000E41854529BB2414D6E68F3186B60A3B2A7
:101BC0009B087D2B70D3002353523D490A78012393
:101BD00013430B7068E05020374A145A488B002B8F
:101BE00021D4A04260D9031B5221545AE418545204
:101BF0009BB2324D6E68F3186B60A3B29B087D2BCD
:101C000052D346E084424FD9231A5221545AE41841
:101C100054529BB2294D6E68F3186B60A3B29B08B7
:101C20007D2B41D335E084423ED9231A254C257FB4
:101C3000667F36027519ED1825772E0A6677ADB2E4
:101C40005426965BB54217D34D8C6D1C4D84157C84
:101C50006D1C1574A67FE77F3F02BE19761CA67720
:101C6000360AE677EDB2322D03D14D7E01262E43A2
:101C70004E760021617721775221545AE41854524C
:101C80009BB20E4D6E68F3186B60A3B29B087D2B60
:101C90000AD3002353520A490A78012313430B70D5
:101CA0005021054A5052F0BD5021034A5052F0BD18
:101CB0006405002000E40000D4020020F4030020AA
:101CC0009202002098020020F0B591B055208000CB
:101CD000EF4F395C3818407800024118ED4802880F
:101CE000642420460D92504302910BF08DF883B28C
:101CF0008B214900795C8B42079413D9FF2218325B
:101D0000BA5C934216D9801A10900004000E02D0DB
:101D10000020C04310902320C000385C801A0F9030
:101D20000A2511E0FF221632BA5C0025934207D83B
:101D3000109507E0521A0F92401A1090052503E003
:101D4000801A1090881A0F90FF231A461A32B8187A
:101D500001268157D048007840B28842039304DAC4
:101D6000BA5690420CDC00200BE01A461C32BA56E0
:101D700090420BDA401A0B90501A0A906D1C1CE02E
:101D8000801A0B900E95881A0A9017E04721890057
:101D90007956884205DA801A0B90881A0A90AD1C91
:101DA0000BE01A461E32BA56541A904201DB0B94CD
:101DB00001E0401A0B900A94ED1C0E958F2045000F
:101DC0007819B6494C8CFE22511CFE3A042A07D8D9
:101DD000027843781B029A18801C94420A46F3D278
:101DE000C8B2FF28069517D0791942008B5C8A1873
:101DF00052781202D218431C5D004F5D4919497890
:101E00000902C919891A95256D00A14F7F193D5CFA
:101E1000F85C401BA21A09E0785D7919497809023B
:101E2000091895204000385C00252246C3B290B2C4
:101E3000584389B20AF0E8FF40190D9948437D21C3
:101E4000C90008910AF0E0FF9549099008800F98B1
:101E5000C3B21098C7B200209F42324600D8024653
:101E60000E99092900D8064632400C924800012AF2
:101E700027D1874B181807468237B97AFA7A1202A7
:101E8000521804928221405C797809020818801A5D
:101E900089214900595C0F9AD2B2109BDBB29E1A7D
:101EA0004E4370430A21514305910AF0CFFF397B1D
:101EB0007A7B12025518B978FA78120251184F1B22
:101EC0001CE07349081805468235A97AEA7A12029D
:101ED00051188222805C6A78120210180490401A0D
:101EE0007843194605930AF0B1FF297B6A7B1202F9
:101EF0005118AA78EB781B029D186E1A0499081ADB
:101F000004907743384605990AF0A0FF281A80B25A
:101F1000049DA9B2401A0B99C9B20B9148430A9982
:101F2000C9B20A910AF092FF0999691A0918FD4885
:101F3000059181840C9800282AD00E984000F74B18
:101F400018180546AA35A97AEA7A1202521801929F
:101F5000AA21405C697809020818801A0399143193
:101F6000595C0F9AD2B2109BDBB29F1A4F43784351
:101F70000A21514304910AF069FF297B6A7B12020E
:101F80005618A978EA78120251188D1B019922E09F
:101F90000E984000E14908180646AA36B17AF27A4E
:101FA00012025118AA22805C727812021018039053
:101FB000401A1099CDB268430F99C9B204910AF042
:101FC00045FF317B727B12025118B278F3781B0205
:101FD0009E18771A0399081A03907D43284604999E
:101FE0000AF034FF301A80B2039DA9B2401A0B994F
:101FF00048430A990AF02AFF0999691A0918C94F32
:10200000F984C948431C059A92B29A420346C34ECA
:102010000E9D03D3C54B9A4201D95B1CBB8474222D
:10202000BF4B9A5A323289B28A4205D20246BB323B
:10203000914202D9BC300246FA840C98002831D073
:10204000680030180546D235A97AEA7A1202521889
:102050000E92D221405C697809020818801A452145
:102060008900715C0F9AD2B2109BDBB29F1A4F436A
:1020700078430A21514310910AF0E8FE297B6A7BDC
:1020800012025618A978EA78120251188D1B29E01D
:1020900000E40000140A0020080400206405002069
:1020A0006A090020680030180646D236B17AF27A02
:1020B00012025118D222805C7278120210180E900F
:1020C000401A1099CDB268430F99C9B210910AF025
:1020D000BDFE317B727B12025118B278F3781B027D
:1020E0009E18771A0E99081A0F907D43284610996A
:1020F0000AF0ACFE301A80B20F9DA9B2411A0B98BB
:1021000048430A990AF0A2FE29183A20884D29541A
:10211000080A2A463A325070080466D02E27E85D35
:102120002E462E36727812021018B278F3781B02FF
:102130009A1812041018109008980D9A504389B2FA
:102140000AF062FE1099091AE9552A220F92AB5C37
:102150002A462A3257783F02FF1810979378D7788B
:102160003F02FF183F04109BFB180D9FC01BC018B7
:102170000F9BE8540B0CB3700B0EF3700B0A7370CB
:10218000030C9370030ED370000A5070B54F0029F2
:1021900007D52E200021295428462E30C170817089
:1021A00041702A20285C29462A314A7812021018E8
:1021B0008A78C9780902891809040918A848428B45
:1021C000838B934205D1012929DB0A20484324212E
:1021D00006E0012928DB0A2048439A1A24215143AA
:1021E0000AF034FE089940182BE02E22A95C2846FC
:1021F0002E3043781B0259188378C6783602F318BC
:102200001B0459180D9BC91AA9540A0C82700A0E96
:10221000C2700A0A4270934F0029C2D5B9E7E12083
:102220000001411A44480AE09E1A24277743484295
:1022300064210AF0E9FDC1198A4F3E4870430AF053
:1022400005FE382168543835000A6870069D7919F2
:10225000FE22501CFE3A042A07D80A784B781B024B
:102260009A18891C94420246F3D2C1B2FF2941D088
:1022700079190006C00D0A5C0B185B781B029A18CE
:10228000831CCD5CC918497809024919891A13259C
:102290002D017E19355C3018407800024519F05C3C
:1022A000F3185B781B021818401B079E7543A21A8F
:1022B0000B2C30D392B280B25043704389B20AF0F3
:1022C000A3FD401980B21D49081A029C60433146A3
:1022D0000AF09AFD6108401821460AF095FD0104B4
:1022E00019229204914200DC06466E205C490E528F
:1022F00011B0F0BD785D79194978090209181320E9
:1023000000013A5C38184078000280180025224607
:10231000079E0B2CCED211B0F0BDC04600E40000E9
:1023200064050020D40200207A0D00007B0F00001D
:1023300098020020A08C000080EE360010270000DC
:10234000F0B583B0FD4D287EC00604D44748002177
:10235000018103B0F0BD687E400757D401242002FC
:10236000F54E315C30184078000240187021695EEB
:10237000081A1021695E884250DC81204000315CDF
:10238000301840780002411837480088884245D20A
:10239000364B19894F1C1F81196908181861412192
:1023A0008900725C711849780902891802914908FC
:1023B000BAB28A4213D183214900725C71184978FC
:1023C0000902891801912D21C9000AF01DFD274B32
:1023D0000199884201D200271F8100201861029ACA
:1023E000B9B29142B5D300271F8183214900725CA5
:1023F0007118497809028E182D21C9000AF004FDD0
:10240000B04213D21948076103B0F0BDA88B698BA5
:1024100081429ED301F0EAFF03B0F0BD1348018969
:10242000002996D0491E018103B0F0BD698C22209D
:102430000F4A11542023D55C1046203046783602CE
:1024400075196D1CD5542232090A517009490A7850
:1024500022430A70290A417001F0C8FF03B0F0BDA1
:102460006405002000E40000140A0020A8030020F6
:102470007003002066030020F0B585B00446AF4F1E
:10248000387E800762D4B048017E427E1202511825
:10249000827EC37E1B029A18120451180C1BBA8B41
:1024A000242151438C4200DC0C460476220C8276B7
:1024B000220EC276220A4276A148426E8A4200DC8F
:1024C00041666C23FA5A002A00D1D1E003930492AA
:1024D0002425204629460AF0B9FCBF8B7D43B8422B
:1024E00008DC99480021C1760576290C8176290AF5
:1024F00041762C469248426EAA4201DC45662A4645
:1025000074208E490E5A1020085E0290B04229DDD8
:102510000192242120460AF099FCB84208DC8A483E
:102520000021C1760576290C8176290A41762C4650
:102530000198A842814F824800DC4566049A039BBB
:10254000029D10B2022800DBA3E0B4E07C48817B4E
:1025500000290CD07B48008801B20F295ADC794948
:10256000102066E0754F049A039B029D88E0FF21CE
:102570001231714A555CC17B002914D00021C1730E
:10258000B98B0187408F421A24D4002DE2D07D20E0
:10259000C00050430AF05AFC691C64224A430A23D3
:1025A0004343981824E06C203E5E681E622822D8BF
:1025B0007D20C00070430A216943491F0AF024FCB2
:1025C00060490880AE422EDA00B20F2800DDA8E094
:1025D00010202EE00A1A7D20C00050430AF036FC7D
:1025E000642169430A22424391420ADD881A29463E
:1025F0000AF02CFC09E0534964200880AE4216DA48
:1026000018E0642029460AF0FFFB4E49088001B219
:102610000F29A4DD19221201521E91420ADD192050
:102620000001484905E002DD00B26D287CDC454927
:1026300064200880444D297E6A7E12025118AA7EC9
:10264000EB7E1B029A181204561880B24443642190
:1026500020460AF0D9FB341A2C76200CA876200EDE
:10266000E876200A68766C23FA5A002A00D02DE713
:1026700074203E5A10203D5EB54201DD00221AE072
:10268000002C3EDD2E48416E002944DD10B20228A8
:1026900011DB1436AE420EDB0122FA522A48002129
:1026A000C176B98B46244C43047625494C66210CEF
:1026B0008176210A4176387E800602D4387E000772
:1026C00001D5002A07D0002C0DDD1D48416E0029E0
:1026D00013DD05B0F0BD1C480021C176817641763E
:1026E00001761748416618480021C1768176417607
:1026F00001761348416E0029EBDC0021416605B0EC
:10270000F0BD11480024C4768476447604760C48E3
:10271000416E0029BADC0021416610B20228B8DA05
:10272000C9E76D2884DA15E719221201531E984271
:1027300000DC0FE70A8072E700E400006405002077
:10274000D40200200200002098020020F0B583B0DF
:10275000ED4E707EC00614D5307EC00611D46C20BC
:10276000305EFE4C617E88420FD0207E411C217677
:10277000B08BA26F1018A067C9B20AF045FB608742
:1027800003E0F6480021816701766C25705DF34F08
:10279000787600F0FDFC1620305E317EC90621D42B
:1027A00001281FDA012821DB307EC00600D490E02A
:1027B000787C40075DD4707E400763D4307EBF21B3
:1027C00001403176707EF72101407176707EEF21F5
:1027D00001407176707EDF2101407176307EC00746
:1027E0005ED052E00021F9730128DDDA02957420F1
:1027F000305A1025715F814200DD3EE1707EDF219D
:1028000001407176B87F052800D234E10020B87706
:10281000FF21CA31D24A515C890603D4317E80221D
:102820000A4332763222CF4988542E2288545022CD
:10283000B852029AB052337E012213433376C876DF
:10284000887648760876B8667083C74B5860FA7702
:102850000B46323358702E31C87088704870C348A8
:10286000018811430180307E02210143317603B09B
:10287000F0BDB88FB083787CFB2101407974707E05
:1028800040079BD5307EC0070AD0705F1121090137
:10289000B34A515C884203DD307EFE21014031762F
:1028A000307E800713D5705FFF211231AC4A515C36
:1028B00088420CDD787F401C7877C0B2022808D1AE
:1028C00000207877307EFD210140317601E0002044
:1028D00078771820305600280ED406F061F8387842
:1028E00080062DD4A04B1C68E0087C2840D8A04866
:1028F0000088221800214CE09D480288B86E80189C
:10290000B866717E89072AD4029596490B7E4C7E63
:102910002402E3188C7ECD7E2D022C192404E318AA
:10292000834200DB45E152009A180A76130ECB76FB
:10293000130C8B76130A4B768242029D4EDB45E1E7
:102940008848017E427E12025118827EC07E0002BB
:102950008018000440184A21795A401828E081491B
:102960000876020ECA76020C8A76000A487635E0AE
:102970007D202F46C500204629460AF045FA7A4BAD
:10298000C2B20421C94351434543621B3D467848C6
:1029900000881A60734A137E547E2402E318947EE2
:1029A000D27E120212191204D218511808186B4F55
:1029B0006C490876020ECA76020C8A76000A4876BE
:1029C000307EC00705D1307E800707D5307E4006B7
:1029D00004D567480088B96E0818B866ED20400035
:1029E0005F49085C62490C8884423FD92E265D4FBE
:1029F000B85D02953D462E35697809020818A97818
:102A0000EA78120251180904081801903820385C3D
:102A10003946383149780902081860437D21C900D8
:102A20000AF0F2F901994218BA552A23FE5C394698
:102A30002A314F783F02BE1901968F78CE78360240
:102A4000F6193604019FF619201A8019F74EFA4C30
:102A5000E054130CAB70130EEB70120A6A70029DF7
:102A6000020C8A70020ECA70000A4870307E80061E
:102A700000D462E167E1401CB8773746ED204000A2
:102A8000EC4A105CED4E318881420AD9FF24FFF7F1
:102A90001BF9E748007F092838D023460020E54A83
:102AA00038E0E34C207F09283E462746029D00D0AF
:102AB00039E1E149087E14464A7E120210188A7EE6
:102AC000CB7E1B029A1812041218FF20DC30205C07
:102AD000121AD3179A430A76130C8B76130ECB7601
:102AE000120A4A7618217156002904D5B96E091ABE
:102AF000CA179143B966317E490600D413E1F96ED5
:102B00000818F8660FE1C046640500202346DC344F
:102B1000C84A105DC0B2318844183E46397E387EBE
:102B2000C90727D1800656D4307E4006C04F02D553
:102B3000F86E0019F866C048017E427E12025118F4
:102B4000827EC37E1B029A1812045118029D725F86
:102B5000622A00DDD6E00022D5E0C046D402002083
:102B600000E4000098020020F40300201804002074
:102B7000140A0020800755D4705FAD4FF98C88424D
:102B80005BDAB87E401CB876C0B2042800D090E072
:102B9000307E0221014331760020B8761846CA30D3
:102BA000105C4007029D38D51233D05C02F084FFE0
:102BB00033E052089A180A76130ECB76130C8B76F4
:102BC000130A4B768242029D00DB07E7707E0221EA
:102BD0000143717602E7705F954FB98C884247DAFE
:102BE000F87E401CF876C0B2042875D3307E0121EF
:102BF000014331760020F876CA33D05C8006029D0E
:102C000003D4307E802101433176D05C400704D567
:102C100011200001105C02F0C5FD707EFD21014015
:102C2000717621E0EC4FB86E001BC1178843B8667F
:102C30002046FFF721FC029D75E00020B876B86EB3
:102C4000001BC11788431233D15CB28B4A43242145
:102C50005143884200D30146B966307E4006029D4A
:102C600002D5F86E0019F8662046FFF705FC5AE019
:102C7000307E7F21014031760021F976307E40069A
:102C800002D5F86E0019F8660194D448027E437E9E
:102C90001B029A18837EC47E2402E3181B049A1830
:102CA000029D735F622B00DD0121019BCB40D11A95
:102CB0002BE0B86E001BC11788431233D15CB28B76
:102CC0004A43242151438842029D00D30146B966FC
:102CD000307E4006C5D4C7E7307E4006029D02D54F
:102CE000F86E0019F866BD48017E427E1202511846
:102CF000827EC37E1B029A1812045118725F622AE8
:102D000000DC28E70122D440091BCA179143017651
:102D10000A0C82760A0EC276090A4176786E00287D
:102D200001DC00207866387F401CC1B20A2900D13E
:102D300000203877307E800605D4307E000702D42C
:102D4000A54F387823E0A44F387802210140BA7C9F
:102D50000A43F97C11431AD1A0490A7E4B7E1B021B
:102D60009A188B7ECC7E2402E3181B049B187A6E83
:102D7000934206DD0A76130ECB76130C8B76120A7D
:102D80004A763021795E725F8A4200DD71530021FC
:102D90007982715B3986FD2101403970307E800770
:102DA000C00FB873F94D287E697E09020818A97E04
:102DB000EA7E12025118090408187866E1210C0114
:102DC00021460AF043F881B2B78BB94209D9384697
:102DD00060432876010EE976010CA976000A687630
:102DE00000E007462E20285C29462E314A78120240
:102DF00010188A78C9780902891809040818214628
:102E00000AF024F882B23421695C2B4634335B78B3
:102E10001B0259188A4200D8014632202954778370
:102E2000080A3235687003B0F0BDC0466405002062
:102E3000D402002000E4000098020020140A0020C0
:102E4000F0B581B055208000CF4E315C301840780D
:102E500000024118CA4800886424604309F0D4FF86
:102E6000564901403046FE3032290AD35449097888
:102E700049B2092905DC042901DC534800E0514826
:102E80003018017840780002471874204F4D2F52B7
:102E90007D200101688B4843A98B09F0B5FF4108EB
:102EA00088B28208F92A09D3E5204000305CC007C7
:102EB00029D0687E400725D5642424E009281CD841
:102EC0002120C000325C3018407800028018404257
:102ED0001622AA5E0024824215DA1020285EB8422B
:102EE00011DDC8B20A2109F08FFF0446E520400039
:102EF000305CC00607D5012405E00A2109F084FFF3
:102F0000044600E063246C202C5201F03BF91B20A6
:102F10000001285AE5214900715C890718D42D4920
:102F20000880688B97498886A88BC8863220974985
:102F3000085C0A4632325278120210182885342072
:102F4000085C3431497809020818A88501B0F0BD41
:102F5000AB214900725C7118497809028E187043E0
:102F60001B4C214609F050FF1A490880688B7043BA
:102F7000214609F049FF834FB886A88B704321464C
:102F800009F042FFF8863220804F385C39463231F2
:102F90004978090208187043214609F035FF288551
:102FA0003420385C34377978090208187043214698
:102FB00009F02AFFA88501B0F0BDC046FEFF000061
:102FC000090400200303000005030000640500203D
:102FD00010270000120A0020D402002098020020CE
:102FE000F0B583B0EC480288EC480284552080009C
:102FF000E84F395C3818407800024118642050438B
:1030000009F002FF81B28B225200BC5CFF22A14278
:103010000FD91832BA5C914212D9811A0804000EF5
:1030200001D00020C1432320C000385C821A0A234B
:103030000CE01632BA5C0023914205D8194604E030
:10304000121B011B052301E0811AA21AFF252E463F
:103050001A36B81901240457D348007840B2A04268
:1030600004DABD57A8420ADC002009E02E461C36CF
:10307000BE57B04206DA001B361B5B1C14E0401B37
:10308000661B11E04724A4003C57A04203DA801BD2
:10309000A61B9B1C08E01E357D572E1BA84201DB9A
:1030A000304600E0001BDB1CD4B2CDB2A542029634
:1030B000019027D90A2B25D3580038180546D23558
:1030C000AB7AEC7A2402E4180094D223C05C6B78CB
:1030D0001B021818001B45239B00FB5CD2B2C9B22F
:1030E0008F1A5F4378430A245443214609F0AEFE09
:1030F000297B6A7B12025618A978EA7812025118C5
:103100008D1B1BE0580038180646D236B17AF27A89
:1031100012025118D222805C7278120210180090AC
:10312000401A6843214609F091FE317B727B1202FE
:103130005118B278F3781B029E18771A0099081A72
:1031400000907D432846214609F080FE301A80B267
:10315000009CA1B2411A0198C0B248430299C9B279
:1031600009F074FE20183A21C94A5054010A3A3233
:103170005170010401D08949488403B0F0BDC046B4
:10318000140A0020D402002000E40000980200206D
:10319000F0B583B055208000BE4F395C38184078B8
:1031A000000241187C4804886420604309F02CFE2A
:1031B0000646402079490E524D6FE1200101284614
:1031C000019109F043FE76490880B34A507E80069B
:1031D000C00F744908801620105E117EC9060CD5F8
:1031E00001286E4B0ADB507E400703D4507EDF215E
:1031F0000140517600255D6700E0684BB0B2029057
:10320000694806782D2E1CD82120C000395C38185A
:10321000407800024018844213D90096107E102195
:10322000084016467422B25A715E914219DD002898
:10323000F34A74D1507E800619D52819586703B017
:10324000F0BD107E80066AD5107E000767D4507EE0
:10325000800664D502980A383D284BD3987D401CDF
:1032600049E00028E64A5AD1507E800607D4002063
:103270005867507EDF210140517603B0F0BD281918
:103280005867517E1346DF220A405A7647497A5CD6
:103290007918497809028D185121C9007A5C79188A
:1032A000497809028C18019909F0D0FD81B2A14238
:1032B00000D80446A0B2A8423B4E00D325463C4865
:1032C00001887D20C00000292BD0ACB244432046A9
:1032D00009F09AFD009949B2102929DB02990929C0
:1032E00032D83B49088034480188204609F08CFDDB
:1032F00038493AE000209875C0B20A2806D3002069
:1033000098755867507EDF21014051762E2E06D3E6
:10331000002098755867507EDF210140517603B038
:10332000F0BD2A49088028490880224908801BE00E
:103330000299092911D8224908801F48018820468E
:1033400009F062FD1F4910E01F4908801A480188F2
:10335000204609F059FD1D4907E016490880164826
:103360000188204609F050FD144908800B48A44903
:10337000C5858D830446FFF733FE208C4C216052B7
:10338000307840B24E2160520121E175E07203B005
:10339000F0BDC04600E40000140A0020D402002062
:1033A000EE090020EC090020080400208A02000039
:1033B000160400200E0000201C0A00200600002039
:1033C00010000020080000200C0000200400002055
:1033D000120000200A000020F0B581B034202C4CEF
:1033E000205C214634314978090209183220205CDA
:1033F000224632325278120212187D2000015043C8
:1034000009F002FD0A30410888B28208F92A07D380
:10341000E52040007949085CC0070DD164202FE009
:10342000092805D8E5225500744E725DD20609D4EC
:103430000A2109F0E9FC23E07148407E40071ED5CF
:1034400064201DE02120C000325C3018407800026A
:103450008018434216206A4A175E00209F420FDA06
:103460007423D35A1027D25F9A4209DBC8B20A21CB
:1034700009F0CAFC715DC90602D5012000E0632095
:10348000362160543634000A607001B0F0BDC04689
:103490009802002000E4000064050020B0B521205F
:1034A000C00056490A5C0818407800028018434260
:1034B00016225348825E9A421FDA027E202313436B
:1034C0000376027EEF23134003764E4A0023938057
:1034D00013704E4A137880241C431470827C40235E
:1034E0001A4382744A4C25881D432580037EF724A5
:1034F0001C400476530636D459E085235B00CC5C2F
:10350000CB185B781B021B199A421EDD027EDF235B
:1035100013400376027E102313430376394A0023B7
:1035200093801370394A137880241C431470827C72
:10353000BF2313408374364A13884024A343138067
:10354000027EF723134003760AE02E4A93882E4C1E
:10355000A34201D05B1C93801278002A00D0B0BD3A
:10356000827C530623D543239B00CC5C254B9D884E
:10357000A5421CD3047EDF2525400576047EEF2579
:103580002540057601241C7000249C80BF231A402E
:1035900082741E4B1C787F2525401D701C4B1C8897
:1035A000402525431D80037E08241C4304765306D2
:1035B000D5D4FF230E33CB5C12498C889C42CED3EA
:1035C000037EDF241C400476037EEF241C40047637
:1035D00001230B7000238B80BF210A4082740C49A9
:1035E0000A88402313430B8008490A787F2313403D
:1035F0000B70017E08220A430276B0BD00E4000091
:1036000064050020A8030020FFFF000078020020CE
:103610001804002010B582B0FA4C2078C10757D0AA
:1036200081070ED5FD21084020707E20F649085AFA
:10363000820A102A05D1FE228A5692B2803106F003
:1036400019F96078410745D4E078410651D4A17852
:10365000C90765D1010700D580E0C10600D58FE01C
:10366000A1788A0700D59EE04A0700D5B0E00A0796
:1036700000D5C2E0CA0600D5D4E08A0600D5E6E04F
:103680004A0600D5F8E049B2002900D50AE1C10791
:1036900000D01CE1800700D52BE12078410700D540
:1036A0003AE1C10600D53DE1810600D55CE1410665
:1036B00000D57BE140B2002800D59AE16078C107CF
:1036C00000D0BCE1810700D5E0E1400700D5FCE176
:1036D00002B010BDFB2108406070DD48DD490818CC
:1036E00080B2C9498031112206F0C4F8E078410661
:1036F000ADD501210902D84A5158097841239B00D0
:10370000D2581278D54BDA709970BF210840E0701A
:10371000FD490A78022313430B70A178C90799D099
:10372000FA48008828210140FF20FE30FA4A105C48
:10373000D7230340581801A90870F948101880B21F
:10374000012206F097F8A078FE210140A170E178EF
:1037500004200843E070010700D47EE7F148EE49F9
:10376000081880B2F04949683331022206F082F825
:10377000E078F3210140081DE070C10600D46FE736
:10378000EA48E549081880B2E7494968133102223E
:1037900006F070F8E078EB210140081DE070A17898
:1037A0008A0700D460E7E248DB49081880B2DE49A6
:1037B00049686231022206F05DF8A078FD210140DF
:1037C000A170E27804201043E0704A0700D44EE76D
:1037D000D848D149081880B2D349496864310222D7
:1037E00006F048F8A078FB210140A170E27804209F
:1037F0001043E0700A0700D43CE7CF48C6490818D8
:1038000080B2C94949686731022206F033F8A078CE
:10381000F7210140A170E27804201043E070CA064D
:1038200000D42AE7C548BC49081880B2BE49496897
:103830006831022206F01EF8A078EF210140A17045
:10384000E27804201043E0708A0600D418E7BC48F0
:10385000B149081880B2B44949686A31012206F0BA
:1038600009F8A078DF210140A170E278042010431C
:10387000E0704A0600D406E7B248A749081880B2AB
:10388000A94949686B31012205F0F4FFA078BF21F6
:103890000140A170E27804201043E07049B2002991
:1038A00000D4F4E6A8489C49081880B29E494968AB
:1038B0006C31012205F0DEFFA0787F210140A1706C
:1038C000E17804200843E070C10700D1E2E69F4898
:1038D0009149081880B2944949686D31012205F078
:1038E000C9FFE078FA210140081DE070800700D48C
:1038F000D3E697488849081880B28B4949686F31E8
:10390000012205F0B7FFE078F9210140081DE070C1
:103910002078410700D4C4E6FB2108402070C1068E
:1039200000D4C1E6FE207A490A56131F032B02D3A6
:1039300006220A5400E0D2B2012000027749095859
:103940008448754B181880B252B2121F92B205F01B
:1039500091FF2178EF2008402070617840220A43CF
:103960006270810600D4A2E6FE2069490A56131F40
:10397000032B02D306220A5400E0D2B20120000237
:10398000664909587448644B181880B252B2121F25
:1039900092B205F06FFF2178DF2008402070617837
:1039A00040220A436270410600D483E6FE20584953
:1039B0000A56131F162B02D319220A5400E0D2B262
:1039C00001200002554909586448534B181880B229
:1039D00052B2121F92B205F04DFF2178BF2008406D
:1039E0002070617840220A43627040B2002800D4FF
:1039F00064E6FE2046490A56131F162B06D31922E9
:103A00000A5404E01004002064050020D2B2012012
:103A100000024249095852483F4B181880B252B22E
:103A2000121F92B205F026FF20787F2101402170FD
:103A30006178402008436070C10700D142E6FE2053
:103A400033490A56131F062B0AD309220A5408E0E9
:103A50005C5EFFFF00E400001800002070030020FF
:103A6000D2B2012000022D4909583E482A4B1818AD
:103A700080B252B2121F92B205F0FCFE6178BE20F5
:103A8000084040306070810700D41EE6FE202049C7
:103A90000A56131F212B02D324220A5400E0D2B26B
:103AA000012000021D4909582F481B4B181880B2ED
:103AB00052B2121F92B205F0DDFE6178BD200840BF
:103AC00040306070400700D402E6FE2010490A56DC
:103AD000131F212B02D324220A5400E0D2B201206A
:103AE00000020E4909580B480B4B181880B252B20D
:103AF000121F92B205F0BEFE6078BB21014040313A
:103B0000617002B010BDC046660300207A0200203A
:103B1000640500205C5EFFFF00E400001800002048
:103B2000FD5DFFFFFE5CFFFF40020020545DFFFFD4
:103B3000EF5DFFFFF15DFFFFF35DFFFFF55DFFFF51
:103B4000F75DFFFFF85DFFFFF95DFFFFFA5DFFFF27
:103B5000FB5DFFFF095EFFFF0B5EFFFF0D5EFFFFDA
:103B6000225EFFFF375EFFFF3C5EFFFF80B57420E3
:103B700005F032FE80BD80B5752005F02DFE80BDBC
:103B800070B55A4A11461039D44841600B78D4496F
:103B9000A02B0CD0FF2B0CD11D22D2024260137837
:103BA000FF2B00D182E0A02B3CD100233BE000237F
:103BB00000E0FF2314460F3C44602478A02C02D080
:103BC000FF2C16D000E0012314460E3C44602478FC
:103BD000FF2C0ED0A02C00D1022314460D3C4460D3
:103BE0002478FF2C05D0A02C00D1032314460C3CD4
:103BF00044601D24E4022578FF2D05D0446025781B
:103C0000A02D04D0FF2D04D1FF2B4FD051E0002573
:103C100000E0FF25661C46606678A02E0BD0FF2EC4
:103C20001CD009E0FF23541C44605478A02C28D0F9
:103C3000FF2C39D026E00125A61C4660A678FF2E71
:103C40000CD0A02E00D10225E61C4660E678FF2E9F
:103C500004D0A02E00D10325261D4660FF2B05D1E0
:103C6000FF2D23D010342B46224622E0FF2D20D0FA
:103C70009D4201D2103422469D4200D31D462B4660
:103C800017E00123941C44609478FF2C0CD0A02CE6
:103C900000D10223D41C4460D478FF2C04D0A02C83
:103CA00000D10323141D4460FF2B01D1416013E0B8
:103CB00010327C245C43A21842608A420CD000215E
:103CC0000B4B545C45182C72545C5C54491C3C29C9
:103CD000F7D15118416070BD08303C242146FCF7F3
:103CE00098FD03482146FCF794FD70BD10EA0000E2
:103CF00024040020F0B583B01D20C102774D696017
:103D0000752040020A780123FF2A1ED04A78002637
:103D1000FF2A35D08A78FF2A34D0CA78FF2A00D10A
:103D2000A8E068600278FF2A00D1C9E000260424D8
:103D30001F4642780025FF2A13D11A46002E00D1D3
:103D400086E066490A70486025E000271E463A462C
:103D500068600478FF2C1BD0144642780025FF2AA7
:103D6000EBD08278FF2A6FD0C278FF2A00D188E09A
:103D7000002E00D18AE0002258480270416009E01C
:103D8000012200E00222374668600478FF2CE3D16C
:103D90002A70696008467C21514341181031002483
:103DA0000B461D78FF2D27D1651C5B1C3B2C2C4638
:103DB000F7D317208402081980B2484D29460831EC
:103DC0003C2205F057FD02A8A021017028786968FF
:103DD0000A5CFF2A23D0A87800072AD4A8780124F7
:103DE000400706D5742005F0F7FCA878FB210140B8
:103DF000A970204603B0F0BD01A908230B70815CB7
:103E0000FF2956D1801817218902401880B201A9D4
:103E1000012205F02FFD0024204603B0F0BD081854
:103E2000001980B202A9012205F024FDA87800073C
:103E3000D4D5752005F0D0FCA878F7210140A970F1
:103E40000124204603B0F0BD0222002E00D078E706
:103E500094421DD3214C22706060002D9BD0A1782C
:103E600004230B43A370218D1D4B994293D0491C11
:103E7000218590E703221F4668600478FF2C87D0D5
:103E80006AE703221D46002EE2D05AE7032C1BD816
:103E9000124B1C705960002F09D0987808220243F9
:103EA0009A70188D0E4A904201D0401C1885032C40
:103EB00003D90024204603B0F0BD084622466AE735
:103EC00000222A70686066E7044C6060752005F087
:103ED00083FC0022227060685DE7C04690020020EB
:103EE000FFFF0000F0B587B055208000A04F395C7F
:103EF00038184078000241182C20F44A105E6422E1
:103F00000692504308F0A2FF81B28B225200BC5CA3
:103F1000FF22A14210D91832BA5C914213D9811AFA
:103F20000804000E01D00020C1432320C000385CEB
:103F3000801A05900A230EE01632BA5C00239142E3
:103F400006D8194605E0111B0591011B052302E067
:103F5000811AA01A05900220DC4C2056FF252E461F
:103F60001A36BC193A460127E457A04204DA95579D
:103F7000A8420CDC00200BE02E461C369657B042BF
:103F80000ADA001B0390301B04905B1C1AE0401BF4
:103F90000390601B049015E04724A4001457A0422E
:103FA00005DA801B0390A01B04909B1C0AE01E35C1
:103FB00055572E1BA84201DB039601E0001B03901E
:103FC0000496DB1C0598C6B2CFB2B7422AD90A2B99
:103FD00028D3580010180446D234A37AE57A2D026B
:103FE000EA180292D223C05C63781B021818801A68
:103FF000059AD2B2C9B2891A06254D4368430A26EA
:104000005643314608F022FF217B627B120253188F
:10401000A178E278120251182A460193CF1A029928
:10402000081A1CE0580010180446D234A17AE27A2B
:1040300012025118D222805C627812021518681A96
:104040007843314608F002FF217B627B120251184F
:10405000A278E3781B029A180192521A281A059046
:104060000020C74D2866A871A880E8706C8C414874
:1040700004806C20DB49085E02902886574338464E
:10408000314608F0E3FE0199081A80B2059EB1B2EC
:10409000411A0398C0B248430499C9B208F0D6FE49
:1040A000301880B200194708334807806F840A2609
:1040B00005962046314608F0A7FE0146774338466C
:1040C00008F0A2FE84B2EE8DB0B2069908F09CFE14
:1040D000074605460494654330460599FCF79CFB6A
:1040E00008466043069C214608F08EFE451967434A
:1040F000F01BC0B2059C214608F086FE0499484397
:10410000214608F081FE29188AB25120C0009B4C3C
:10411000235C201840780002C018824200D808466C
:1041200082B29849635C611849780902C9188A42C9
:1041300000D30146924CE18510480180A94DA98326
:10414000618689B202984843069908F07FFE688329
:1041500080B2E121090141430948017661660A0EF6
:10416000C2760A0C8276090A417607B0F0BDC046D5
:1041700000E40000680900206409002066090020AE
:104180009802002070B57E4CE079002803D1EC48FD
:10419000007EC00679D4207A012808D1E848007E44
:1041A000C00604D54A480088216E081820666C2095
:1041B000E34D2E5A642E17D1A07901281AD1206E12
:1041C000E121090108F020FEA98B4908884211D994
:1041D000287E00070ED4287E642E0BD120210840B3
:1041E00008D00120207105E00020A071297EC906B9
:1041F00000D42066607A012802D0A07A01280FD16D
:10420000287E80060CD50B202056CE49097849B26D
:10421000421A092A02DC081A0A2801DB012060710F
:1042200061792079012801D001291FD1284800880F
:104230002A7E92061AD5FF222E32904216D3E278B9
:10424000521CE270012927D1D1B2052924D80B21B3
:104250006156BC4B1B785BB2CE1A092E1CDC591A76
:10426000092919DC0020E070607101E00020E07095
:10427000287E8006C00F6073287E0007C00F607222
:10428000287EC006C00FA07270BD01202072AC480D
:10429000007EC00686D48AE7D1B20529E8D1A08580
:1042A0000020A080E070A74E3078A070207B01280D
:1042B00006D001202073A88BE0857D20C00060849B
:1042C000FFF710FE3078E072D2E7C046D40200203B
:1042D000140A0020F0B581B01C4615460E4607466C
:1042E0006020394600F048FA38880A4988420ED1E1
:1042F0006220314600F04CF96320294600F048F96D
:104300006420214600F044F9002001B0F0BD0120F6
:1043100001B0F0BDCCEF0000B0B5FF20DE30874C1F
:10432000215C2018407800024518FEF759FE8448A9
:10433000828B1348818F914204D2531AAB4206DD1F
:10434000511B03E08B1AAB4201DD511981875122C9
:10435000D200A35CA21852781202D2188BB29342F8
:1043600001D982871146074AA35CA218527812022B
:10437000D21889B2914200D28287B0BD00E4000019
:10438000D40200208A020000C1174018484070473C
:1043900070B512480921018011480178E8240C40C9
:1043A0001021674B5D5E104E01210022B5420D4683
:1043B00000DB15462D0164196C255D5F012D01DBC5
:1043C000154600E006252C1916255B5F1825ED43E0
:1043D000AB4200DB11466118017070BD140400206F
:1043E0007802002064050020540B0000F0B581B075
:1043F000FF200246CA3251498A5C520610D4504A04
:10440000137E40241C431476537E08241C435476A8
:10441000537E10241C435476537E20241C43547630
:10442000E0300856474A127852B2824204DB182024
:10443000434C2056002815D44648827FC07F000296
:10444000801825D077229200895C002920D048432B
:10445000642108F0D9FC83B239498A8B934215D282
:10446000101A14E0384800210170607EFE210140DE
:10447000617636480068E121090108F0E7FC344D17
:104480002880FFF749FF2888A08301E00A2088835D
:104490002B48017E7F220A4002762E4F0021F977B9
:1044A000B9772D4B1960437E5B0739D436246422DB
:1044B00000923A552A24395534243C5D32257C55E6
:1044C0003D4634356B781D022C19E1252E017443CD
:1044D0002E257C553D46363569703D462A35E970B6
:1044E000A9706970858B6E433E763A4632325370BE
:1044F000320EFA76320CBA76320A7A76220E2E37DD
:10450000FA70220CBA70220A7A70027E520601D525
:10451000124A11606C21009A4252458310490D8065
:10452000104901220A70417E04220A4342760E4855
:10453000017880220A43027001B0F0BD00E400005F
:104540006405002008040020E40200203C03002051
:1045500010030020980200204403002040030020A4
:1045600024030020DA0200200C04002080B5064855
:1045700014210170002005F073FA04480078002827
:1045800001D005F0BBFC80BD74020020A901002011
:10459000F0B583B00C46054672B601F093FE1426C2
:1045A00002960298411E0291002806D00298401CF3
:1045B00002900298401E0290F3E7162001F042FE9E
:1045C00001F050FD002826D00120014605F0B2FA86
:1045D00002960298411E0291002806D00298401CC3
:1045E00002900298401E0290F3E702200124214627
:1045F00005F0A0FA02960298411E0291002806D00A
:104600000298401C02900298401E0290F3E762B6A6
:10461000204603B0F0BD284601F014FE0296029831
:10462000411E0291002806D00298401C0290029878
:10463000401E0290F3E701F015FD002826D001206E
:10464000014605F077FA02960298411E0291002871
:1046500006D00298401C02900298401E0290F3E798
:1046600002200124214605F065FA02960298411EB7
:104670000291002806D00298401C02900298401E29
:104680000290F3E762B6204603B0F0BD50200190DF
:1046900002900298411E0291002805D00298401C09
:1046A00002900298401EF3E701F00CFE172001F083
:1046B000C9FD01F0D7FC002826D00120014605F0F5
:1046C00039FA02960298411E0291002806D00298FB
:1046D000401C02900298401E0290F3E70220012441
:1046E000214605F027FA02960298411E0291002801
:1046F00006D00298401C02900298401E0290F3E7F8
:1047000062B6204603B0F0BD019802900298411EA7
:104710000291002805D00298401C02900298401E89
:10472000F3E701F0FAFC05460026304601F04EFDA5
:10473000002D1AD06F1E0BE001F0EFFC2070B91BAA
:104740004842484101F042FD761C641CAE420CD048
:10475000019802900298411E02910028ECD0029824
:10476000401C02900298401EF3E701F012FE62B670
:104770000024204603B0F0BD70B582B00C4605465B
:1047800072B601F09FFD142601960198411E019119
:10479000002806D00198401C01900198401E01900D
:1047A000F3E7162001F04EFD01F05CFC002826D056
:1047B0000120014605F0BEF901960198411E0191C4
:1047C000002806D00198401C01900198401E0190DD
:1047D000F3E702200125294605F0ACF9019601987E
:1047E000411E0191002806D00198401C01900198BB
:1047F000401E0190F3E762B6284602B070BD28461D
:1048000001F020FD01960198411E0191002806D07B
:104810000198401C01900198401E0190F3E701F0BF
:1048200021FC002826D00120014605F083F90196DD
:104830000198411E0191002806D00198401C01906A
:104840000198401E0190F3E702200125294605F05A
:1048500071F901960198411E0191002806D0019836
:10486000401C01900198401E0190F3E762B6284673
:1048700002B070BD3C2001900198411E01910028BA
:1048800005D00198401C01900198401EF3E701F00B
:1048900019FD172001F0D6FC01F0E4FB002826D01A
:1048A0000120014605F046F901960198411E01914B
:1048B000002806D00198401C01900198401E0190EC
:1048C000F3E702200125294605F034F90196019805
:1048D000411E0191002806D00198401C01900198CA
:1048E000401E0190F3E762B6284602B070BD502624
:1048F00001960198411E0191002806D00198401CA4
:1049000001900198401E0190F3E701F006FC207031
:104910000025284601F05AFC01960198411E01919C
:10492000002806D00198401C01900198401E01907B
:10493000F3E701F0F2FB6070012001F047FC01F0A9
:1049400028FD62B6284602B070BDF0B581B00C46B5
:10495000054672B601F0B6FC162001F073FC01F0BA
:1049600081FB002827D00120014605F0E3F814253B
:1049700000950098411E0091002806D00098401C28
:1049800000900098401E0090F3E702200124214689
:1049900005F0D0F800950098411E0091002806D03F
:1049A0000098401C00900098401E0090F3E762B60B
:1049B000204601B0F0BD284601F044FC14260096C4
:1049C0000098411E0091002806D00098401C0090DD
:1049D0000098401E0090F3E701F044FB002826D029
:1049E0000120014605F0A6F800960098411E0091AE
:1049F000002806D00098401C00900098401E0090AF
:104A0000F3E702200124214605F094F8009600986F
:104A1000411E0091002806D00098401C009000988C
:104A2000401E0090F3E762B6204601B0F0BD00964C
:104A30000098411E0091002806D00098401C00906C
:104A40000098401E0090F3E72578284601F0FAFB15
:104A500001F008FB002826D00120014605F06AF885
:104A600000960098411E0091002806D00098401C36
:104A700000900098401E0090F3E702200124214698
:104A800005F058F800960098411E0091002806D0C5
:104A90000098401C00900098401E0090F3E762B61A
:104AA000204601B0F0BD0027F8B20019407801F0AF
:104AB000C9FB01F0D7FA00280AD17F1CF8B2854261
:104AC000F2D201F066FC62B60024204601B0F0BDCF
:104AD0000120014605F02EF800960098411E009135
:104AE000002806D00098401C00900098401E0090BE
:104AF000F3E702200124214605F01CF800960098F7
:104B0000411E0091002806D00098401C009000989B
:104B1000401E0090F3E762B6204601B0F0BD0000F1
:104B2000F0B587B00027284E284D05E0781C311DD0
:104B3000BAB28A42074615D20124E00305F06AF9A9
:104B400001280FD12888401C28803220009000982E
:104B5000411E00910028E9D00098401C0090009868
:104B6000401EF3E72888B0422CD905F033F9200223
:104B7000214606F025FC204605F0A6F93E202146F8
:104B800005F08EF9002606960596162004900396E9
:104B9000029601960E480090684605F049F9C82033
:104BA00005F0ACF8204605F09DF8204605F098F990
:104BB000204605F01BF9074805F0F4F8204605F0FB
:104BC000E5F82E8007B0F0BDE30300001A040020D2
:104BD00009033100FF7F000080B501464C20FFF73C
:104BE000D7FC80BD70B51C4615460E460146912087
:104BF000FFF7CEFC90203146FFF7CAFC95202946EE
:104C0000FFF7C6FC7E202146FFF7C2FCF620049980
:104C1000FFF7BEFC70BD0000F0B583B0C04C20783B
:104C20000221029108432070BE48BF4E315C30180B
:104C3000407800024018BD490880BD48315C3018FA
:104C4000407800024018BB490880BB48315C3018EE
:104C5000407800024018B9490880B948315C3018E2
:104C6000407800024018B7490880B748315C3018D6
:104C7000407800024018B5490880B548315C3018CA
:104C8000407800024018B3490880B348315C3018BE
:104C9000407800024018B1490880B148315C3018B2
:104CA000407800024018AF490880AD204000315CD8
:104CB000301840780002401820871021AA4801913E
:104CC000405E314656310422D54300230A794F799C
:104CD0003F02BA186D1D891C122B02D85B1C904232
:104CE000F4DA5823F35C374658377F783F02FB18D5
:104CF000984232DD8023F35C374680377F783F026D
:104D0000FB18984238DA0B7849780902CB18D11A87
:104D1000C21A0520504308F099F84019C1B2242066
:104D20004843342291498A5C0B4634335B781B023A
:104D30009A1842432E23CA548B4DAF8B7843087682
:104D4000030ECB76030C8B76030A4B76130E2E31B3
:104D5000CB70130C8B702B463AE02E21834A002037
:104D60005054D0769076507610762E32D070907067
:104D700050707D4B9F8B2DE0E5204000305CC107DB
:104D80007948878BE12000013422002907D1774937
:104D90008A5C0B4634335B781B029A1807E0734930
:104DA0008A5C0B4634335B781B029A1824384243E2
:104DB0002E23CA5478430876030ECB76030C8B76E9
:104DC000030A4B76130E2E31CB70130C8B70664B8F
:104DD000120A4A70606667866C25595B21866449B1
:104DE0000978E172E1210C01214608F00DF881B249
:104DF000B9420AD9384660435C490876020ECA7641
:104E0000020C8A76000A487600E007465648478337
:104E1000FEF716F82E20554F385C39462E314A7869
:104E2000120210188A78C97809028918090408182A
:104E3000214608F00BF882B23421795C3B463433CA
:104E40005B781B0259188A420A4600D80246322073
:104E50003A54100A3B463233587092B27D2000011A
:104E6000504307F0D1FF0A30410888B28208F92A7E
:104E700006D3E5204000305CC00726D1642009E05D
:104E8000092804D8E5225400325DD20623D40A2131
:104E900007F0BAFF344B362178543637000A787061
:104EA000585F11210901715C884203DC197E0122DF
:104EB0000A431A76FF211231715C884203DC187EA6
:104EC00002990843187603B0F0BD274B587E40077F
:104ED00023D56420DFE72120C000325C3018407801
:104EE00000028018424216201F4B1B5E0020934296
:104EF000D0DA74221C4B9A5A0092019B1A4AD35E54
:104F0000009A9342184BC6DBC8B20A2107F07CFF17
:104F1000315DC906BED50120BCE76320BBE7C046B2
:104F2000D40200200F03000000E400000400002071
:104F30000D0300000C000020110300000E000020F3
:104F400013030000060000201503000012000020DB
:104F5000170300000A0000201903000010000020C1
:104F60001B030000080000206405002098020020B8
:104F70000804002080B5762004F02EFC80BD80B5AA
:104F8000772004F029FC80BDF0B583B0F848008894
:104F9000810600D4DDE14104E1200001002901D5B2
:104FA000024600E00122F34901920A80F2490A8A8E
:104FB00014B2F24DAB8C02949C421EDD2B785B1C2C
:104FC0002B70DBB2032B06D300232B70AA84AB7D9E
:104FD00001241C43AC75EB8C029C9C4213DA6B7869
:104FE0005B1C6B70DBB2032B0FD300236B70EA8466
:104FF000AA7D01231343AB7507E000232B70EB8CD4
:10500000029C9C42EBDB00226A700A7ED2062AD503
:1050100016228B5E9AB22C8DA3421DDDAC78641CE7
:10502000AC70E4B2032C06D30024AC702A85AC7DAE
:1050300001272743AF756C8DA34212DAEB785B1C16
:10504000EB70DBB2032B0ED30023EB706A85AA7DD5
:1050500001231343AB7506E00024AC706C8DA342B2
:10506000ECDB0022EA700A7E920662D5C44A1288FE
:10507000AB8D9A421DD92B795B1C2B71DBB2032BB4
:1050800006D300232B71AA85AB7D01241C43AC758C
:10509000EB8D9A4212D26B795B1C6B71DBB2032BE6
:1050A0000ED300236B71EA85AA7D01231343AB75F0
:1050B00006E000232B71EB8D9A42ECD300226A713B
:1050C0001E228A5E2B8E002B00D15B42002A13D554
:1050D000D417171967409F420EDDAB795B1CAB718B
:1050E000DBB2032B0AD30023AB7152422A86AA7D7E
:1050F00001231343AB7501E00022AA7160228A5E8E
:10510000D317D4185C406B8E9C4210DDEB795B1C8E
:10511000EB71DBB2032B0CD30023EB71AB7D0124CD
:105120001C43AC75D313D2185A406A8601E00022A2
:10513000EA713422AB56934C247867B29F421EDD4D
:105140002B7A5B1C2B72DBB2032B06D3AF540022ED
:105150002A72AA7D01231343AB753522AB569F42B9
:1051600013DA6B7A5B1C6B72DBB2032B0FD3AF5479
:1051700000226A72AA7D01231343AB7507E0002267
:105180002A723522AB569F42EBDB00226A7236232D
:10519000EC567D4A127852B2A2421EDDAC7A641CF3
:1051A000AC72E4B2032C06D3EA540023AB72AB7D9D
:1051B00001241C43AC753723EC56A24213DAEC7A77
:1051C000641CEC72E4B2032C0FD3EA540022EA729E
:1051D000AA7D01231343AB7507E00023AB7237238D
:1051E000EC56A242EBDB0022EA727022895E542266
:1051F000AB5E99420DDA2B7B5B1C2B73DBB2032B6E
:1052000009D3A95200212973A97D01220A43AA7555
:1052100001E0002129735D4A117840240C4006D139
:1052200001215256002A04DA5949897901E0584986
:10523000C979C9B2EA895118E9818EB2019907F09A
:10524000E3FD864208D30021E981696C491C696449
:10525000A97D01220A43AA75CD214A004C498B5CE5
:105260008A1852781202D218029B93421ADD002C3F
:1052700006D10123454EF656002E02DA8B7900E066
:10528000CB79DBB26E8AF3186B829BB286B2B342E3
:1052900008D300236B82EB6C5B1CEB64AB7D0126B7
:1052A0001E43AE7567239B00CB569F4237DD002C13
:1052B00006D10123354EF656002E02DA8B7900E036
:1052C000CB79DBB22E8AF3182B829BB280B2834259
:1052D00008D300232B82AB6C5B1CAB64AB7D012637
:1052E0001E43AE75029B934219DD002C06D10122AC
:1052F000264B9B56002B02DA8A7900E0CA79D2B29B
:10530000AB8A9A18AA8292B2824208D30020A8825D
:10531000286D401C2865A87D01220243AA75A87D3E
:10532000C00702D10020A86113E0002C06D10120A3
:10533000164A1256002A02DA887900E0C8790199E3
:10534000C0B2AA691418AC61124807F05DFD84422E
:1053500001D203B0F0BDA87D02210143A975002050
:10536000A861A87DFE210140A97503B0F0BDC0462B
:105370007A02002014000020640500205003002061
:10538000140A0020080400201C0400201E04002031
:1053900000E40000A08C000010B5EF4959480880D7
:1053A00077204202EB4CE2611078FF2808D1564882
:1053B00008803B208202E2611078FF2800D18DE056
:1053C000104610300A80E0610278202162542246A3
:1053D00020324378537083789370C378D370037905
:1053E00013714379537183799371C379D371037ABC
:1053F0001372437A5372837A9372C37AD372037BA4
:105400001373437B5373837B9373C37BD373037C8B
:105410001374437C5374837C9374C37CD374037D73
:105420001375437D5375837D9375C37DD375037E5B
:105430001376437E5376837E9376C37ED376037F43
:105440001377437F5377837F9377C37FD377415C11
:105450004022A154014620314A784123E2548A78FF
:105460004223E254CA784323E2540A794423E254A3
:105470004A794523E2548A794623E254CA7947237C
:10548000E2540A7A4823E2544A7A4923E2548A7A57
:105490004A23E254CA7A4B23E2540A7B4C23E25457
:1054A0004A7B4D23E2548A7B4E23E254CA7B4F232E
:1054B000E2540A7C5023E2544A7C5123E2548A7C11
:1054C0005223E254CA7C5323E2540A7D5423E2540B
:1054D000497D5522A1543630E06110BD9F48E061FE
:1054E000204620303621FBF794F935201E21215427
:1054F000372021540548E08560857D204001E08407
:1055000010BDC04600EEFFFF00ECFFFF10270000BB
:1055100070B582B03B2084028E4DEC612078FF286C
:105520001DD0772040028C490880E8610178FF296E
:1055300019D0762004F050F9288C8849884204D18B
:10554000A87D08210143A97509E0421C2A84AB7D8E
:1055500008261E43AE758A4201D0801C2884EC6167
:105560007D4804802046017CFF2900D0ADE0417CCD
:10557000FF2900D0A9E0817CFF2900D0A5E0C17CF3
:10558000FF2900D0A1E0017DFF2900D09DE0417DF1
:10559000FF2900D099E0817DFF2900D095E0C17DF1
:1055A000FF2900D091E0017EFF2900D08DE0417EEF
:1055B000FF2900D089E0817EFF2900D085E0C17EEF
:1055C000FF2900D081E0017FFF297ED1417FFF29A3
:1055D0007BD1817FFF2978D1C17FFF2975D1014619
:1055E00020310A78FF2A70D14A78FF2A6DD18A7853
:1055F000FF2A6AD1CA78FF2A67D10A79FF2A64D1C3
:105600004A79FF2A61D18A79FF2A5ED1CA79FF2AB5
:105610005BD10A7AFF2A58D14A7AFF2A55D18A7A71
:10562000FF2A52D1CA7AFF2A4FD10A7BFF2A4CD1D6
:105630004A7BFF2A49D18A7BFF2A46D1CA7BFF2AAF
:1056400043D10A7CFF2A40D14A7CFF2A3DD18A7C83
:10565000FF2A3AD1CA7CFF2A37D10A7DFF2A34D1EA
:105660004A7DFF2A31D18A7DFF2A2ED1CA7DFF2AA9
:105670002BD10A7EFF2A28D14A7EFF2A25D18A7E95
:10568000FF2A22D1CA7EFF2A1FD10A7FFF2A1CD1FE
:105690004A7FFF2A19D18A7FFF2A16D1C97FFF29A5
:1056A00013D1014640310A78FF2A0ED14A78FF2AE9
:1056B0000BD18A78FF2A08D1CA78FF2A05D10A7946
:1056C000FF2A02D14979FF2911D0694608220A70C0
:1056D0000178FF2907D117218902401880B2694655
:1056E000012204F0C7F80024204602B070BD10303B
:1056F00017218C02001980B229462031362204F08D
:10570000B9F801A8A0210170E8690178FF2905D145
:10571000001980B201A9012204F0ACF8A87D0007AD
:105720000DD4A87D01244007DED5762004F054F87E
:10573000A87DFB210140A975204602B070BD7720ED
:1057400004F04AF8A87DF7210140A97501242046FC
:1057500002B070BD500300202E020020FFFF0000A9
:10576000B0B5D44D287E697E09020818A97EEA7E6C
:105770001202511809040818E1210C01214607F012
:1057800065FB83B2BE498A8B934209D954432C7678
:10579000200EE876200CA876200A68764A83B0BDF1
:1057A0004883B0BDF0B589B00446B44D00272F67DB
:1057B000B34E307E40060CD5707E000709D5FF221F
:1057C0001046E030AF490856AF49097849B28142E6
:1057D0001EDAB848817FC07F0002401800D140E146
:1057E00077218900A74A515C002900D139E16A7C00
:1057F000042313436B744843642107F005FBB18B0A
:1058000082B28A4201D3002000E0081AA88728E16A
:1058100007922F74707E0891FE21014071766420FA
:10582000001B24214143E86E069007F00FFB9749C7
:1058300008807D2004900101708B4843B18B059155
:1058400007F0E2FA4008E8874020295A0898102813
:105850002ADB092965D892480288012700200C2AF2
:105860003B4600D30346029303910192891A032910
:1058700000DB0746E1200101069807F0E7FA02463F
:1058800002983842039903D10198401A022808DC93
:105890008448008850430499C90007F0D7FA039957
:1058A000024604927E4829E0092941D879480088B7
:1058B00001220C28134600D33B460293039101902A
:1058C000081A032800DB3A46E12001010698174632
:1058D00007F0BCFA024602983842039903D10198B6
:1058E000401A022808DC6C48008850430499C9001B
:1058F00007F0ACFA039902460492664801800A2731
:105900000598394607F080FA6043394607F07CFA7B
:1059100004990818A887079F0899C9B22E2925D28B
:1059200037E0E1200101069807F090FA5B4905E0B5
:10593000E1200101069807F089FA55490988484392
:105940000499C90007F082FA04900A27059839469D
:1059500007F05AFA6043394607F056FA0899049A54
:105960001018A887079FC9B22E2912D3E120010180
:10597000069807F06BFA08900A270598394607F051
:1059800043FA60433946079F07F03EFA0899081822
:10599000A887454908803846DE303A4A115C10181D
:1059A000407800024418FDF71BFBB08BA98F8142A1
:1059B00004D2421AA24206DD011B03E00A1AA242E7
:1059C00001DD0119A9875122D2002E4CA35CA21837
:1059D00052781202D2188BB2934201D9AA8711468B
:1059E000324AA35CA21852781202D2188BB29342A8
:1059F00001D2AA871146CA37E25DD20702D1B1832C
:105A000088B203E06A7C042313436B74728C4223D4
:105A1000EA520022AA65EA650124AC74AA62244B0A
:105A20009A60DA601A825A826A70E98529787B2244
:105A30000A402A70E98F414312204843052107F0AC
:105A4000E3F91C4908766866A866020ECA76020C5D
:105A50008A76000A48762C73FDF7C2FA0A48007865
:105A6000E87214480021C1778177B08B6886707E18
:105A7000F7210140717609B0F0BDC046D402002084
:105A80006405002000E40000080400201C0A002037
:105A900006000020B00100200800002004000020C3
:105AA000AC0100200A000020EA0900208A02000060
:105AB000F403002098020020F0B58BB00446D74DC7
:105AC00000262E67D64F387E40060CD5787EC0065D
:105AD00009D5FF221046E030D2490856D24909784C
:105AE00049B281421EDAD148817FC07F000240184E
:105AF00000D135E277218900CA4A515C002900D1E2
:105B00002EE26A7C042313436B744843642107F03C
:105B10007BF9B98B82B28A4201D3002000E0081AD7
:105B2000A8871DE20A927D20079008910101788BD9
:105B30004843B98B07F068F9400844210591685241
:105B40002E74787EFE21014079766420001B24218A
:105B50004143E86E07F07AF9A887B54909900880B3
:105B600040202C5A0898102860DB092C6CD8B14FC3
:105B70003888012100220C280B4600D313460694D6
:105B8000241A032C0A9E00DB11460B42069C03D10B
:105B9000001B0228099844DC099881B203910798F8
:105BA000C4000846214607F02FF90290FC480588FA
:105BB0000A272846019539460497FAF72DFE0E4626
:105BC00002984643A8B2214607F01EF9009001460C
:105BD000039D6943881902902846394607F014F955
:105BE000064600984443019F381B80B26424214636
:105BF00007F00AF9704302990818029028462146D6
:105C000007F002F9064638462146069CFAF704FEDC
:105C10000846049907F0F8F870430A9E029908189C
:105C2000DE4F3C80D54DA887D54FB6E0092C17D85C
:105C3000D74D288801210C280A4659D2231A032B54
:105C40005ADA0A425BD05EE0099881B20491079863
:105C5000C4000846214607F0D7F80390CE480AE072
:105C6000099881B204910798C4000846214607F0BC
:105C7000CBF80390C54805880A2106912846FAF713
:105C8000CBFD0E4603984643A8B20295214607F085
:105C9000BBF800900999414370180390049E304668
:105CA000069907F0B1F8019000984443281B80B290
:105CB0006424214607F0A8F80199484303990D1878
:105CC0003046214607F0A0F8064602982146FAF72A
:105CD000A3FD0846069907F097F80899704328181D
:105CE000A64DA8870A9EA74AC8B22E285AD25BE0C2
:105CF0003246231A032BA4DB31460A4203D1001B90
:105D00000228099844DC099881B203910798C600DB
:105D10000846314607F078F802909E4805880A2721
:105D20002846019539460497FAF776FD06940C4605
:105D300002984443A8B2314607F066F80090014645
:105D4000039D6943081902902846394607F05CF81C
:105D5000044600984643019FB81B80B26426314632
:105D600007F052F86043029908180290284631461D
:105D700007F04AF8044638463146FAF74DFD084622
:105D8000049907F041F86043069C814D0299081878
:105D90002C807A4DA8877A4F0A9E7A4A0899C8B211
:105DA0002E2801D30998A8873046DE30115C1018E0
:105DB000407800024618FDF713F9BB8BAC8F9C426C
:105DC00005D2181BB0426F4A07DD9C1B04E0E01AA5
:105DD000B0426C4A01DD9C19AC875120C000115CB7
:105DE0001018407800024018A1B2814201D9A8875A
:105DF000044609936B48115C101840780002401863
:105E0000A1B281420A9901D2A8870446CA31505CE6
:105E1000C00711D1BC83099412E0C046D40200200F
:105E20006405002000E4000008040020980200201F
:105E300016040020AE010020687C0421014369742F
