:020000040000FA
:10000000900F0020E10500001F0600001D06000003
:1000100000000000000000000000000000000000E0
:100020000000000000000000000000006967000000
:10003000000000000000000091620000A1760000B6
:10004000F3050000F3050000F3050000D979000076
:100050000000000081460000000000007162000006
:10006000F305000000000000C7140000F3050000C5
:1000700000000000797B0000F3050000F30500009C
:100080000000000000000000000000000000000070
:100090000000000000000000000000000000000060
:1000A0000000000000000000000000000000000050
:1000B0000000000000000000000000000000000040
:1000C0000000000000000000000000000000000030
:1000D0000000000000000000000000000000000020
:1000E0000000000000000000000000000000000010
:1000F0000000000000000000000000000000000000
:1001000008010200000000000000000000000000E4
:10011000FFFFFFFFFFFFFFFFFFFFFFFFFFFFFFFFEF
:020000040000FA
:100120001401016402FB011348071B2049041A4A09
:10013000041A4B041A4C041A4D041A4E041A4F04A4
:100140001A50041A51041A52041A53041A54041A65
:1001500055041A56041A57041A58041A59041A5AFC
:10016000041A5B041A5C041A5D041A5E041A5F0424
:100170001A60041A61041A62041A63041A64041AE5
:1001800065041A66041A67041A68041A69041AC412
:10019000041AC8048145010162110000000000003A
:020000040000FA
:1005200000F002F800F030F80CA030C808382418A9
:100530002D18671EA246AB4654465D46AC4201D11B
:1005400000F022F87E460F3EB6460FCC012633421D
:1005500000D0FB1A3343A246AB461847BCD8000074
:10056000DCD800000023002400250026103A01D327
:1005700078C1FBD8520700D330C100D50B6070475B
:100580001FB51FBD10B510BD00F0E4FE1146FFF70A
:10059000F7FF0AF0E9FC00F0FCFE03B4FFF7F2FFFE
:1005A00003BC00F053FF000070B505460C4616462C
:1005B00002E00FCC0FC5103E102EFAD2082E02D347
:1005C00003CC03C5083E042E07D301CC01C5361F5A
:1005D00003E021782970641C6D1C761EF9D270BD71
:1005E0000748804707480047FEE7FEE7FEE7FEE7CB
:1005F000FEE7FEE704480549034A054B7047000043
:10060000A576000021050000900B0020900F00202F
:10061000900B00207047704770477047FEE77047A7
:10062000583635584343514330B55C18010C130C10
:100630000D4692B25D4380B251432C190546554395
:100640000A0C09044D1962415843010C0004401979
:10065000514130BD70B5054610460C4618430ED0CA
:1006600000210846891A984127DA00210846491BCB
:10067000A04118DA2846214600F093FD70BD002CF9
:1006800003DA01230022DB0707E000210846491BAB
:10069000A04102DA0022D243530810461946C04650
:1006A000C0462A4627E000216842A14100F079FDBA
:1006B000002440428C4121461AE000210846491B93
:1006C000A0410CDA214600205242984103462846B8
:1006D00000F067FD002440428C41214670BD00209F
:1006E00052429841002103466842A14100F059FD61
:1006F000002452429C41234670BD034610B50B4373
:100700009B070FD1042A0DD308C810C9121FA3429A
:10071000F8D018BA21BA884201D9012010BD0020B2
:10072000C04310BD002A03D0D30703D0521C07E0FA
:10073000002010BD03780C78401C491C1B1B07D1FE
:1007400003780C78401C491C1B1B01D1921EF1D16F
:10075000184610BDF8B5042A2CD3830712D00B78A5
:10076000491C0370401C521E83070BD00B78491C98
:100770000370401C521E830704D00B78491C037081
:10078000401C521E8B079B0F05D0C91ADF00202387
:10079000DE1B08C90AE0FFF707FFF8BD1D4608C9C0
:1007A000FD401C46B4402C4310C0121F042AF5D251
:1007B000F308C91A521EF0D40B78491C0370401C70
:1007C000521EEAD40B78491C0370401C012AE4D461
:1007D00009780170F8BD01E004C0091F0429FBD2AB
:1007E0008B0701D50280801CC90700D002707047BA
:1007F00000290BD0C30702D00270401C491E0229F9
:1008000004D3830702D50280801C891EE3E70022FF
:10081000EEE70022DFE70000002203098B4273D3DA
:10082000030A8B4258D3030B8B423CD3030C8B42FD
:1008300021D312E003460B437FD4002243088B42AE
:1008400074D303098B425FD3030A8B4244D3030B57
:100850008B4228D3030C8B420DD30902FF2212BA1C
:10086000030C8B4202D31212090265D0030B8B4298
:1008700019D300E0090AC30B8B4201D3CB03C01A82
:100880005241830B8B4201D38B03C01A5241430B5D
:100890008B4201D34B03C01A5241030B8B4201D34D
:1008A0000B03C01A5241C30A8B4201D3CB02C01AB8
:1008B0005241830A8B4201D38B02C01A5241430A30
:1008C0008B4201D34B02C01A5241030A8B4201D31F
:1008D0000B02C01A5241CDD2C3098B4201D3CB01C6
:1008E000C01A524183098B4201D38B01C01A524175
:1008F00043098B4201D34B01C01A524103098B4279
:1009000001D30B01C01A5241C3088B4201D3CB0063
:10091000C01A524183088B4201D38B00C01A524146
:1009200043088B4201D34B00C01A5241411A00D2F6
:1009300001465241104670475DE0CA0F00D049425F
:10094000031000D3404253409C46002203098B42CF
:100950002DD3030A8B4212D38901FC2212BA030A57
:100960008B420CD3890192118B4208D389019211D9
:100970008B4204D389013AD0921100E08909C3095E
:100980008B4201D3CB01C01A524183098B4201D360
:100990008B01C01A524143098B4201D34B01C01A4B
:1009A000524103098B4201D30B01C01A5241C308C3
:1009B0008B4201D3CB00C01A524183088B4201D332
:1009C0008B00C01A5241D9D243088B4201D34B004D
:1009D000C01A5241411A00D20146524110466346A4
:1009E0005B1001D34042002B00D54942704763465B
:1009F0005B1000D3404201B50449002802DC491CC9
:100A0000084000E00846C046C04602BDFFFFFF7F29
:100A1000F0B50C46871A9C410D46861A9D4103D2BB
:100A2000C01BA141D21963410D0D1F0DC94EEC1B16
:100A3000AE435CD07F057F0D0026002F51D02D05E1
:100A4000AC46A943DD020123ED0A1B051D4320230B
:100A50001B1B24D41746E740381871412F46E74046
:100A6000CC199D402818314661410C0D27D16144B5
:100A70009A4013D50023401C594152000ED1400822
:100A8000400001224B005205D34207D30520400706
:100A9000C14201D5B04900E0B0493046F0BD6B001D
:100AA000002A00D001229A181F23203C1B1B01D5CD
:100AB000002302E0E540281871410C0DD7D0012435
:100AC00024050919C407CD0740084908E40F284345
:100AD0006144002CD5D00024401C61419A40D0D103
:100AE000CDE76A05520DD9D1C90FC907D5E79C4D8D
:100AF0004E00002801D0012400E0002434195F00DA
:100B0000002A01D0012600E00026BE19954FAC4214
:100B10000CD8AE420AD8B44206D001256D05EC428D
:100B2000BCD010461946F0BD9942FCD00020394691
:100B3000F0BDF0B51FB40C460F46811A9F41254603
:100B4000861A9D4106D20125ED076F40401ABC412F
:100B500052187B41210D1E0D8D1BAC467D4D8D43E2
:100B60007ED075056D0D7CD00D05AE46AC431B03E4
:100B70001B0B794D52429D41202366469B1B14D38B
:100B80001746F740381800260090744160462F46FB
:100B90000741E41900989D402818664116D4714613
:100BA00071189A4025D5012320E093182A466A41FE
:100BB0005200002B00D0521C1E23203E9B1B002BFA
:100BC00061DD3541EE1728186641E8D500187641F9
:100BD0005B1C9A4000D3401C4B05F3181524E340DE
:100BE00010D3002B52D071467118D30FC01802D306
:100BF000491C05B0F0BD0123DB079A42F9D140083A
:100C00004000F6E701225205B21801D1002853D066
:100C10000123CC0ADB029943891E002A08D1020C69
:100C200003D0020C0004103902E0024600202039F3
:100C30000023550B05D112020823550B01D1520197
:100C40000D23550C01D112011B1DD50C01D19200B1
:100C50009B1C150D01D152005B1C2025EE1A01E0F2
:100C60002CE022E00546F54015439840CA1AE107FA
:100C700069181305C918002ABBDA032040070818B1
:100C8000C10FC9070FE071466118B2E7F1074008CC
:100C90000843711071444A000CD001235B059A424D
:100CA000A7D2C90FC9070020A3E74905490D26D1DE
:100CB000002001E00028F4D100219AE7284D6600C9
:100CC000002801D0012100E0002171185F00002AF6
:100CD00001D0012600E00026BE19224FA94210D8FB
:100CE000AE420ED8B14208D001256D05E94206D0CA
:100CF0001946A802414010467BE79C4201D021469C
:100D000077E70020394674E710B50C465C4005D5FE
:100D10000124E4076340FFF70CFF10BDFFF778FEE6
:100D200010BD30B40C465C4004D50124E407634098
:100D300030BC6DE630BCFCE670B50124E4076140D0
:100D40000D465D4002D4FFF763FE70BD6340FFF7C0
:100D5000F0FE70BDFF0700000000F0FF0000F07F14
:100D60000000E0FF0000F87F30B50346CA02400DE6
:100D70001043164D164C0A1502D02043002A06DBFC
:100D8000AA1A002A12DDD040FF2A0BDC30BD520522
:100D9000520D01D140004008AA1A07D4D040404269
:100DA000FF2A01DD002030BD0028FCDD4A00002BB9
:100DB00001D0012000E00020101801225205D0428D
:100DC000F0D8C817C043604030BD00001E040000CA
:100DD000000000801F22030C02D10F22000402D069
:100DE000030E03D004E00020014670470002083AD9
:100DF000030F01D10001121F830F01D18000921E49
:100E0000002801DB4000521E120551184205C01295
:100E1000411810467047C10FC90700D04042012257
:100E200092071143D6E701218907D3E710B50B1EBE
:100E300001D0202301E0011E2BD00C0C01D10904AC
:100E4000103B0C0E01D10902083B0C0F01D1090126
:100E50001B1F8C0F01D189009B1E002901DB49005B
:100E60005B1E0446DC4021431C05A4182022D21A34
:100E700090404B05C20AC90A1A430919830501D1DA
:100E8000430818401623984002D30020521C4141C9
:100E9000104610BDCA0FD20703D00B4600214042B6
:100EA0009941024B1A43C1E7004ABFE70000D04115
:100EB000F0B58B4C0F09254689B0BD437BD01D0989
:100EC0002646AE43FAD00E465E402740F60F3E431C
:100ED000254071D024012142FBD0FF24AD19A40488
:100EE0002D1B039501252D05DB02DB0AC9022B43CF
:100EF000C90A29431E010901040F130F05012143EB
:100F00001701880B820391432D098C46A90B1E43C0
:100F10008A039543B30B9A0396433F09BA0B940394
:100F2000A74302962E467E430497B6464E19D7191C
:100F30000C460196544305977E43371B7646BF1BEC
:100F40003601B646BE0B361900967646BC043719F4
:100F5000009C01D3641C00946400002F01D0012682
:100F60003443029E049F754366467E430496760092
:100F700034196E0034190094029C019E1C196643BA
:100F8000751BAE46069465464519059C05956C4350
:100F9000594375460891691A0191049E01465143CF
:100FA000A41B0491611A009C0791E10605D0610918
:100FB0000122114302E072E06EE06109089D002702
:100FC0002C0A2D066918049D7C412A0A2D066918F1
:100FD000019D6241AC0DAD026D185441079A910D0F
:100FE000920255196141029A644658435443069B44
:100FF000059A5A43121A131B9A0E9B015B187A41E9
:10100000010B0005C3185141220A200644195A4118
:101010009A4200D2491C01204002814203D3152389
:101020000226F64302E014230326F6432020C51AC5
:10103000A9401746AF40DA400A4320460399D840FA
:101040000914731819055118039A3843D2075140EF
:10105000AC4009D00122944006D30022401C5141EB
:10106000002C01D1400840001E4A934212D30122B5
:1010700003989206904207DB0520400709181A489A
:101080000143C012414004E0032040070818C10F8B
:10109000C907002009B0F0BD0020F107FAE70518E4
:1010A0000C464C4111486D42A04115D394181A4684
:1010B0005A410E48644290410ED301204A00400537
:1010C000824209D35A00824206D35940C90F084AC6
:1010D000C90700201143DDE700200649DAE70000D8
:1010E0000000FF07FE070000FFFFFF7F0000E0FF9A
:1010F0000000F07F0000F87F10B501469E2400023A
:10110000CA15A307002A02D01843002A04DBA21A3A
:10111000002A0CDDD04010BD1206120E01D1400095
:101120004008A21A03D4D04040420028F3DDFF2239
:1011300048001206904201D9002010BDC817C043D4
:10114000584010BD1F22030C02D10F2200041CD0F6
:10115000030E01D10002083A030F01D10001121F52
:10116000830F01D18000921E002801DB4000521E37
:10117000D2055118021251181922904004D3491C6B
:10118000002801D14908490008467047C10FC90726
:1011900000D04042012292071143D3E70121890781
:1011A000D0E7FEB5044610460D46184373D0A64658
:1011B0008C460020A41A01469D4167D3664600274D
:1011C00001243D46B61A9D4102D313463A462124D6
:1011D000654676462F04360C3E432D0CB61A9D41CB
:1011E00004D3150C1B042B431204103465467646B9
:1011F0002F06360A3E432D0AB61A9D4104D3150E1A
:101200001B022B4312020834654676462F07360927
:101210003E432D09B61A9D4104D3150F1B012B43E4
:101220001201241D65467646AF07B6083E43AD0859
:10123000B61A9D4104D3950F9B002B439200A41C2A
:1012400065467646EF0776083E436D08B61A9D411F
:101250001AD392185B41641C16E000187646654666
:101260004941B71A9D410191009009D36046B11AD6
:1012700098418E468446009801990025401C69419A
:10128000DD0752082A435B08641EE6D572466346B2
:1012900003B0F0BDFFE72046284307D00020C0433D
:1012A0000146C046C04622462B46F1E700200146D3
:1012B000F7E70000F8B5264C4E00069DA6420AD876
:1012C000A64201D1002806D15E00A64203D8A6425C
:1012D0000AD1002A08D00D242404254233D02946FF
:1012E000002000F05EF8F8BD0C461C4311D4994272
:1012F00007D0C81A02D3EFF30080F8BDEFF30080E7
:10130000F8BD801A02D3EFF30080F8BDEFF3008040
:10131000F8BD09242407E5008B4207D0581A02D3F0
:10132000EFF3008006E0EFF3008007E0101A03D32C
:10133000EFF30080A04303E0EFF30080A0432843D5
:1013400080F30088F8BD009500F042F8F8BD000079
:101350000000E0FF754600F045F8AE46050069461E
:101360005346C008C000854618B020B5FFF742F9C3
:1013700060BCB64600260027C0C5C0C5C0C5C0C5F4
:10138000C0C5C0C5C0C5C0C5403D490849008D465F
:10139000704710B50446C046C0462046FFF7FDF82A
:1013A00010BDC80212D54803400F002804D0C8035E
:1013B000C043012188407047EFF30080000100091D
:1013C00003210907084380F3008870470020704715
:1013D00010B500200249029A00F008F810BD000084
:1013E0000000F87F00487047A001002010B50C46AF
:1013F0001107090F092904D00A290AD008290CD19C
:1014000004E011460820FFF7CCFF06E0510606D5A0
:1014100001E0510601D50120C007214610BDD106CB
:1014200007D501010909CC084907000E000604434D
:1014300009E0410F20024907000A0143200E00067F
:101440001D22D14101430846E7E700000149182069
:10145000ABBEFEE72600020070B58C180578401C74
:101460006B075B0F01D10378401C2A1106D102786B
:10147000401C03E00678401C0E70491C5B1EF9D12D
:101480002B0705D40023521E0DD40B70491CFAE71C
:101490000378401CCB1A921C03E01D780D70491C88
:1014A0005B1C521EF9D5A142D8D3002070BDB0B547
:1014B0000C460546042001210AF018F8284621466A
:1014C00008F026FDB0BD80B5012007F0F7FA00282E
:1014D00002D0012007F0ECFA80BD0000B0B520205A
:1014E000CD4D295E0020C4430029204605D5AA8B96
:1014F0003C20504349420BF0DDFC6A216852042035
:10150000295EA142204605DDA881287D40060BD436
:101510006C86B0BDAA8B3C20504349420BF0CAFCFC
:10152000A881287D4006F3D53020295E1820285E4A
:10153000884201DA28860146AA8B3C205043CA170C
:10154000891851400BF094FC04466C86B0BDC0462F
:10155000F0B581B0B04F398C0CB2144A012C0ADBC3
:10156000B87EC00607D5B88BFA8B121A3C205043C0
:101570000BF0A0FC024612203D5E6C437D20C600AD
:101580002046314614460BF095FC62217852FC84CB
:101590001820385EC11740184840684331460BF0A8
:1015A00089FC0349088001B0F0BDC046FFFF000080
:1015B000D6030020F0B581B0852041009748425CF9
:1015C00041180123C95609028A181821924E745EE7
:1015D0000821324D695E914201DC94420CDC2122EB
:1015E000D200835C801840780002C018404200B2EC
:1015F000814209DB844207DA002028626862687051
:1016000030842C8101B0F0BD6878411C69704000C5
:1016100028180484C8B2042801D300206870E86840
:1016200000210091E9602221695E2027EA5F80188D
:1016300040182421695E40182621695E4018460042
:10164000174801686220484364210BF033FC80197D
:1016500013490860704EF15F002900D44942114AD5
:1016600012888918CA178918514001290BDCA878FB
:10167000401CA870C0B22828C3D334840098A87036
:101680002C8101B0F0BD0099A970192109010BF05E
:1016900011FC30842C8101B0F0BDC04668030020ED
:1016A0007C0B0020780B0020F0B518205A490B5E07
:1016B000FF20F430594A1056002843D44A20584A93
:1016C000145A888B012B53DBA04200D8A0E0031BE7
:1016D000554C257F667F36027519ED1825772E0A41
:1016E0006677ADB25226965BB54217D38D8C6D1CD2
:1016F0008D84D57D6D1CD575A67FE77F3F02BE1911
:10170000761CA677360AE677EDB2322D03D1CD7E70
:1017100001262E43CE760021617721775021545A3D
:10172000E41854529BB2556FEB185367A3B29B0851
:101730007D2B6DD3002353523A490A78012313437A
:101740000B7065E04A20364A145A888B002B1FD450
:10175000A0425DD9031B5021545AE41854529BB245
:10176000556FEB185367A3B29B087D2B50D344E011
:1017700084424DD9231A5021545AE41854529BB232
:10178000556FEB185367A3B29B087D2B40D334E011
:1017900084423DD9231A244C257F667F3602751971
:1017A000ED1825772E0A6677ADB25226965BB542C4
:1017B00017D38D8C6D1C8D84D57D6D1CD575A67F42
:1017C000E77F3F02BE19761CA677360AE677EDB2B0
:1017D000322D03D1CD7E01262E43CE7600216177B6
:1017E00021775021545AE41854529BB2556FEB188C
:1017F0005367A3B29B087D2B0AD300235352094998
:101800000A78012313430B704A21054A5052F0BD58
:101810004A21034A5052F0BDC806002000E40000EF
:10182000C40200208202002088020020F0B591B09E
:1018300055208000F24F395C38184078000241187A
:10184000F0480288642420460C92504302910BF029
:101850000FFB83B28B214900795C8B42069413D92C
:10186000FF221832BA5C934216D9801A10900004F5
:10187000000E02D00020C04310902320C000385C2E
:10188000801A0F900A2511E0FF221632BA5C00255B
:10189000934207D8109507E0521A0F92401A109001
:1018A000052503E0801A1090881A0F90FF231A462E
:1018B0001A32B81801268157D348007840B28842BE
:1018C000039304DABA5690420CDC00200BE01A466F
:1018D0001C32BA5690420BDA401A0A90501A0D90F8
:1018E0006D1C1CE0801A0A900E95881A0D9017E066
:1018F000472189007956884205DA801A0A90881AA9
:101900000D90AD1C0BE01A461E32BA56541A904286
:1019100001DB0A9401E0401A0A900D94ED1C0E952B
:101920008F2045007819B9498C8CFE22511CFE3A53
:10193000042A07D8027843781B029A18801C944224
:101940000A46F3D2C8B2FF28059517D0791942008C
:101950008B5C8A1852781202D218431C5D004F5DCE
:10196000491949780902C919891A95256D00A44FAA
:101970007F193D5CF85C401BA21A09E0785D79197B
:1019800049780902091895204000385C0025224654
:10199000C3B290B2584389B20BF06AFA40190C995D
:1019A00048437D21C90007910BF062FA98490890DD
:1019B00008800F98C3B21098C7B200209F423246E9
:1019C00000D802460E99092900D8064632400B92EB
:1019D0004800012A27D18A4B181807468237B97A5E
:1019E000FA7A1202521804928221405C7978090234
:1019F0000818801A89214900595C0F9AD2B2109BAD
:101A0000DBB29E1A4E4370430A21514309910BF0F9
:101A100051FA397B7A7B12025518B978FA7812029A
:101A200051184F1B1CE07649081805468235A97AE3
:101A3000EA7A120251188222805C6A781202101827
:101A40000490401A7843194609930BF033FA297B26
:101A50006A7B12025118AA78EB781B029D186E1A45
:101A60000499081A04907743384609990BF022FA32
:101A7000281A80B2049DA9B2401A0A99C9B20A91E3
:101A800048430D99C9B209910BF014FA0899691AE3
:101A9000081860490D9048850B9800282AD00E98A8
:101AA0004000FD4B18180546AA35A97AEA7A1202B9
:101AB00052180192AA21405C697809020818801A1C
:101AC00003991431595C0F9AD2B2109BDBB29F1A62
:101AD0004F4378430A21514304910BF0EBF9297BE2
:101AE0006A7B12025618A978EA78120251188D1BE7
:101AF000019922E00E984000E74908180646AA36E8
:101B0000B17AF27A12025118AA22805C727812021B
:101B100010180390401A1099CDB268430F99C9B2BA
:101B200004910BF0C7F9317B727B12025118B27825
:101B3000F3781B029E18771A0399081A03907D43C5
:101B4000284604990BF0B6F9301A80B2039DA9B269
:101B5000401A0A99484309990BF0ACF90899691A97
:101B60000E18CF4FBE85CF48411C0D9A92B28A42C3
:101B70000146C94B0E9D03D3CB498A4202D9491C69
:101B800079850D917621C54A515A3231B2B29142CE
:101B900007D20146BB318A420B9905D9BC300646B3
:101BA00001E00E460B99BE850B966800002933D0E4
:101BB00018180546D235A97AEA7A120252180E92FE
:101BC000D221405C697809020818801A45218900F1
:101BD000595C0F9AD2B2109BDBB29F1A4F437843E5
:101BE0000A21514310910BF065F9297B6A7B12029F
:101BF0005618A978EA78120251188D1B2BE0C046BE
:101C000000E40000780B0020D0030020C80600206C
:101C1000D20A0020C402002018180646D236B17A33
:101C2000F27A12025118D222805C727812021018D5
:101C30000E90401A1099CDB268430F99C9B2109115
:101C40000BF038F9317B727B12025118B278F378BD
:101C50001B029E18771A0E99081A0F907D4328468A
:101C600010990BF027F9301A80B20F9DA9B2411AD2
:101C70000A98484309990BF01DF929183A208B4D11
:101C80002954080A2A463A325070080466D02E2792
:101C9000E85D2E462E36727812021018B278F3786C
:101CA0001B029A1812041018109007980C9A5043AF
:101CB00089B20BF0DDF81099091AE9552A220F9222
:101CC000AB5C2A462A3257783F02FF181097937868
:101CD000D7783F02FF183F04109BFB180C9FC01BD6
:101CE000C0180F9BE8540B0CB3700B0EF3700B0A6B
:101CF0007370030C9370030ED370000A5070BD4FC5
:101D0000002907D52E200021295428462E30C170E5
:101D1000817041702A20285C29462A314A781202B3
:101D200010188A78C9780902891809040918AF4877
:101D3000828BC38B934205D1012929DB0A204843BA
:101D4000242106E0012928DB0A2048439A1A24218D
:101D500051430BF0AFF8079940182BE02E22A95CF5
:101D600028462E3043781B0259188378C6783602ED
:101D7000F3181B0459180C9BC91AA9540A0C827039
:101D80000A0EC2700A0A42709A4F0029C2D5B9E7FA
:101D9000E1200001411A47480AE09E1A24277743B0
:101DA000484264210BF064F8C119924F40487043D7
:101DB0000BF080F8382168543835000A6870059DAA
:101DC0007919FE22501CFE3A042A07D80A784B786B
:101DD0001B029A18891C94420246F3D2C1B2FF2911
:101DE00022D079190006C00D0A5C0B185B781B0223
:101DF0009A18831CCD5CC918497809024919891AB7
:101E000013252D017E19355C3018407800024519E4
:101E1000F05CF3185B781B021818401B069E754394
:101E2000A21A0B2C2FD310E0785D7919497809029A
:101E30000918132000013A5C381840780002801815
:101E400000252246069E0B2C1DD392B280B2504331
:101E5000704389B20BF00CF8401980B21649081A89
:101E6000029C604331460BF003F86108401821469C
:101E70000AF0FEFF010419229204914200DC06469A
:101E800070205A490E520D480B9901800C480D994B
:101E9000018011B0F0BDC04600E40000C80600207B
:101EA000C40200207A0D00007B0F00008802002091
:101EB000A08C000080EE360010270000840B00206C
:101EC000800B0020F0B583B01820EE4D285EA97E6F
:101ED000C9065CD533285ADBE87E40075CD4012470
:101EE0002002EC4E315C301840780002401872211C
:101EF000695E081A1221695E884255DC8120400023
:101F0000315C30184078000241183B480088884214
:101F10004AD2374B59894F1C5F81196908181861DB
:101F200041218900725C711849780902891802916F
:101F30004908BAB28A4213D183214900725C7118F0
:101F400049780902891801912D21C9000AF090FFF2
:101F5000274B0199884201D200275F810020186138
:101F6000029AB9B2914215D300275F8183214900BB
:101F7000725C7118497809028E182D21C9000AF087
:101F800077FFB04218D21A48076103B0F0BD184875
:101F90000021418103B0F0BDE88BA98B8142F9D3C8
:101FA00002F0B0FA03B0F0BD114841890029F1D028
:101FB000491E418103B0F0BDA98C22200F4A115463
:101FC0002023D55C104620304678360275196D1CEA
:101FD000D5542232090A517009490A7822430A70FD
:101FE000290A417002F08EFA03B0F0BDC806002045
:101FF0006803002000E40000780B0020DC030020D0
:102000005C030020F0B583B004469E4FB87E800785
:1020100009D46E20385EFF2112319E4A515C8842FD
:102020000BDD00210AE09848007D002828D06E20B2
:10203000385A02909548018854E00121CC409749D4
:102040000A7E4B7E1B029A188B7ECD7E2D02EB18EA
:102050001B049A18141BFB8B24225A43944200DC65
:1020600014460C76230C8B76230ECB76230A4B7604
:1020700083B28548016E914200DD9CE002669AE0E1
:102080006E203F5E8248834D2E5C7E438248295CF1
:10209000062078430AF00EFF30187C4B1880FF2191
:1020A00012316D5CBEB2AF42029605DA01047C4A81
:1020B000914210DC1E2113E011DD734A517D00298D
:1020C00000D1CDE0108F6F49CF8B1787874200D2A8
:1020D000A7E07842A7E0734A914200DA9FE06421CA
:1020E0001980684F6D4E307E727E12021018B27EDB
:1020F000F37E1B029A181204151808B24443642197
:1021000020460AF0B5FE2C1A3476200CB076200E4C
:10211000F076200A7076029B002B35D024252046CD
:1021200029460AF0C7FEFF8B7D43B84208DC002039
:102130005A49C8760D76280C8876280A48762C46A7
:10214000514E336EAB4201DC35662B4676204D4A4C
:10215000105A1221515E81421EDD01932421204636
:102160000AF0A8FEB84208DC00204C49C8760D767B
:10217000280C8876280A48762C460198A842414FB8
:1021800000DC3566029B16E07620385A1221795E13
:10219000814240DD00230EE03A4F029B002C05DC1B
:1021A00000243E48C476847644760476306E002857
:1021B00001DC0020306618B2022816DB1220385EDF
:1021C0007621795A0A3181420FDB6E200121395282
:1021D00032480021C176F98B24244C4304762A49E5
:1021E0000C66210C8176210A4176002C05DD2648FB
:1021F000016E00290BDD03B0F0BD28480021C17637
:102200008176417601762048016E0029F3DC0021B9
:10221000016603B0F0BD1C4E002CC7DCC0E70146D0
:102220005FE77800404201901C48017E427E120226
:102230005118827EC07E00028018000440182421BC
:102240000AF038FE0199401801907D436421284628
:102250000AF00EFE014601980AF02CFE0B4B188086
:10226000084F02B26D2A02DC642119803AE71D464C
:10227000192109014B1E9A4201DD298032E70146EE
:1022800030E7C046C8060020C4020020020000203B
:102290005103000000E40000520300008802002007
:1022A000FFFF1D0001006C00F0B583B0FF2528463C
:1022B000FC309C4E315C9C48007840B2884236DB52
:1022C0007F218900715C884231DC9848305C984FEE
:1022D000B98C81422BD9B87E000739D455208000B3
:1022E000315C30184078000244182846FE30305CDB
:1022F00060430A210AF0BCFD8E490F88B8420DD810
:102300006800305C44430A2120460AF0B1FDB8421F
:1023100004D3FA48C178C90700D0DBE1F74D0020AB
:102320006861E878FD210140E97018350CE0F34D53
:10233000E878FE210140E97000206861A861E87832
:10234000FD210140E9701C350020286003B0F0BD7C
:102350000291EB49087840220240E84DE878C00736
:10236000E84807D1002A0FD10122895600290CDA4A
:10237000B2790AE0002A00D0DEE001228956002965
:1023800000DBDAE0B279D8E0F279D1B26A695118AB
:102390006961814200DC33E25A20305C31465A31B7
:1023A0004978090208181222BB5E9CB200218342C0
:1023B000019100DCE1E100945C20305C34465C3447
:1023C000647824022018834200DC8FE15E20305CB8
:1023D00034465E34647824022018834200DC89E1AC
:1023E0006020305C344660346478240220188342D4
:1023F00000DCAFE16220305C344662346478240251
:102400002018834200DCA9E16420305C3446643447
:10241000647824022018834200DCA3E16620305C4B
:1024200034466634647824022018834200DC9DE13F
:102430006820305C34466834647824022018834273
:1024400000DC97E16A20305C34466A346478240208
:102450002018834200DC2CE26C20305C34466C3463
:10246000647824022018834200DC26E26E20305C6F
:1024700034466E34647824022018834200DC20E263
:102480007020305C34467034647824022018834213
:1024900000DC1AE27220305C344672346478240224
:1024A0002018834200DC14E27420305C344674341B
:1024B000647824022018834200DC0EE27620305C2F
:1024C00034467634647824022018834200DC08E223
:1024D0007820305C344678346478240220188342B3
:1024E00000DC02E27A20305C34467A3464782402DC
:1024F0002018834200DCFCE17C20305C34467C34D4
:10250000647824022018834200DCF6E17E20305CEF
:1025100034467E34647824022418A34200DDF0E1BE
:102520002046F5E100E40000D00300200102000095
:10253000C8060020780B0020F279D1B2AA695118A0
:10254000A961814200DC5BE15A20305C31465A319E
:102550004978090208181222BB5E9CB2002183420E
:10256000019100DC2DE100945C20305C34465C3449
:10257000647824022018834200DCB9E05E20305CDD
:1025800034465E34647824022018834200DCB3E0D1
:102590006020305C34466034647824022018834222
:1025A00000DCD9E06220305C344662346478240276
:1025B0002018834200DCD3E06420305C344664346D
:1025C000647824022018834200DCCDE06620305C71
:1025D00034466634647824022018834200DCC7E065
:1025E0006820305C344668346478240220188342C2
:1025F00000DCE3E06A20305C34466A34647824020C
:102600002018834200DC56E16C20305C34466C3488
:10261000647824022018834200DC50E16E20305C94
:1026200034466E34647824022018834200DC4AE188
:102630007020305C34467034647824022018834261
:1026400000DC44E17220305C344672346478240249
:102650002018834200DC3EE17420305C3446743440
:10266000647824022018834200DC38E17620305C54
:1026700034467634647824022018834200DC32E148
:102680007820305C34467834647824022018834201
:1026900000DC2CE17A20305C34467A346478240201
:1026A0002018834200DC26E17C20305C34467C34F8
:1026B000647824022018834200DC20E17E20305C14
:1026C00034467E34647824022418A34200DD25E1D8
:1026D00020462AE10F214901725C12071FD5964A54
:1026E000927ED20610D4C269D21917E0012242E0CC
:1026F000012264E002223EE0022260E06803002042
:10270000640200204F460000C278FE231340C370CD
:1027100000224261C378FD241C40C470C261715C18
:10272000490705461835002900D40DE68249897EFF
:10273000890603D4C169C919C16105E6C178FE22C1
:102740000A40C2700021C1614161C178FD220A4086
:10275000C270F9E503220EE0032230E004220AE011
:1027600004222CE0052206E0052228E0062202E0F1
:10277000062224E007220192009CEA7801231343F9
:10278000EB706961A961E961E978FD220A40EA70AC
:1027900001994900711858228A5C58314978090218
:1027A0008A18801A01B2A01A0524604300B20AF008
:1027B00081FB01994C430019287121E00722019205
:1027C000009CEA7802231343EB706961A961E97800
:1027D000FE220A40EA7001994900711858228A5C69
:1027E0005831497809028A18801A01B2A01A0524C2
:1027F000604300B20AF05EFB01994C430019687116
:10280000E878800700D4A1E54C48315C04202856C4
:10281000884205DD01225202B25C904200DA87E56F
:102820000522AA568A4205DD01214902715C8A42CD
:1028300000DA7DE5801AC11744184C40FD22500093
:10284000305C84422AD9E869242116460AF032FB1A
:1028500021460AF02FFBD9214900785238490A78DD
:10286000012313430B70E978FE220A40EA703549D0
:10287000029B0B7700226A61AA611A0A4A7788775D
:102880008A7ECB7E1B029A18521C8A76000AC87771
:10289000100AC876E8783040E87054E5E878FE2100
:1028A0000140E97000206861A861E8781040E87094
:1028B00049E508222FE008223AE009222BE009220C
:1028C00036E00A2227E00A2232E00B2223E00B2224
:1028D0002EE00C221FE00C222AE00D221BE00D222C
:1028E00026E00E2217E00E2222E00F2213E00F2234
:1028F0001EE010220FE010221AE011220BE011223C
:1029000016E08020305C374680377F783F023818E9
:10291000A34200DD13220192074F2DE78020305C97
:10292000374680377F783F023818A34200DD1322F4
:102930000192014F44E7C046C8060020FF01000095
:102940005C030020DC030020F0B581B01820E14ECC
:10295000305E01280EDBB07EC00600D485E0DE4884
:10296000017E490746D4F17E49074CD5B17EC9079F
:1029700053D15EE07620305A1224315F814200DD6F
:102980003FE12122D448815C052900D237E10021B2
:102990008154FF22E032D14B9A5C920603D4B27E7E
:1029A00080231343B3763223CD4AD1542E23D154FE
:1029B0004A23C1526E23F152222401230355B47ECF
:1029C0001C43B476D1769176517611764166B18307
:1029D00041671046323041702E32D1709170517083
:1029E000C048018819430180B07E02210143B176BD
:1029F00001B0F0BDC18FF183017EFB220A40027657
:102A0000F17E4907B2D4002181768175B17EBF2263
:102A10000A40B276B17EC9070BD06E21715E1122D9
:102A20001201AE4B9A5C914203DDB17EFE220A4058
:102A3000B276B17E890715D56E21715EFF22123202
:102A4000A64B9A5C91420DDD2021425C521C4254FF
:102A5000D2B2022A09D100224254B07EFD210140A7
:102A6000B17602E02021002242541A20305600287C
:102A70000ED406F0D1F8984FB87980062BD43C6F6D
:102A8000E0087C283FD8984800882218002148E0B8
:102A9000954802889049486E80184866F17E8907FB
:102AA00028D48F490B7E4C7E2402E3188C7ECD7E89
:102AB0002D022C192404E318834200DBF9E05200B4
:102AC0009A180A76130ECB76130C8B76130A4B7674
:102AD00082424ADBF9E08248017E427E12025118AE
:102AE000827EC07E00028018000440184821795A76
:102AF000401824E07A490876020ECA76020C8A76DB
:102B0000000A487631E07D20C500204629460AF0BB
:102B1000AFF9C2B20421C94351434543621B724815
:102B200000883A676E4A137E547E2402E318947E2E
:102B3000D27E120212191204D218511808186849CC
:102B40000876020ECA76020C8A76000A4876B07EB3
:102B5000C00705D1B07E800707D5B07E400604D5FA
:102B600061480088796E081878667D2188005B4A84
:102B7000105C5D4A148884423CD92E26584FB85DBB
:102B80003D462E356A7812021018AA78EB781B029F
:102B90009A181204101800903820385C3A463832DF
:102BA0005278120210186043C9000AF061F90099C6
:102BB0004218BA552A23FE5C39462A314F783F0223
:102BC000BE1900968F78CE783602F6193604009F2B
:102BD000F619201A8019FD4E414CE054130CAB70CD
:102BE000130EEB70120A6A70020C8A70020ECA7021
:102BF000000A4870B07E800600D443E148E1491CD9
:102C000081547D208000F34D285CF44F3988814247
:102C10001AD9FEF70BFEEE4DB08CF149884241D334
:102C2000A88C01283ED1EF4806884B2E5ED9388803
:102C30000A210AF01DF94B367108484332210AF087
:102C400017F94C21685253E0E148C17F092900D0AF
:102C50000DE1E14A117E537E1B025918937ED47E0A
:102C60002402E3181B045B18FF21F631695C5B1A30
:102C7000DC17A34313761C0C94761C0ED4761B0A27
:102C800053761A22B256002A04D5426E521AD3172E
:102C90009A434266B27E520600D4E8E0826E511832
:102CA0008166E4E03988FF20EA7F092A3AD00022D1
:102CB0003CE052089A180A76130ECB76130C8B76EA
:102CC000130A4B76824200DB4FE7F07E022101437C
:102CD000F1764AE7C8060020C402002000E40000A4
:102CE000880200200E050020780B00204C20285A76
:102CF0004E216A5A83B29A42B44E02D94C202A52CB
:102D000010466852B84908803988B84A1180AA8D9F
:102D1000B74B1A80101AA885B64A1080FF20EA7FA8
:102D2000092AC4D10246F632AA4B9A5CD2B257188D
:102D3000B27EB17ED20722D1890641D4B07E400650
:102D400002D5A86EC019A866A348017E427E120271
:102D50005118827EC37E1B029A1812045118C91B97
:102D6000CA17914301760A0C82760A0EC276090AC6
:102D70004176286E00287ADC0020286677E08907F3
:102D800055D4315FAA8D914257DA697F491C697722
:102D9000C9B2042953D1B17E02220A43B27600217E
:102DA00069770146E031F64A515C490703D5123094
:102DB000105C02F0F1FEF07EFD210140F17653E05F
:102DC000315F6A8D914200DBD8E0A97F491CA97769
:102DD000C9B20429B2D3B17E01220A43B2760021DE
:102DE000A977E030E64B195C890603D4B17E8022D6
:102DF0000A43B276185C400704D511200001185C24
:102E000002F012FEF07EFD210140F1766E20305E70
:102E1000F18B414324204843E149087628666866DF
:102E2000020ECA76020C8A76000A48761CE0686EAA
:102E3000C01BC1178843686616E000216977696E78
:102E4000C91BCA1791431230CD4A105CF28B424322
:102E500024205043814200D308466866B07E400675
:102E600002D5A86EC019A8663846FFF7CBF8CB4844
:102E7000C17F491CCAB20A2A00D10021C177B07EA5
:102E8000800605D4B07E000702D4C448807924E0CF
:102E9000C2498879022202404B7E13434A7D1A437D
:102EA0001BD1BF4A137E547E2402E318947ED57E44
:102EB0002D022C192404E4180B6E9C4206DD1376B7
:102EC0001C0ED4761C0C94761B0A53763622895E2F
:102ED0006E22B35E8B4200DDB152B04900224A75CA
:102EE0004A766E22B25ACA86FD2202408A71B07EAC
:102EF0008007C00F0875AA4D287E6A7E120210183E
:102F0000AA7EEB7E1B029A18120410180866E121B3
:102F10000C01214609F0CEFF81B2F78BB94209D9E5
:102F2000384660432876010EE976010CA976000A3E
:102F3000687600E007462E20285C29462E314A7824
:102F4000120210188A78C978090289180904081829
:102F5000214609F0AFFF82B23421695C2B4634333D
:102F60005B781B0259188A4200D801463220295446
:102F7000B783080A3235687001B0F0BDB07E7F219A
:102F80000140B1760020A877B17E490602D5A96E2E
:102F9000C919A966ED490A7E4B7E1B029A188B7EE1
:102FA000CC7E2402E3181B049A18D21BD3179A4331
:102FB0000A76130C8B76130ECB76120A4A76296E9C
:102FC000002900DD53E7286651E7C046C806002007
:102FD000C402002000E4000088020020780B0020DA
:102FE00011270000C80A0020CA0A00207A0B00201E
:102FF000860B0020820B0020F0B581B055208000A8
:10300000CF4E315C3018407800024118CD4800881E
:103010006424604309F02CFF5A4901403046FE30D9
:1030200032290AD35849097849B2092905DC04290B
:1030300001DC574800E0554830180178407800021C
:1030400047187620F34D2F527D200101A88B48436D
:10305000E98B09F00DFF410888B28208F92A09D3EB
:103060000F204001305CC00729D0E87E400725D5FD
:10307000642424E009281CD82120C000325C3018C8
:1030800040780002801840421822AA5E0024824242
:1030900015DA1220285EB84211DDC8B20A2109F003
:1030A000E7FE04460F204001305CC00607D501242E
:1030B00005E00A2109F0DCFE044600E063246E20EE
:1030C0002C52A14800781538082801D800F0A4F93E
:1030D00001F0BAF8D9204000285A0F214901715C4B
:1030E000890718D42C490880A88B99494887E88B10
:1030F00088873220C549085C0A463232527812026B
:10310000101868853420085C3431497809020818A1
:10311000E88501B0F0BDAB214900725C71184978B7
:1031200009028E1870431B4C214609F0A1FE1A4972
:103130000880A88B7043214609F09AFE844F788757
:10314000E88B7043214609F093FEB8873220AF4FD9
:10315000385C3946323149780902081870432146F3
:1031600009F086FE68853420385C343779780902A6
:1031700008187043214609F07BFEE88501B0F0BDD8
:1031800000E40000FEFF0000D10300205303000014
:103190005503000010270000760B0020C402002019
:1031A00088020020F0B583B055208000984E315C35
:1031B0003018407800024118E648028864205043E5
:1031C00009F056FE81B28B225200B45CFF22A1426C
:1031D0000FD91832B25C914212D9811A0804000E3C
:1031E00001D00020C1432320C000305C821A0A2392
:1031F0000CE01632B25C0023914205D8194604E077
:10320000121B011B052301E0811AA21AFF252F467C
:103210001A37F01901240457D148007840B2A0426F
:1032200004DAF557A8420ADC002009E02F461C37D3
:10323000F757B84206DA001B3F1B5B1C14E0401B2B
:10324000671B11E04724A4003457A04203DAC01BD7
:10325000E71B9B1C08E01E3575572F1BA84201DB9E
:10326000384600E0001BDB1CD4B2CDB2A542029769
:10327000019027D90A2B25D3580030180546D2359E
:10328000AB7AEC7A2402E4180094D223C05C6B7809
:103290001B021818001B45239B00F35CD2B2C9B275
:1032A0008E1A5E4370430A245443214609F002FEFD
:1032B000297B6A7B12025718A978EA781202511802
:1032C000CD1B1BE0580030180646D236B17AF27A90
:1032D00012025118D222805C7278120210180090EB
:1032E000401A6843214609F0E5FD317B727B1202EA
:1032F0005118B278F3781B029F187E1A0099081AA9
:10330000009075432846214609F0D4FD381A80B252
:10331000009CA1B2411A0198C0B248430299C9B2B7
:1033200009F0C8FD20183A21384A5054010A3A32AF
:103330005170010401D08349088503B0F0BDC04637
:1033400000E40000780B0020D00300208802002059
:10335000C4020020F0B581B034202C4C205C214602
:1033600034314978090209183220205C2246323271
:103370005278120212187D200001504309F078FDA6
:103380000A30410888B28208F92A07D30F20400189
:10339000CE49085CC0070DD164202FE0092805D86C
:1033A0000F225501C94E725DD20609D40A2109F0D7
:1033B0005FFD23E0C648C07E40071ED564201DE0A7
:1033C0002120C000325C301840780002801843424F
:1033D0001820BF4A175E00209F420FDA7623D35A87
:1033E0001227D25F9A4209DBC8B20A2109F040FDD8
:1033F000715DC90602D5012000E0632036216054CA
:103400003634000A607001B0F0BDC046880200206A
:1034100000E40000C8060020F0B581B06E20AC4D7D
:10342000285A642805D1E87E400702D5A87EC00648
:1034300003D544480021C1840160424E3079E97EC1
:10344000490707D5012805D1A87EC00602D4A87E69
:10345000000707D4A87EC006C00F3071307801285D
:103460006AD105E001203070A87EC006C00F30711F
:10347000F08C401CF08483B2334A93425CD971785B
:103480004C00324804196F8AE780491CCCB2042CE6
:1034900000D900217170541DA34212D9921DF284EB
:1034A0007279012A02D1AA7E92060DD4F078012801
:1034B00002D1A87E800612D4B078C0B205283BD3D2
:1034C00013E00020F07037E00122F270C9B2490029
:1034D0004018C0881E490880A87E8006ECD5B078C8
:1034E000401CB070C0B2052826D30020F0843060A4
:1034F0007E202C5E0A21204609F0DCFC1549098853
:10350000884219DAE00F20184010884214DD124872
:103510000780124801800120B0841148007840B231
:10352000104A10800A480088C21B7D20C00050430A
:1035300009F09EFC0C490880A87E0007C00F70713E
:1035400001B0F0BDC402002002070000C00300204B
:10355000D80A0020780B0020D60A0020D40A0020C8
:10356000D0030020880B0020C80A0020B0B521201D
:10357000C00056490A5C081840780002801843428F
:1035800018225348825E9A421FDA827E2023134318
:103590008376827EEF23134083764E4A0023D380C6
:1035A00013704E4A137880241C431470027D40230C
:1035B0001A4302754A4C25881D432580837EF724D3
:1035C0001C408476530636D459E085235B00CC5CDE
:1035D000CB185B781B021B199A421EDD827EDF230B
:1035E00013408376827E102313438376394A002367
:1035F000D3801370394A137880241C431470027DE1
:10360000BF2313400375364A13884024A343138015
:10361000827EF723134083760AE02E4AD3882E4C0D
:10362000A34201D05B1CD3801278002A00D0B0BD29
:10363000027D530623D543239B00CC5C254BDD88BC
:10364000A5421CD3847EDF2525408576847EEF2528
:103650002540857601241C700024DC80BF231A409D
:1036600002751E4B1C787F2525401D701C4B1C8845
:10367000402525431D80837E08241C438476530601
:10368000D5D4FF230E33CB5C1249CC889C42CED3D9
:10369000837EDF241C408476837EEF241C40847666
:1036A00001230B700023CB80BF210A4002750C4917
:1036B0000A88402313430B8008490A787F2313406C
:1036C0000B70817E08220A438276B0BD00E40000C0
:1036D000C806002068030020FFFF000060020020F1
:1036E0000E05002010B582B0F94C2078C10757D0E4
:1036F00081070FD5FD21084020708020F549085A28
:10370000820A102A06D1012212028A5692B282310E
:1037100006F0ECF96078410744D4E078410650D4D3
:10372000A178C90764D101077FD4C10600D58EE016
:10373000A1788A0700D59DE04A0700D5AFE00A07C7
:1037400000D5C1E0CA0600D5D3E08A0600D5E5E081
:103750004A0600D5F7E049B2002900D509E1C107C2
:1037600000D01BE1800700D52AE12078410700D571
:1037700039E1C10600D53CE1810600D55AE1410698
:1037800000D578E140B2002800D596E16078C10705
:1037900000D0C0E1810700D5DBE1400700D5F6E1AC
:1037A00002B010BDFB2108406070CB48CB4908181F
:1037B00080B2C8498231112206F098F9E0784106BA
:1037C000AED501210902C64A5158097841239B0010
:1037D000D2581278C34BDA709970BF210840E0705C
:1037E000FD490A78022313430B70A178C9079AD0C8
:1037F000FA48008828210140F948F54A105CD7238F
:103800000340581801A90870F648101880B2012228
:1038100006F06CF9A078FE210140A170E178042047
:103820000843E070010700D47FE7EF48E849081833
:1038300080B2EE4949683331022206F057F9E07848
:10384000F3210140081DE070C10600D470E7E8488C
:10385000DF49081880B2E54949681331022206F0B1
:1038600045F9E078EB210140081DE070A1788A0756
:1038700000D461E7DF48D649081880B2DB494968BF
:103880006231022206F032F9A078FD210140A170D8
:10389000E27804201043E0704A0700D44FE7D6488E
:1038A000CB49081880B2D14949686431022206F038
:1038B0001DF9A078FB210140A170E278042010439B
:1038C000E0700A0700D43DE7CC48C149081880B22F
:1038D000C64949686731022206F008F9A078F72145
:1038E0000140A170E27804201043E070CA0600D4C1
:1038F0002BE7C348B649081880B2BC49496868310B
:10390000022206F0F3F8A078EF210140A170E278DE
:1039100004201043E0708A0600D419E7B948AC4986
:10392000081880B2B14949686A31012206F0DEF810
:10393000A078DF210140A170E27804201043E070FC
:103940004A0600D407E7B048A149081880B2A74941
:1039500049686B31012206F0C9F8A078BF21014007
:10396000A170E27804201043E07049B2002900D42D
:10397000F5E6A6489649081880B29C4949686C311A
:10398000012206F0B3F8A0787F210140A170E17810
:1039900004200843E070C10700D1E3E69C488C494D
:1039A000081880B2914949686D31012206F09EF8ED
:1039B000E078FA210140081DE070800700D4D4E6C9
:1039C00094488349081880B2884949686F310122B8
:1039D00006F08CF8E078F9210140081DE0702078AD
:1039E000410700D4C5E6FB2108402070C10600D481
:1039F000C2E60120000274490A56131F032B02D3AA
:103A000006220A5400E0D2B2724909588248704B2B
:103A1000181880B252B2121F92B206F067F82178DD
:103A2000EF2008402070617840220A4362708106CE
:103A300000D4A4E60120000263490A56131F032B99
:103A400002D306220A5400E0D2B2624909587348F0
:103A50005F4B181880B252B2121F92B206F046F8AD
:103A60002178DF2008402070617840220A4362708C
:103A7000410600D486E60120000253490A56131F6E
:103A8000162B02D319220A5400E0D2B25149095828
:103A900063484F4B181880B252B2121F92B206F010
:103AA00025F82178BF2008402070617840220A4321
:103AB000627040B2002800D468E60120000242494A
:103AC0000A56131F162B0FD319220A540DE0C046B5
:103AD000D8030020C8060020A65EFFFF00E4000017
:103AE00008000020DC030020D2B23A4909584D48B2
:103AF000374B181880B252B2121F92B205F0F6FF7F
:103B000020787F2101402170617840200843607057
:103B1000C10700D13EE6012000022B490A56131FBF
:103B2000062B02D309220A5400E0D2B229490958CF
:103B30003D48274B181880B252B2121F92B205F0BE
:103B4000D5FF6178BE20084040306070810700D406
:103B500023E6012000021C490A56131F212B02D321
:103B600024220A5400E0D2B21A4909582F48184BAF
:103B7000181880B252B2121F92B205F0B7FF6178E6
:103B8000BD20084040306070400700D408E60120A6
:103B900000020D490A56131F212B02D324220A5476
:103BA00000E0D2B20B4909580848094B181880B2F6
:103BB00052B2121F92B205F099FF6078BB2101400A
:103BC0004031617002B010BDC8060020A65EFFFF44
:103BD00000E40000080000205C03002062020020D6
:103BE00047020000475EFFFFFE5CFFFF2802002047
:103BF000545DFFFF395EFFFF3B5EFFFF3D5EFFFF51
:103C00003F5EFFFF415EFFFF425EFFFF435EFFFF3F
:103C1000445EFFFF455EFFFF535EFFFF555EFFFF03
:103C2000575EFFFF6C5EFFFF815EFFFF865EFFFF5A
:103C300080B5742005F00CFF80BD80B5752005F0BF
:103C400007FF80BD70B55A4A11461039D44841600B
:103C50000B78D449A02B0CD0FF2B0CD11D22D20203
:103C600042601378FF2B00D182E0A02B3CD10023CF
:103C70003BE0002300E0FF2314460F3C446024781F
:103C8000A02C02D0FF2C16D000E0012314460E3CDD
:103C900044602478FF2C0ED0A02C00D102231446BF
:103CA0000D3C44602478FF2C05D0A02C00D10323C8
:103CB00014460C3C44601D24E4022578FF2D05D0F9
:103CC00044602578A02D04D0FF2D04D1FF2B4FD0C8
:103CD00051E0002500E0FF25661C46606678A02EB6
:103CE0000BD0FF2E1CD009E0FF23541C44605478F5
:103CF000A02C28D0FF2C39D026E00125A61C466038
:103D0000A678FF2E0CD0A02E00D10225E61C46601E
:103D1000E678FF2E04D0A02E00D10325261D466094
:103D2000FF2B05D1FF2D23D010342B46224622E055
:103D3000FF2D20D09D4201D2103422469D4200D357
:103D40001D462B4617E00123941C44609478FF2CF9
:103D50000CD0A02C00D10223D41C4460D478FF2CBA
:103D600004D0A02C00D10323141D4460FF2B01D1EB
:103D7000416013E010327C245C43A21842608A4206
:103D80000CD000210B4B545C45182C72545C5C54D5
:103D9000491C3C29F7D15118416070BD08303C24C2
:103DA0002146FCF736FD03482146FCF732FD70BD85
:103DB00010EA000018050020F0B583B01D20C102F4
:103DC000774D6960752040020A780123FF2A1ED0D2
:103DD0004A780026FF2A35D08A78FF2A34D0CA785C
:103DE000FF2A00D1A8E068600278FF2A00D1C9E06C
:103DF000002604241F4642780025FF2A13D11A46C4
:103E0000002E00D186E066490A70486025E0002750
:103E10001E463A4668600478FF2C1BD01446427850
:103E20000025FF2AEBD08278FF2A6FD0C278FF2AC4
:103E300000D188E0002E00D18AE0002258480270AC
:103E4000416009E0012200E0022237466860047800
:103E5000FF2CE3D12A70696008467C215143411848
:103E6000103100240B461D78FF2D27D1651C5B1CEB
:103E70003B2C2C46F7D317208402081980B2484DFA
:103E8000294608313C2205F031FE02A8A02101702C
:103E9000287869680A5CFF2A23D0A87800072AD40A
:103EA000A8780124400706D5742005F0D1FDA87834
:103EB000FB210140A970204603B0F0BD01A90823F1
:103EC0000B70815CFF2956D1801817218902401898
:103ED00080B201A9012205F009FE0024204603B0AA
:103EE000F0BD0818001980B202A9012205F0FEFDFC
:103EF000A8780007D4D5752005F0AAFDA878F72189
:103F00000140A9700124204603B0F0BD0222002E1A
:103F100000D078E794421DD3214C22706060002DC0
:103F20009BD0A17804230B43A370218D1D4B994294
:103F300093D0491C218590E703221F4668600478CE
:103F4000FF2C87D06AE703221D46002EE2D05AE7F5
:103F5000032C1BD8124B1C705960002F09D0987885
:103F6000082202439A70188D0E4A904201D0401CDC
:103F70001885032C03D90024204603B0F0BD084661
:103F800022466AE700222A70686066E7044C606097
:103F9000752005F05DFD0022227060685DE7C04677
:103FA00080020020FFFF0000F0B587B055208000A0
:103FB000A04F395C38184078000241183220F44A8A
:103FC000105E64220692504308F074FF81B28B2287
:103FD0005200BC5CFF22A14210D91832BA5C914257
:103FE00013D9811A0804000E01D00020C1432320F8
:103FF000C000385C801A05900A230EE01632BA5CC5
:104000000023914206D8194605E0111B0591011BBA
:10401000052302E0811AA01A05900820DC4C2056E6
:10402000FF252E461A36BC193A460127E457A0420E
:1040300004DA9557A8420CDC00200BE02E461C3613
:104040009657B0420ADA001B0390301B04905B1CA9
:104050001AE0401B0390601B049015E04724A40065
:104060001457A04205DA801B0390A01B04909B1CF0
:104070000AE01E3555572E1BA84201DB039601E0CE
:10408000001B03900496DB1C0598C6B2CFB2B74262
:104090002AD90A2B28D3580010180446D234A37A00
:1040A000E57A2D02EA180292D223C05C63781B02E3
:1040B0001818801A059AD2B2C9B2891A06254D433A
:1040C00068430A265643314608F0F4FE217B627BA2
:1040D00012025318A178E278120251182A4601936D
:1040E000CF1A0299081A1CE0580010180446D2345E
:1040F000A17AE27A12025118D222805C627812020E
:104100001518681A7843314608F0D4FE217B627B8B
:1041100012025118A278E3781B029A180192521ADF
:10412000281A05900020C64DE865287368816872DA
:104130002C8D414804806E20EE49085E0290E8868E
:1041400057433846314608F0B5FE0199081A80B247
:10415000059EB1B2411A0398C0B248430499C9B24E
:1041600008F0A8FE301880B20019470833480780CD
:104170002F850A2605962046314608F079FE01462D
:104180007743384608F074FE84B2AE8EB0B206991A
:1041900008F06EFE074605460494654330460599CF
:1041A000FCF73AFB08466043069C214608F060FE97
:1041B00045196743F01BC0B2059C214608F058FE24
:1041C00004994843214608F053FE29188AB29D48B5
:1041D000CA4C235C201840780002C018824200D8E4
:1041E000084682B2B5218900635C611849780902EA
:1041F000C9188A4200D30146914CA186104801801B
:10420000BC4DE983218789B202984843069908F09A
:1042100051FEA88380B2E12109014143094801769A
:1042200021660A0EC2760A0C8276090A417607B028
:10423000F0BDC04600E40000D00A0020CC0A0020F7
:10424000CE0A00208802002070B57D4C607B0028DB
:1042500003D1A848807EC00679D4A07B012808D16C
:10426000A448807EC00604D54A480088E16D08183D
:10427000E0656E20F74D2E5A642E17D1207B012861
:104280001AD1E06DE121090108F0F2FDE98B49083E
:10429000884211D9A87E00070ED4A87E642E0BD1C7
:1042A0002021084008D00120A07205E000202073E2
:1042B000A97EC90600D4E065E07B012802D0207CFD
:1042C00001280FD1A87E80060CD511202056E24986
:1042D000097849B2421A092A02DC081A0A2801DBC5
:1042E0000120E072E17AA07A012801D001291FD1D2
:1042F00028480088AA7E92061AD5FF222E329042C4
:1043000016D3627A521C6272012927D1D1B20529D3
:1043100024D811216156D04B1B785BB2CE1A092EDE
:104320001CDC591A092919DC00206072E07201E0D6
:1043300000206072A87E8006C00FE074A87E00078F
:10434000C00FE073A87EC006C00F207470BD0120AE
:10435000A073C048807EC00686D48AE7D1B2052902
:10436000E8D16086002060816072BB4E3078207298
:10437000A07C012806D00120A074E88BA0867D20B7
:10438000C0002085FFF710FE30786074D2E7C04689
:10439000C4020020780B0020F0B581B01C46154601
:1043A0000E4607466020394600F070FA38880A4900
:1043B00088420ED16220314600F074F9632029460C
:1043C00000F070F96420214600F06CF9002001B083
:1043D000F0BD012001B0F0BDCCEF0000B0B5FF2072
:1043E000F830994C215C2018407800024518FEF7FF
:1043F000D9FE9848C28B1248C18F914204D2531AF9
:10440000AB4206DD511B03E08B1AAB4201DD5119B3
:10441000C1870C4AA35CA21852781202D2188BB240
:10442000934201D9C2871146B5229200A35CA2181B
:1044300052781202D21889B2914200D2C287B0BD1E
:10444000C4020020D2020000C11740184840704743
:10445000F0B5264801880922028025480078E82620
:10446000064012227B48855E234F01220024BD4274
:10447000174600DB27463F01F6196E27C75F012F5D
:1044800001DB274600E00627BE191827C35FFF435C
:10449000BB42174600DB2746F319154E3370491B04
:1044A000CB17C91859400A2900DB2246510002786F
:1044B00002239A43891801700F225201624B9A5CC1
:1044C000920603D4FE2211400170F0BD01220A437E
:1044D00002700B4B1B781B0703D40522114301709C
:1044E000F0BDFB210A400270F0BDC0460C05002063
:1044F00060020020C8060020540B000000E4000009
:1045000064020020F0B581B0FF200246E0324E493F
:104510008A5C520609D44D4A012313704C4A137029
:104520004C4A937E40241C439476FA3008564A4AFB
:10453000127852B2824204DB1A20464C20560028E0
:1045400015D44948827FC07F0002801825D0FB2205
:104550005200895C002920D04843642108F088FC7F
:1045600083B23C49CA8B934215D2101A14E03B48DF
:1045700000210170E07EFE210140E17638480068AC
:10458000E121090108F096FC364D2880FFF726FF4F
:104590002888E08301E00A20C8832E48817E7F229C
:1045A0000A408276304F0021F977B9772F4B196096
:1045B000C37E5B0739D43624642200923A552A24FC
:1045C000395534243C5D32257C553D4634356B7875
:1045D0001D022C19E1252E0174432E257C553D46E4
:1045E000363569703D462A35E970A9706970C58B0A
:1045F0006E433E763A4632325370320EFA76320CC1
:10460000BA76320A7A76220E2E37FA70220CBA70F7
:10461000220A7A70827E520601D5154A11606E21F7
:10462000009A4252858313490D80134901220A7072
:10463000C17E04220A43C2761048017880220A43D0
:10464000027001B0F0BDC04600E40000DA020020B4
:10465000DE020020C8060020D0030020DB0200207C
:1046600028030020020300208802002030030020DD
:104670002C0300200E030020D0020020D4030020D1
:1046800080B5064814210170002005F025FB044880
:104690000078002801D005F06DFD80BD5C0200208F
:1046A00099010020F0B583B00C46054672B601F0C2
:1046B0003BFD142602960298411E0291002806D066
:1046C0000298401C02900298401E0290F3E71620C8
:1046D00001F0EAFC01F0F8FB002826D00120014699
:1046E00005F064FB02960298411E0291002806D054
:1046F0000298401C02900298401E0290F3E70220AC
:104700000124214605F052FB02960298411E0291B7
:10471000002806D00298401C02900298401E029089
:10472000F3E762B6204603B0F0BD284601F0BCFCBA
:1047300002960298411E0291002806D00298401C61
:1047400002900298401E0290F3E701F0BDFB0028A2
:1047500026D00120014605F029FB02960298411E51
:104760000291002806D00298401C02900298401E38
:104770000290F3E702200124214605F017FB029680
:104780000298411E0291002806D00298401C029017
:104790000298401E0290F3E762B6204603B0F0BDD7
:1047A0005020019002900298411E0291002805D0ED
:1047B0000298401C02900298401EF3E701F0B4FCFE
:1047C000172001F071FC01F07FFB002826D00120AA
:1047D000014605F0EBFA02960298411E029100286C
:1047E00006D00298401C02900298401E0290F3E707
:1047F00002200124214605F0D9FA02960298411EB2
:104800000291002806D00298401C02900298401E97
:104810000290F3E762B6204603B0F0BD0198029023
:104820000298411E0291002805D00298401C029077
:104830000298401EF3E701F0A2FB05460026304631
:1048400001F0F6FB002D1AD06F1E0BE001F097FB74
:104850002070B91B4842484101F0EAFB761C641CF9
:10486000AE420CD0019802900298411E029100289D
:10487000ECD00298401C02900298401EF3E701F031
:10488000BAFC62B60024204603B0F0BD70B582B019
:104890000C46054672B601F047FC142601960198B5
:1048A000411E0191002806D00198401C01900198FA
:1048B000401E0190F3E7162001F0F6FB01F004FB27
:1048C000002826D00120014605F070FA01960198D3
:1048D000411E0191002806D00198401C01900198CA
:1048E000401E0190F3E702200125294605F05EFAFB
:1048F00001960198411E0191002806D00198401CA4
:1049000001900198401E0190F3E762B6284602B07C
:1049100070BD284601F0C8FB01960198411E019127
:10492000002806D00198401C01900198401E01907B
:10493000F3E701F0C9FA002826D00120014605F06E
:1049400035FA01960198411E0191002806D0019880
:10495000401C01900198401E0190F3E702200125C0
:10496000294605F023FA01960198411E019100287D
:1049700006D00198401C01900198401E0190F3E779
:1049800062B6284602B070BD3C2001900198411EDD
:104990000191002805D00198401C01900198401E0B
:1049A000F3E701F0C1FB172001F07EFB01F08CFA68
:1049B000002826D00120014605F0F8F9019601985B
:1049C000411E0191002806D00198401C01900198D9
:1049D000401E0190F3E702200125294605F0E6F983
:1049E00001960198411E0191002806D00198401CB3
:1049F00001900198401E0190F3E762B6284602B08C
:104A000070BD502601960198411E0191002806D0E4
:104A10000198401C01900198401E0190F3E701F0BD
:104A2000AEFA20700025284601F002FB019601989D
:104A3000411E0191002806D00198401C0190019868
:104A4000401E0190F3E701F09AFA6070012001F036
:104A5000EFFA01F0D0FB62B6284602B070BDF0B5A7
:104A600081B00C46054672B601F05EFB162001F0DF
:104A70001BFB01F029FA002827D00120014605F090
:104A800095F9142500950098411E0091002806D044
:104A90000098401C00900098401E0090F3E7022010
:104AA0000124214605F082F900950098411E0091ED
:104AB000002806D00098401C00900098401E0090EE
:104AC000F3E762B6204601B0F0BD284601F0ECFAEB
:104AD000142600960098411E0091002806D00098E8
:104AE000401C00900098401E0090F3E701F0ECF9A4
:104AF000002826D00120014605F058F900960098BC
:104B0000411E0091002806D00098401C009000989B
:104B1000401E0090F3E702200124214605F046F9EB
:104B200000960098411E0091002806D00098401C75
:104B300000900098401E0090F3E762B6204601B056
:104B4000F0BD00960098411E0091002806D0009804
:104B5000401C00900098401E0090F3E725782846FE
:104B600001F0A2FA01F0B0F9002826D00120014698
:104B700005F01CF900960098411E0091002806D00F
:104B80000098401C00900098401E0090F3E702201F
:104B90000124214605F00AF900960098411E009173
:104BA000002806D00098401C00900098401E0090FD
:104BB000F3E762B6204601B0F0BD0027F8B2001955
:104BC000407801F071FA01F07FF900280AD17F1CCA
:104BD000F8B28542F2D201F00EFB62B60024204604
:104BE00001B0F0BD0120014605F0E0F80096009804
:104BF000411E0091002806D00098401C00900098AB
:104C0000401E0090F3E702200124214605F0CEF873
:104C100000960098411E0091002806D00098401C84
:104C200000900098401E0090F3E762B6204601B065
:104C3000F0BD0000F0B587B00027284E284D05E0F4
:104C4000781C311DBAB28A42074615D20124E0030E
:104C500005F01CFA01280FD12888401C288032203A
:104C600000900098411E00910028E9D00098401C57
:104C700000900098401EF3E72888B0422CD905F038
:104C8000E5F92002214606F03DFC204605F058FAE1
:104C90003E20214605F040FA00260696059616208D
:104CA00004900396029601960E480090684605F01F
:104CB000FBF9C82005F05EF9204605F04FF92046C3
:104CC00005F04AFA204605F0CDF9074805F0A6F9A7
:104CD000204605F097F92E8007B0F0BDE3030000F1
:104CE0001005002009033100FF7F000080B5014658
:104CF0004C20FFF7D7FC80BD70B51C4615460E460C
:104D000001469120FFF7CEFC90203146FFF7CAFC08
:104D100095202946FFF7C6FC7E202146FFF7C2FCFE
:104D2000F6200499FFF7BEFC70BD0000F0B583B01B
:104D30009C4CA079022102910843A07112219A484B
:104D40000191405E994F394656310422D5430023E4
:104D50000A794E793602B2186D1D891C122B02D8C1
:104D60005B1C9042F4DA5823FB5C3E46583676785A
:104D70003602F318984232DD8023FB5C3E468036D3
:104D800076783602F318984238DA0B7849780902B7
:104D9000CB18D11AC21A0520504308F08BF84019DD
:104DA000C1B224204843342281498A5C0B46343303
:104DB0005B781B029A1842432E23CA547A4DEE8B1D
:104DC00070430876030ECB76030C8B76030A4B7682
:104DD000130E2E31CB70130C8B702B463AE02E2124
:104DE000734A00205054D0769076507610762E324A
:104DF000D070907050706C4BDE8B2DE00F20400116
:104E0000385CC1076848C68BE120000134220029C4
:104E100007D167498A5C0B4634335B781B029A18CA
:104E200007E063498A5C0B4634335B781B029A18AF
:104E3000243842432E23CA5470430876030ECB769F
:104E4000030C8B76030A4B76130E2E31CB70130CAA
:104E50008B70554B120A4A70206626876E25595B67
:104E6000E186544909786174E1210C01214607F07B
:104E7000FFFF81B2B1420AD9304660434C490876FF
:104E8000020ECA76020C8A76000A487600E00646D0
:104E900045488683FEF7B0F82E20454E305C3146FB
:104EA0002E314A78120210188A78C97809028918B6
:104EB00009040818214607F0FDFF82B23421715C15
:104EC000334634335B781B0259188A420A4600D8AD
:104ED000024632203254100A33463233587092B2AE
:104EE0007D200001504307F0C3FF0A30410888B21B
:104EF0008208F92A06D30F204001385CC00726D16A
:104F0000642009E0092804D80F2254013A5DD20632
:104F100023D40A2107F0ACFF234B362170543636D8
:104F2000000A7070585F11210901795C884203DC26
:104F3000997E01220A439A76FF211231795C8842D8
:104F400003DC987E02990843987603B0F0BD164BB7
:104F5000D87E400723D56420DFE72120C0003A5CDB
:104F60003818407800028018424218200E4B1B5E11
:104F700000209342D0DA76220B4B9A5A0092019B82
:104F8000094AD35E009A9342074BC6DBC8B20A2196
:104F900007F06EFF395DC906BED50120BCE763206E
:104FA000BBE7C046C4020020C806002000E40000A1
:104FB00088020020D003002080B5762004F048FD50
:104FC00080BD80B5772004F043FD80BDF0B585B08D
:104FD000F3480088810601D400F025FC4104E1205B
:104FE0000001002901D5024600E00122ED490292AC
:104FF0000A80ED4C618A0BB2EC4DAA880393934270
:1050000020DDEB4A93785B1C9370DBB2032B06D355
:1050100000239370A980137E01261E431676EA882A
:10502000039B934215DAE24AD3785B1CD370DBB260
:10503000032B11D30023D370E980117E01230B438E
:10504000137609E0DA4A00239370EA88039B9342BF
:10505000E9DBD7490022CA70A17EC9062ED51821E6
:10506000625E91B22B899A421FDDD14B1E79761C6C
:105070001E71F6B2032E06D300261E7129811E7EF4
:10508000012737431F766B899A4214DAC84A53794D
:105090005B1C5371DBB2032B10D300235371698166
:1050A000117E01230B43137608E0C14B00261E71CD
:1050B0006B899A42EADBBE4900224A71A17E8906C9
:1050C0006AD5DF490988AA8991421FD9B84A9379DC
:1050D0005B1C9371DBB2032B06D300239371A98170
:1050E000137E01261E431676EA89914214D2B04AF5
:1050F000D3795B1CD371DBB2032B10D30023D371A4
:10510000E981117E01230B43137608E0A84A0023AE
:105110009371EA899142EAD3A5490022CA712021FC
:10512000615E2A8A002A00D15242002914D5CB1789
:10513000CE185E4096420FDD9D4A137A5B1C1372B7
:10514000DBB2032B0BD30023137249422982117E59
:1051500001230B43137602E0954900220A72622173
:10516000615ECA178B1853406A8A934211DD904AD8
:10517000537A5B1C5372DBB2032B0DD300235372A3
:10518000137E01261E431676CA1389185140698280
:1051900002E0874900224A7214216956C94A1278EE
:1051A00057B28F4220DD82498A7A521C8A72D2B26B
:1051B000032A06D300228A722F750A7E0123134325
:1051C0000B76152169568F4215DA7949CA7A521C35
:1051D000CA72D2B2032A11D30022CA726F750A7E34
:1051E000012313430B7609E0714900228A721521CD
:1051F00069568F42E9DB6E490022CA7216216A564F
:10520000B149097849B2914220DD694A137B5B1CA0
:105210001373DBB2032B06D300231373A975137E1C
:1052200001261E4316761722AA56914215DA604AC5
:10523000537B5B1C5373DBB2032B11D300235373DB
:10524000E975117E01230B43137609E0584A0023C8
:1052500013731722AA569142E9DB554900224A737B
:105260007221615E97225300EA5E91420EDA504A43
:10527000967B761C9673F6B2032E0AD3E952002170
:105280009173117E01230B43137602E048490022FB
:105290008A738E4A1178402301931940049106D1F4
:1052A00001215256002A04DA8949897901E08849A6
:1052B000C979C9B23E4E328A511831828DB20299F3
:1052C00007F0D6FD8542394D08D300213182696A45
:1052D000491C6962317E01220A433276CD214A009F
:1052E0007B498B5C8A1852781202D218039B934236
:1052F00009DD049B002B0DD10123744DED56002DCB
:1053000009DA8B7907E067239B00CB569F4227463B
:105310001ADC60E0CB79DBB2B58AEB18B3829BB2C2
:1053200085B2AB4209D30023B382204DEB6A5B1CEC
:10533000EB62337E01251D43357667239B00CB56F8
:105340009F421A4D274646DD049B002B06D10123C0
:105350005E4DED56002D02DA8B7900E0CB79DBB2A1
:10536000758AEB1873829DB283B29D420AD30025E1
:1053700075820E4FBD6A6D1CBD62357E01272F43BD
:1053800037762746039C9442084D24DD049A002A70
:1053900010D101224D4CA456002C0CDA8A790AE077
:1053A0006202002004000020C8060020DC03002068
:1053B00044030020CA79D2B2F48AA218F28292B2CF
:1053C0009A4208D30022F2822A6B521C2A63327E50
:1053D0000123134333766E22BB5E3E4A8C5C00226F
:1053E000A34221DD3C4A8C5C0122A3421CDD8322C6
:1053F00092008C5C0222A34216DD384A8C5C0322A8
:10540000A34211DD364A8C5C0422A3420CDD354AEE
:105410008C5C0522A34207DD4122D2008A5C9342C4
:1054200001DC062200E0072232702F4B1B885B1E36
:105430003F2B00D9DCE103A45B00E35A5B009F44EF
:10544000780B002055006500D7018700D701D701F0
:10545000D7019800D701D701D701D701D701D701CC
:10546000D701A900D701D701D701D701D701D701AB
:10547000D701D701D701D701D701D701D701D7016C
:10548000D7017500D701D701D701D701D701D701BF
:10549000D701D701D701D701D701D701D701D7014C
:1054A000D701D701D701D701D701D701D701D7013C
:1054B000D701D701D701D701D701D701D701D7012C
:1054C000D701BB00D0030020120500206402002099
:1054D00000E400000E0200000D0200000B020000BC
:1054E0000A02000009020000C605002000237370B4
:1054F000049C002C7FD10124D24D2C575500002C48
:1055000000D5D9E0D04F7C5B641CDAE001237370D6
:10551000049C002C62D1CB4CE456002C00D589E0D1
:105520005400C94D2D192C8A641C89E00523737021
:10553000049B002B58D10123C24CE356002B00D50D
:105540009FE05300C04CE4185025635B5B1C9FE058
:1055500002237370049B002B52D10123B94CE356F4
:10556000002B00D5C6E05300B74CE418238C5B1C1D
:10557000C7E003237370049B002B47D10123B14C78
:10558000E356002B00D5D2E05300AF4CE418238E35
:105590005B1CD3E004237370049B002B3CD10123DC
:1055A000A84CE356002B00D5E4E05300A64CE418C9
:1055B000019FE35B5B1CE5E006237370049B002BFB
:1055C00031D101239F4CE356002B00D5ECE0530072
:1055D0009D4CE4186025635B5B1CECE054009A4D25
:1055E0002D192C8ACF792AE05300974CE4185025C6
:1055F000635BCF794BE05500934C645BCF795EE001
:105600005300914CE418238CCD7978E053008E4CF4
:10561000E418238ECD798FE053008B4CE418019F62
:10562000E35BCD79ACE05300874CE4186025635B05
:10563000CF79BFE05400844D2D192C8A8F79E4195D
:105640002C8280B2A4B28442E44C00D2D0E090001C
:1056500024185425605B03902046543047883F044B
:105660000193039BFF187F1C67535200764CA218CE
:1056700000241482327E019B1A4332763A0C428017
:10568000B6E05300704CE4185025635B8F79DB194A
:10569000635380B29BB28342D04D00D2A8E0500049
:1056A000694B181850230024C45290002818D422A3
:1056B000835A0446D43490E0634C645B8F79E419D8
:1056C000614F7C53C54D80B2A4B2844200D28FE0BA
:1056D00050005D4C2352307E01230343337690000B
:1056E0002818828EC38E1B049A18521C8286120CB4
:1056F000C2867DE05300544CE418238C8D795B19ED
:10570000B64D238480B29BB2834271D390002B1894
:1057100074241D5B1846743047883F047D196D1C46
:105720001D535200484B9A18002313841BE053006A
:10573000454CE418238E8D795B19A84D238680B2E1
:105740009BB2834254D390002B1894241D5B1846BF
:10575000943047883F047D196D1C1D5352003A4B0D
:105760009A1800231386327E0123134333762A0CC2
:1057700042803DE05300344CE418019FE35B8D7997
:105780005B19964DE35380B29BB2834230D35000F5
:105790002D4B18180023019C035390002818B422A5
:1057A000835A0446B43418E05300274CE4186025AB
:1057B000635B8F79DB196353884D80B29BB2834260
:1057C00016D35000204B181860230024C4529000B8
:1057D0002818F422835A0446F43465882D04EB1803
:1057E0005B1C8352307E012202433276180C6080AB
:1057F000307EC00702D10020F06114E00498002838
:1058000006D101200F4A1256002A02DA887900E0F8
:10581000C8790299C0B2F2691418F4610B4807F014
:1058200027FB844201D205B0F0BD307E0221014346
:1058300031760020F061307EFE210140317605B0E6
:10584000F0BDC0466402002056050020A08C000078
:1058500010B5614A19481080772043025D48036201
:105860001978FF2907D1164911803B218B02036269
:105870001978FF290FD019461031138001621322C5
:105880001201564B0C781C70521E5B1C491C002ADE
:10589000F8D1016210BD52490162132001014F4C41
:1058A0002046FAF7B6FF1E206075E0750548E081D6
:1058B00060817D204001E08010BDC04600EEFFFF0A
:1058C00000ECFFFF10270000F0B583B03B208402FE
:1058D000404D2C622078FF281ED0772040023E49A0
:1058E000088028620178FF291AD0762004F0B0F8E9
:1058F0003A4801883A4A914204D1287E082101435E
:10590000297609E04B1C03802E7E082737432F762B
:10591000934201D0891C01802C622F4804802046CC
:1059200002461032FF21303100241023C65CFF2EC6
:1059300025D15B1C661CA4B28C423446F6D31720DA
:105940008402101980B24A1C244904F0CFF802A83E
:10595000A0210170286A0178FF291AD0287E00074B
:1059600020D4287E0124400706D5762004F070F864
:10597000287EFB2101402976204603B0F0BD01A915
:1059800008220A700178FF2917D00024204603B0AE
:10599000F0BD001980B202A9012204F0A7F8287E08
:1059A0000007DED5772004F053F8287EF721014068
:1059B00029760124204603B0F0BD17218902401842
:1059C00080B201A9012204F091F80024204603B01E
:1059D000F0BDC0464403002016020020DC03002076
:1059E000FFFF0000B0B56B4D287E697E09020818E4
:1059F000A97EEA7E1202511809040818E1210C015F
:105A0000214607F057FA83B26149CA8B934209D9FC
:105A100054432C76200EE876200CA876200A68766F
:105A20008A83B0BD8883B0BDF0B583B00346F14F23
:105A30000025FD66B87DF04EB17E49060BD50128E4
:105A400009D1FF221046FA30EC490856EC49097892
:105A500049B281421BDAEC48817FC07F00024018C6
:105A600000D18CE0FB214900E44A515C002900D1BF
:105A700085E03A7E042313433B764843642107F0D4
:105A8000F7F9F18B82B28A4231D3284630E0002404
:105A9000FC75F07EFE210140F176B86EE12109012E
:105AA0000292009307F006FA0190F08B0A26314625
:105AB00007F0DEF900994843314607F0D9F901991A
:105AC0004018F8870298F830CC4A115C10184078DA
:105AD00000024618FDF766FBC7480346C18BF88FE6
:105AE000884207D20A1AB24209DD881B06E0081A6A
:105AF000F88744E0421AB24201DD8819F887C149AB
:105B0000BE4E725C711849780902891882B28A42C5
:105B100001D9F9870846B5218900725C7118497866
:105B20000902891882B28A421E4601D2F9870846C4
:105B30000299E031B14A515CC90701D1F08303E019
:105B4000397E04220A433A767C217C52B18C402271
:105B5000B9527C65BC6501217976BC673C86FC85C1
:105B6000AB4A14609480B886FC71B974B8797B2113
:105B70000140B971FDF716FBA14800787874B74869
:105B8000C5778577BD75F08B388703B0F0BDC0460B
:105B9000C806002088020020F0B589B00446954F61
:105BA0000023FB66B87E944DA97E49060BD50128DB
:105BB00009D1FF263046FA309049085690490978B5
:105BC00049B281421DDAA548817FC07F000240189A
:105BD00000D105E1FB214900884A515C002900D130
:105BE000FEE01C463A7E042313433B76484364217F
:105BF00007F03EF9E98B82B28A4231D32346204630
:105C000030E006937D2002900101A88B4843E98B88
:105C100007F02EF9400842210591785200200490A7
:105C2000F875E87EFE210140E9766420001B2421FE
:105C30004143B86E07F03EF9F8873046F8306F4AB6
:105C4000115C1018407800024418FDF7ABFAEA8B9B
:105C5000FB8F934208D2D01AA0420ADD131B07E043
:105C6000081A2346F887BBE0981AA04201DD1319F1
:105C7000FB876448614C215C201840780002401882
:105C800099B2814201D9F8870346B5208000215C92
:105C9000201840780002401899B2814201D2F8875A
:105CA0000346E036A05DC00702D1EB83039304E016
:105CB0000392387E042101433976A88C4021785222
:105CC0003A463427654CE05D2146343108914978E5
:105CD0000902091807914420009011520298C0004F
:105CE00002939DB268433A21615C22463A3252786F
:105CF00012025618314607F0BBF804460197574880
:105D0000C45542486843314607F0B2F80A21484377
:105D1000079907F0ADF881B23225504F785D3E46C5
:105D200032367278120210184843642107F0A0F846
:105D3000785581B2E12212014A432E217A54210A78
:105D4000089D6970000A7070100E3E462E37F8707C
:105D5000100CB870100A7870200406D0254F0099F6
:105D60007C52039A089B019807E001983454089BE1
:105D70005970079C039A1F4F0099354634547C5242
:105D80007C20049939527965B965B9673986F985F6
:105D90001F4801608180F97101267E750298B886DE
:105DA000200A5870B8797B210140B9710598385A9A
:105DB00091B2414312204843052107F059F8287653
:105DC00038667866010EE976010CA976000A6876D5
:105DD000FDF7E8F9BE740A4800787874064D069B12
:105DE0001E48C3778377BB76A87EBF210140A97682
:105DF00009B0F0BDC4020020C806002000E4000085
:105E0000D0030020D20200008802002010270000EA
:105E1000C003002010B52E20104C205C21462E31EE
:105E20004A78120210188A78C97809028918090478
:105E30000818E121090107F03DF882B23421615CC4
:105E4000234634335B781B0259188A4200D8014636
