:020000040000FA
:10000000200E0020E10500001F0600001D06000074
:1000100000000000000000000000000000000000E0
:1000200000000000000000000000000079690000EE
:100030000000000000000000A1640000097600003C
:10004000F3050000F3050000F3050000417900000E
:1000500000000000D14A00000000000081640000A0
:10006000F30500000000000057190000F305000030
:1000700000000000E17A0000F3050000F305000035
:100080000000000000000000000000000000000070
:100090000000000000000000000000000000000060
:1000A0000000000000000000000000000000000050
:1000B0000000000000000000000000000000000040
:1000C0000000000000000000000000000000000030
:1000D0000000000000000000000000000000000020
:1000E0000000000000000000000000000000000010
:1000F0000000000000000000000000000000000000
:1001000005020200000000000000000000000000E6
:10011000FFFFFFFFFFFFFFFFFFFFFFFFFFFFFFFFEF
:020000040000FA
:100120001401016402FB0113D6051B20D7041AD861
:10013000041AD9041ADA041ADB041ADC041ADD04DE
:100140001ADE041ADF041AE0041AE1041AE2041A9F
:10015000E3041AE4041AE5041AE6041AE7041AE8A8
:10016000041AE9041AEA041AEB041AEC041AED045E
:100170001AEE041AEF041AF0041AF1041AF2041A1F
:10018000F3041AF4041AF5041AF6041AF7041352C5
:10019000061B205604814501016211000000000089
:020000040000FA
:1005200000F002F800F030F80CA030C808382418A9
:100530002D18671EA246AB4654465D46AC4201D11B
:1005400000F022F87E460F3EB6460FCC012633421D
:1005500000D0FB1A3343A246AB461847A8DA000086
:10056000C8DA00000023002400250026103A01D339
:1005700078C1FBD8520700D330C100D50B6070475B
:100580001FB51FBD10B510BD01F02CF91146FFF7C6
:10059000F7FF0AF019FD01F044F903B4FFF7F2FF89
:1005A00003BC01F09BF9000070B505460C461646E9
:1005B00002E00FCC0FC5103E102EFAD2082E02D347
:1005C00003CC03C5083E042E07D301CC01C5361F5A
:1005D00003E021782970641C6D1C761EF9D270BD71
:1005E0000748804707480047FEE7FEE7FEE7FEE7CB
:1005F000FEE7FEE704480549034A054B7047000043
:100600000D76000021050000200A0020200E0020A9
:10061000200A00207047704770477047FEE7704718
:10062000583635584343514330B55C18010C130C10
:100630000D4692B25D4380B251432C190546554395
:100640000A0C09044D1962415843010C0004401979
:10065000514130BD70B5054610460C4618430ED0CA
:1006600000210846891A984127DA00210846491BCB
:10067000A04118DA2846214600F0DBFF70BD002CAF
:1006800003DA01230022DB0707E000210846491BAB
:10069000A04102DA0022D243530810461946C04650
:1006A000C0462A4627E000216842A14100F0C1FF70
:1006B000002440428C4121461AE000210846491B93
:1006C000A0410CDA214600205242984103462846B8
:1006D00000F0AFFF002440428C41214670BD002055
:1006E00052429841002103466842A14100F0A1FF17
:1006F000002452429C41234670BD034610B50B4373
:100700009B070FD1042A0DD308C810C9121FA3429A
:10071000F8D018BA21BA884201D9012010BD0020B2
:10072000C04310BD002A03D0D30703D0521C07E0FA
:10073000002010BD03780C78401C491C1B1B07D1FE
:1007400003780C78401C491C1B1B01D1921EF1D16F
:10075000184610BDF8B5042A2CD3830712D00B78A5
:10076000491C0370401C521E83070BD00B78491C98
:100770000370401C521E830704D00B78491C037081
:10078000401C521E8B079B0F05D0C91ADF00202387
:10079000DE1B08C90AE0FFF707FFF8BD1D4608C9C0
:1007A000FD401C46B4402C4310C0121F042AF5D251
:1007B000F308C91A521EF0D40B78491C0370401C70
:1007C000521EEAD40B78491C0370401C012AE4D461
:1007D00009780170F8BD01E004C0091F0429FBD2AB
:1007E0008B0701D50280801CC90700D002707047BA
:1007F00000290BD0C30702D00270401C491E0229F9
:1008000004D3830702D50280801C891EE3E70022FF
:10081000EEE70022DFE70000002203098B4273D3DA
:10082000030A8B4258D3030B8B423CD3030C8B42FD
:1008300021D312E003460B437FD4002243088B42AE
:1008400074D303098B425FD3030A8B4244D3030B57
:100850008B4228D3030C8B420DD30902FF2212BA1C
:10086000030C8B4202D31212090265D0030B8B4298
:1008700019D300E0090AC30B8B4201D3CB03C01A82
:100880005241830B8B4201D38B03C01A5241430B5D
:100890008B4201D34B03C01A5241030B8B4201D34D
:1008A0000B03C01A5241C30A8B4201D3CB02C01AB8
:1008B0005241830A8B4201D38B02C01A5241430A30
:1008C0008B4201D34B02C01A5241030A8B4201D31F
:1008D0000B02C01A5241CDD2C3098B4201D3CB01C6
:1008E000C01A524183098B4201D38B01C01A524175
:1008F00043098B4201D34B01C01A524103098B4279
:1009000001D30B01C01A5241C3088B4201D3CB0063
:10091000C01A524183088B4201D38B00C01A524146
:1009200043088B4201D34B00C01A5241411A00D2F6
:1009300001465241104670475DE0CA0F00D049425F
:10094000031000D3404253409C46002203098B42CF
:100950002DD3030A8B4212D38901FC2212BA030A57
:100960008B420CD3890192118B4208D389019211D9
:100970008B4204D389013AD0921100E08909C3095E
:100980008B4201D3CB01C01A524183098B4201D360
:100990008B01C01A524143098B4201D34B01C01A4B
:1009A000524103098B4201D30B01C01A5241C308C3
:1009B0008B4201D3CB00C01A524183088B4201D332
:1009C0008B00C01A5241D9D243088B4201D34B004D
:1009D000C01A5241411A00D20146524110466346A4
:1009E0005B1001D34042002B00D54942704763465B
:1009F0005B1000D3404201B50449002802DC491CC9
:100A0000084000E00846C046C04602BDFFFFFF7F29
:100A1000F0B50C46871A9C410D46861A9D4103D2BB
:100A2000C01BA141D21963410D0D1F0DC94EEC1B16
:100A3000AE435CD07F057F0D0026002F51D02D05E1
:100A4000AC46A943DD020123ED0A1B051D4320230B
:100A50001B1B24D41746E740381871412F46E74046
:100A6000CC199D402818314661410C0D27D16144B5
:100A70009A4013D50023401C594152000ED1400822
:100A8000400001224B005205D34207D30520400706
:100A9000C14201D5B04900E0B0493046F0BD6B001D
:100AA000002A00D001229A181F23203C1B1B01D5CD
:100AB000002302E0E540281871410C0DD7D0012435
:100AC00024050919C407CD0740084908E40F284345
:100AD0006144002CD5D00024401C61419A40D0D103
:100AE000CDE76A05520DD9D1C90FC907D5E79C4D8D
:100AF0004E00002801D0012400E0002434195F00DA
:100B0000002A01D0012600E00026BE19954FAC4214
:100B10000CD8AE420AD8B44206D001256D05EC428D
:100B2000BCD010461946F0BD9942FCD00020394691
:100B3000F0BDF0B51FB40C460F46811A9F41254603
:100B4000861A9D4106D20125ED076F40401ABC412F
:100B500052187B41210D1E0D8D1BAC467D4D8D43E2
:100B60007ED075056D0D7CD00D05AE46AC431B03E4
:100B70001B0B794D52429D41202366469B1B14D38B
:100B80001746F740381800260090744160462F46FB
:100B90000741E41900989D402818664116D4714613
:100BA00071189A4025D5012320E093182A466A41FE
:100BB0005200002B00D0521C1E23203E9B1B002BFA
:100BC00061DD3541EE1728186641E8D500187641F9
:100BD0005B1C9A4000D3401C4B05F3181524E340DE
:100BE00010D3002B52D071467118D30FC01802D306
:100BF000491C05B0F0BD0123DB079A42F9D140083A
:100C00004000F6E701225205B21801D1002853D066
:100C10000123CC0ADB029943891E002A08D1020C69
:100C200003D0020C0004103902E0024600202039F3
:100C30000023550B05D112020823550B01D1520197
:100C40000D23550C01D112011B1DD50C01D19200B1
:100C50009B1C150D01D152005B1C2025EE1A01E0F2
:100C60002CE022E00546F54015439840CA1AE107FA
:100C700069181305C918002ABBDA032040070818B1
:100C8000C10FC9070FE071466118B2E7F1074008CC
:100C90000843711071444A000CD001235B059A424D
:100CA000A7D2C90FC9070020A3E74905490D26D1DE
:100CB000002001E00028F4D100219AE7284D6600C9
:100CC000002801D0012100E0002171185F00002AF6
:100CD00001D0012600E00026BE19224FA94210D8FB
:100CE000AE420ED8B14208D001256D05E94206D0CA
:100CF0001946A802414010467BE79C4201D021469C
:100D000077E70020394674E710B50C465C4005D5FE
:100D10000124E4076340FFF70CFF10BDFFF778FEE6
:100D200010BD30B40C465C4004D50124E407634098
:100D300030BC6DE630BCFCE670B50124E4076140D0
:100D40000D465D4002D4FFF763FE70BD6340FFF7C0
:100D5000F0FE70BDFF0700000000F0FF0000F07F14
:100D60000000E0FF0000F87FF0B5F94D0C091E0906
:100D70002C402E402F468BB0A7437DD0B543FCD0EE
:100D8000002E7AD0002CFCD00D465D40ED0F25439F
:100D9000AC1BFF25AD0464190894C502440DC902BB
:100DA0002143500DDC0204430120C00701430443EA
:100DB000D2020191200C110C00958C4601042346AF
:100DC0008B430A9161460904E24D8A430991010A65
:100DD0007D4449198039097805464D4301266D182F
:100DE000F605751B6943C90C640B891C4C436418D8
:100DF000B5012C1B250C2E04B4434C434D43210C50
:100E0000691889090591009DE90701D00121C907E9
:100E100004912C4601996708CD072F434C08059D86
:100E2000E10B4D432D0C29466646754302950D4650
:100E300045432E46029D7D1BB44100950D465D4302
:100E400001942C0C2F040D465543AE462D0C3D430A
:100E5000029503947546049C2D04641B049406D2E9
:100E6000029C039D641C002675410395029401AC0D
:100E700070CC009F7D1B01E03EE162E1B4410904BA
:100E80000095079101940599A4086143090C0C464B
:100E90004443650BE7040C4666467443A646640B60
:100EA0003C43039502947446049DE4042C1B049473
:100EB00006D2029C039D641C002675410395029492
:100EC00001AC70CC009F7D1BB44101940C465C4387
:100ED0000095650FE7000C465443A646640F3C435B
:100EE000039502947446049DE4002C1B049406D2DE
:100EF000029C039D641C002675410395029401AC7D
:100F000070CC009F7D1BB441AE09AF06049DC900A3
:100F1000AD092F43049DA406AD060495079D3443F7
:100F200069180791059DE10B4D432D0C2946664636
:100F3000754302950D4645432E46029D7D1BB441E7
:100F400000950D465D4301942C0C2F040D4655432E
:100F5000AE462D0C3D43029503947546049C2D042A
:100F6000641B049406D2029C039D641C00267541F8
:100F70000395029401AC70CC009F7D1BB441019499
:100F80008C050694079C890A611800950791019CBD
:100F90000599A4086143090C0D464543680BEF040D
:100FA0000D46644665436C0B3C43049FED047D1B7A
:100FB000AC4602D20025641C6841009E019D371B8F
:100FC00085410846584301950C46460FC5005443D9
:100FD000600F28436546E4002C1B02D20025401C0C
:100FE0006E41019D3F1AB5412846BD098006284340
:100FF0008446A009BF064E020699A4067618074348
:10100000079D002068410A99079019430020099B19
:1010100000906046FF1913434041E20F64003A43D9
:10102000A4460446D71A8C41A04203D9012000905F
:1010300020463A46C70F941840416246D20F2243D9
:10104000644664000494009CBE466400D71AA4461B
:10105000044602978C417746002F01D1A04204D963
:101060006046401C8446029A2046C40FA646941847
:101070004041049A0546D20F224364466400D31AC5
:101080008D417146002901D1A84202D928461A464D
:10109000641C10430122002800D016436102002086
:1010A000079B891904465C410223002C02DB491886
:1010B00013466441089DCE0A2D145D194B05670542
:1010C000E10A2C050D1908993E43C9076940002B18
:1010D00008D0934006D30022761C5141002B01D149
:1010E000760876001C4A002D43DB154241D0AA4306
:1010F0003FD030460BB0F0BD06180D464D41174CA1
:101100007642AC411AD395181C465C41134A6D4295
:10111000A24113D3012252054C00D4420AD15C00F3
:10112000D4420BD04B4002D592021143E2E7490072
:101130004908DFE75940C90FC90718E000200849EE
:10114000D8E7054801420DD10342F7D0F2E700008D
:101150000000FF0754C600000000F07F0000E0FF21
:101160000000F87F114859400143C012414000205F
:10117000C0E70123089A9B069A4205DC0322520726
:101180008918C90FC907B5E7052252078918074A08
:101190001143D2125140ADE770B515461C460246C8
:1011A0000B4628462146FFF7DFFD70BDFFFFFF7F9E
:1011B00030B50346CA02400D1043164D164C0A15B1
:1011C00002D02043002A06DBAA1A002A12DDD040F2
:1011D000FF2A0BDC30BD5205520D01D14000400802
:1011E000AA1A07D4D0404042FF2A01DD002030BDBA
:1011F0000028FCDD4A00002B01D0012000E0002087
:10120000101801225205D042F0D8C817C0436040E0
:1012100030BD00001E040000000000800346CA022A
:10122000400D10B510430A1504D00124E4072043F3
:10123000002A05DB0A4CA21A04D4D040FF2A00DDA4
:10124000002010BD4A00002B01D0012000E000204A
:10125000101801225205D042F2D8C817C04310BD61
:101260001E0400001F22030C02D10F22000402D032
:10127000030E03D004E00020014670470002083A44
:10128000030F01D10001121F830F01D18000921EB4
:10129000002801DB4000521E120551184205C01201
:1012A000411810467047C10FC90700D040420122C3
:1012B00092071143D6E701218907D3E710B50B1E2A
:1012C00001D0202301E0011E2BD00C0C01D1090418
:1012D000103B0C0E01D10902083B0C0F01D1090192
:1012E0001B1F8C0F01D189009B1E002901DB4900C7
:1012F0005B1E0446DC4021431C05A4182022D21AA0
:1013000090404B05C20AC90A1A430919830501D145
:10131000430818401623984002D30020521C414134
:10132000104610BDCA0FD20703D00B460021404221
:101330009941024B1A43C1E7004ABFE70000D04180
:10134000F0B58B4C0F09254689B0BD437BD01D09F4
:101350002646AE43FAD00E465E402740F60F3E4387
:10136000254071D024012142FBD0FF24AD19A404F3
:101370002D1B039501252D05DB02DB0AC9022B433A
:10138000C90A29431E010901040F130F0501214356
:101390001701880B820391432D098C46A90B1E432C
:1013A0008A039543B30B9A0396433F09BA0B940300
:1013B000A74302962E467E430497B6464E19D71988
:1013C0000C460196544305977E43371B7646BF1B58
:1013D0003601B646BE0B361900967646BC04371960
:1013E000009C01D3641C00946400002F01D00126EE
:1013F0003443029E049F754366467E4304967600FE
:1014000034196E0034190094029C019E1C19664325
:10141000751BAE46069465464519059C05956C43BB
:10142000594375460891691A0191049E014651433A
:10143000A41B0491611A009C0791E10605D0610983
:101440000122114302E072E06EE06109089D00276D
:101450002C0A2D066918049D7C412A0A2D0669185C
:10146000019D6241AC0DAD026D185441079A910D7A
:10147000920255196141029A644658435443069BAF
:10148000059A5A43121A131B9A0E9B015B187A4154
:10149000010B0005C3185141220A200644195A4184
:1014A0009A4200D2491C01204002814203D31523F5
:1014B0000226F64302E014230326F6432020C51A31
:1014C000A9401746AF40DA400A4320460399D84066
:1014D0000914731819055118039A3843D20751405B
:1014E000AC4009D00122944006D30022401C514157
:1014F000002C01D1400840001E4A934212D3012221
:1015000003989206904207DB0520400709181A4805
:101510000143C012414004E0032040070818C10FF6
:10152000C907002009B0F0BD0020F107FAE705184F
:101530000C464C4111486D42A04115D394181A46EF
:101540005A410E48644290410ED301204A004005A2
:10155000824209D35A00824206D35940C90F084A31
:10156000C90700201143DDE700200649DAE7000043
:101570000000FF07FE070000FFFFFF7F0000E0FF05
:101580000000F07F0000F87F10B501469E240002A5
:10159000CA15A307002A02D01843002A04DBA21AA6
:1015A000002A0CDDD04010BD1206120E01D1400001
:1015B0004008A21A03D4D04040420028F3DDFF22A5
:1015C00048001206904201D9002010BDC817C04340
:1015D000584010BD1F22030C02D10F2200041CD062
:1015E000030E01D10002083A030F01D10001121FBE
:1015F000830F01D18000921E002801DB4000521EA3
:10160000D2055118021251181922904004D3491CD6
:10161000002801D14908490008467047C10FC90791
:1016200000D04042012292071143D3E701218907EC
:10163000D0E7FEB5044610460D46184373D0A646C3
:101640008C460020A41A01469D4167D366460027B8
:1016500001243D46B61A9D4102D313463A46212441
:10166000654676462F04360C3E432D0CB61A9D4136
:1016700004D3150C1B042B43120410346546764624
:101680002F06360A3E432D0AB61A9D4104D3150E85
:101690001B022B4312020834654676462F07360993
:1016A0003E432D09B61A9D4104D3150F1B012B4350
:1016B0001201241D65467646AF07B6083E43AD08C5
:1016C000B61A9D4104D3950F9B002B439200A41C96
:1016D00065467646EF0776083E436D08B61A9D418B
:1016E0001AD392185B41641C16E0001876466546D2
:1016F0004941B71A9D410191009009D36046B11A42
:1017000098418E468446009801990025401C694105
:10171000DD0752082A435B08641EE6D5724663461D
:1017200003B0F0BDFFE72046284307D00020C043A8
:101730000146C046C04622462B46F1E7002001463E
:10174000F7E70000F8B5264C4E00069DA6420AD8E1
:10175000A64201D1002806D15E00A64203D8A642C7
:101760000AD1002A08D00D242404254233D029466A
:10177000002000F05EF8F8BD0C461C4311D49942DD
:1017800007D0C81A02D3EFF30080F8BDEFF3008052
:10179000F8BD801A02D3EFF30080F8BDEFF30080AC
:1017A000F8BD09242407E5008B4207D0581A02D35C
:1017B000EFF3008006E0EFF3008007E0101A03D398
:1017C000EFF30080A04303E0EFF30080A043284341
:1017D00080F30088F8BD009500F042F8F8BD0000E5
:1017E0000000E0FF754600F045F8AE46050069468A
:1017F0005346C008C000854618B020B5FEF7FAFE73
:1018000060BCB64600260027C0C5C0C5C0C5C0C55F
:10181000C0C5C0C5C0C5C0C5403D490849008D46CA
:10182000704710B50446C046C0462046FEF7B5FED8
:1018300010BDC80212D54803400F002804D0C803C9
:10184000C043012188407047EFF300800001000988
:1018500003210907084380F3008870470020704780
:1018600010B500200249029A00F008F810BD0000EF
:101870000000F87F00487047A001002010B50C461A
:101880001107090F092904D00A290AD008290CD107
:1018900004E011460820FFF7CCFF06E0510606D50C
:1018A00001E0510601D50120C007214610BDD10637
:1018B00007D501010909CC084907000E00060443B9
:1018C00009E0410F20024907000A0143200E0006EB
:1018D0001D22D14101430846E7E7000001491820D5
:1018E000ABBEFEE72600020070B58C180578401CE0
:1018F0006B075B0F01D10378401C2A1106D10278D7
:10190000401C03E00678401C0E70491C5B1EF9D198
:101910002B0705D40023521E0DD40B70491CFAE787
:101920000378401CCB1A921C03E01D780D70491CF3
:101930005B1C521EF9D5A142D8D3002070BDB0B5B2
:101940000C4605460420012109F0F2FD28462146F7
:1019500008F066FAB0BD80B5012007F039F800281C
:1019600002D0012007F02EF880BD0000B0B51E2087
:10197000CD4D295E0020C4430029204605D56A8B41
:101980003C20504349420BF04BFB68216852022037
:10199000295EA142204605DD6881A87C40060BD463
:1019A0002C86B0BD6A8B3C20504349420BF038FB7B
:1019B0006881A87C4006F3D52E20295E1620285E7B
:1019C000884201DAE88501466A8B3C205043CA17F9
:1019D000891851400BF002FB04462C86B0BDC0466E
:1019E000F0B581B0B04FF98B0CB2144A012C0ADB70
:1019F000387EC00607D5788BBA8B121A3C2050432C
:101A00000BF00EFB024610203D5E6C437D20C600AD
:101A10002046314614460BF003FB60217852BC840B
:101A20001620385EC11740184840684331460BF015
:101A3000F7FA0349088001B0F0BDC046FFFF00007F
:101A400006040020F0B581B0852041009748425C33
:101A500041180123C95609028A181621924E745E54
:101A60000821324D695E914201DC94420CDC212256
:101A7000D200835C801840780002C018404200B257
:101A8000814209DB844207DA0020286268626870BC
:101A9000F0832C8101B0F0BD6878411C6970400072
:101AA00028180484C8B2042801D300206870E868AC
:101AB00000210091E9602221695E2022AA5E80183F
:101AC00040182421695E40182621695E40184700AD
:101AD000174801686220484364210BF0A1FAC0193D
:101AE000134908601E21715E002900D44942114A41
:101AF00012888918CA178918514001290BDCA87867
:101B0000401CA870C0B22828C3D3F4830098A870E2
:101B10002C8101B0F0BD0099A970192109010BF0C9
:101B20007FFAF0832C8101B0F0BDC04698030020FD
:101B3000100A00200A0A0020F0B516205A490B5E50
:101B4000FF20F430594A1056002843D44A20584AFE
:101B5000145A488B012B53DBA04200D8A0E0031B92
:101B6000554C257F667F36027519ED1825772E0AAC
:101B70006677ADB25226965BB54217D34D8C6D1C7D
:101B80004D84D57D6D1CD575A67FE77F3F02BE19BC
:101B9000761CA677360AE677EDB2322D03D14D7E5C
:101BA00001262E434E760021617721775021545A29
:101BB000E41854529BB2556FEB185367A3B29B08BD
:101BC0007D2B6DD3002353523A490A7801231343E6
:101BD0000B7065E04A20364A145A488B002B1FD4FC
:101BE000A0425DD9031B5021545AE41854529BB2B1
:101BF000556FEB185367A3B29B087D2B50D344E07D
:101C000084424DD9231A5021545AE41854529BB29D
:101C1000556FEB185367A3B29B087D2B40D334E07C
:101C200084423DD9231A244C257F667F36027519DC
:101C3000ED1825772E0A6677ADB25226965BB5422F
:101C400017D34D8C6D1C4D84D57D6D1CD575A67F2D
:101C5000E77F3F02BE19761CA677360AE677EDB21B
:101C6000322D03D14D7E01262E434E760021617721
:101C700021775021545AE41854529BB2556FEB18F7
:101C80005367A3B29B087D2B0AD300235352094903
:101C90000A78012313430B704A21054A5052F0BDC4
:101CA0004A21034A5052F0BD5805002000E40000CC
:101CB000BC0200207A02002080020020F0B591B022
:101CC00055208000F24F395C3818407800024118E6
:101CD000F0480288642420460C92504302910BF095
:101CE0007DF983B28B214900795C8B42069413D92C
:101CF000FF221832BA5C934216D9801A1090000461
:101D0000000E02D00020C04310902320C000385C99
:101D1000801A0F900A2511E0FF221632BA5C0025C6
:101D2000934207D8109507E0521A0F92401A10906C
:101D3000052503E0801A1090881A0F90FF231A4699
:101D40001A32B81801268157D348007840B2884229
:101D5000039304DABA5690420CDC00200BE01A46DA
:101D60001C32BA5690420BDA401A0A90501A0D9063
:101D70006D1C1CE0801A0A900E95881A0D9017E0D1
:101D8000472189007956884205DA801A0A90881A14
:101D90000D90AD1C0BE01A461E32BA56541A9042F2
:101DA00001DB0A9401E0401A0A900D94ED1C0E9597
:101DB0008F2045007819B9494C8CFE22511CFE3AFF
:101DC000042A07D8027843781B029A18801C944290
:101DD0000A46F3D2C8B2FF28059517D079194200F8
:101DE0008B5C8A1852781202D218431C5D004F5D3A
:101DF000491949780902C919891A95256D00A44F16
:101E00007F193D5CF85C401BA21A09E0785D7919E6
:101E100049780902091895204000385C00252246BF
:101E2000C3B290B2584389B20BF0D8F840190C995C
:101E300048437D21C90007910BF0D0F898490890DC
:101E400008800F98C3B21098C7B200209F42324654
:101E500000D802460E99092900D8064632400B9256
:101E60004800012A27D18A4B181807468237B97AC9
:101E7000FA7A1202521804928221405C797809029F
:101E80000818801A89214900595C0F9AD2B2109B18
:101E9000DBB29E1A4E4370430A21514309910BF065
:101EA000BFF8397B7A7B12025518B978FA7812029A
:101EB00051184F1B1CE07649081805468235A97A4F
:101EC000EA7A120251188222805C6A781202101893
:101ED0000490401A7843194609930BF0A1F8297B26
:101EE0006A7B12025118AA78EB781B029D186E1AB1
:101EF0000499081A04907743384609990BF090F832
:101F0000281A80B2049DA9B2401A0A99C9B20A914E
:101F100048430D99C9B209910BF082F80899691AE2
:101F2000081860490D9048850B9800282AD00E9813
:101F30004000FD4B18180546AA35A97AEA7A120224
:101F400052180192AA21405C697809020818801A87
:101F500003991431595C0F9AD2B2109BDBB29F1ACD
:101F60004F4378430A21514304910BF059F8297BE0
:101F70006A7B12025618A978EA78120251188D1B52
:101F8000019922E00E984000E74908180646AA3653
:101F9000B17AF27A12025118AA22805C7278120287
:101FA00010180390401A1099CDB268430F99C9B226
:101FB00004910BF035F8317B727B12025118B27824
:101FC000F3781B029E18771A0399081A03907D4331
:101FD000284604990BF024F8301A80B2039DA9B268
:101FE000401A0A99484309990BF01AF80899691A96
:101FF0000E18CF4FBE85CF48411C0D9A92B28A422F
:102000000146C94B0E9D03D3CB498A4202D9491CD4
:1020100079850D917421C54A515A3231B2B291423B
:1020200007D20146BB318A420B9905D9BC3006461E
:1020300001E00E460B99BE850B966800002933D04F
:1020400018180546D235A97AEA7A120252180E9269
:10205000D221405C697809020818801A452189005C
:10206000595C0F9AD2B2109BDBB29F1A4F43784350
:102070000A21514310910AF0D3FF297B6A7B120297
:102080005618A978EA78120251188D1B2BE0C04629
:1020900000E400000A0A0020000400205805002087
:1020A00062090020BC02002018180646D236B17A18
:1020B000F27A12025118D222805C72781202101841
:1020C0000E90401A1099CDB268430F99C9B2109181
:1020D0000AF0A6FF317B727B12025118B278F378B6
:1020E0001B029E18771A0E99081A0F907D432846F6
:1020F00010990AF095FF301A80B20F9DA9B2411ACB
:102100000A98484309990AF08BFF29183A208B4D09
:102110002954080A2A463A325070080466D02E27FD
:10212000E85D2E462E36727812021018B278F378D7
:102130001B029A1812041018109007980C9A50431A
:1021400089B20AF04BFF1099091AE9552A220F9219
:10215000AB5C2A462A3257783F02FF1810979378D3
:10216000D7783F02FF183F04109BFB180C9FC01B41
:10217000C0180F9BE8540B0CB3700B0EF3700B0AD6
:102180007370030C9370030ED370000A5070BD4F30
:10219000002907D52E200021295428462E30C17051
:1021A000817041702A20285C29462A314A7812021F
:1021B00010188A78C9780902891809040918AF48E3
:1021C000428B838B934205D1012929DB0A204843A6
:1021D000242106E0012928DB0A2048439A1A2421F9
:1021E00051430AF01DFF079940182BE02E22A95CED
:1021F00028462E3043781B0259188378C678360259
:10220000F3181B0459180C9BC91AA9540A0C8270A4
:102210000A0EC2700A0A42709A4F0029C2D5B9E765
:10222000E1200001411A47480AE09E1A242777431B
:10223000484264210AF0D2FEC119924F40487043CF
:102240000AF0EEFE382168543835000A6870059DA2
:102250007919FE22501CFE3A042A07D80A784B78D6
:102260001B029A18891C94420246F3D2C1B2FF297C
:1022700022D079190006C00D0A5C0B185B781B028E
:102280009A18831CCD5CC918497809024919891A22
:1022900013252D017E19355C301840780002451950
:1022A000F05CF3185B781B021818401B069E754300
:1022B000A21A0B2C2FD310E0785D79194978090206
:1022C0000918132000013A5C381840780002801881
:1022D00000252246069E0B2C1DD392B280B250439D
:1022E000704389B20AF07AFE401980B21649081A82
:1022F000029C604331460AF071FE61084018214695
:102300000AF06CFE010419229204914200DC064698
:102310006E205A490E520D480B9901800C480D99B8
:10232000018011B0F0BDC04600E400005805002057
:10233000BC0200207A0D00007B0F0000800200200C
:10234000A08C000080EE360010270000180A002044
:10235000140A0020F0B583B01620EE4D285E297EC9
:10236000C9065CD533285ADB687E40075CD401245B
:102370002002EC4E315C3018407800024018702189
:10238000695E081A1021695E884255DC8120400090
:10239000315C30184078000241183B480088884280
:1023A0004AD2374B59894F1C5F8119690818186147
:1023B00041218900725C71184978090289180291DB
:1023C0004908BAB28A4213D183214900725C71185C
:1023D00049780902891801912D21C9000AF0FEFDF2
:1023E000274B0199884201D200275F8100201861A4
:1023F000029AB9B2914215D300275F818321490027
:10240000725C7118497809028E182D21C9000AF0F2
:10241000E5FDB04218D21A48076103B0F0BD184874
:102420000021418103B0F0BDA88B698B8142F9D3B3
:1024300002F090FA03B0F0BD114841890029F1D0B3
:10244000491E418103B0F0BD698C22200F4A11540E
:102450002023D55C104620304678360275196D1C55
:10246000D5542232090A517009490A7822430A7068
:10247000290A417002F06EFA03B0F0BD5805002041
:102480009803002000E400000A0A00205C030020FA
:1024900052030020F0B583B004469E4F387E80077B
:1024A00009D46C20385EFF2112319E4A515C88426B
:1024B0000BDD00210AE09848007D002828D06C2020
:1024C000385A02909548018854E00121CC40974940
:1024D0000A7E4B7E1B029A188B7ECD7E2D02EB1856
:1024E0001B049A18141BBB8B24225A43944200DC11
:1024F00014460C76230C8B76230ECB76230A4B7670
:1025000083B28548016E914200DD9CE002669AE04C
:102510006C203F5E8248834D2E5C7E438248295C5E
:10252000062078430AF07CFD30187C4B1880FF2190
:1025300012316D5CBEB2AF42029605DA01047C4AEC
:10254000914210DC1E2113E011DD734A517D0029F8
:1025500000D1CDE0108F6F498F8B1787874200D253
:10256000A7E07842A7E0734A914200DA9FE0642135
:102570001980684F6D4E307E727E12021018B27E46
:10258000F37E1B029A181204151808B24443642102
:1025900020460AF023FD2C1A3476200CB076200E4B
:1025A000F076200A7076029B002B35D02425204639
:1025B00029460AF035FDBF8B7D43B84208DC002078
:1025C0005A49C8760D76280C8876280A48762C4613
:1025D000514E336EAB4201DC35662B4674204D4ABA
:1025E000105A1021515E81421EDD019324212046A4
:1025F0000AF016FDB84208DC00204C49C8760D767A
:10260000280C8876280A48762C460198A842414F23
:1026100000DC3566029B16E07420385A1021795E82
:10262000814240DD00230EE03A4F029B002C05DC86
:1026300000243E48C476847644760476306E0028C2
:1026400001DC0020306618B2022816DB1020385E4C
:102650007421795A0A3181420FDB6C2001213952F1
:1026600032480021C176B98B24244C4304762A4990
:102670000C66210C8176210A4176002C05DD264866
:10268000016E00290BDD03B0F0BD28480021C176A2
:102690008176417601762048016E0029F3DC002125
:1026A000016603B0F0BD1C4E002CC7DCC0E701463C
:1026B0005FE77800404201901C48017E427E120292
:1026C0005118827EC07E0002801800044018242128
:1026D0000AF0A6FC0199401801907D436421284628
:1026E0000AF07CFC014601980AF09AFC0B4B18801A
:1026F000084F02B26D2A02DC642119803AE71D46B8
:10270000192109014B1E9A4201DD298032E7014659
:1027100030E7C04658050020BC020020020000201F
:102720005103000000E4000052030000800200207A
:10273000FFFF1D0001006C00F0B583B0FF252846A7
:10274000FC309D4F395C9D48007840B2884236DBB2
:102750007F218900795C884231DC9948385C994C4A
:10276000668C86422BD9207E000739D45520800004
:10277000395C38184078000244182846FE30385C2E
:1027800060430A210AF02AFC8F490E88B0420DD816
:102790006800385C44430A2120460AF01FFCB0421E
:1027A00004D3FD48C178C90700D0E0E1FA4D00200C
:1027B0006861E878FD210140E97018350CE0F64DBC
:1027C000E878FE210140E97000206861A861E8789E
:1027D000FD210140E9701C350020286003B0F0BDE8
:1027E000EE49087840220240EB4DE878C007EC48FB
:1027F00007D1002A0FD10122895600290CDABA79B3
:102800000AE0002A00D0E1E001228956002900DB1D
:10281000DDE0BA79DBE0FA79D1B26A695118696111
:10282000814200DC58E201965A20385C39465A3120
:10283000497809020B181020225E94B200219A42B6
:10284000029100DC28E200945C23FB5C3C465C3493
:1028500064782402E3189A4200DC94E15E23FB5C76
:102860003C465E3464782402E3189A4200DC8EE130
:102870006023FB5C3C46603464782402E3189A428F
:1028800000DCB5E16223FB5C3C46623464782402E0
:10289000E3189A4200DCAFE16423FB5C3C466434FD
:1028A00064782402E3189A4200DCA9E16623FB5C09
:1028B0003C46663464782402E3189A4200DCA3E1C3
:1028C0006823FB5C3C46683464782402E3189A422F
:1028D00000DC9DE16A23FB5C3C466A346478240298
:1028E000E3189A4200DCB8E16C23FB5C3C466C3494
:1028F00064782402E3189A4200DCB2E16E23FB5CA8
:102900003C466E3464782402E3189A4200DCACE161
:102910007023FB5C3C46703464782402E3189A42CE
:1029200000DCA6E17223FB5C3C467234647824022E
:10293000E3189A4200DCA0E17423FB5C3C4674344B
:1029400064782402E3189A4200DC9AE17623FB5C67
:102950003C46763464782402E3189A4200DC94E121
:102960007823FB5C3C46783464782402E3189A426E
:1029700000DC8EE17A23FB5C3C467A3464782402E6
:10298000E3189A420290009C00DC85E17C20385CD0
:102990003B467C335B781B021B189A4200DCF9E152
:1029A0007E20385C3B467E335B781B0218188242DF
:1029B00000DDF3E10346F8E100E40000000400203C
:1029C00001020000580500200A0A0020FA79D1B25D
:1029D000AA695118A961814200DC7DE15A20385C66
:1029E00039465A31497809020B181020225E94B2F8
:1029F00000219A42029100DC0FE100945C23FB5C11
:102A00003C465C3464782402E3189A4200DCBCE063
:102A10005E23FB5C3C465E3464782402E3189A42F1
:102A200000DCB6E06023FB5C3C4660346478240242
:102A3000E3189A4200DCDDE06223FB5C3C46623432
:102A400064782402E3189A4200DCD7E06423FB5C3C
:102A50003C46643464782402E3189A4200DCD1E0F6
:102A60006623FB5C3C46663464782402E3189A4291
:102A700000DCCBE06823FB5C3C46683464782402CD
:102A8000E3189A4200DCC5E001966A23FB5C3C46F1
:102A90006A3464782402E3189A4200DCDFE06C2395
:102AA000FB5C3C466C3464782402E3189A4200DCF8
:102AB000D9E06E23FB5C3C466E3464782402E31854
:102AC0009A4200DCD3E07023FB5C3C4670346478AF
:102AD0002402E3189A4200DCCDE07223FB5C3C4602
:102AE000723464782402E3189A4200DCC7E074234D
:102AF000FB5C3C46743464782402E3189A4200DCA0
:102B0000C1E07623FB5C3C46763464782402E3180B
:102B10009A4200DCBBE07823FB5C3C467834647866
:102B20002402E3189A4200DC2FE17A23FB5C3C4646
:102B30007A3464782402E3189A420290009C019E41
:102B40006BDD7C20385C3B467C335B781B021B18BA
:102B50009A4200DC20E17E20385C3B467E335B7885
:102B60001B021818824200DD23E1034628E10F21F1
:102B700049017A5C1207964B20D51A7ED20611D4F1
:102B8000C269921919E0012084E0012043E002208B
:102B900080E002203FE0C04698030020140400209B
:102BA0004F460000C278FE231340C37000224261EA
:102BB000C378FD241C40C470854BC261795C490711
:102BC00005461835002900D406E6197E890603D487
:102BD000C1698919C161FFE5C178FE220A40C2704E
:102BE0000021C1614161C178FD220A40C270F3E554
:102BF00003204FE003200EE004204BE004200AE015
:102C0000052047E0052006E0062043E0062002E01C
:102C100007203FE007200290009CE8780222024350
:102C2000EA706961A961E878FE210140E9700298C3
:102C3000400038185821415C583040780002401854
:102C4000191A09B2201A0524604300B20AF0E8F903
:102C500002994C43001968713EE008201AE00820F0
:102C600094E0092016E0092090E00A2012E00A20F2
:102C70008CE00B200EE00B2088E00C200AE00C20FA
:102C800084E00D2006E00D2080E00E2002E00E2002
:102C90007CE00F200290009CE87801220243EA7059
:102CA0006961A961E961E878FD210140E970029E4E
:102CB000700038185821415C5830407800024018A4
:102CC000191A09B2201A0524604300B20AF0A8F9C3
:102CD000744300192871019EE878800700D47DE5CF
:102CE0003C48395C04202856884205DD0122520206
:102CF000BA5C904200DA63E50522AA568A4205DDF5
:102D000001214902795C8A4200DA59E5801AC1172B
:102D100044184C40FD225000385C84422AD9E869AE
:102D2000242117460AF07CF921460AF079F91B2183
:102D30000901274A505228490A78012313430B708E
:102D4000E978FE220A40EA7024490E7700226A617F
:102D5000AA61320A4A7788778A7ECB7E1B029A184C
:102D6000521C8A76000AC877100AC876E87838407C
:102D7000E87030E5E878FE210140E97000206861E4
:102D8000A861E8781040E87025E50F200290009CCB
:102D9000019E42E711207DE71120F7E78023FB5CCD
:102DA0003C46803464782402E31882420CDC122012
:102DB00070E78023FB5C3C46803464782402E3188F
:102DC000824203DC1220E1E7132063E71320DDE7F2
:102DD00058050020FF010000520300205C03002082
:102DE000F0B581B01620E14E305E01280EDB307E5A
:102DF000C00600D485E0DE48017E490746D4717ED6
:102E000049074CD5317EC90753D15EE07420305A52
:102E10001024315F814200DD3FE12122D448815CF2
:102E2000052900D237E100218154FF22E032D14B45
:102E30009A5C920603D4327E802313433376322386
:102E4000CD4AD1542E23D1544A23C1526C23F1527E
:102E5000222401230355347E1C433476D1769176A7
:102E60005176117641667183416710463230417068
:102E70002E32D17091705170C04801881943018081
:102E8000307E02210143317601B0F0BDC18FB183A4
:102E9000017EFB220A400276717E4907B2D40021EE
:102EA00081768175317EBF220A403276317EC90734
:102EB0000BD06C21715E11221201AE4B9A5C9142D3
:102EC00003DD317EFE220A403276317E890715D538
:102ED0006C21715EFF221232A64B9A5C91420DDD8D
:102EE0002021425C521C4254D2B2022A09D1002253
:102EF0004254307EFD210140317602E02021002243
:102F000042541820305600280ED405F00FFE984F7A
:102F1000B87980062BD43C6FE0087C283FD89848CD
:102F200000882218002148E0954802889049486EA0
:102F300080184866717E890728D48F490B7E4C7EA5
:102F40002402E3188C7ECD7E2D022C192404E31874
:102F5000834200DBF9E052009A180A76130ECB7612
:102F6000130C8B76130A4B7682424ADBF9E08248D7
:102F7000017E427E12025118827EC07E00028018BD
:102F8000000440184821795A401824E07A4908760C
:102F9000020ECA76020C8A76000A487631E07D205D
:102FA000C500204629460AF019F8C2B20421C943D7
:102FB00051434543621B724800883A676E4A137E4C
:102FC000547E2402E318947ED27E12021219120457
:102FD000D2185118081868490876020ECA76020CF1
:102FE0008A76000A4876307EC00705D1307E800799
:102FF00007D5307E400604D561480088796E0818F0
:1030000078667D2188005B4A105C5D4A14888442A2
:103010003CD92E26584FB85D3D462E356A781202AF
:103020001018AA78EB781B029A1812041018009056
:103030003820385C3A463832527812021018604311
:10304000C90009F0CBFF00994218BA552A23FE5C4B
:1030500039462A314F783F02BE1900968F78CE78D4
:103060003602F6193604009FF619201A8019FD4E13
:10307000414CE054130CAB70130EEB70120A6A70E3
:10308000020C8A70020ECA70000A4870307E8006F8
:1030900000D443E148E1491C81547D208000F34D78
:1030A000285CF44F398881421AD9FEF707FEEE4DAD
:1030B000708CF149884241D3A88C01283ED1EF4859
:1030C00006884B2E5ED938880A2109F087FF4B36D7
:1030D00071084843322109F081FF4C21685253E0C6
:1030E000E148C17F092900D00DE1E14A117E537EFC
:1030F0001B025918937ED47E2402E3181B045B182C
:10310000FF21F631695C5B1ADC17A34313761C0CB4
:1031100094761C0ED4761B0A53761822B256002AD7
:1031200004D5426E521AD3179A434266327E520633
:1031300000D4E8E0826E51188166E4E03988FF200F
:10314000EA7F092A3AD000223CE052089A180A760F
:10315000130ECB76130C8B76130A4B76824200DB70
:103160004FE7707E0221014371764AE7580500203F
:10317000BC02002000E40000800200200E040020B9
:103180000A0A00204C20285A4E216A5A83B29A42D9
:10319000B44E02D94C202A5210466852B8490880D1
:1031A0003988B84A1180AA8DB74B1A80101AA885A1
:1031B000B64A1080FF20EA7F092AC4D10246F632BF
:1031C000AA4B9A5CD2B25718327E317ED20722D1F6
:1031D000890641D4307E400602D5A86EC019A86683
:1031E000A348017E427E12025118827EC37E1B02DA
:1031F0009A1812045118C91BCA17914301760A0C78
:1032000082760A0EC276090A4176286E00287ADC98
:103210000020286677E0890755D4315FAA8D914256
:1032200057DA697F491C6977C9B2042953D1317EC5
:1032300002220A433276002169770146E031F64ADC
:10324000515C490703D51230105C02F0ADFD707E71
:10325000FD210140717653E0315F6A8D914200DBC0
:10326000D8E0A97F491CA977C9B20429B2D3317E1D
:1032700001220A4332760021A977E030E64B195C3F
:10328000890603D4317E80220A433276185C4007D7
:1032900004D511200001185C02F0CEFC707EFD21E7
:1032A000014071766C20305EB18B4143242048434D
:1032B000E149087628666866020ECA76020C8A76AC
:1032C000000A48761CE0686EC01BC1178843686618
:1032D00016E000216977696EC91BCA179143123045
:1032E000CD4A105CB28B424324205043814200D32C
:1032F00008466866307E400602D5A86EC019A866EA
:103300003846FFF7C7F8CB48C17F491CCAB20A2A22
:1033100000D10021C177307E800605D4307E0007C1
:1033200002D4C448807924E0C2498879022202404C
:103330004B7E13434A7D1A431BD1BF4A137E547EF2
:103340002402E318947ED57E2D022C192404E4185F
:103350000B6E9C4206DD13761C0ED4761C0C947604
:103360001B0A53763622895E6C22B35E8B4200DDE7
:10337000B152B04900224A754A766C22B25ACA86C6
:10338000FD2202408A71307E8007C00F0875AA4D69
:10339000287E6A7E12021018AA7EEB7E1B029A1803
:1033A000120410180866E1210C01214609F038FECC
:1033B00081B2B78BB94209D9384660432876010EED
:1033C000E976010CA976000A687600E007462E200F
:1033D000285C29462E314A78120210188A78C9785A
:1033E0000902891809040818214609F019FE82B259
:1033F0003421695C2B4634335B781B0259188A42AE
:1034000000D80146322029547783080A3235687083
:1034100001B0F0BD307E7F21014031760020A877D9
:10342000317E490602D5A96EC919A966ED490A7E01
:103430004B7E1B029A188B7ECC7E2402E3181B0461
:103440009A18D21BD3179A430A76130C8B76130E55
:10345000CB76120A4A76296E002900DD53E72866EA
:1034600051E7C04658050020BC02002000E40000DF
:10347000800200200A0A00201127000058090020BD
:103480005A0900200C0A00201A0A0020160A0020FF
:10349000F0B581B055208000CF4E315C30184078B7
:1034A00000024118CD4800886424604309F096FD6D
:1034B0005A4901403046FE3032290AD3584909782A
:1034C00049B2092905DC042901DC574800E05548C8
:1034D000301801784078000247187420F34D2F52BD
:1034E0007D200101688B4843A98B09F077FD4108D5
:1034F00088B28208F92A09D30F204001305CC00746
:1035000029D0687E400725D5642424E009281CD8EA
:103510002120C000325C3018407800028018404200
:103520001622AA5E0024824215DA1020285EB842D4
:1035300011DDC8B20A2109F051FD04460F204001F7
:10354000305CC00607D5012405E00A2109F046FDDC
:10355000044600E063246C202C52A1480078153802
:10356000082801D800F0A4F901F0C0F81B200001E0
:10357000285A0F214901715C890718D42C49088009
:10358000688B99494887A88B88873220C549085C91
:103590000A46323252781202101828853420085C0C
:1035A0003431497809020818A88501B0F0BDAB2173
:1035B0004900725C7118497809028E1870431B4CDF
:1035C000214609F00BFD1A490880688B704321469B
:1035D00009F004FD844F7887A88B7043214609F0D9
:1035E000FDFCB8873220AF4F385C3946323149781C
:1035F000090208187043214609F0F0FC28853420A0
:10360000385C34377978090208187043214609F08C
:10361000E5FCA88501B0F0BD00E40000FEFF00005D
:103620000104002053030000550300001027000090
:10363000080A0020BC02002080020020F0B583B000
:1036400055208000984E315C3018407800024118B7
:10365000E64802886420504309F0C0FC81B28B2206
:103660005200B45CFF22A1420FD91832B25C9142E1
:1036700012D9811A0804000E01D00020C143232072
:10368000C000305C821A0A230CE01632B25C0023C0
:10369000914205D8194604E0121B011B052301E0E5
:1036A000811AA21AFF252F461A37F0190124045750
:1036B000D148007840B2A04204DAF557A8420ADCAB
:1036C000002009E02F461C37F757B84206DA001BE6
:1036D0003F1B5B1C14E0401B671B11E04724A40048
:1036E0003457A04203DAC01BE71B9B1C08E01E35C1
:1036F00075572F1BA84201DB384600E0001BDB1C7E
:10370000D4B2CDB2A5420297019027D90A2B25D376
:10371000580030180546D235AB7AEC7A2402E4180A
:103720000094D223C05C6B781B021818001B452341
:103730009B00F35CD2B2C9B28E1A5E4370430A2476
:103740005443214609F06CFC297B6A7B120257180E
:10375000A978EA7812025118CD1B1BE058003018E6
:103760000646D236B17AF27A12025118D222805C21
:103770007278120210180090401A6843214609F02E
:103780004FFC317B727B12025118B278F3781B0226
:103790009F187E1A0099081A009075432846214602
:1037A00009F03EFC381A80B2009CA1B2411A01987F
:1037B000C0B248430299C9B209F032FC20183A213C
:1037C000384A5054010A3A325170010401D08349F9
:1037D000088503B0F0BDC04600E400000A0A0020DE
:1037E0000004002080020020BC020020F0B581B05F
:1037F00034202C4C205C21463431497809020918C8
:103800003220205C224632325278120212187D2079
:103810000001504309F0E2FB0A30410888B28208F7
:10382000F92A07D30F204001CE49085CC0070DD10B
:1038300064202FE0092805D80F225501C94E725D7A
:10384000D20609D40A2109F0C9FB23E0C648407E0C
:1038500040071ED564201DE02120C000325C3018D6
:1038600040780002801843421620BF4A175E0020AD
:103870009F420FDA7423D35A1027D25F9A4209DB92
:10388000C8B20A2109F0AAFB715DC90602D5012060
:1038900000E06320362160543634000A607001B0C5
:1038A000F0BDC0468002002000E400005805002062
:1038B000F0B581B06C20AC4D285A642805D1687EE3
:1038C000400702D5287EC00603D544480021C184A4
:1038D0000160424E3079697E490707D5012805D13C
:1038E000287EC00602D4287E000707D4287EC006A2
:1038F000C00F3071307801286AD105E001203070A6
:10390000287EC006C00F3071F08C401CF08483B25A
:10391000334A93425CD971784C00324804192F8A9B
:10392000E780491CCCB2042C00D900217170541DD1
:10393000A34212D9921DF2847279012A02D12A7E01
:1039400092060DD4F078012802D1287E800612D488
:10395000B078C0B205283BD313E00020F07037E008
:103960000122F270C9B249004018C0881E4908807F
:10397000287E8006ECD5B078401CB070C0B2052817
:1039800026D30020F08430607C202C5E0A21204663
:1039900009F046FB15490988884219DAE00F20181A
:1039A0004010884214DD124807801248018001202F
:1039B000B0841148007840B2104A10800A4800884C
:1039C000C21B7D20C000504309F008FB0C49088051
:1039D000287E0007C00F707101B0F0BDBC0200204E
:1039E00002070000F0030020680900200A0A0020F6
:1039F0006609002064090020000400201C0A002041
:103A000058090020B0B52120C00056490A5C0818AA
:103A1000407800028018434216225348825E9A4240
:103A20001FDA027E202313430376027EEF23134026
:103A300003764E4A0023D38013704E4A13788024B5
:103A40001C431470827C40231A4382744A4C25889C
:103A50001D432580037EF7241C400476530636D48C
:103A600059E085235B00CC5CCB185B781B021B19EB
:103A70009A421EDD027EDF2313400376027E10236E
:103A800013430376394A0023D3801370394A1378DD
:103A900080241C431470827CBF2313408374364AF5
:103AA00013884024A3431380027EF7231340037638
:103AB0000AE02E4AD3882E4CA34201D05B1CD3804F
:103AC0001278002A00D0B0BD827C530623D5432350
:103AD0009B00CC5C254BDD88A5421CD3047EDF25F2
:103AE00025400576047EEF252540057601241C70CF
:103AF0000024DC80BF231A4082741E4B1C787F2573
:103B000025401D701C4B1C88402525431D80037ECD
:103B100008241C4304765306D5D4FF230E33CB5C14
:103B20001249CC889C42CED3037EDF241C4004760D
:103B3000037EEF241C40047601230B700023CB800E
:103B4000BF210A4082740C490A88402313430B802A
:103B500008490A787F2313400B70017E08220A432C
:103B60000276B0BD00E40000580500209803002054
:103B7000FFFF0000600200200E04002010B582B09C
:103B8000F94C2078C10756D081070ED5FD21084099
:103B900020707E20F549085A820A102A05D1FE229B
:103BA0008A5692B2803105F029FF6078410744D4EB
:103BB000E078410650D4A178C90764D101077FD4C9
:103BC000C10600D58EE0A1788A0700D59DE04A079E
:103BD00000D5AFE00A0700D5C1E0CA0600D5D3E0A2
:103BE0008A0600D5E5E04A0600D5F7E049B200298B
:103BF00000D509E1C10700D01BE1800700D52AE10B
:103C00002078410700D539E1C10600D53CE18106A5
:103C100000D55BE1410600D57AE140B2002800D52D
:103C200099E16078C10700D0C5E1810700D5E1E1E5
:103C3000400700D5FDE102B010BDFB2108406070D7
:103C4000CB48CC49081880B2C8498031112205F010
:103C5000D5FEE0784106AED501210902C64A515889
:103C6000097841239B00D2581278C44BDA709970BE
:103C7000BF210840E070C2490A78022313430B7049
:103C8000A178C9079AD0FE48008828210140FD4844
:103C9000F94A105CD7230340581801A90870FA4864
:103CA000101880B2012205F0A9FEA078FE21014083
:103CB000A170E17804200843E070010700D47FE799
:103CC000F248ED49081880B2F149496833310222BF
:103CD00005F094FEE078F3210140081DE070C10674
:103CE00000D470E7EB48E449081880B2E849496815
:103CF0001331022205F082FEE078EB210140081D1D
:103D0000E070A1788A0700D461E7E348DA4908182F
:103D100080B2DF4949686231022205F06FFEA07867
:103D2000FD210140A170E27804201043E0704A07B1
:103D300000D44FE7D948D049081880B2D44949681F
:103D40006431022205F05AFEA078FB210140A170E7
:103D5000E27804201043E0700A0700D43DE7D04821
:103D6000C549081880B2CA4949686731022205F07E
:103D700045FEA078F7210140A170E27804201043AD
:103D8000E070CA0600D42BE7C648BB49081880B2C9
:103D9000BF4949686831022205F030FEA078EF2162
:103DA0000140A170E27804201043E0708A0600D43C
:103DB00019E7BD48B049081880B2B54949686A3169
:103DC000012205F01BFEA078DF210140A170E278FE
:103DD00004201043E0704A0600D407E7B348A64920
:103DE000081880B2AA4949686B31012205F006FE25
:103DF000A078BF210140A170E27804201043E07058
:103E000049B2002900D4F5E6A9489B49081880B2B8
:103E10009F4949686C31012205F0F0FDA0787F21AF
:103E20000140A170E17804200843E070C10700D18F
:103E3000E3E6A0489049081880B2954949686D3179
:103E4000012205F0DBFDE078FA210140081DE07059
:103E5000800700D4D4E698488749081880B28C4976
:103E600049686F31012205F0C9FDE078F921014070
:103E7000081DE0702078410700D4C5E6FB2108400A
:103E80002070C10600D4C2E6FE2079490A56131FED
:103E9000032B02D306220A5400E0D2B20120000212
:103EA000764909588548744B181880B252B2121FCF
:103EB00092B205F0A3FD2178EF20084020706178D0
:103EC00040220A436270810600D4A3E6FE206849BE
:103ED0000A56131F032B02D306220A5400E0D2B263
:103EE00001200002654909587548634B181880B2D3
:103EF00052B2121F92B205F081FD2178DF200840F6
:103F00002070617840220A436270410600D484E642
:103F1000FE2057490A56131F162B02D319220A54A2
:103F200000E0D2B201200002544909586548524BC2
:103F3000181880B252B2121F92B205F05FFD2178BC
:103F4000BF2008402070617840220A43627040B26E
:103F5000002800D465E6FE2045490A56131F162B9B
:103F600010D319220A540EE008040020580500203E
:103F7000A65EFFFF00E40000080000205C030020B4
:103F800052030020D2B2012000023C4909584E4899
:103F9000394B181880B252B2121F92B205F02EFDA2
:103FA00020787F21014021706178402008436070B3
:103FB000C10700D139E6FE202D490A56131F062BF2
:103FC00002D309220A5400E0D2B2012000022B4998
:103FD00009583E48284B181880B252B2121F92B2AC
:103FE00005F00CFD6178BE2008404030607081070C
:103FF00000D41DE6FE201E490A56131F212B02D3B2
:1040000024220A5400E0D2B2012000021B490958C0
:104010002F48194B181880B252B2121F92B205F0F5
:10402000EDFC6178BD20084040306070400700D44E
:1040300001E6FE200E490A56131F212B02D324222B
:104040000A5400E0D2B2012000020C490958094884
:10405000094B181880B252B2121F92B205F0CEFC72
:104060006078BB2101404031617002B010BDC04694
:1040700058050020A65EFFFF00E4000008000020B5
:104080006202002047020000475EFFFFFE5CFFFF68
:1040900028020020545DFFFF395EFFFF3B5EFFFFFB
:1040A0003D5EFFFF3F5EFFFF415EFFFF425EFFFFA1
:1040B000435EFFFF445EFFFF455EFFFF535EFFFF71
:1040C000555EFFFF575EFFFF6C5EFFFF815EFFFFE7
:1040D000865EFFFF80B5742005F042FC80BD80B590
:1040E000752005F03DFC80BD70B55A4A1146103967
:1040F000D44841600B78D449A02B0CD0FF2B0CD1B5
:104100001D22D20242601378FF2B00D182E0A02B47
:104110003CD100233BE0002300E0FF2314460F3C8A
:1041200044602478A02C02D0FF2C16D000E001239C
:1041300014460E3C44602478FF2C0ED0A02C00D1F5
:10414000022314460D3C44602478FF2C05D0A02C9B
:1041500000D1032314460C3C44601D24E40225785E
:10416000FF2D05D044602578A02D04D0FF2D04D16B
:10417000FF2B4FD051E0002500E0FF25661C466074
:104180006678A02E0BD0FF2E1CD009E0FF23541C14
:1041900044605478A02C28D0FF2C39D026E001258B
:1041A000A61C4660A678FF2E0CD0A02E00D10225BA
:1041B000E61C4660E678FF2E04D0A02E00D1032531
:1041C000261D4660FF2B05D1FF2D23D010342B4632
:1041D000224622E0FF2D20D09D4201D210342246FB
:1041E0009D4200D31D462B4617E00123941C4460DA
:1041F0009478FF2C0CD0A02C00D10223D41C446056
:10420000D478FF2C04D0A02C00D10323141D4460CB
:10421000FF2B01D1416013E010327C245C43A218D3
:1042200042608A420CD000210B4B545C45182C7222
:10423000545C5C54491C3C29F7D15118416070BD55
:1042400008303C242146FCF7E4FA03482146FCF7F9
:10425000E0FA70BD10EA000018040020F0B583B049
:104260001D20C102774D6960752040020A78012344
:10427000FF2A1ED04A780026FF2A35D08A78FF2AE6
:1042800034D0CA78FF2A00D1A8E068600278FF2AFB
:1042900000D1C9E0002604241F4642780025FF2AE9
:1042A00013D11A46002E00D186E066490A70486094
:1042B00025E000271E463A4668600478FF2C1BD094
:1042C000144642780025FF2AEBD08278FF2A6FD06F
:1042D000C278FF2A00D188E0002E00D18AE00022B7
:1042E00058480270416009E0012200E0022237468E
:1042F00068600478FF2CE3D12A70696008467C214D
:1043000051434118103100240B461D78FF2D27D151
:10431000651C5B1C3B2C2C46F7D317208402081924
:1043200080B2484D294608313C2205F067FB02A8BF
:10433000A0210170287869680A5CFF2A23D0A87838
:1043400000072AD4A8780124400706D5742005F078
:1043500007FBA878FB210140A970204603B0F0BDFF
:1043600001A908230B70815CFF2956D18018172101
:104370008902401880B201A9012205F03FFB002408
:10438000204603B0F0BD0818001980B202A901222E
:1043900005F034FBA8780007D4D5752005F0E0FAC5
:1043A000A878F7210140A9700124204603B0F0BD90
:1043B0000222002E00D078E794421DD3214C2270B7
:1043C0006060002D9BD0A17804230B43A370218D46
:1043D0001D4B994293D0491C218590E703221F462B
:1043E00068600478FF2C87D06AE703221D46002E00
:1043F000E2D05AE7032C1BD8124B1C705960002FD7
:1044000009D09878082202439A70188D0E4A90427B
:1044100001D0401C1885032C03D90024204603B08A
:10442000F0BD084622466AE700222A70686066E707
:10443000044C6060752005F093FA002222706068D9
:104440005DE7C04678020020FFFF0000F0B587B0AE
:1044500055208000A04F395C381840780002411880
:104460003220F44A105E64220692504308F0D8FDD0
:1044700081B28B225200BC5CFF22A14210D91832BB
:10448000BA5C914213D9811A0804000E01D00020B1
:10449000C1432320C000385C801A05900A230EE037
:1044A0001632BA5C0023914206D8194605E0111B6A
:1044B0000591011B052302E0811AA01A059008202E
:1044C000DC4C2056FF252E461A36BC193A460127E9
:1044D000E457A04204DA9557A8420CDC00200BE018
:1044E0002E461C369657B0420ADA001B0390301B4A
:1044F00004905B1C1AE0401B0390601B049015E0C5
:104500004724A4001457A04205DA801B0390A01B87
:1045100004909B1C0AE01E3555572E1BA84201DB58
:10452000039601E0001B03900496DB1C0598C6B2BD
:10453000CFB2B7422AD90A2B28D358001018044604
:10454000D234A37AE57A2D02EA180292D223C05C13
:1045500063781B021818801A059AD2B2C9B2891A58
:1045600006254D4368430A265643314608F058FD58
:10457000217B627B12025318A178E2781202511853
:104580002A460193CF1A0299081A1CE05800101805
:104590000446D234A17AE27A12025118D222805C07
:1045A000627812021518681A7843314608F038FD0F
:1045B000217B627B12025118A278E3781B029A18C1
:1045C0000192521A281A05900020C74DE8652873F9
:1045D000688168722C8D414804806C20DB49085E3C
:1045E0000290E88657433846314608F019FD019994
:1045F000081A80B2059EB1B2411A0398C0B248436E
:104600000499C9B208F00CFD301880B200194708AF
:10461000334807802F850A2605962046314608F044
:10462000DDFC01467743384608F0D8FC84B2AE8EF4
:10463000B0B2069908F0D2FC0746054604946543DB
:1046400030460599FCF7E8F808466043069C214689
:1046500008F0C4FC45196743F01BC0B2059C214615
:1046600008F0BCFC04994843214608F0B7FC29181F
:104670008AB29E489B4C235C201840780002C018E8
:10468000824200D8084682B2B5218900635C611875
:1046900049780902C9188A4200D30146924CA18682
:1046A00010480180A94DA983218789B20298484307
:1046B000069908F0B5FC688380B2E1210901414305
:1046C0000948017621660A0EC2760A0C8276090A2A
:1046D000417607B0F0BDC04600E40000600900204C
:1046E0005C0900205E0900208002002070B57E4C2D
:1046F000607B002803D1EB48007EC00679D4A07B04
:10470000012808D1E748007EC00604D54A48008841
:10471000E16D0818E0656C20E24D2E5A642E17D129
:10472000207B01281AD1E06DE121090108F056FC37
:10473000A98B4908884211D9287E00070ED4287E0B
:10474000642E0BD12021084008D00120A07205E082
:1047500000202073297EC90600D4E065E07B012893
:1047600002D0207C01280FD1287E80060CD5112094
:104770002056CD49097849B2421A092A02DC081AA2
:104780000A2801DB0120E072E17AA07A012801D039
:1047900001291FD1284800882A7E92061AD5FF22B7
:1047A0002E32904216D3627A521C6272012927D1AE
:1047B000D1B2052924D811216156BB4B1B785BB2BD
:1047C000CE1A092E1CDC591A092919DC0020607246
:1047D000E07201E000206072287E8006C00FE07465
:1047E000287E0007C00FE073287EC006C00F20742B
:1047F00070BD0120A073AB48007EC00686D48AE756
:10480000D1B20529E8D16086002060816072A64E91
:1048100030782072A07C012806D00120A074A88BDB
:10482000A0867D20C0002085FFF710FE30786074E0
:10483000D2E7C046BC0200200A0A0020F0B581B0D1
:104840001C4615460E4607466020394600F046FADB
:1048500038880A4988420ED16220314600F04AF970
:104860006320294600F046F96420214600F042F911
:10487000002001B0F0BD012001B0F0BDCCEF000080
:10488000B0B5FF20F830844C215C2018407800023D
:104890004518FEF7D3FE8348828B1348C18F91429F
:1048A00004D2531AAB4206DD511B03E08B1AAB4214
:1048B00001DD5119C1870D4AA35CA218527812027A
:1048C000D2188BB2934201D9C2871146B522920009
:1048D000A35CA21852781202D21889B2914200D277
:1048E000C287B0BD00E40000BC020020D20200007C
:1048F000C11740184840704770B51248092101801F
:1049000011480178E8240C401021664B5D5E104E82
:1049100001210022B5420D4600DB15462D01641928
:104920006C255D5F012D01DB154600E006252C1985
:1049300016255B5F1825ED43AB4200DB114661187D
:10494000017070BD0C04002060020020580500209A
:10495000540B0000F0B581B0FF200246E0324E4912
:104960008A5C520609D44D4A012313704C4A1370D5
:104970004C4A137E40241C431476FA3008564A4AA7
:10498000127852B2824204DB1820464C205600288E
:1049900015D44948827FC07F0002801825D0FB22B1
:1049A0005200895C002920D04843642108F016FB9E
:1049B00083B23C498A8B934215D2101A14E03B48CB
:1049C00000210170607EFE21014061763848006858
:1049D000E121090108F024FB364D2880FFF750FF44
:1049E0002888A08301E00A2088832E48017E7F2248
:1049F0000A400276304F0021F977B9772F4B1960C2
:104A0000437E5B0739D43624642200923A552A2427
:104A1000395534243C5D32257C553D4634356B7820
:104A20001D022C19E1252E0174432E257C553D468F
:104A3000363569703D462A35E970A9706970858BF5
:104A40006E433E763A4632325370320EFA76320C6C
:104A5000BA76320A7A76220E2E37FA70220CBA70A3
:104A6000220A7A70027E520601D5154A11606C2125
:104A7000009A4252458313490D80134901220A705E
:104A8000417E04220A4342761048017880220A437C
:104A9000027001B0F0BDC04600E40000D202002068
:104AA000D60200205805002000040020D302002078
:104AB00020030020FA0200208002002028030020AA
:104AC0002403002006030020C80200200404002064
:104AD00080B5064814210170002005F085F80448CF
:104AE0000078002801D005F0CDFA80BD5C020020DE
:104AF00099010020F0B583B00C46054672B601F06E
:104B00001BFC142602960298411E0291002806D032
:104B10000298401C02900298401E0290F3E7162073
:104B200001F0CAFB01F0D8FA002826D00120014686
:104B300005F0C4F802960298411E0291002806D0A2
:104B40000298401C02900298401E0290F3E7022057
:104B50000124214605F0B2F802960298411E029106
:104B6000002806D00298401C02900298401E029035
:104B7000F3E762B6204603B0F0BD284601F09CFB87
:104B800002960298411E0291002806D00298401C0D
:104B900002900298401E0290F3E701F09DFA00286F
:104BA00026D00120014605F089F802960298411EA0
:104BB0000291002806D00298401C02900298401EE4
:104BC0000290F3E702200124214605F077F80296CF
:104BD0000298411E0291002806D00298401C0290C3
:104BE0000298401E0290F3E762B6204603B0F0BD83
:104BF0005020019002900298411E0291002805D099
:104C00000298401C02900298401EF3E701F094FBCA
:104C1000172001F051FB01F05FFA002826D0012097
:104C2000014605F04BF802960298411E02910028B9
:104C300006D00298401C02900298401E0290F3E7B2
:104C400002200124214605F039F802960298411EFF
:104C50000291002806D00298401C02900298401E43
:104C60000290F3E762B6204603B0F0BD01980290CF
:104C70000298411E0291002805D00298401C029023
:104C80000298401EF3E701F082FA054600263046FE
:104C900001F0D6FA002D1AD06F1E0BE001F077FA62
:104CA0002070B91B4842484101F0CAFA761C641CC6
:104CB000AE420CD0019802900298411E0291002849
:104CC000ECD00298401C02900298401EF3E701F0DD
:104CD0009AFB62B60024204603B0F0BD70B582B0E6
:104CE0000C46054672B601F027FB14260196019882
:104CF000411E0191002806D00198401C01900198A6
:104D0000401E0190F3E7162001F0D6FA01F0E4F915
:104D1000002826D00120014604F0D0FF019601981A
:104D2000411E0191002806D00198401C0190019875
:104D3000401E0190F3E702200125294604F0BEFF42
:104D400001960198411E0191002806D00198401C4F
:104D500001900198401E0190F3E762B6284602B028
:104D600070BD284601F0A8FA01960198411E0191F4
:104D7000002806D00198401C01900198401E019027
:104D8000F3E701F0A9F9002826D00120014604F03C
:104D900095FF01960198411E0191002806D00198C7
:104DA000401C01900198401E0190F3E7022001256C
:104DB000294604F083FF01960198411E01910028C5
:104DC00006D00198401C01900198401E0190F3E725
:104DD00062B6284602B070BD3C2001900198411E89
:104DE0000191002805D00198401C01900198401EB7
:104DF000F3E701F0A1FA172001F05EFA01F06CF977
:104E0000002826D00120014604F058FF01960198A1
:104E1000411E0191002806D00198401C0190019884
:104E2000401E0190F3E702200125294604F046FFC9
:104E300001960198411E0191002806D00198401C5E
:104E400001900198401E0190F3E762B6284602B037
:104E500070BD502601960198411E0191002806D090
:104E60000198401C01900198401E0190F3E701F069
:104E70008EF920700025284601F0E2F9019601988C
:104E8000411E0191002806D00198401C0190019814
:104E9000401E0190F3E701F07AF96070012001F003
:104EA000CFF901F0B0FA62B6284602B070BDF0B595
:104EB00081B00C46054672B601F03EFA162001F0AC
:104EC000FBF901F009F9002827D00120014604F080
:104ED000F5FE142500950098411E0091002806D08B
:104EE0000098401C00900098401E0090F3E70220BC
:104EF0000124214604F0E2FE00950098411E009135
:104F0000002806D00098401C00900098401E009099
:104F1000F3E762B6204601B0F0BD284601F0CCF9B7
:104F2000142600960098411E0091002806D0009893
:104F3000401C00900098401E0090F3E701F0CCF870
:104F4000002826D00120014604F0B8FE0096009803
:104F5000411E0091002806D00098401C0090009847
:104F6000401E0090F3E702200124214604F0A6FE33
:104F700000960098411E0091002806D00098401C21
:104F800000900098401E0090F3E762B6204601B002
:104F9000F0BD00960098411E0091002806D00098B0
:104FA000401C00900098401E0090F3E725782846AA
:104FB00001F082F901F090F8002826D00120014686
:104FC00004F07CFE00960098411E0091002806D057
:104FD0000098401C00900098401E0090F3E70220CB
:104FE0000124214604F06AFE00960098411E0091BB
:104FF000002806D00098401C00900098401E0090A9
:10500000F3E762B6204601B0F0BD0027F8B2001900
:10501000407801F051F901F05FF800280AD17F1CB7
:10502000F8B28542F2D201F0EEF962B600242046D1
:1050300001B0F0BD0120014604F040FE009600984A
:10504000411E0091002806D00098401C0090009856
:10505000401E0090F3E702200124214604F02EFEBA
:1050600000960098411E0091002806D00098401C30
:1050700000900098401E0090F3E762B6204601B011
:10508000F0BD0000F0B587B00027284E284D05E0A0
:10509000781C311DBAB28A42074615D20124E003BA
:1050A00004F07CFF01280FD12888401C2880322082
:1050B00000900098411E00910028E9D00098401C03
:1050C00000900098401EF3E72888B0422CD904F0E5
:1050D00045FF2002214606F037FA204604F0B8FFCB
:1050E0003E20214604F0A0FF0026069605961620D5
:1050F00004900396029601960E480090684604F0CC
:105100005BFFC82004F0BEFE204604F0AFFE204640
:1051100004F0AAFF204604F02DFF074804F006FF24
:10512000204604F0F7FE2E8007B0F0BDE303000038
:105130001004002009033100FF7F000080B5014604
:105140004C20FFF7D7FC80BD70B51C4615460E46B7
:1051500001469120FFF7CEFC90203146FFF7CAFCB4
:1051600095202946FFF7C6FC7E202146FFF7C2FCAA
:10517000F6200499FFF7BEFC70BD0000F0B583B0C7
:105180009C4CA079022102910843A07110219A48F9
:105190000191405E994F394656310422D543002390
:1051A0000A794E793602B2186D1D891C122B02D86D
:1051B0005B1C9042F4DA5823FB5C3E465836767806
:1051C0003602F318984232DD8023FB5C3E4680367F
:1051D00076783602F318984238DA0B784978090263
:1051E000CB18D11AC21A0520504307F019FF4019F5
:1051F000C1B224204843342281498A5C0B463433AF
:105200005B781B029A1842432E23CA547A4DAE8B08
:1052100070430876030ECB76030C8B76030A4B762D
:10522000130E2E31CB70130C8B702B463AE02E21CF
:10523000734A00205054D0769076507610762E32F5
:10524000D070907050706C4B9E8B2DE00F20400101
:10525000385CC1076848868BE120000134220029B0
:1052600007D167498A5C0B4634335B781B029A1876
:1052700007E063498A5C0B4634335B781B029A185B
:10528000243842432E23CA5470430876030ECB764B
:10529000030C8B76030A4B76130E2E31CB70130C56
:1052A0008B70554B120A4A70206626876C25595B15
:1052B000E186544909786174E1210C01214607F027
:1052C0008DFE81B2B1420AD9304660434C4908761E
:1052D000020ECA76020C8A76000A487600E006467C
:1052E00045484683FEF7D4F82E20454E305C3146C3
:1052F0002E314A78120210188A78C9780902891862
:1053000009040818214607F08BFE82B23421715C33
:10531000334634335B781B0259188A420A4600D858
:10532000024632203254100A33463233587092B259
:105330007D200001504307F051FE0A30410888B239
:105340008208F92A06D30F204001385CC00726D115
:10535000642009E0092804D80F2254013A5DD206DE
:1053600023D40A2107F03AFE234B362170543636F7
:10537000000A7070585F11210901795C884203DCD2
:10538000197E01220A431A76FF211231795C884284
:1053900003DC187E02990843187603B0F0BD164B63
:1053A000587E400723D56420DFE72120C0003A5C07
:1053B0003818407800028018424216200E4B1B5EBF
:1053C00000209342D0DA74220B4B9A5A0092019B30
:1053D000094AD35E009A9342074BC6DBC8B20A2142
:1053E00007F0FCFD395DC906BED50120BCE763208E
:1053F000BBE7C046BC0200205805002000E40000C6
:10540000800200200004002080B5762004F0A8FA75
:1054100080BD80B5772004F0A3FA80BDF0B583B0DD
:10542000F8480088810600D4DDE14104E120000154
:10543000002901D5024600E00122F34901920A80C9
:10544000F2490A8A14B2F24DAB8C02949C421EDDE2
:105450002B785B1C2B70DBB2032B06D300232B7045
:10546000AA84AB7D01241C43AC75EB8C029C9C424E
:1054700013DA6B785B1C6B70DBB2032B0FD300234A
:105480006B70EA84AA7D01231343AB7507E0002308
:105490002B70EB8C029C9C42EBDB00226A700A7E34
:1054A000D2062AD516228B5E9AB22C8DA3421DDD20
:1054B000AC78641CAC70E4B2032C06D30024AC704E
:1054C0002A85AC7D01272743AF756C8DA34212DA84
:1054D000EB785B1CEB70DBB2032B0ED30023EB707D
:1054E0006A85AA7D01231343AB7506E00024AC70E6
:1054F0006C8DA342ECDB0022EA700A7E920662D534
:10550000C44A1288AB8D9A421DD92B795B1C2B7132
:10551000DBB2032B06D300232B71AA85AB7D0124BC
:105520001C43AC75EB8D9A4212D26B795B1C6B718C
:10553000DBB2032B0ED300236B71EA85AA7D012316
:105540001343AB7506E000232B71EB8D9A42ECD32D
:1055500000226A711E228A5E2B8E002B00D15B42D4
:10556000002A13D5D417171967409F420EDDAB7977
:105570005B1CAB71DBB2032B0AD30023AB7152422D
:105580002A86AA7D01231343AB7501E00022AA718C
:1055900060228A5ED317D4185C406B8E9C4210DD6B
:1055A000EB795B1CEB71DBB2032B0CD30023EB71AB
:1055B000AB7D01241C43AC75D313D2185A406A86C4
:1055C00001E00022EA713422AB56934C247867B292
:1055D0009F421EDD2B7A5B1C2B72DBB2032B06D3A2
:1055E000AF5400222A72AA7D01231343AB753522E2
:1055F000AB569F4213DA6B7A5B1C6B72DBB2032BE8
:105600000FD3AF5400226A72AA7D01231343AB75F6
:1056100007E000222A723522AB569F42EBDB0022C4
:105620006A723623EC567D4A127852B2A2421EDDCF
:10563000AC7A641CAC72E4B2032C06D3EA540023A7
:10564000AB72AB7D01241C43AC753723EC56A242F0
:1056500013DAEC7A641CEC72E4B2032C0FD3EA5434
:105660000022EA72AA7D01231343AB7507E00023F1
:10567000AB723723EC56A242EBDB0022EA727022B7
:10568000895E5422AB5E99420DDA2B7B5B1C2B7337
:10569000DBB2032B09D3A95200212973A97D012272
:1056A0000A43AA7501E0002129735D4A117840245C
:1056B0000C4006D101215256002A04DA5949897951
:1056C00001E05849C979C9B2EA895118E9818EB215
:1056D000019907F083FC864208D30021E981696CB7
:1056E000491C6964A97D01220A43AA75CD214A009B
:1056F0004C498B5C8A1852781202D218029B934252
:105700001ADD002C06D10123454EF656002E02DA92
:105710008B7900E0CB79DBB26E8AF3186B829BB297
:1057200086B2B34208D300236B82EB6C5B1CEB6444
:10573000AB7D01261E43AE7567239B00CB569F426F
:1057400037DD002C06D10123354EF656002E02DA45
:105750008B7900E0CB79DBB22E8AF3182B829BB2D7
:1057600080B2834208D300232B82AB6C5B1CAB64FA
:10577000AB7D01261E43AE75029B934219DD002CC2
:1057800006D10122264B9B56002B02DA8A7900E0D3
:10579000CA79D2B2AB8A9A18AA8292B2824208D34C
:1057A0000020A882286D401C2865A87D01220243A4
:1057B000AA75A87DC00702D10020A86113E0002CC3
:1057C00006D10120164A1256002A02DA887900E032
:1057D000C8790199C0B2AA691418AC61124807F0DF
:1057E000FDFB844201D203B0F0BDA87D022101433C
:1057F000A9750020A861A87DFE210140A97503B00C
:10580000F0BDC046620200200400002058050020C0
:105810003C0300200A0A002000040020120400209B
:105820001404002000E40000A08C000010B5EF4933
:105830005948088077204202EB4CE2611078FF283B
:1058400008D1564808803B208202E2611078FF2888
:1058500000D18DE0104610300A80E06102782021EE
:105860006254224620324378537083789370C37811
:10587000D370037913714379537183799371C37929
:10588000D371037A1372437A5372837A9372C37A11
:10589000D372037B1373437B5373837B9373C37BF9
:1058A000D373037C1374437C5374837C9374C37CE1
:1058B000D374037D1375437D5375837D9375C37DC9
:1058C000D375037E1376437E5376837E9376C37EB1
:1058D000D376037F1377437F5377837F9377C37F99
:1058E000D377415C4022A154014620314A784123BC
:1058F000E2548A784223E254CA784323E2540A7974
:105900004423E2544A794523E2548A794623E254F7
:10591000CA794723E2540A7A4823E2544A7A49234F
:10592000E2548A7A4A23E254CA7A4B23E2540A7B2D
:105930004C23E2544A7B4D23E2548A7B4E23E254AB
:10594000CA7B4F23E2540A7C5023E2544A7C512301
:10595000E2548A7C5223E254CA7C5323E2540A7DE7
:105960005423E254497D5522A1543630E06110BDE4
:105970009F48E061204620303621FAF74AFF352063
:105980001E212154372021540548E08560857D2063
:105990004001E08410BDC04600EEFFFF00ECFFFFB9
:1059A0001027000070B582B03B2084028E4DEC6160
:1059B0002078FF281DD0772040028C490880E861BC
:1059C0000178FF2919D0762003F0CAFF288C884976
:1059D000884204D1A87D08210143A97509E0421C31
:1059E0002A84AB7D08261E43AE758A4201D0801CF6
:1059F0002884EC617D4804802046017CFF2900D08A
:105A0000ADE0417CFF2900D0A9E0817CFF2900D0D6
:105A1000A5E0C17CFF2900D0A1E0017DFF2900D0D5
:105A20009DE0417DFF2900D099E0817DFF2900D0D4
:105A300095E0C17DFF2900D091E0017EFF2900D0D3
:105A40008DE0417EFF2900D089E0817EFF2900D0D2
:105A500085E0C17EFF2900D081E0017FFF297ED152
:105A6000417FFF297BD1817FFF2978D1C17FFF2929
:105A700075D1014620310A78FF2A70D14A78FF2A71
:105A80006DD18A78FF2A6AD1CA78FF2A67D10A794C
:105A9000FF2A64D14A79FF2A61D18A79FF2A5ED12F
:105AA000CA79FF2A5BD10A7AFF2A58D14A7AFF2A9B
:105AB00055D18A7AFF2A52D1CA7AFF2A4FD10A7B5E
:105AC000FF2A4CD14A7BFF2A49D18A7BFF2A46D143
:105AD000CA7BFF2A43D10A7CFF2A40D14A7CFF2A95
:105AE0003DD18A7CFF2A3AD1CA7CFF2A37D10A7D70
:105AF000FF2A34D14A7DFF2A31D18A7DFF2A2ED157
:105B0000CA7DFF2A2BD10A7EFF2A28D14A7EFF2A8E
:105B100025D18A7EFF2A22D1CA7EFF2A1FD10A7F81
:105B2000FF2A1CD14A7FFF2A19D18A7FFF2A16D16A
:105B3000C97FFF2913D1014640310A78FF2A0ED1CF
:105B40004A78FF2A0BD18A78FF2A08D1CA78FF2A1F
:105B500005D10A79FF2A02D14979FF2911D0694676
:105B600008220A700178FF2907D1172189024018FD
:105B700080B26946012203F041FF0024204602B0B2
:105B800070BD103017218C02001980B229462031D7
:105B9000362203F033FF01A8A0210170E8690178E3
:105BA000FF2905D1001980B201A9012203F026FFC7
:105BB000A87D00070DD4A87D01244007DED57620FE
:105BC00003F0CEFEA87DFB210140A975204602B05E
:105BD00070BD772003F0C4FEA87DF7210140A975B0
:105BE0000124204602B070BD3C03002016020020B4
:105BF000FFFF0000B0B56B4D287E697E09020818D2
:105C0000A97EEA7E1202511809040818E1210C014C
:105C1000214607F005FA83B261498A8B934209D97C
:105C200054432C76200EE876200CA876200A68765D
:105C30004A83B0BD4883B0BDF0B583B00346F14F91
:105C40000025FD66B87DF04E317E49060BD5012852
:105C500009D1FF221046FA30EC490856EC49097880
:105C600049B281421BDAEC48817FC07F00024018B4
:105C700000D18CE0FB214900E44A515C002900D1AD
:105C800085E03A7E042313433B764843642107F0C2
:105C9000A5F9B18B82B28A4231D3284630E0002484
:105CA000FC75707EFE2101407176B86EE12109011C
:105CB0000292009307F0B4F90190B08B0A263146A6
:105CC00007F08CF900994843314607F087F90199AC
:105CD0004018F8870298F830CC4A115C10184078C8
:105CE00000024618FDF7AAFCC7480346818BF88FCF
:105CF000884207D20A1AB24209DD881B06E0081A58
:105D0000F88744E0421AB24201DD8819F887C14998
:105D1000BE4E725C711849780902891882B28A42B3
:105D200001D9F9870846B5218900725C7118497854
:105D30000902891882B28A421E4601D2F9870846B2
:105D40000299E031B14A515CC90701D1B08303E047
:105D5000397E04220A433A767C217C52718C40229F
:105D6000B9527C65BC6501217976BC673C86FC85AF
:105D7000AB4A14609480B886FC71B974B8797B2101
:105D80000140B971FDF75AFCA14800787874B74812
:105D9000C5778577BD75B08B388703B0F0BDC04639
:105DA0005805002080020020F0B589B00446954FC8
:105DB0000023FB66B87E944D297E49060BD5012849
:105DC00009D1FF263046FA309049085690490978A3
:105DD00049B281421DDAA548817FC07F0002401888
:105DE00000D105E1FB214900884A515C002900D11E
:105DF000FEE01C463A7E042313433B76484364216D
:105E000007F0ECF8A98B82B28A4231D323462046B0
:105E100030E006937D2002900101688B4843A98BF6
:105E200007F0DCF8400842210591785200200490E8
:105E3000F875687EFE21014069766420001B2421EC
:105E40004143B86E07F0ECF8F8873046F8306F4AF7
