:020000040000FA
:10000000300E0020E10500001F0600001D06000064
:1000100000000000000000000000000000000000E0
:10002000000000000000000000000000396A00002D
:10003000000000000000000075680000B5770000B7
:10004000F3050000F3050000F3050000617B0000EC
:1000500000000000094D000000000000556800008D
:10006000F30500000000000057190000F305000030
:1000700000000000017D0000F3050000F305000012
:100080000000000000000000000000000000000070
:100090000000000000000000000000000000000060
:1000A0000000000000000000000000000000000050
:1000B0000000000000000000000000000000000040
:1000C0000000000000000000000000000000000030
:1000D0000000000000000000000000000000000020
:1000E0000000000000000000000000000000000010
:1000F0000000000000000000000000000000000000
:1001000005030300000000000000000000000000E4
:10011000FFFFFFFFFFFFFFFFFFFFFFFFFFFFFFFFEF
:020000040000FA
:10012000140101644BE8030202FB0113DE051B20EE
:10013000DF041AE0041AE1041AE2041AE3041AE4E0
:10014000041AE5041AE6041AE7041AE8041AE90492
:100150001AEA041AEB041AEC041AED041AEE041A53
:10016000EF041AF0041AF1041AF2041AF3041AF450
:10017000041AF5041AF6041AF7041AF8041AF90412
:100180001AFA041AFB041AFC041AFD041AFE041AD3
:10019000FF04135A061B205E048145010162110011
:020000040000FA
:1005200000F002F800F030F80CA030C808382418A9
:100530002D18671EA246AB4654465D46AC4201D11B
:1005400000F022F87E460F3EB6460FCC012633421D
:1005500000D0FB1A3343A246AB461847A4D500008F
:10056000C4D500000023002400250026103A01D342
:1005700078C1FBD8520700D330C100D50B6070475B
:100580001FB51FBD10B510BD01F02CF91146FFF7C6
:10059000F7FF0AF017FF01F044F903B4FFF7F2FF89
:1005A00003BC01F09BF9000070B505460C461646E9
:1005B00002E00FCC0FC5103E102EFAD2082E02D347
:1005C00003CC03C5083E042E07D301CC01C5361F5A
:1005D00003E021782970641C6D1C761EF9D270BD71
:1005E0000748804707480047FEE7FEE7FEE7FEE7CB
:1005F000FEE7FEE704480549034A054B7047000043
:10060000B977000021050000300A0020300E0020DC
:10061000300A00207047704770477047FEE7704708
:10062000583635584343514330B55C18010C130C10
:100630000D4692B25D4380B251432C190546554395
:100640000A0C09044D1962415843010C0004401979
:10065000514130BD70B5054610460C4618430ED0CA
:1006600000210846891A984127DA00210846491BCB
:10067000A04118DA2846214600F0DBFF70BD002CAF
:1006800003DA01230022DB0707E000210846491BAB
:10069000A04102DA0022D243530810461946C04650
:1006A000C0462A4627E000216842A14100F0C1FF70
:1006B000002440428C4121461AE000210846491B93
:1006C000A0410CDA214600205242984103462846B8
:1006D00000F0AFFF002440428C41214670BD002055
:1006E00052429841002103466842A14100F0A1FF17
:1006F000002452429C41234670BD034610B50B4373
:100700009B070FD1042A0DD308C810C9121FA3429A
:10071000F8D018BA21BA884201D9012010BD0020B2
:10072000C04310BD002A03D0D30703D0521C07E0FA
:10073000002010BD03780C78401C491C1B1B07D1FE
:1007400003780C78401C491C1B1B01D1921EF1D16F
:10075000184610BDF8B5042A2CD3830712D00B78A5
:10076000491C0370401C521E83070BD00B78491C98
:100770000370401C521E830704D00B78491C037081
:10078000401C521E8B079B0F05D0C91ADF00202387
:10079000DE1B08C90AE0FFF707FFF8BD1D4608C9C0
:1007A000FD401C46B4402C4310C0121F042AF5D251
:1007B000F308C91A521EF0D40B78491C0370401C70
:1007C000521EEAD40B78491C0370401C012AE4D461
:1007D00009780170F8BD01E004C0091F0429FBD2AB
:1007E0008B0701D50280801CC90700D002707047BA
:1007F00000290BD0C30702D00270401C491E0229F9
:1008000004D3830702D50280801C891EE3E70022FF
:10081000EEE70022DFE70000002203098B4273D3DA
:10082000030A8B4258D3030B8B423CD3030C8B42FD
:1008300021D312E003460B437FD4002243088B42AE
:1008400074D303098B425FD3030A8B4244D3030B57
:100850008B4228D3030C8B420DD30902FF2212BA1C
:10086000030C8B4202D31212090265D0030B8B4298
:1008700019D300E0090AC30B8B4201D3CB03C01A82
:100880005241830B8B4201D38B03C01A5241430B5D
:100890008B4201D34B03C01A5241030B8B4201D34D
:1008A0000B03C01A5241C30A8B4201D3CB02C01AB8
:1008B0005241830A8B4201D38B02C01A5241430A30
:1008C0008B4201D34B02C01A5241030A8B4201D31F
:1008D0000B02C01A5241CDD2C3098B4201D3CB01C6
:1008E000C01A524183098B4201D38B01C01A524175
:1008F00043098B4201D34B01C01A524103098B4279
:1009000001D30B01C01A5241C3088B4201D3CB0063
:10091000C01A524183088B4201D38B00C01A524146
:1009200043088B4201D34B00C01A5241411A00D2F6
:1009300001465241104670475DE0CA0F00D049425F
:10094000031000D3404253409C46002203098B42CF
:100950002DD3030A8B4212D38901FC2212BA030A57
:100960008B420CD3890192118B4208D389019211D9
:100970008B4204D389013AD0921100E08909C3095E
:100980008B4201D3CB01C01A524183098B4201D360
:100990008B01C01A524143098B4201D34B01C01A4B
:1009A000524103098B4201D30B01C01A5241C308C3
:1009B0008B4201D3CB00C01A524183088B4201D332
:1009C0008B00C01A5241D9D243088B4201D34B004D
:1009D000C01A5241411A00D20146524110466346A4
:1009E0005B1001D34042002B00D54942704763465B
:1009F0005B1000D3404201B50449002802DC491CC9
:100A0000084000E00846C046C04602BDFFFFFF7F29
:100A1000F0B50C46871A9C410D46861A9D4103D2BB
:100A2000C01BA141D21963410D0D1F0DC94EEC1B16
:100A3000AE435CD07F057F0D0026002F51D02D05E1
:100A4000AC46A943DD020123ED0A1B051D4320230B
:100A50001B1B24D41746E740381871412F46E74046
:100A6000CC199D402818314661410C0D27D16144B5
:100A70009A4013D50023401C594152000ED1400822
:100A8000400001224B005205D34207D30520400706
:100A9000C14201D5B04900E0B0493046F0BD6B001D
:100AA000002A00D001229A181F23203C1B1B01D5CD
:100AB000002302E0E540281871410C0DD7D0012435
:100AC00024050919C407CD0740084908E40F284345
:100AD0006144002CD5D00024401C61419A40D0D103
:100AE000CDE76A05520DD9D1C90FC907D5E79C4D8D
:100AF0004E00002801D0012400E0002434195F00DA
:100B0000002A01D0012600E00026BE19954FAC4214
:100B10000CD8AE420AD8B44206D001256D05EC428D
:100B2000BCD010461946F0BD9942FCD00020394691
:100B3000F0BDF0B51FB40C460F46811A9F41254603
:100B4000861A9D4106D20125ED076F40401ABC412F
:100B500052187B41210D1E0D8D1BAC467D4D8D43E2
:100B60007ED075056D0D7CD00D05AE46AC431B03E4
:100B70001B0B794D52429D41202366469B1B14D38B
:100B80001746F740381800260090744160462F46FB
:100B90000741E41900989D402818664116D4714613
:100BA00071189A4025D5012320E093182A466A41FE
:100BB0005200002B00D0521C1E23203E9B1B002BFA
:100BC00061DD3541EE1728186641E8D500187641F9
:100BD0005B1C9A4000D3401C4B05F3181524E340DE
:100BE00010D3002B52D071467118D30FC01802D306
:100BF000491C05B0F0BD0123DB079A42F9D140083A
:100C00004000F6E701225205B21801D1002853D066
:100C10000123CC0ADB029943891E002A08D1020C69
:100C200003D0020C0004103902E0024600202039F3
:100C30000023550B05D112020823550B01D1520197
:100C40000D23550C01D112011B1DD50C01D19200B1
:100C50009B1C150D01D152005B1C2025EE1A01E0F2
:100C60002CE022E00546F54015439840CA1AE107FA
:100C700069181305C918002ABBDA032040070818B1
:100C8000C10FC9070FE071466118B2E7F1074008CC
:100C90000843711071444A000CD001235B059A424D
:100CA000A7D2C90FC9070020A3E74905490D26D1DE
:100CB000002001E00028F4D100219AE7284D6600C9
:100CC000002801D0012100E0002171185F00002AF6
:100CD00001D0012600E00026BE19224FA94210D8FB
:100CE000AE420ED8B14208D001256D05E94206D0CA
:100CF0001946A802414010467BE79C4201D021469C
:100D000077E70020394674E710B50C465C4005D5FE
:100D10000124E4076340FFF70CFF10BDFFF778FEE6
:100D200010BD30B40C465C4004D50124E407634098
:100D300030BC6DE630BCFCE670B50124E4076140D0
:100D40000D465D4002D4FFF763FE70BD6340FFF7C0
:100D5000F0FE70BDFF0700000000F0FF0000F07F14
:100D60000000E0FF0000F87FF0B5F94D0C091E0906
:100D70002C402E402F468BB0A7437DD0B543FCD0EE
:100D8000002E7AD0002CFCD00D465D40ED0F25439F
:100D9000AC1BFF25AD0464190894C502440DC902BB
:100DA0002143500DDC0204430120C00701430443EA
:100DB000D2020191200C110C00958C4601042346AF
:100DC0008B430A9161460904E24D8A430991010A65
:100DD0007D4449198039097805464D4301266D182F
:100DE000F605751B6943C90C640B891C4C436418D8
:100DF000B5012C1B250C2E04B4434C434D43210C50
:100E0000691889090591009DE90701D00121C907E9
:100E100004912C4601996708CD072F434C08059D86
:100E2000E10B4D432D0C29466646754302950D4650
:100E300045432E46029D7D1BB44100950D465D4302
:100E400001942C0C2F040D465543AE462D0C3D430A
:100E5000029503947546049C2D04641B049406D2E9
:100E6000029C039D641C002675410395029401AC0D
:100E700070CC009F7D1B01E03EE162E1B4410904BA
:100E80000095079101940599A4086143090C0C464B
:100E90004443650BE7040C4666467443A646640B60
:100EA0003C43039502947446049DE4042C1B049473
:100EB00006D2029C039D641C002675410395029492
:100EC00001AC70CC009F7D1BB44101940C465C4387
:100ED0000095650FE7000C465443A646640F3C435B
:100EE000039502947446049DE4002C1B049406D2DE
:100EF000029C039D641C002675410395029401AC7D
:100F000070CC009F7D1BB441AE09AF06049DC900A3
:100F1000AD092F43049DA406AD060495079D3443F7
:100F200069180791059DE10B4D432D0C2946664636
:100F3000754302950D4645432E46029D7D1BB441E7
:100F400000950D465D4301942C0C2F040D4655432E
:100F5000AE462D0C3D43029503947546049C2D042A
:100F6000641B049406D2029C039D641C00267541F8
:100F70000395029401AC70CC009F7D1BB441019499
:100F80008C050694079C890A611800950791019CBD
:100F90000599A4086143090C0D464543680BEF040D
:100FA0000D46644665436C0B3C43049FED047D1B7A
:100FB000AC4602D20025641C6841009E019D371B8F
:100FC00085410846584301950C46460FC5005443D9
:100FD000600F28436546E4002C1B02D20025401C0C
:100FE0006E41019D3F1AB5412846BD098006284340
:100FF0008446A009BF064E020699A4067618074348
:10100000079D002068410A99079019430020099B19
:1010100000906046FF1913434041E20F64003A43D9
:10102000A4460446D71A8C41A04203D9012000905F
:1010300020463A46C70F941840416246D20F2243D9
:10104000644664000494009CBE466400D71AA4461B
:10105000044602978C417746002F01D1A04204D963
:101060006046401C8446029A2046C40FA646941847
:101070004041049A0546D20F224364466400D31AC5
:101080008D417146002901D1A84202D928461A464D
:10109000641C10430122002800D016436102002086
:1010A000079B891904465C410223002C02DB491886
:1010B00013466441089DCE0A2D145D194B05670542
:1010C000E10A2C050D1908993E43C9076940002B18
:1010D00008D0934006D30022761C5141002B01D149
:1010E000760876001C4A002D43DB154241D0AA4306
:1010F0003FD030460BB0F0BD06180D464D41174CA1
:101100007642AC411AD395181C465C41134A6D4295
:10111000A24113D3012252054C00D4420AD15C00F3
:10112000D4420BD04B4002D592021143E2E7490072
:101130004908DFE75940C90FC90718E000200849EE
:10114000D8E7054801420DD10342F7D0F2E700008D
:101150000000FF0748C900000000F07F0000E0FF2A
:101160000000F87F114859400143C012414000205F
:10117000C0E70123089A9B069A4205DC0322520726
:101180008918C90FC907B5E7052252078918074A08
:101190001143D2125140ADE770B515461C460246C8
:1011A0000B4628462146FFF7DFFD70BDFFFFFF7F9E
:1011B00030B50346CA02400D1043164D164C0A15B1
:1011C00002D02043002A06DBAA1A002A12DDD040F2
:1011D000FF2A0BDC30BD5205520D01D14000400802
:1011E000AA1A07D4D0404042FF2A01DD002030BDBA
:1011F0000028FCDD4A00002B01D0012000E0002087
:10120000101801225205D042F0D8C817C0436040E0
:1012100030BD00001E040000000000800346CA022A
:10122000400D10B510430A1504D00124E4072043F3
:10123000002A05DB0A4CA21A04D4D040FF2A00DDA4
:10124000002010BD4A00002B01D0012000E000204A
:10125000101801225205D042F2D8C817C04310BD61
:101260001E0400001F22030C02D10F22000402D032
:10127000030E03D004E00020014670470002083A44
:10128000030F01D10001121F830F01D18000921EB4
:10129000002801DB4000521E120551184205C01201
:1012A000411810467047C10FC90700D040420122C3
:1012B00092071143D6E701218907D3E710B50B1E2A
:1012C00001D0202301E0011E2BD00C0C01D1090418
:1012D000103B0C0E01D10902083B0C0F01D1090192
:1012E0001B1F8C0F01D189009B1E002901DB4900C7
:1012F0005B1E0446DC4021431C05A4182022D21AA0
:1013000090404B05C20AC90A1A430919830501D145
:10131000430818401623984002D30020521C414134
:10132000104610BDCA0FD20703D00B460021404221
:101330009941024B1A43C1E7004ABFE70000D04180
:10134000F0B58B4C0F09254689B0BD437BD01D09F4
:101350002646AE43FAD00E465E402740F60F3E4387
:10136000254071D024012142FBD0FF24AD19A404F3
:101370002D1B039501252D05DB02DB0AC9022B433A
:10138000C90A29431E010901040F130F0501214356
:101390001701880B820391432D098C46A90B1E432C
:1013A0008A039543B30B9A0396433F09BA0B940300
:1013B000A74302962E467E430497B6464E19D71988
:1013C0000C460196544305977E43371B7646BF1B58
:1013D0003601B646BE0B361900967646BC04371960
:1013E000009C01D3641C00946400002F01D00126EE
:1013F0003443029E049F754366467E4304967600FE
:1014000034196E0034190094029C019E1C19664325
:10141000751BAE46069465464519059C05956C43BB
:10142000594375460891691A0191049E014651433A
:10143000A41B0491611A009C0791E10605D0610983
:101440000122114302E072E06EE06109089D00276D
:101450002C0A2D066918049D7C412A0A2D0669185C
:10146000019D6241AC0DAD026D185441079A910D7A
:10147000920255196141029A644658435443069BAF
:10148000059A5A43121A131B9A0E9B015B187A4154
:10149000010B0005C3185141220A200644195A4184
:1014A0009A4200D2491C01204002814203D31523F5
:1014B0000226F64302E014230326F6432020C51A31
:1014C000A9401746AF40DA400A4320460399D84066
:1014D0000914731819055118039A3843D20751405B
:1014E000AC4009D00122944006D30022401C514157
:1014F000002C01D1400840001E4A934212D3012221
:1015000003989206904207DB0520400709181A4805
:101510000143C012414004E0032040070818C10FF6
:10152000C907002009B0F0BD0020F107FAE705184F
:101530000C464C4111486D42A04115D394181A46EF
:101540005A410E48644290410ED301204A004005A2
:10155000824209D35A00824206D35940C90F084A31
:10156000C90700201143DDE700200649DAE7000043
:101570000000FF07FE070000FFFFFF7F0000E0FF05
:101580000000F07F0000F87F10B501469E240002A5
:10159000CA15A307002A02D01843002A04DBA21AA6
:1015A000002A0CDDD04010BD1206120E01D1400001
:1015B0004008A21A03D4D04040420028F3DDFF22A5
:1015C00048001206904201D9002010BDC817C04340
:1015D000584010BD1F22030C02D10F2200041CD062
:1015E000030E01D10002083A030F01D10001121FBE
:1015F000830F01D18000921E002801DB4000521EA3
:10160000D2055118021251181922904004D3491CD6
:10161000002801D14908490008467047C10FC90791
:1016200000D04042012292071143D3E701218907EC
:10163000D0E7FEB5044610460D46184373D0A646C3
:101640008C460020A41A01469D4167D366460027B8
:1016500001243D46B61A9D4102D313463A46212441
:10166000654676462F04360C3E432D0CB61A9D4136
:1016700004D3150C1B042B43120410346546764624
:101680002F06360A3E432D0AB61A9D4104D3150E85
:101690001B022B4312020834654676462F07360993
:1016A0003E432D09B61A9D4104D3150F1B012B4350
:1016B0001201241D65467646AF07B6083E43AD08C5
:1016C000B61A9D4104D3950F9B002B439200A41C96
:1016D00065467646EF0776083E436D08B61A9D418B
:1016E0001AD392185B41641C16E0001876466546D2
:1016F0004941B71A9D410191009009D36046B11A42
:1017000098418E468446009801990025401C694105
:10171000DD0752082A435B08641EE6D5724663461D
:1017200003B0F0BDFFE72046284307D00020C043A8
:101730000146C046C04622462B46F1E7002001463E
:10174000F7E70000F8B5264C4E00069DA6420AD8E1
:10175000A64201D1002806D15E00A64203D8A642C7
:101760000AD1002A08D00D242404254233D029466A
:10177000002000F05EF8F8BD0C461C4311D49942DD
:1017800007D0C81A02D3EFF30080F8BDEFF3008052
:10179000F8BD801A02D3EFF30080F8BDEFF30080AC
:1017A000F8BD09242407E5008B4207D0581A02D35C
:1017B000EFF3008006E0EFF3008007E0101A03D398
:1017C000EFF30080A04303E0EFF30080A043284341
:1017D00080F30088F8BD009500F042F8F8BD0000E5
:1017E0000000E0FF754600F045F8AE46050069468A
:1017F0005346C008C000854618B020B5FEF7FAFE73
:1018000060BCB64600260027C0C5C0C5C0C5C0C55F
:10181000C0C5C0C5C0C5C0C5403D490849008D46CA
:10182000704710B50446C046C0462046FEF7B5FED8
:1018300010BDC80212D54803400F002804D0C803C9
:10184000C043012188407047EFF300800001000988
:1018500003210907084380F3008870470020704780
:1018600010B500200249029A00F008F810BD0000EF
:101870000000F87F00487047A801002010B50C4612
:101880001107090F092904D00A290AD008290CD107
:1018900004E011460820FFF7CCFF06E0510606D50C
:1018A00001E0510601D50120C007214610BDD10637
:1018B00007D501010909CC084907000E00060443B9
:1018C00009E0410F20024907000A0143200E0006EB
:1018D0001D22D14101430846E7E7000001491820D5
:1018E000ABBEFEE72600020070B58C180578401CE0
:1018F0006B075B0F01D10378401C2A1106D10278D7
:10190000401C03E00678401C0E70491C5B1EF9D198
:101910002B0705D40023521E0DD40B70491CFAE787
:101920000378401CCB1A921C03E01D780D70491CF3
:101930005B1C521EF9D5A142D8D3002070BDB0B5B2
:101940000C4605460420012109F0F0FF28462146F7
:1019500008F0B0FCB0BD80B5012007F055F90028B3
:1019600002D0012007F04AF980BD0000B0B51E206A
:10197000D74D295E0020C4430029204605D56A8B37
:101980003C20504349420BF0C5FC682168520220BC
:10199000295EA142204605DD6881A87C40060BD463
:1019A0002C86B0BD6A8B3C20504349420BF0B2FC00
:1019B0006881A87C4006F3D52E20295E1620285E7B
:1019C000884201DAE88501466A8B3C205043CA17F9
:1019D000891851400BF07CFC04462C86B0BDC046F3
:1019E000F0B581B0BA4FF98B0CB2144A012C0ADB66
:1019F000388BC00607D5788BBA8B121A3C2050431F
:101A00000BF088FC024610203D5E6C437D20C60032
:101A10002046314614460BF07DFC60217852BC8490
:101A20001620385EC11740184840684331460BF015
:101A300071FC0349088001B0F0BDC046FFFF000003
:101A400006040020F0B581B085204100A148425C29
:101A500041180123C95609028A1816219C4E745E4A
:101A60000A21324D695E914201DC94420CDC212254
:101A7000D200835C801840780002C018404200B257
:101A8000814209DB844207DA0020A862E8626870BC
:101A9000F0836C8101B0F0BD6878411C6970400032
:101AA00028180485C8B2042801D30020687028696A
:101AB0000021009129612A21695E2822AA5E8018EE
:101AC00040182C21695E40182E21695E401847009D
:101AD000174801686220484364210BF01BFCC019C1
:101AE000134908601E21715ECA1789185140114AB6
:101AF0001288511ACA178918514001290BDC009924
:101B0000A878401CA870C0B22828C2D3F483A9705A
:101B10006C8101B0F0BD0099A970192109010BF089
:101B2000F9FBF0836C8101B0F0BDC046A00300203A
:101B3000280A0020240A0020F0B582B01620644A4A
:101B4000145EFF21F43163484056002847D44A20F0
:101B5000614B1D5A508B012C5EDB854200D3B2E0F5
:101B6000441B5F4D2E7F6F7F3F02BE1936192E77C3
:101B7000370A6F77B6B24E27DF5BBE421CD3568C56
:101B8000761C56845E7C761C00965E74AF7F01974F
:101B9000EF7F3F02019EBF197F1CAF773F0AEF77AF
:101BA000009EF6B2322E04D10E46F33E178B374319
:101BB000178300226A772A774C229D5A2D199D524D
:101BC000A4B25E6F34195C67ACB28C427BD9002141
:101BD000995242490A88012313430B8073E04A203B
:101BE0003D4B1D5A508B002C2DD4A8426BD9421B63
:101BF0004C215C5AA4185C5292B25D6FAA185A67C5
:101C0000A2B292087D2A5ED300225A5233490A8832
:101C1000012313430B8056E0A84254D22A1A4C21C8
:101C20005C5AA4185C5292B25D6FAA185A67A2B2AD
:101C300092087D2A47D300225A5228490A88012354
:101C400013430B803FE0A8423DD22C1A244D2E7F37
:101C50006F7F3F02BE1936192E77370A6F77B6B2FB
:101C60004E27DF5BBE421CD3568C761C56845E7CAE
:101C7000761C00965E74AF7F0197EF7F3F02019E56
:101C8000BF197F1CAF773F0AEF77009EF6B2322E66
:101C900004D10E46F33E178B3743178300226A7731
:101CA0002A774C229D5A2D199D52A4B25E6F341989
:101CB0005C67ACB28C4206D90021995207490A8868
:101CC000012313430B804A21034A505202B0F0BD56
:101CD0006005002000E40000C80200208602002009
:101CE0008C020020F0B591B055208000EF4F395C98
:101CF0003818407800024118ED48028864242046D4
:101D00000D92504302910BF0E3FA83B28B2149000C
:101D1000795C8B42079413D9FF221832BA5C934244
:101D200016D9801A10900004000E02D00020C04383
:101D300010902320C000385C801A0F900A2511E013
:101D4000FF221632BA5C0025934207D8109507E0AF
:101D5000521A0F92401A1090052503E0801A109035
:101D6000881A0F90FF231A461A32B8180126815795
:101D7000D048007840B28842039304DABA569042C1
:101D80000CDC00200BE01A461C32BA5690420BDAEB
:101D9000401A0B90501A0A906D1C1CE0801A0B9090
:101DA0000E95881A0A9017E04721890079568842D3
:101DB00005DA801A0B90881A0A90AD1C0BE01A46BF
:101DC0001E32BA56541A904201DB0B9401E0401ABD
:101DD0000B900A94ED1C0E958F2045007819B6499A
:101DE0004C8CFE22511CFE3A042A07D80278437814
:101DF0001B029A18801C94420A46F3D2C8B2FF28EC
:101E0000069517D0791942008B5C8A185278120215
:101E1000D218431C5D004F5D491949780902C91960
:101E2000891A95256D00A14F7F193D5CF85C401B18
:101E3000A21A09E0785D79194978090209189520F4
:101E40004000385C00252246C3B290B2584389B2A4
:101E50000BF03EFA40190D9948437D21C9000891C5
:101E60000BF036FA9549099008800F98C3B2109884
:101E7000C7B200209F42324600D802460E99092977
:101E800000D8064632400C924800012A27D1874BE1
:101E9000181807468237B97AFA7A12025218049251
:101EA0008221405C797809020818801A892149004A
:101EB000595C0F9AD2B2109BDBB29E1A4E4370430C
:101EC0000A21514305910BF025FA397B7A7B1202E6
:101ED0005518B978FA78120251184F1B1CE0734953
:101EE000081805468235A97AEA7A12025118822228
:101EF000805C6A78120210180490401A78431946E0
:101F000005930BF007FA297B6A7B12025118AA7815
:101F1000EB781B029D186E1A0499081A04907743F7
:101F2000384605990BF0F6F9281A80B2049DA9B23B
:101F3000401A0B99C9B20B9148430A99C9B20A9148
:101F40000BF0E8F90999691A09185D48059141846F
:101F50000C9800282AD00E984000FC4B1818054613
:101F6000AA35A97AEA7A120252180192AA21405C93
:101F7000697809020818801A03991431595C0F9A7C
:101F8000D2B2109BDBB29F1A4F4378430A215143D0
:101F900004910BF0BFF9297B6A7B12025618A978CD
:101FA000EA78120251188D1B019922E00E98400028
:101FB000E64908180646AA36B17AF27A1202511892
:101FC000AA22805C7278120210180390401A1099AD
:101FD000CDB268430F99C9B204910BF09BF9317BE4
:101FE000727B12025118B278F3781B029E18771A8E
:101FF0000399081A03907D43284604990BF08AF947
:10200000301A80B2039DA9B2401A0B9948430A992D
:102010000BF080F90999691A0918CE4FB984CE4896
:10202000431C059A92B29A420346C84E0E9D03D3B2
:10203000CA4B9A4201D95B1C7B847422C44B9A5AC6
:10204000323289B28A4205D20246BB32914202D96B
:10205000BC300246BA840C98002833D0680030188F
:102060000546D235A97AEA7A120252180E92D22186
:10207000405C697809020818801A45218900715C62
:102080000F9AD2B2109BDBB29F1A4F4378430A21BA
:10209000514310910BF03EF9297B6A7B12025618CE
:1020A000A978EA78120251188D1B2BE000E4000099
:1020B000240A00200004002060050020660900209A
:1020C000C8020020680030180646D236B17AF27A8B
:1020D00012025118D222805C7278120210180E90EF
:1020E000401A1099CDB268430F99C9B210910BF004
:1020F00011F9317B727B12025118B278F3781B020E
:102100009E18771A0E99081A0F907D432846109949
:102110000BF000F9301A80B20F9DA9B2411A0B984A
:1021200048430A990BF0F6F829183A208C4D2954A7
:10213000080A2A463A32507008046CD02E27E85D0F
:102140002E462E36727812021018B278F3781B02DF
:102150009A1812041018109008980D9A504389B2DA
:102160000BF0B6F81099091AE9552A220F92AB5CC8
:102170002A462A3257783F02FF1810979378D7786B
:102180003F02FF183F04109BFB180D9FC01BC01897
:102190000F9BE8540B0CB3700B0EF3700B0A7370AB
:1021A000030C9370030ED370000A5070B94F0029CE
:1021B00007D52E200021295428462E30C170817069
:1021C00041702A20285C29462A314A7812021018C8
:1021D0008A78C9780902891809040818AC4A518B11
:1021E000938B8B420AD1C2178118514001282CDBF6
:1021F0000A20484324210BF06BF809E001282BDB6F
:102200000A224243581A2421414310460BF082F817
:10221000089940182DE02E22A95C28462E304378DC
:102220001B0259188378C6783602F3181B04591814
:102230000D9BC91AA9540A0C82700A0EC2700A0AB0
:102240004270944F0029BCD5B3E7E1200001091882
:1022500045480BF03DF80CE05E1A242777436321D4
:10226000C9430BF057F839188A4F3E4870430BF0BA
:1022700051F8382168543835000A6870069D79197C
:10228000FE22501CFE3A042A07D80A784B781B021B
:102290009A18891C94420246F3D2C1B2FF2941D058
:1022A00079190006C00D0A5C0B185B781B029A189E
:1022B000831CCD5CC918497809024919891A13256C
:1022C0002D017E19355C3018407800024519F05C0C
:1022D000F3185B781B021818401B079E7543A21A5F
:1022E0000B2C30D392B280B25043704389B20AF0C3
:1022F000EFFF401980B21D49081A029C6043314625
:102300000AF0E6FF6108401821460AF0E1FF0104E7
:1023100019229204914200DC06466E205C490E525E
:1023200011B0F0BD785D79194978090209181320B8
:1023300000013A5C381840780002801800252246D7
:10234000079E0B2CCED211B0F0BDC04600E40000B9
:1023500060050020C80200207A0D00007B0F0000FD
:102360008C020020A08C000080EE360010270000B8
:10237000F0B583B0464D288BC00604D447480021F1
:10238000818103B0F0BD288B400557D40124200281
:10239000404E315C30184078000240187021695E70
:1023A000081A1021695E884250DC81204000315CAF
:1023B000301840780002411837480088884245D2DA
:1023C000364B99894F1C9F815969081858614121E2
:1023D0008900725C711849780902891802914908CC
:1023E000BAB28A4213D183214900725C71184978CC
:1023F0000902891801912D21C9000AF069FF274BB4
:102400000199884201D200279F8100205861029AD9
:10241000B9B29142B5D300279F8183214900725CF4
:102420007118497809028E182D21C9000AF050FF51
:10243000B04213D21948476103B0F0BDA88B698B35
:1024400081429ED302F094FB03B0F0BD1348818912
:10245000002996D0491E818103B0F0BD698C2220ED
:102460000F4A11542023D55C10462030467836029E
:1024700075196D1CD5542232090A517009490A8810
:1024800022430A80290A417002F072FB03B0F0BDBA
:102490006005002000E40000240A0020A0030020C2
:1024A000680300205E030020F0B587B00446E64EC6
:1024B000308B80071FD4EA48017E427E12025118F9
:1024C000827EC37E1B029A18120451180C1BB28B19
:1024D000242151438C4200DC0C460476220C827687
:1024E000220EC276220A4276D848C26D8A4200DDA8
:1024F000E7E0C165E5E0D548807B002804D06C208A
:10250000355AD348038880E06C20375ED148D249E1
:102510000D5C7D43D148095C062078430AF0FAFE41
:102520002A18CB4D2A80FF201230CB49095C069730
:102530008F4205DA1004CB49884210DC1E2019E0D6
:1025400017DDC24BD87B002800D144E1188EB78B31
:102550001F868742059100D23FE100203EE10092B4
:10256000C1498842B94B069908DB64200090288055
:1025700004E0642000902880B44B06990594308BC9
:10258000800404D4308B800601D50020187488B2F2
:102590000690B08B02905C8F188F0490B34800783F
:1025A0000390B3480188D88E411ACA178E18564036
:1025B00005211D460AF08CFE074632210194204673
:1025C0000AF086FEBE4200DB37E1297C0129059C2A
:1025D00000D036E12B46039949B2049A511ACA1722
:1025E000891851400329069D0EDC0299019A511A5F
:1025F000CA1789185140814206DC64219448018041
:10260000002018740B4600E0009B954F387E797EC1
:1026100009020818B97EFA7E1202511809040E1830
:1026200018B24443642120460AF052FE341A3C7624
:10263000200CB876200EF876200A7876002D19D076
:1026400006952425204629460AF064FE7E4EB18B6D
:102650004D43884207DC0020F8763D76280CB8769A
:10266000280A78762C46794AD06DA84200DCD565D8
:10267000069D01E0744E754A7420305A1021715E37
:10268000814218DD002D1CD02425204629460AF061
:1026900041FEB18B4D43884207DC0020F8763D7641
:1026A000280CB876280A78762C466849C86DA84266
:1026B00007DCCD6505E0002C7FDDD06D002800DC57
:1026C00084E05520800064490A5C081840780002C4
:1026D000811867480288642050430AF0F9FD81B2EE
:1026E0000B2901D26C2013E01E2904D8092048438D
:1026F00040089B210BE0322902D84808232106E03C
:10270000462966D8C0B20A210AF0E2FD0F21081A54
:1027100058490880318B89061ED5318B09071BD497
:102720006C21715A022917D11021715E7422B25A9C
:1027300083B2D2188A420FDAB28B502151438C42B5
:1027400008DC474A0023D37611760B0C93760B0AEC
:1027500053760C463D49CC656C21725E022A16DB2D
:102760001022B25E7423F35A80B2181890420EDB26
:10277000012070523A480021C176B18B46244C4367
:1027800004763249CC65210C8176210A4176002CF1
:1027900005DD2E48C16D00290BDD07B0F0BD3048C6
:1027A0000021C1768176417601762848C16D0029E5
:1027B000F3DC0021C16507B0F0BD0024FC76BC76D7
:1027C0007C763C76D06D002800DD7AE70020D0656D
:1027D00077E708209CE710461DE001203D46854034
:1027E0001F48017E427E12025118827EC07E000286
:1027F00080180004401824210AF08CFD451B059820
:10280000784364210AF064FD014628460AF082FDFF
:102810000F4D28800D4B01B26D2903DC6420009020
:102820002880AAE6009019200001421E91420699D4
:1028300000DCA3E628800090A0E6009B069D059C96
:10284000E3E6009B069DE0E660050020C80200204C
:10285000020000205103000000E4000052030000C9
:102860008C020020FFFF1D0001006C00000400200E
:10287000240A0020FE090020F0B583B0FF25284679
:10288000FC30FE4F395CFE48007840B2884236DBAF
:102890007F218900795C884231DCFA48385CFA4B48
:1028A0005E8C86422BD9188B000739D455208000C6
:1028B000395C38184078000244182846FE30385CED
:1028C00060430A210AF004FDFD490E88B0420DD88C
:1028D0006800385C44430A2120460AF0F9FCB04203
:1028E00004D3F8488188C90700D0CFE1F54D002016
:1028F000A861A88802218843A8801C350CE0F14D0E
:10290000A88801218843A8800020A861E861A888E0
:1029100002218843A88020350020286003B0F0BD44
:10292000E948008801B2002901D4012000E0B8790B
:10293000490600D5F879C1B2E24DA888C007E3483E
:1029400000D0CDE0AA695118A961814200DCA1E262
:102950005A200090385C39465A31497809020A18E1
:1029600010215B5E98B201900020934204460290D1
:1029700000DC70E25C20385C3A465C32527812022D
:102980001218934200DC8FE15E20385C3A465E32DA
:10299000527812021218934200DC8BE16020385CFE
:1029A0003A466032527812021218934200DCB7E1C4
:1029B0006220385C3A466232527812021218934210
:1029C00000DCB3E16420385C3A466432527812028B
:1029D0001218934200DCAFE16620385C3A4666325A
:1029E000527812021218934200DCABE16820385C86
:1029F0003A466832527812021218934200DCA7E17C
:102A00006A20385C3A466A325278120212189342AF
:102A100000DCA3E16C20385C3A466C32527812023A
:102A20001218934200DC9FE16E20385C3A466E3209
:102A3000527812021218934200DC9BE17020385C3D
:102A40003A467032527812021218934200DC97E133
:102A50007220385C3A46723252781202121893424F
:102A600000DC93E17420385C3A46743252781202EA
:102A70001218934200DC8FE17620385C3A467632B9
:102A8000527812021218934200DC8BE17820385CF5
:102A90003A467832527812021218934200DC87E1EB
:102AA0007A20385C3A467A325278120212189342EF
:102AB00000DCA2E17C20385C39467C31497809028F
:102AC0000A18934200DC9FE17E20385C39467E3153
:102AD0004978090209188B4200DD9BE10A46A0E112
:102AE000EA695118E961814200DCD3E15A20009083
:102AF000385C39465A31497809020A1810201C5EA0
:102B0000A1B20191002394420293194600DC55E1E1
:102B10005C21795C3A465C32527812025218944237
:102B200000DCC4E05E21795C3A465E3252781202E3
:102B30005218944200DCC0E06021795C3A46603271
:102B4000527812025218944200DCECE06221795C67
:102B50003A466232527812025218944200DCE8E09F
:102B60006421795C3A4664325278120252189442D7
:102B700000DCE4E06621795C3A4666325278120263
:102B80005218944200DCE0E06821795C3A466832F1
:102B9000527812025218944200DCDCE06A21795C1F
:102BA0003A466A32527812025218944200DCD8E057
:102BB0006C21795C3A466C32527812025218944277
:102BC00000DCD4E06E21795C3A466E325278120213
:102BD0005218944200DCD0E07021795C3A467032A1
:102BE000527812025218944200DCCCE07221795CD7
:102BF0003A467232527812025218944200DCC8E00F
:102C00007421795C3A467432527812025218944216
:102C100000DCC4E07621795C3A46763252781202C2
:102C20005218944200DCC0E07821795C3A46783250
:102C3000527812025218944200DCBCE07A21795C8E
:102C40003A467A32527812025218944200DCD7E0A7
:102C50007C20385C39467C31497809020A18944254
:102C600000DCD4E07E20385C39467E3149780902A8
:102C70000818844200DDD8E00246DDE000E40000F0
:102C8000000400200102000060050020E035795DAD
:102C900079194A7812021205A64C25D5228BD20644
:102CA00016D4026A92191EE001200524D3E0012106
:102CB000052082E002200A24CDE002210A207CE0E7
:102CC000240A0020A00300206C0200204F460000D0
:102CD000828801239A4382800022826183880224B1
:102CE000A343944C838002627A5D497809024905C6
:102CF00005461C35002900D40EE6218B890603D435
:102D0000016A8919016207E6818801229143818065
:102D10000021016281618188022291438180FBE56B
:102D200003200F2497E003210F2046E00420142401
:102D300091E00421142040E0052019248BE00521B6
:102D400019203AE006201E2485E006211E2034E0EA
:102D5000072023247FE0072123202EE008202824B9
:102D600079E00821282028E009202D2473E009219A
:102D70002D2022E00A2032246DE00A2132201CE0BE
:102D80000B20372467E00B21372016E00C203C2471
:102D900061E00C213C2010E00D2041245BE00D217E
:102DA00041200AE00E20462455E00E21462004E092
:102DB0000F204B244FE00F214B200290A8880224C3
:102DC0000443AC80AB61EB61A88801239843A880E1
:102DD000480038185821415C5830407800024018AB
:102DE000111A09B2019A101A0522424310B20AF0D0
:102DF00091FA02994018A8714CE0502408462AE044
:102E0000502102910146D9E71120552423E01121D8
:102E10005520D2E78020385C3A4680325278120240
:102E200012188B420CDC12200BE08021795C3A46B0
:102E30008032527812025218844206DC122105E0D8
:102E400013208B4206DC009C05E0132184426EDCDB
:102E50000098B2E75F24400038185821415C583090
:102E6000407800024018111A09B2019A101A05227E
:102E7000424310B20AF04EFA00196871A888012185
:102E80000143A9800298A861E8612862A88802210C
:102E90008843A880A888800700D43FE52648395C8D
:102EA00005202856884207DD01225302FB5C984228
:102EB00002DAA888904326E50622AA568A4206DD51
:102EC00001214B02FB5C9A4201DAA8881AE5801ABC
:102ED000C11744184C40FD204000385C844200D8A3
:102EE0000EE5286A24210AF015FA21460AF012FAA2
:102EF0001B2109010F4A505210490A8801231A4325
:102F00000A80A9889943A9800D490E770022AA61F9
:102F1000EA61320A4A7788778A7ECB7E1B029A184A
:102F2000521C8A76000AC877100AC876EFE45F2040
:102F300043E7C04660050020FF0100005E0300205B
:102F400068030020F0B581B000F0FCFC1620E04ED4
:102F5000305E01280EDB308BC00600D48DE0DD48EA
:102F6000418A49074AD4318B490550D5318BC9076D
:102F700060D16BE07420305A1024315F814200DD53
:102F8000D5E0308BD44901403183D248C17E052938
:102F900000D2CAE00021C176FF22E032CF4B9C185C
:102FA00064789A5C920603D4328B80231343338374
:102FB0003223CB4AD1542E23D1544A23C1526C23FD
:102FC000F152348B01231C433483D17691765176B0
:102FD0001176016671834167037710463230417084
:102FE0002E32D17091705170BE4801881943018012
:102FF000308B02210143318301B0F0BD818FB18359
:10300000418A042291434182318B4905AED4318BF0
:10301000402291433183318BB34A0A403283318B52
:10302000B24A0A403283318BAB4A0A403283318B39
:10303000C9070BD06C21715E11221201A74B9A5C5B
:10304000914203DD318B012291433183318B89071A
:1030500026D56C21715EFF221232A04B9A5C914200
:103060001EDD817E491C8176C9B2022905D100216D
:103070008176308B022188433083308B000614D454
:1030800005F062FE934F3878800620D43C6FE0084C
:103090007C2800D98BE0964800882218002194E013
:1030A00000218176308B0006EAD591480388894952
:1030B000086EC0180866318B890517D588490876CF
:1030C000020ECA76020C8A76000A487621E184480C
:1030D000017E427E12025118827EC07E000280185C
:1030E000000440184821795A40187CE037460121F5
:1030F00049027B4A147E557E2D022C19957ED67E80
:10310000360275192D042C19844200DBF2E05B00B5
:10311000E31813761C0ED4761C0C94761C0A547695
:1031200083423E4600DBF1E0F3E0491CC1763746BE
:103130007D208000694D285C6D4E3188814208D920
:10314000FF25FEF7CFFD634B587E092864D0002091
:1031500066E06048417E09293E4600D085E1604A2C
:10316000117E537E1B025918937ED47E2402E318ED
:103170001B045B18FF21F631695C5B1ADC17A34363
:1031800013761C0C94761C0ED4761B0A5376328B65
:10319000120604D5026E521AD3179A430266328B76
:1031A000520600D461E1426E511841665DE17D2016
:1031B000C500204629460AF08BF8C2B20421C94353
:1031C00051434543621B4A4800883A67444A137E8C
:1031D000547E2402E318947ED27E12021219120445
:1031E000D21851180818FB490876020ECA76020C4C
:1031F0008A76000A4876308BC00707D1308B80076B
:1032000000D486E0308B400600D482E0F24800888B
:10321000396E081838667CE02846F630EC49085CC0
:10322000C0B2318842183E46398B388BC90727D146
:10323000800600D5B6E0308B400602D5586E801867
:103240005866E448017E1546427E12025118827E7D
:103250001C46C37E1B029A1812045118491BCA1738
:10326000914301760A0C82760A0EC276090A4176EB
:10327000E06D002800DDF8E023460020E065F4E082
:10328000800700D5CFE0305F998C884200DBD1E029
:10329000D87D401CD875C0B2042800D0CCE0308B5B
:1032A0000221014331830020D8752846E030C84B05
:1032B00019184978185C400705D51235585D144631
:1032C00002F0F6FE2246308BC44901403183AFE064
:1032D00060050020C8020020FFDF000000E40000BD
:1032E0008C02002010040020FFF70000FFEF000018
:1032F000240A00205B08E31813761C0ED4761C0CFD
:1033000094761C0A547683423E4602DA308B084398
:1033100030837D218800AE4A105CAF4A1488844215
:103320003CD92E26AB4FB85D3D462E356A78120249
:103330001018AA78EB781B029A1812041018009043
:103340003820385C3A4638325278120210186043FE
:10335000C90009F0BDFF00994218BA552A23FE5C46
:1033600039462A314F783F02BE1900968F78CE78C1
:103370003602F6193604009FF619201A8019934E6A
:10338000944CE054130CAB70130EEB70120A6A707D
:10339000020C8A70020ECA70000A4870308B8006D8
:1033A0006ED573E0305F598C884200DBE4E0187E14
:1033B000401C1876C0B2042800D23CE7308B0121B3
:1033C0000143318300201876E035E84F78194178C1
:1033D000795D890605D4318B144680220A433283F5
:1033E000224614464078785D400706D5112000013A
:1033F000385C1D4602F05EFD2B46308B774901405C
:1034000031836C20305EB18B414324204843E04936
:103410000876D8651866020ECA76020C8A76000A0B
:10342000487620461FE0186E801AC1178843186638
:10343000104618E00020D875186E1446801AC1177F
:1034400088431235C949495DB28B4A43242151430F
:10345000884200D301461966308B4006204602D5CB
:10346000596E09185966FFF71FF8C848417E491C74
:10347000CAB20A2A00D100214176308B800605D4D9
:10348000308B000702D4C148007824E0BF49087897
:1034900002220240CB7C1343CA7B1A431BD1BC4A95
:1034A000137E547E2402E318947ED57E2D022C19BF
:1034B0002404E418CB6D9C4206DD13761C0ED476F2
:1034C0001C0C94761B0A53762E22895E6C22B35E06
:1034D0008B4200DDB152AD490022CA73CA746C221E
:1034E000B25ACA85FD2202400A70308B8007C00F95
:1034F0008873A74D287E6A7E12021018AA7EEB7E82
:103500001B029A1812041018C865E1210C0121460B
:1035100009F000FF81B2B78BB94209D93846604340
:103520002876010EE976010CA976000A687600E09B
:1035300007462E20285C29462E314A7812021018A0
:103540008A78C9780902891809040818214609F0FF
:10355000E1FE82B23421695C2B4634335B781B0276
:1035600059188A4200D80146322029547783080A24
:103570003235687001B0F0BD308B802188433083D4
:1035800000201876318B490602D5596E8918596684
:10359000EB4917460A7E1D464B7E1B029A188B7E0E
:1035A000CC7E2402E3181B049A18D21BD3179A432B
:1035B0000A76130C8B76130ECB76120A4A76E96DD7
:1035C000002900DD51E7E8654FE7C04660050020AF
:1035D00000E400008C020020240A0020FFFD00000F
:1035E000F0B581B055208000D44E315C3018407861
:1035F00000024118CF4800886424604309F068FE47
:103600005B4901403046FE3032290AD359490978D6
:1036100049B2092905DC042901DC584800E0564874
:10362000301801784078000247187420544D2F520A
:103630007D200101688B4843A98B09F049FE4108B0
:1036400088B28208F92A0CD3FF20E030315C3018B0
:103650004078C007C00D2CD0288B400528D56424A5
:1036600027E009281FD82120C000325C301840789C
:103670000002801840421622AA5E0024824218DA14
:103680001020285EB84214DDFF27E037F05DC8B295
:103690000A2109F01DFE0446F01940780002C0041A
:1036A00007D5012405E00A2109F012FE044600E0D6
:1036B00063246C202C5201F025F9FF21E031705C6D
:1036C0001B200001285A711849780902890518D46D
:1036D0002D490880688B98494886A88B88863220B7
:1036E0009749085C0A46323252781202101828852F
:1036F0003420085C3431497809020818A88501B0E3
:10370000F0BDAB214900725C7118497809028E182E
:1037100070431C4C214609F0DBFD1B490880688B77
:103720007043214609F0D4FD834F7886A88B7043FF
:10373000214609F0CDFDB8863220814F385C3946EC
:1037400032314978090208187043214609F0C0FD5A
:1037500028853420385C343779780902081870439A
:10376000214609F0B5FDA88501B0F0BD00E40000D8
:10377000FEFF000001040020530300005503000079
:103780006005002010270000220A0020C802002047
:103790008C020020F0B583B0F8480288F348C28359
:1037A00055208000F44F395C3818407800024118E9
:1037B0006420504309F08CFD81B28B225200BC5C26
:1037C000FF22A1420FD91832BA5C914212D9811A54
:1037D0000804000E01D00020C1432320C000385C43
:1037E000821A0A230CE01632BA5C0023914205D8F3
:1037F000194604E0121B011B052301E0811AA21ADD
:10380000FF252E461A36B81901240457DE480078E1
:1038100040B2A04204DABD57A8420ADC002009E009
:103820002E461C36BE57B04206DA001B361B5B1C08
:1038300014E0401B661B11E04724A4003C57A04243
:1038400003DA801BA61B9B1C08E01E357D572E1B30
:10385000A84201DB304600E0001BDB1CD4B2CDB235
:10386000A5420296019027D90A2B25D35800381873
:103870000546D235AB7AEC7A2402E4180094D223C0
:10388000C05C6B781B021818001B45239B00FB5C77
:10389000D2B2C9B28F1A5F4378430A2454432146F7
:1038A00009F038FD297B6A7B12025618A978EA785C
:1038B000120251188D1B1BE0580038180646D236EC
:1038C000B17AF27A12025118D222805C7278120216
:1038D00010180090401A6843214609F01BFD317B07
:1038E000727B12025118B278F3781B029E18771A75
:1038F0000099081A00907D432846214609F00AFDE8
:10390000301A80B2009CA1B2411A0198C0B248435B
:103910000299C9B209F0FEFC20183A21DE4A50543F
:10392000010A3A325170010401D09049088403B071
:10393000F0BDC046240A0020C802002000E40000B8
:103940008C020020F0B583B0884DE86EE1210901BA
:103950000290019109F0DEFC85490880D04C208B53
:103960008004C00F8349088055208000CB4F395C0C
:103970003818407800024118804806886420704357
:1039800009F0A6FC2B46E8871621615E228BD20641
:103990000AD5012908DB218B7D22D2001832114281
:1039A00046D0774902220A8077490D782D2D4AD8D2
:1039B0002121C9007A5C79184978090289188E4258
:1039C00041D9208B102108407422A25A615E914295
:1039D0000CDD00286FD1208B80046ED57848022141
:1039E000018002988019D86603B0F0BD002862D12A
:1039F000208B800463496A486AD5012707800298B2
:103A00008019D866228B0A402283019909F082FC32
:103A1000044664480188002972D0029762480288EF
:103A20006248019202806EB20F2E77DC614F76E021
:103A3000534901220A80218B524A0A40228352496B
:103A40000D782D2DB4D9218B890631D5218B09070D
:103A50002ED44E4A01211180228B920441D52E464C
:103A600025461C4682B24A4801800A3A00203C2A78
:103A700000D80146474B19803D2A234601D3987D43
:103A8000401C9875C0B20A282C462FD30020987588
:103A9000414901220A80D866208B3A49014021839E
:103AA0002E2E28D3002098753C4901220A8008E078
:103AB00036480021018003B0F0BD4148012101805A
:103AC0000020D866208B2F490140218303B0F0BD30
:103AD000022202800020D866208B0840208303B099
:103AE000F0BD2E480321018003B0F0BD2A48032118
:103AF00001802E2ED6D229480221018003B0F0BDCC
:103B00002A48032101807D20C000294908802A49D4
:103B10000880284908802949088013E0244F7D2027
:103B2000C000A5B24543284609F0D2FB38800F2ECD
:103B3000029F01DC214E00E01F4E2846019909F04A
:103B4000C7FB308009488485AF4DAC830446FFF73E
:103B500021FE2774E08BE086A88B60870A480078F6
:103B600040B2E072208703B0F0BDC046C80200201A
:103B7000EA090020E809002000E40000240A0020EF
:103B8000EE090020FFDF000000040020FC090020F7
:103B9000FE090020F6090020F8090020FA0900209B
:103BA000F20900200E0400202C0A0020F409002055
:103BB000080000200A000020040000200600002069
:103BC000F0090020F0B581B03420334C205C214650
:103BD00034314978090209183220205C22463232F9
:103BE0005278120212187D200001504309F070FB38
:103BF0000A30410888B28208F92A0AD3FF20E0304F
:103C000080490A5C08184078C007C00D36D164208E
:103C10003BE009282ED8FF22E0327A4B9D5C9D18AC
:103C20006E783602F60425D52120C0001E5C1818D7
:103C300040780002801947421620734E365E0020FD
:103C4000BE4222DA7426704FBE5B009610276E4E7D
:103C5000F75F009EB74218DB01263703985C6A784D
:103C600012021518C8B20A2109F032FB3D420CD0ED
:103C700030460AE00A2109F02BFB06E06248008B7F
:103C8000400501D5642000E06320362160543634BD
:103C9000000A607001B0F0BD8C02002000E400005A
:103CA00060050020F0B52120C00056490A5C0818C4
:103CB000407800028018434216225348825E9A429E
:103CC0001DDA028B202313430383028B10239A43B4
:103CD00002834E4A0023138113704D4A13888024B7
:103CE0001C431480428A40231A434282494A148862
:103CF0001C431480028B08239A43028336E08524F8
:103D000064000D5D0C19647824026419A2421DDD63
:103D1000058B2026B5430583058B10262E4306838D
:103D20003A4D00262E812E70394D2E88802737433C
:103D30002F804025ED43468A2E404682354E3788F7
:103D40002F403780058B0826B54305839A4208DB50
:103D5000944206DB2D4A13892F4CA34201D05B1CF1
:103D600013812A4A1278002A00D0F0BD428A5306F5
:103D700022D543239B00CC5C244B1D89A5421BD339
:103D8000048B2025AC430483048B1025AC430483AF
:103D900001241C7000241C8140239A4342821C4C45
:103DA00025888026B54325801A4C25881D4325800B
:103DB000038B08241C4304835306D6D4FF230E33FD
:103DC000CB5C12490C899C42CFD3038B2024A343A4
:103DD0000383038B1024A343038301230B7000236D
:103DE0000B8140218A4342820A4A13880B43138085
:103DF00007490A8880239A430A80018B08220A43D4
:103E00000283F0BD00E4000060050020A003002054
:103E10006802002010040020FFFF0000F0B581B010
:103E2000F64C2268D0075ED090070FD5022082435F
:103E300022607E20F249085A830A102B06D1FE2206
:103E40008A5692B2803105F077FE22680125AE02D3
:103E500050050BD5B2432260FA48FB49081880B2DE
:103E6000F7498031112205F067FE226850003CD4EA
:103E7000AF06D0034FD4100166D4D00076D490039F
:103E800000D586E0500300D595E0100300D5A4E0EE
:103E9000D00200D5B4E0900200D5C4E0500200D5B5
:103EA000D4E0100200D5E4E0D00100D5F4E09001A8
:103EB00000D504E1500700D514E1AF03D00600D5CA
:103EC00017E1900600D533E1500600D54FE110060A
:103ED00000D56BE1D00500D587E1900500D5A6E1BE
:103EE000324200D0C8E101B0F0BD2802F4490858C0
:103EF000007841239B00C9580978F24BD97098701B
:103F0000A80782432260F048018802230B43038004
:103F1000AF06D003AFD5ED48008828210140EC481A
:103F2000E64A105CD7230340581869460870E948F0
:103F3000101880B2012205F0FFFD2068E64A024019
:103F40003A432260100198D5E448DC49081880B251
:103F5000E34949683331022205F0EEFD0320800673
:103F6000226882433A432260D00088D5DD48D34995
:103F7000081880B2DA4949681331022205F0DCFDE5
:103F800005208006226882433A432260900300D4D1
:103F900078E7D548C949081880B2D14949686231E3
:103FA000022205F0C9FD2068D04A02403A4322604F
:103FB000500300D469E7CE48C049081880B2C84908
:103FC00049686431022205F0B7FD2068C94A024001
:103FD0003A432260100300D45AE7C748B74908188B
:103FE00080B2BF4949686731022205F0A5FD8120F2
:103FF000C004226882433A432260D00200D44AE7D8
:10400000BE48AE49081880B2B549496868310222F5
:1040100005F092FD41200005226882433A43226068
:10402000900200D43AE7B648A449081880B2AC49D7
:1040300049686A31012205F07FFD21204005226890
:1040400082433A432260500200D42AE7AD489B499C
:10405000081880B2A24949686B31012205F06CFD55
:1040600011208005226882433A432260100200D466
:104070001AE7A5489149081880B2994949686C31F6
:10408000012205F059FD0920C005226882433A4308
:104090002260D00100D40AE79C488849081880B201
:1040A0008F4949686D31012205F046FD0520000663
:1040B000226882433A432260900100D4FAE6944891
:1040C0007E49081880B2864949686F31012205F09F
:1040D00033FD03204006226882433A4322605007A2
:1040E00000D4EAE6042082432260AF03D00600D465
:1040F000E7E6FE206F490A56131F032B02D3062260
:104100000A5400E0D2B228026D49095882486B4B2C
:10411000181880B252B2121F92B205F00DFD7D4800
:10412000F030226802403A432260900600D4CBE689
:10413000FE2060490A56131F032B02D306220A549D
:1041400000E0D2B228025E49095874485B4B181847
:1041500080B252B2121F92B205F0EEFC6D48E03010
:10416000226802403A432260500600D4AFE6FE20A7
:1041700050490A56131F162B02D319220A5400E085
:10418000D2B228024E49095865484C4B181880B2E3
:1041900052B2121F92B205F0CFFC5E48C0302268C6
:1041A00002403A432260100600D493E6FE204149C3
:1041B0000A56131F162B02D319220A5400E0D2B25A
:1041C00028023F49095857483C4B181880B252B250
:1041D000121F92B205F0B0FC4E48803022680240B7
:1041E0003A432260D00500D477E6FE2031490A56D2
:1041F000131F062B06D309220A5404E008040020EA
:1042000060050020D2B228022D49095846482B4BA0
:10421000181880B252B2121F92B205F08DFC2268BB
:104220003C4802403A432260900500D458E6FE2004
:1042300020490A56131F212B08D324220A5406E0D2
:1042400060050020A65EFFFF00E40000D2B2280255
:104250001B4909583548194B181880B252B2121F21
:1042600092B205F069FC21204002226882433A4361
:104270002260324200D136E6FE200E490A56131F54
:10428000212B02D324220A5400E0D2B228020C4986
:1042900009580948094B181880B252B2121F92B23D
:1042A00005F04AFC112080022168814339432160D6
:1042B00001B0F0BD60050020A65EFFFF00E4000035
:1042C00010000020680300205E0300206A02002026
:1042D00047020000475EFFFFFFFFFEFBFE5CFFFFA3
:1042E00030020020545DFFFF395EFFFFFFFFFDFB42
:1042F0003B5EFFFFFFFFFBFB3D5EFFFF3F5EFFFFFF
:10430000415EFFFF425EFFFF435EFFFF445EFFFF33
:10431000455EFFFFFFBEFFFF535EFFFF555EFFFFE1
:10432000575EFFFF6C5EFFFF815EFFFF865EFFFF53
:1043300080B5742005F0B2FB80BD80B5752005F016
:10434000ADFB80BD70B55A4A11461039C348416073
:104350000B78C349A02B0CD0FF2B0CD11D22D2020D
:1043600042601378FF2B00D182E0A02B3CD10023C8
:104370003BE0002300E0FF2314460F3C4460247818
:10438000A02C02D0FF2C16D000E0012314460E3CD6
:1043900044602478FF2C0ED0A02C00D102231446B8
:1043A0000D3C44602478FF2C05D0A02C00D10323C1
:1043B00014460C3C44601D24E4022578FF2D07D0F0
:1043C00044602678A02E06D0FF25FF2E28D003E0DB
:1043D000FF2B4DD04FE00025661C46606678A02E6E
:1043E0000BD0FF2E1CD009E0FF23541C44605478EE
:1043F000A02C28D0FF2C39D026E00125A61C466031
:10440000A678FF2E0CD0A02E00D10225E61C466017
:10441000E678FF2E04D0A02E00D10325261D46608D
:10442000FF2B05D1FF2D23D010342B46224622E04E
:10443000FF2D20D09D4201D2103422469D4200D350
:104440001D462B4617E00123941C44609478FF2CF2
:104450000CD0A02C00D10223D41C4460D478FF2CB3
:1044600004D0A02C00D10323141D4460FF2B01D1E4
:10447000416013E010327C245C43A21842608A42FF
:104480000CD000210B4B545C45182C72545C5C54CE
:10449000491C3C29F7D15118416070BD08303C24BB
:1044A0002146FCF7B6F903482146FCF7B2F970BD86
:1044B00010EA00001804002070B582B01D20C2026E
:1044C000664D6A601078FF280AD05078FF2809D01E
:1044D0009078FF2808D0D078FF2807D0042006E085
:1044E000002004E0012002E0022000E0032075210A
:1044F000490269600B78FF2B0CD04B78FF2B0FD053
:104500008B78FF2B10D0CB78FF2B3ED004230028D4
:104510000DD13DE004283ED300202870696041E0C1
:104520000123002803D133E00223002830D0984231
:1045300013D228706A60032809D3698808230B43C3
:104540006B80298D464B994201D0491C298503284F
:1045500023D90024204602B070BD6960042B06D127
:10456000752005F09BFA0020287069681AE02B700E
:10457000032B16D36888042202436A80288D384AA8
:1045800090420ED0401C28850BE003230028CED19A
:10459000042B04D3002028706A60114602E02B70BF
:1045A000696018467C2242438A1810320024134660
:1045B0001E78FF2E26D1661C5B1C3B2C3446F7D39D
:1045C00017208402101980B2294608313C2205F0D8
:1045D000B3FA01A8A0210170287869680A5CFF2A53
:1045E00027D0688800072ED4688801244007B1D5F9
:1045F000742005F053FA68880421884368802046B7
:1046000002B070BD6A46082313700A5CFF2A03D00B
:104610000024204602B070BD0818172189024018F6
:1046200080B26946012205F087FA0024204602B0D4
:1046300070BD0818001980B201A9012205F07CFAAA
:1046400068880007D0D5752005F028FA6888082109
:10465000884368800124204602B070BD8402002097
:10466000FFFF0000F0B587B055208000A04F395CF7
:1046700038184078000241182A20F44A105E64225B
:104680000692504308F046FE81B28B225200BC5C79
:10469000FF22A14210D91832BA5C914213D9811A73
:1046A0000804000E01D00020C1432320C000385C64
:1046B000801A05900A230EE01632BA5C002391425C
:1046C00006D8194605E0111B0591011B052302E0E0
:1046D000811AA01A05900220DC4C2056FF252E4698
:1046E0001A36BC193A460127E457A04204DA955716
:1046F000A8420CDC00200BE02E461C369657B04238
:104700000ADA001B0390301B04905B1C1AE0401B6C
:104710000390601B049015E04724A4001457A042A6
:1047200005DA801B0390A01B04909B1C0AE01E3539
:1047300055572E1BA84201DB039601E0001B039096
:104740000496DB1C0598C6B2CFB2B7422AD90A2B11
:1047500028D3580010180446D234A37AE57A2D02E3
:10476000EA180292D223C05C63781B021818801AE0
:10477000059AD2B2C9B2891A06254D4368430A2662
:104780005643314608F0C6FD217B627B1202531866
:10479000A178E278120251182A460193CF1A0299A1
:1047A000081A1CE0580010180446D234A17AE27AA4
:1047B00012025118D222805C627812021518681A0F
:1047C0007843314608F0A6FD217B627B1202511826
:1047D000A278E3781B029A180192521A281A0590BF
:1047E0000020C74DA865A871A880E8702C8C4148AE
:1047F00004806C20DA49085E0290E8855743384609
:10480000314608F087FD0199081A80B2059EB1B2C1
:10481000411A0398C0B248430499C9B208F07AFD1E
:10482000301880B200194708334807802F840A26C1
:1048300005962046314608F04BFD01467743384641
:1048400008F046FD84B2AE8D3046069908F040FD72
:10485000074605460494654330460599FBF7DCFF9F
:1048600008466043069C214608F032FD451967431F
:10487000F01BC0B2059C214608F02AFD049948436C
:10488000214608F025FD29188AB29E489B4C235CDE
:10489000201840780002C018824200D8084682B230
:1048A000B5218900635C611849780902C9188A42F8
:1048B00000D30146924CA18510480180A84DA983E0
:1048C000218689B202984843069908F023FD68833F
:1048D00080B2E1210901414309480176E1650A0EF0
:1048E000C2760A0C8276090A417607B0F0BDC0464E
:1048F00000E4000064090020600900206209002033
:104900008C02002070B57E4CE079002803D1F2487B
:10491000008BC00679D4207A012808D1EE48008B9C
:10492000C00604D54A480088A16D0818A0656C200F
:10493000E94D2E5A642E17D1A07901281AD1A06D05
:10494000E121090108F0C4FCA98B4908884211D96A
:10495000288B00070ED4288B642E0BD12021084011
:1049600008D00120207105E00020A071298BC90624
:1049700000D4A065607A012802D0A07A01280FD166
:10498000288B80060CD50B202056D449097849B2D3
:10499000421A092A02DC081A0A2801DB0120607188
:1049A00061792079012801D001291FD12848008888
:1049B0002A8B92061AD5FF222E32904216D3E27825
:1049C000521CE270012927D1D1B2052924D80B212C
:1049D0006156C24B1B785BB2CE1A092E1CDC591AE9
:1049E000092919DC0020E070607101E00020E0700E
:1049F000288B8006C00F6073288B0007C00F607281
:104A0000288BC006C00FA07270BD01202072B24872
:104A1000008BC00686D48AE7D1B20529E8D160852B
:104A20000020A080E070AD4E3078A070207B01287F
:104A300006D001202073A88BA0857D20C000208493
:104A4000FFF710FE3078E072D2E7C046C8020020BF
:104A5000240A0020F0B581B01C4615460E460746D4
:104A60006020394600F056FA38880A4988420ED14B
:104A70006220314600F05AF96320294600F056F9C9
:104A80006420214600F052F9002001B0F0BD012061
:104A900001B0F0BDCCEF0000B0B5FF20F8308D4C78
:104AA000215C2018407800024518FEF773FE8A4802
:104AB000828B1348818F914204D2531AAB4206DD98
:104AC000511B03E08B1AAB4201DD511981870D4A5E
:104AD000A35CA21852781202D2188BB2934201D969
:104AE00082871146B5229200A35CA2185278120266
:104AF000D21889B2914200D28287B0BD00E4000092
:104B0000C8020020D2020000C11740184840704778
:104B1000B0B512480921018010236F4AD45E1148B4
:104B20000188114DAC4201DB994300E01943062393
:104B30006C24145F012C01DB994300E01943162318
:104B4000D25E1823DB439A4203DB084A11400180FE
:104B5000B0BD012211430180B0BDC0460C0400204D
:104B60006005002068020020540B0000FEFF0000DA
:104B7000F0B585B0FF200246E03256498B185B78CD
:104B80008A5C520611D4544A138B40241C4314836C
:104B90000123DC02158B254315831C03158B25434C
:104BA00015835B03148B1C431483FA3008564B4A5D
:104BB000127852B2824203DB474C208B000615D498
:104BC0004B48827FC07F0002801825D0FB22520014
:104BD000895C002920D04843642108F079FB83B226
:104BE0003D498A8B934215D2101A14E03C480021AB
:104BF0000170208B3B49014021833B480068E12143
:104C0000090108F087FB394D2880FFF745FF288808
:104C1000A08301E00A2088832F490A8B8025AA43BC
:104C20000A8333480024C4778477324A146001230E
:104C30009E020A8B520541D40396049536226425C0
:104C4000029585542A2284543422825C322682556D
:104C500006463436757801952E02B718E122120106
:104C600057432E26875506463636747006462A3632
:104C7000F470B47074708D8B00956A4302760546AB
:104C80003235019E6E70150EC576150C8576120AAA
:104C900042763A0E2E30C2703A0C82703A0A427056
:104CA000088B400601D5144804606C20029A0A5211
:104CB000009A4A8311480280049D039E10480370A5
:104CC000088B304308830F4801882943018005B0D1
:104CD000F0BDC04600E40000600500200004002094
:104CE000D9020020FFFE000028030020040300205A
:104CF0008C020020300300202C030020120300202F
:104D0000CE0200200404002080B506481421017062
:104D1000002004F0FDFF04480078002801D005F0D1
:104D2000FDFB80BD64020020A1010020F0B583B02E
:104D30000C46054672B601F0E9FC1426029602986C
:104D4000411E0291002806D00298401C0290029851
:104D5000401E0290F3E7162001F098FC01F0A6FB3C
:104D6000002826D00120014605F03CF80296029862
:104D7000411E0291002806D00298401C0290029821
:104D8000401E0290F3E702200124214605F02AF894
:104D900002960298411E0291002806D00298401CFB
:104DA00002900298401E0290F3E762B6204603B0DC
:104DB000F0BD284601F06AFC02960298411E02915D
:104DC000002806D00298401C02900298401E0290D3
:104DD000F3E701F06BFB002826D00120014605F027
:104DE00001F802960298411E0291002806D002980E
:104DF000401C02900298401E0290F3E7022001241A
:104E0000214604F0EFFF02960298411E029100280D
:104E100006D00298401C02900298401E0290F3E7D0
:104E200062B6204603B0F0BD502001900290029877
:104E3000411E0291002805D00298401C0290029861
:104E4000401EF3E701F062FC172001F01FFC01F0A7
:104E50002DFB002826D00120014604F0C3FF029656
:104E60000298411E0291002806D00298401C029030
:104E70000298401E0290F3E702200124214604F02C
:104E8000B1FF02960298411E0291002806D00298B6
:104E9000401C02900298401E0290F3E762B6204642
:104EA00003B0F0BD019802900298411E02910028C3
:104EB00005D00298401C02900298401EF3E701F0D2
:104EC00050FB05460026304601F0A4FB002D1AD009
:104ED0006F1E0BE001F045FB2070B91B48424841B2
:104EE00001F098FB761C641CAE420CD00198029035
:104EF0000298411E02910028ECD00298401C0290BA
:104F00000298401EF3E701F068FC62B600242046D8
:104F100003B0F0BD70B582B00C46054672B601F024
:104F2000F5FB142601960198411E0191002806D038
:104F30000198401C01900198401E0190F3E7162053
:104F400001F0A4FB01F0B2FA002826D001200146AE
:104F500004F048FF01960198411E0191002806D0F7
:104F60000198401C01900198401E0190F3E7022037
:104F70000125294604F036FF01960198411E019152
:104F8000002806D00198401C01900198401E019015
:104F9000F3E762B6284602B070BD284601F076FB02
:104FA00001960198411E0191002806D00198401CED
:104FB00001900198401E0190F3E701F077FA002874
:104FC00026D00120014604F00DFF01960198411EF4
:104FD0000191002806D00198401C01900198401EC4
:104FE0000190F3E702200125294604F0FBFE01961B
:104FF0000198411E0191002806D00198401C0190A3
:105000000198401E0190F3E762B6284602B070BDD9
:105010003C2001900198411E0191002805D0019883
:10502000401C01900198401EF3E701F06FFB172030
:1050300001F02CFB01F03AFA002826D001200146AD
:1050400004F0D0FE01960198411E0191002806D07F
:105050000198401C01900198401E0190F3E7022046
:105060000125294604F0BEFE01960198411E0191DA
:10507000002806D00198401C01900198401E019024
:10508000F3E762B6284602B070BD5026019601983B
:10509000411E0191002806D00198401C0190019802
:1050A000401E0190F3E701F05CFA207000252846CD
:1050B00001F0B0FA01960198411E0191002806D036
:1050C0000198401C01900198401E0190F3E701F007
:1050D00048FA6070012001F09DFA01F07EFB62B693
:1050E000284602B070BDF0B581B00C46054672B6D8
:1050F00001F00CFB162001F0C9FA01F0D7F90028E5
:1051000027D00120014604F06DFE1425009500987B
:10511000411E0091002806D00098401C0090009885
:10512000401E0090F3E702200124214604F05AFEBD
:1051300000950098411E0091002806D00098401C60
:1051400000900098401E0090F3E762B6204601B040
:10515000F0BD284601F09AFA142600960098411EE8
:105160000091002806D00098401C00900098401E36
:105170000090F3E701F09AF9002826D001200146BB
:1051800004F030FE00960098411E0091002806D0E1
:105190000098401C00900098401E0090F3E7022009
:1051A0000124214604F01EFE00960098411E009145
:1051B000002806D00098401C00900098401E0090E7
:1051C000F3E762B6204601B0F0BD00960098411E9C
:1051D0000091002806D00098401C00900098401EC6
:1051E0000090F3E72578284601F050FA01F05EF9C7
:1051F000002826D00120014604F0F4FD0096009816
:10520000411E0091002806D00098401C0090009894
:10521000401E0090F3E702200124214604F0E2FD45
:1052200000960098411E0091002806D00098401C6E
:1052300000900098401E0090F3E762B6204601B04F
:10524000F0BD0027F8B20019407801F01FFA01F014
:105250002DF900280AD17F1CF8B28542F2D201F064
:10526000BCFA62B60024204601B0F0BD0120014620
:1052700004F0B8FD00960098411E0091002806D069
:105280000098401C00900098401E0090F3E7022018
:105290000124214604F0A6FD00960098411E0091CD
:1052A000002806D00098401C00900098401E0090F6
:1052B000F3E762B6204601B0F0BD0000F0B587B05C
:1052C0000027284E284D05E0781C311DBAB28A42CD
:1052D000074615D20124E00305F0AAF801280FD1F2
:1052E0002888401C2880322000900098411E0091A0
:1052F0000028E9D00098401C00900098401EF3E779
:105300002888B0422CD905F073F82002214606F017
:1053100019FB204605F0E8F83E20214605F0D0F8BC
:10532000002606960596162004900396029601968E
:105330000E480090684605F08BF8C82004F0ECFF9A
:10534000204604F0DDFF204605F0DAF8204605F09F
:105350005BF8074805F034F8204605F025F82E8064
:1053600007B0F0BDE3030000120400200903310080
:10537000FF7F000080B501464C20FFF7D7FC80BDC1
:1053800070B51C4615460E4601469120FFF7CEFC2F
:1053900090203146FFF7CAFC95202946FFF7C6FC4E
:1053A0007E202146FFF7C2FCF6200499FFF7BEFCE1
:1053B00070BD0000F0B585B0A54C207802210491A5
:1053C000084320701021A3480391405E0421CD437F
:1053D000A14F3946563100230A794E793602B21868
:1053E000891C6D1D122B02D85B1C9042F4DA5823E5
:1053F000FB5C3E46583676783602F318984232DD2A
:105400008023FB5C3E46803676783602F31898425D
:1054100038DA0B7849780902CB18D11AC21A05205C
:10542000504307F077FF4019C1B22420484334228B
:105430008A498A5C0B4634335B781B029A184243D4
:105440002E23CA54834DAE8B70430876030ECB7661
:10545000030C8B76030A4B76130E2E31CB70130C94
:105460008B702B463DE02E217C4A00205054D07694
:105470009076507610762E32D07090705070754BBA
:105480009E8B30E0FF20E030395C38184078C00750
:10549000C10D7048868BE12000013422002908D01C
:1054A0006E498A5C0B4634335B781B029A182438A9
:1054B00006E06A498A5C0B4634335B781B029A1813
:1054C00042432E23CA5470430876030ECB76030C56
:1054D0008B76030A4B76130E2E31CB70130C8B7028
:1054E0005C4B120A4A70E06526866C25595BE185A3
:1054F0005B490978E172E1210C01214607F0E8FEE1
:1055000081B2B1420AD93046604354490876020E4E
:10551000CA76020C8A76000A487600E006464D48B4
:105520004683FEF75DF82E204C4E305C31462E311E
:105530004A78120210188A78C97809028918090471
:105540000818214607F0E6FE82B23421715C33462A
:1055500034335B781B0259188A420A4600D8024647
:1055600032203254100A33463233587092B27D20C2
:105570000001504307F0ACFE0A30410888B28208AF
:10558000F92A0DD3FF20E030395C38184078C00785
:10559000C00D304B02D0188B40053DD564203CE057
:1055A000092834D8FF22E032BB5CBB185C782402A7
:1055B000E4042CD502932120C0003C5C38184078CC
:1055C0000002001944421620224B1B5E0020A34219
:1055D00020DA74231F4CE35A0193039C1D4B1C5F7C
:1055E000019B9C421B4B18DB012420030390B85CF9
:1055F000029A5278120210180290C8B20A2107F0DB
:1056000067FE0399029A0A4204D0204602E00A216A
:1056100007F05EFE0F4B00E06320362170543636F3
:10562000000A7070585F11210901795C884203DC1F
:10563000198B01220A431A83FF211231795C8842B7
:1056400003DC188B04990843188305B0F0BDC046ED
:10565000C80200206005002000E400008C02002049
:105660000004002080B5762004F018FA80BD80B5D3
:10567000772004F013FA80BDF0B585B0FA480088B1
:10568000810600D4EEE14104E1200001002901D5AA
:10569000024600E00122FB4904920A80FA490A8A84
:1056A00017B2FA4DAB8C9F421DDD2B785B1C2B7023
:1056B000DBB2032B06D300232B70AA84EB8A0124D0
:1056C0001C43EC82EB8C9F4212DA6B785B1C6B7094
:1056D000DBB2032B0ED300236B70EA84EA8A01232A
:1056E0001343EB8206E000232B70EB8C9F42ECDB34
:1056F00000226A700A8BD2062AD516228B5E9AB2D5
:105700002C8DA3421DDDAC78641CAC70E4B2032C7C
:1057100006D30024AC702A85EC8A01262643EE824B
:105720006C8DA34212DAEB785B1CEB70DBB2032BBF
:105730000ED30023EB706A85EA8A01231343EB82C0
:1057400006E00024AC706C8DA342ECDB0022EA7012
:105750000A8B920662D5CE4A1288AB8D9A421DD929
:105760002B795B1C2B71DBB2032B06D300232B712F
:10577000AA85EB8A01241C43EC82EB8D9A4212D25B
:105780006B795B1C6B71DBB2032B0ED300236B7147
:10579000EA85EA8A01231343EB8206E000232B719A
:1057A000EB8D9A42ECD300226A711E228A5E2B8E08
:1057B000002B00D15B42002A13D5D417161966407E
:1057C0009E420EDDAB795B1CAB71DBB2032B0AD3BF
:1057D0000023AB7152422A86EA8A01231343EB82EB
:1057E00001E00022AA7160228A5ED317D4185C40BF
:1057F0006B8E9C4210DDEB795B1CEB71DBB2032BF3
:105800000CD30023EB71EB8A01241C43EC82D313ED
:10581000D2185A406A8601E00022EA713422AB565F
:105820009C4C247864B29C421EDD2B7A5B1C2B724C
:10583000DBB2032B06D3AC5400222A72EA8A01237E
:105840001343EB823522AB569C4213DA6B7A5B1C16
:105850006B72DBB2032B0FD3AC5400226A72EA8A5C
:1058600001231343EB8207E000222A723522AB5654
:105870009C42EBDB00226A7201943623EC56864A86
:10588000127852B2A2421EDDAC7A641CAC72E4B251
:10589000032C06D3EA540023AB72EB8A01241C4389
:1058A000EC823723EC56A24213DAEC7A641CEC72D9
:1058B000E4B2032C0FD3EA540022EA72EA8A0123ED
:1058C0001343EB8207E00023AB723723EC56A2426E
:1058D000EBDB0022EA727022895E5422AB5E9942B1
:1058E0000DDA2B7B5B1C2B73DBB2032B09D3A95284
:1058F00000212973E98A01220A43EA8201E000219A
:105900002973664A664909880CB2002C05D4012126
:1059100003974026264005D106E09179039740265B
:10592000264001D05D49C979C9B2EA895118E98197
:105930008FB2049907F0CCFC874208D30021E9819B
:10594000696C491C6964E98A01220A43EA82A1B2AE
:105950000291CD214900514F7A5C791849780902AA
:105960008A1803999142019C1CDD029909B2002911
:1059700003D40123002E03D103E0BB79002E00D015
:10598000FB79D9B26B8A5918698289B283B299427C
:1059900008D300216982E96C491CE964E98A012382
:1059A0000B43EB82672189007B569C423DDD0299C7
:1059B0000CB2002C03D40121002E03D103E0B979ED
:1059C000002E00D0F979C9B22F8A7918298289B2BC
:1059D00080B2814208D300212982A96C491CA964A4
:1059E000E98A01270F43EF82039991422B4F1CDD77
:1059F0000199994219DD002C03D40121002E03D115
:105A000003E0B979002E00D0F979C9B2AA8A5118F9
:105A1000A98289B2814208D30020A882286D401C47
:105A20002865E88A01210143E982E88AC00702D19A
:105A30000020A86116E0029800B2002804D40120DA
:105A40000499002E04D104E0B8790499002E00D006
:105A5000F879C0B2AA691418AC61124807F038FC92
:105A6000844203D205B0F0BD6A020020E88A022118
:105A70000143E9820020A861E88A01218843E88285
:105A800005B0F0BD0C000020600500204803002098
:105A9000240A0020000400201404002000E4000078
:105AA0006C020020A08C000010B5EF495948088016
:105AB00077204202EB4CE2611078FF2808D156486B
:105AC00008803B208202E2611078FF2800D18DE03F
:105AD000104610300A80E06102782021625422468C
:105AE00020324378537083789370C378D3700379EE
:105AF00013714379537183799371C379D371037AA5
:105B00001372437A5372837A9372C37AD372037B8C
:105B10001373437B5373837B9373C37BD373037C74
:105B20001374437C5374837C9374C37CD374037D5C
:105B30001375437D5375837D9375C37DD375037E44
:105B40001376437E5376837E9376C37ED376037F2C
:105B50001377437F5377837F9377C37FD377415CFA
:105B60004022A154014620314A784123E2548A78E8
:105B70004223E254CA784323E2540A794423E2548C
:105B80004A794523E2548A794623E254CA79472365
:105B9000E2540A7A4823E2544A7A4923E2548A7A40
:105BA0004A23E254CA7A4B23E2540A7B4C23E25440
:105BB0004A7B4D23E2548A7B4E23E254CA7B4F2317
:105BC000E2540A7C5023E2544A7C5123E2548A7CFA
:105BD0005223E254CA7C5323E2540A7D5423E254F4
:105BE000497D5522A1543630E06110BD9F48E061E7
:105BF000204620303621FAF70CFE35201E21215494
:105C0000372021540548E08560857D204001E084EF
:105C100010BDC04600EEFFFF00ECFFFF10270000A4
:105C200070B582B03B2084028E4DEC612078FF2855
:105C30001DD0772040028C490880E8610178FF2957
:105C400019D0762003F02AFF288C8849884204D195
:105C5000E88A08210143E98209E0421C2A84EB8A90
:105C600008261E43EE828A4201D0801C2884EC6103
:105C70007D4804802046017CFF2900D0ADE0417CB6
:105C8000FF2900D0A9E0817CFF2900D0A5E0C17CDC
:105C9000FF2900D0A1E0017DFF2900D09DE0417DDA
:105CA000FF2900D099E0817DFF2900D095E0C17DDA
:105CB000FF2900D091E0017EFF2900D08DE0417ED8
:105CC000FF2900D089E0817EFF2900D085E0C17ED8
:105CD000FF2900D081E0017FFF297ED1417FFF298C
:105CE0007BD1817FFF2978D1C17FFF2975D1014602
:105CF00020310A78FF2A70D14A78FF2A6DD18A783C
:105D0000FF2A6AD1CA78FF2A67D10A79FF2A64D1AB
:105D10004A79FF2A61D18A79FF2A5ED1CA79FF2A9E
:105D20005BD10A7AFF2A58D14A7AFF2A55D18A7A5A
:105D3000FF2A52D1CA7AFF2A4FD10A7BFF2A4CD1BF
:105D40004A7BFF2A49D18A7BFF2A46D1CA7BFF2A98
:105D500043D10A7CFF2A40D14A7CFF2A3DD18A7C6C
:105D6000FF2A3AD1CA7CFF2A37D10A7DFF2A34D1D3
:105D70004A7DFF2A31D18A7DFF2A2ED1CA7DFF2A92
:105D80002BD10A7EFF2A28D14A7EFF2A25D18A7E7E
:105D9000FF2A22D1CA7EFF2A1FD10A7FFF2A1CD1E7
:105DA0004A7FFF2A19D18A7FFF2A16D1C97FFF298E
:105DB00013D1014640310A78FF2A0ED14A78FF2AD2
:105DC0000BD18A78FF2A08D1CA78FF2A05D10A792F
:105DD000FF2A02D14979FF2911D0694608220A70A9
:105DE0000178FF2907D117218902401880B269463E
:105DF000012203F0A1FE0024204602B070BD103045
:105E000017218C02001980B229462031362203F076
:105E100093FE01A8A0210170E8690178FF2905D14E
:105E2000001980B201A9012203F086FEE88A00076A
:105E30000DD4E88A01244007DED5762003F02EFE3B
:105E4000E88A04218843E882204602B070BD7720AA
